{
  "_format": "hh-sol-artifact-1",
  "contractName": "PostManagement",
  "sourceName": "contracts/PostManagement.sol",
  "abi": [
    {
      "inputs": [],
      "stateMutability": "nonpayable",
      "type": "constructor"
    },
    {
      "anonymous": false,
      "inputs": [
        {
          "indexed": true,
          "internalType": "address",
          "name": "recipient",
          "type": "address"
        },
        {
          "indexed": true,
          "internalType": "uint256",
          "name": "postId",
          "type": "uint256"
        }
      ],
      "name": "AddPost",
      "type": "event"
    },
    {
      "anonymous": false,
      "inputs": [
        {
          "indexed": true,
          "internalType": "address",
          "name": "owner",
          "type": "address"
        },
        {
          "indexed": true,
          "internalType": "address",
          "name": "approved",
          "type": "address"
        },
        {
          "indexed": true,
          "internalType": "uint256",
          "name": "tokenId",
          "type": "uint256"
        }
      ],
      "name": "Approval",
      "type": "event"
    },
    {
      "anonymous": false,
      "inputs": [
        {
          "indexed": true,
          "internalType": "address",
          "name": "owner",
          "type": "address"
        },
        {
          "indexed": true,
          "internalType": "address",
          "name": "operator",
          "type": "address"
        },
        {
          "indexed": false,
          "internalType": "bool",
          "name": "approved",
          "type": "bool"
        }
      ],
      "name": "ApprovalForAll",
      "type": "event"
    },
    {
      "anonymous": false,
      "inputs": [
        {
          "indexed": true,
          "internalType": "address",
          "name": "follower",
          "type": "address"
        },
        {
          "indexed": true,
          "internalType": "address",
          "name": "sender",
          "type": "address"
        },
        {
          "indexed": true,
          "internalType": "uint256",
          "name": "postId",
          "type": "uint256"
        }
      ],
      "name": "BuyPostEvent",
      "type": "event"
    },
    {
      "anonymous": false,
      "inputs": [
        {
          "indexed": true,
          "internalType": "address",
          "name": "follower",
          "type": "address"
        },
        {
          "indexed": true,
          "internalType": "address",
          "name": "sender",
          "type": "address"
        },
        {
          "indexed": true,
          "internalType": "uint256",
          "name": "postId",
          "type": "uint256"
        }
      ],
      "name": "CancelPostEvent",
      "type": "event"
    },
    {
      "anonymous": false,
      "inputs": [
        {
          "indexed": true,
          "internalType": "uint256",
          "name": "postId",
          "type": "uint256"
        },
        {
          "indexed": false,
          "internalType": "bool",
          "name": "isDeleted",
          "type": "bool"
        }
      ],
      "name": "DeletePost",
      "type": "event"
    },
    {
      "anonymous": false,
      "inputs": [
        {
          "indexed": true,
          "internalType": "address",
          "name": "sender",
          "type": "address"
        },
        {
          "indexed": true,
          "internalType": "uint256",
          "name": "postId",
          "type": "uint256"
        }
      ],
      "name": "DislikePost",
      "type": "event"
    },
    {
      "anonymous": false,
      "inputs": [
        {
          "indexed": true,
          "internalType": "address",
          "name": "sender",
          "type": "address"
        },
        {
          "indexed": true,
          "internalType": "uint256",
          "name": "postId",
          "type": "uint256"
        }
      ],
      "name": "LikePost",
      "type": "event"
    },
    {
      "anonymous": false,
      "inputs": [
        {
          "indexed": true,
          "internalType": "address",
          "name": "follower",
          "type": "address"
        },
        {
          "indexed": true,
          "internalType": "address",
          "name": "sender",
          "type": "address"
        },
        {
          "indexed": true,
          "internalType": "uint256",
          "name": "postId",
          "type": "uint256"
        }
      ],
      "name": "ListPostEvent",
      "type": "event"
    },
    {
      "anonymous": false,
      "inputs": [
        {
          "indexed": true,
          "internalType": "address",
          "name": "follower",
          "type": "address"
        },
        {
          "indexed": true,
          "internalType": "address",
          "name": "sender",
          "type": "address"
        },
        {
          "indexed": true,
          "internalType": "uint256",
          "name": "postId",
          "type": "uint256"
        }
      ],
      "name": "NewPostForFollower",
      "type": "event"
    },
    {
      "anonymous": false,
      "inputs": [
        {
          "indexed": true,
          "internalType": "uint256",
          "name": "postId",
          "type": "uint256"
        },
        {
          "indexed": true,
          "internalType": "address",
          "name": "liker",
          "type": "address"
        }
      ],
      "name": "PostLiked",
      "type": "event"
    },
    {
      "anonymous": false,
      "inputs": [
        {
          "indexed": true,
          "internalType": "uint256",
          "name": "postId",
          "type": "uint256"
        },
        {
          "indexed": true,
          "internalType": "address",
          "name": "reporter",
          "type": "address"
        },
        {
          "indexed": false,
          "internalType": "string",
          "name": "reason",
          "type": "string"
        }
      ],
      "name": "PostReported",
      "type": "event"
    },
    {
      "anonymous": false,
      "inputs": [
        {
          "indexed": true,
          "internalType": "uint256",
          "name": "postId",
          "type": "uint256"
        },
        {
          "indexed": true,
          "internalType": "address",
          "name": "unliker",
          "type": "address"
        }
      ],
      "name": "PostUnliked",
      "type": "event"
    },
    {
      "anonymous": false,
      "inputs": [
        {
          "indexed": true,
          "internalType": "address",
          "name": "sender",
          "type": "address"
        },
        {
          "indexed": true,
          "internalType": "uint256",
          "name": "postId",
          "type": "uint256"
        },
        {
          "indexed": false,
          "internalType": "uint256",
          "name": "tipAmount",
          "type": "uint256"
        }
      ],
      "name": "TipPost",
      "type": "event"
    },
    {
      "anonymous": false,
      "inputs": [
        {
          "indexed": true,
          "internalType": "address",
          "name": "from",
          "type": "address"
        },
        {
          "indexed": true,
          "internalType": "address",
          "name": "to",
          "type": "address"
        },
        {
          "indexed": true,
          "internalType": "uint256",
          "name": "tokenId",
          "type": "uint256"
        }
      ],
      "name": "Transfer",
      "type": "event"
    },
    {
      "anonymous": false,
      "inputs": [
        {
          "indexed": true,
          "internalType": "address",
          "name": "sender",
          "type": "address"
        },
        {
          "indexed": true,
          "internalType": "uint256",
          "name": "postId",
          "type": "uint256"
        }
      ],
      "name": "ViewPost",
      "type": "event"
    },
    {
      "inputs": [
        {
          "internalType": "uint256",
          "name": "_postId",
          "type": "uint256"
        },
        {
          "internalType": "string",
          "name": "_commentText",
          "type": "string"
        }
      ],
      "name": "addComment",
      "outputs": [],
      "stateMutability": "nonpayable",
      "type": "function"
    },
    {
      "inputs": [
        {
          "internalType": "string",
          "name": "ip",
          "type": "string"
        },
        {
          "internalType": "uint16",
          "name": "port",
          "type": "uint16"
        }
      ],
      "name": "addGatekeeper",
      "outputs": [],
      "stateMutability": "nonpayable",
      "type": "function"
    },
    {
      "inputs": [
        {
          "internalType": "string",
          "name": "_postText",
          "type": "string"
        },
        {
          "internalType": "uint256",
          "name": "_viewPrice",
          "type": "uint256"
        }
      ],
      "name": "addPost",
      "outputs": [],
      "stateMutability": "payable",
      "type": "function"
    },
    {
      "inputs": [
        {
          "internalType": "address",
          "name": "to",
          "type": "address"
        },
        {
          "internalType": "uint256",
          "name": "tokenId",
          "type": "uint256"
        }
      ],
      "name": "approve",
      "outputs": [],
      "stateMutability": "nonpayable",
      "type": "function"
    },
    {
      "inputs": [
        {
          "internalType": "address",
          "name": "owner",
          "type": "address"
        }
      ],
      "name": "balanceOf",
      "outputs": [
        {
          "internalType": "uint256",
          "name": "",
          "type": "uint256"
        }
      ],
      "stateMutability": "view",
      "type": "function"
    },
    {
      "inputs": [
        {
          "internalType": "uint256",
          "name": "postId",
          "type": "uint256"
        }
      ],
      "name": "buyPost",
      "outputs": [],
      "stateMutability": "payable",
      "type": "function"
    },
    {
      "inputs": [
        {
          "internalType": "uint256",
          "name": "postId",
          "type": "uint256"
        }
      ],
      "name": "cancelListing",
      "outputs": [],
      "stateMutability": "nonpayable",
      "type": "function"
    },
    {
      "inputs": [
        {
          "internalType": "uint256",
          "name": "postId",
          "type": "uint256"
        }
      ],
      "name": "deletePost",
      "outputs": [],
      "stateMutability": "nonpayable",
      "type": "function"
    },
    {
      "inputs": [
        {
          "internalType": "uint256",
          "name": "_postId",
          "type": "uint256"
        },
        {
          "internalType": "string",
          "name": "_newPostText",
          "type": "string"
        },
        {
          "internalType": "uint256",
          "name": "_newPrice",
          "type": "uint256"
        }
      ],
      "name": "editPost",
      "outputs": [],
      "stateMutability": "nonpayable",
      "type": "function"
    },
    {
      "inputs": [
        {
          "internalType": "address",
          "name": "_user",
          "type": "address"
        }
      ],
      "name": "followUser",
      "outputs": [],
      "stateMutability": "nonpayable",
      "type": "function"
    },
    {
      "inputs": [
        {
          "internalType": "address",
          "name": "",
          "type": "address"
        },
        {
          "internalType": "address",
          "name": "",
          "type": "address"
        }
      ],
      "name": "followers",
      "outputs": [
        {
          "internalType": "bool",
          "name": "",
          "type": "bool"
        }
      ],
      "stateMutability": "view",
      "type": "function"
    },
    {
      "inputs": [
        {
          "internalType": "uint256",
          "name": "",
          "type": "uint256"
        }
      ],
      "name": "gatekeepers",
      "outputs": [
        {
          "internalType": "string",
          "name": "ip",
          "type": "string"
        },
        {
          "internalType": "uint16",
          "name": "port",
          "type": "uint16"
        }
      ],
      "stateMutability": "view",
      "type": "function"
    },
    {
      "inputs": [],
      "name": "getAllPosts",
      "outputs": [
        {
          "components": [
            {
              "internalType": "uint256",
              "name": "id",
              "type": "uint256"
            },
            {
              "internalType": "address payable",
              "name": "username",
              "type": "address"
            },
            {
              "internalType": "string",
              "name": "postText",
              "type": "string"
            },
            {
              "internalType": "uint256",
              "name": "viewPrice",
              "type": "uint256"
            },
            {
              "internalType": "bool",
              "name": "isDeleted",
              "type": "bool"
            },
            {
              "internalType": "uint256",
              "name": "likes",
              "type": "uint256"
            },
            {
              "internalType": "uint256",
              "name": "dislikes",
              "type": "uint256"
            },
            {
              "internalType": "enum DataTypes.Visibility",
              "name": "visibility",
              "type": "uint8"
            },
            {
              "components": [
                {
                  "internalType": "uint256",
                  "name": "id",
                  "type": "uint256"
                },
                {
                  "internalType": "address payable",
                  "name": "commenter",
                  "type": "address"
                },
                {
                  "internalType": "string",
                  "name": "commentText",
                  "type": "string"
                }
              ],
              "internalType": "struct DataTypes.Comment[]",
              "name": "comments",
              "type": "tuple[]"
            },
            {
              "components": [
                {
                  "internalType": "uint256",
                  "name": "id",
                  "type": "uint256"
                },
                {
                  "internalType": "address",
                  "name": "reporter",
                  "type": "address"
                },
                {
                  "internalType": "string",
                  "name": "reason",
                  "type": "string"
                }
              ],
              "internalType": "struct DataTypes.Report[]",
              "name": "reports",
              "type": "tuple[]"
            },
            {
              "internalType": "address[]",
              "name": "userWhoPaid",
              "type": "address[]"
            },
            {
              "internalType": "bool",
              "name": "hasListed",
              "type": "bool"
            },
            {
              "internalType": "uint256",
              "name": "listPrice",
              "type": "uint256"
            }
          ],
          "internalType": "struct DataTypes.Post[]",
          "name": "",
          "type": "tuple[]"
        }
      ],
      "stateMutability": "view",
      "type": "function"
    },
    {
      "inputs": [
        {
          "internalType": "uint256",
          "name": "tokenId",
          "type": "uint256"
        }
      ],
      "name": "getApproved",
      "outputs": [
        {
          "internalType": "address",
          "name": "",
          "type": "address"
        }
      ],
      "stateMutability": "view",
      "type": "function"
    },
    {
      "inputs": [],
      "name": "getFollowedUsersPosts",
      "outputs": [
        {
          "components": [
            {
              "internalType": "uint256",
              "name": "id",
              "type": "uint256"
            },
            {
              "internalType": "address payable",
              "name": "username",
              "type": "address"
            },
            {
              "internalType": "string",
              "name": "postText",
              "type": "string"
            },
            {
              "internalType": "uint256",
              "name": "viewPrice",
              "type": "uint256"
            },
            {
              "internalType": "bool",
              "name": "isDeleted",
              "type": "bool"
            },
            {
              "internalType": "uint256",
              "name": "likes",
              "type": "uint256"
            },
            {
              "internalType": "uint256",
              "name": "dislikes",
              "type": "uint256"
            },
            {
              "internalType": "enum DataTypes.Visibility",
              "name": "visibility",
              "type": "uint8"
            },
            {
              "components": [
                {
                  "internalType": "uint256",
                  "name": "id",
                  "type": "uint256"
                },
                {
                  "internalType": "address payable",
                  "name": "commenter",
                  "type": "address"
                },
                {
                  "internalType": "string",
                  "name": "commentText",
                  "type": "string"
                }
              ],
              "internalType": "struct DataTypes.Comment[]",
              "name": "comments",
              "type": "tuple[]"
            },
            {
              "components": [
                {
                  "internalType": "uint256",
                  "name": "id",
                  "type": "uint256"
                },
                {
                  "internalType": "address",
                  "name": "reporter",
                  "type": "address"
                },
                {
                  "internalType": "string",
                  "name": "reason",
                  "type": "string"
                }
              ],
              "internalType": "struct DataTypes.Report[]",
              "name": "reports",
              "type": "tuple[]"
            },
            {
              "internalType": "address[]",
              "name": "userWhoPaid",
              "type": "address[]"
            },
            {
              "internalType": "bool",
              "name": "hasListed",
              "type": "bool"
            },
            {
              "internalType": "uint256",
              "name": "listPrice",
              "type": "uint256"
            }
          ],
          "internalType": "struct DataTypes.Post[]",
          "name": "",
          "type": "tuple[]"
        }
      ],
      "stateMutability": "view",
      "type": "function"
    },
    {
      "inputs": [
        {
          "internalType": "address",
          "name": "user",
          "type": "address"
        }
      ],
      "name": "getFollowers",
      "outputs": [
        {
          "internalType": "address[]",
          "name": "",
          "type": "address[]"
        }
      ],
      "stateMutability": "view",
      "type": "function"
    },
    {
      "inputs": [
        {
          "internalType": "uint256",
          "name": "index",
          "type": "uint256"
        }
      ],
      "name": "getGatekeeper",
      "outputs": [
        {
          "internalType": "string",
          "name": "ip",
          "type": "string"
        },
        {
          "internalType": "uint16",
          "name": "port",
          "type": "uint16"
        }
      ],
      "stateMutability": "view",
      "type": "function"
    },
    {
      "inputs": [],
      "name": "getGatekeepersCount",
      "outputs": [
        {
          "internalType": "uint256",
          "name": "",
          "type": "uint256"
        }
      ],
      "stateMutability": "view",
      "type": "function"
    },
    {
      "inputs": [
        {
          "internalType": "uint256",
          "name": "postId",
          "type": "uint256"
        }
      ],
      "name": "getLikesForPost",
      "outputs": [
        {
          "internalType": "uint256",
          "name": "",
          "type": "uint256"
        }
      ],
      "stateMutability": "view",
      "type": "function"
    },
    {
      "inputs": [
        {
          "internalType": "uint256",
          "name": "postId",
          "type": "uint256"
        }
      ],
      "name": "getListPrice",
      "outputs": [
        {
          "internalType": "uint256",
          "name": "",
          "type": "uint256"
        }
      ],
      "stateMutability": "view",
      "type": "function"
    },
    {
      "inputs": [],
      "name": "getMyPosts",
      "outputs": [
        {
          "components": [
            {
              "internalType": "uint256",
              "name": "id",
              "type": "uint256"
            },
            {
              "internalType": "address payable",
              "name": "username",
              "type": "address"
            },
            {
              "internalType": "string",
              "name": "postText",
              "type": "string"
            },
            {
              "internalType": "uint256",
              "name": "viewPrice",
              "type": "uint256"
            },
            {
              "internalType": "bool",
              "name": "isDeleted",
              "type": "bool"
            },
            {
              "internalType": "uint256",
              "name": "likes",
              "type": "uint256"
            },
            {
              "internalType": "uint256",
              "name": "dislikes",
              "type": "uint256"
            },
            {
              "internalType": "enum DataTypes.Visibility",
              "name": "visibility",
              "type": "uint8"
            },
            {
              "components": [
                {
                  "internalType": "uint256",
                  "name": "id",
                  "type": "uint256"
                },
                {
                  "internalType": "address payable",
                  "name": "commenter",
                  "type": "address"
                },
                {
                  "internalType": "string",
                  "name": "commentText",
                  "type": "string"
                }
              ],
              "internalType": "struct DataTypes.Comment[]",
              "name": "comments",
              "type": "tuple[]"
            },
            {
              "components": [
                {
                  "internalType": "uint256",
                  "name": "id",
                  "type": "uint256"
                },
                {
                  "internalType": "address",
                  "name": "reporter",
                  "type": "address"
                },
                {
                  "internalType": "string",
                  "name": "reason",
                  "type": "string"
                }
              ],
              "internalType": "struct DataTypes.Report[]",
              "name": "reports",
              "type": "tuple[]"
            },
            {
              "internalType": "address[]",
              "name": "userWhoPaid",
              "type": "address[]"
            },
            {
              "internalType": "bool",
              "name": "hasListed",
              "type": "bool"
            },
            {
              "internalType": "uint256",
              "name": "listPrice",
              "type": "uint256"
            }
          ],
          "internalType": "struct DataTypes.Post[]",
          "name": "",
          "type": "tuple[]"
        }
      ],
      "stateMutability": "view",
      "type": "function"
    },
    {
      "inputs": [
        {
          "internalType": "uint256",
          "name": "_postId",
          "type": "uint256"
        }
      ],
      "name": "getOwnerName",
      "outputs": [
        {
          "internalType": "address",
          "name": "",
          "type": "address"
        }
      ],
      "stateMutability": "view",
      "type": "function"
    },
    {
      "inputs": [
        {
          "internalType": "uint256",
          "name": "postId",
          "type": "uint256"
        }
      ],
      "name": "getPaidUsersByPostId",
      "outputs": [
        {
          "internalType": "address[]",
          "name": "",
          "type": "address[]"
        }
      ],
      "stateMutability": "view",
      "type": "function"
    },
    {
      "inputs": [
        {
          "internalType": "uint256",
          "name": "_postId",
          "type": "uint256"
        }
      ],
      "name": "getPostComments",
      "outputs": [
        {
          "components": [
            {
              "internalType": "uint256",
              "name": "id",
              "type": "uint256"
            },
            {
              "internalType": "address payable",
              "name": "commenter",
              "type": "address"
            },
            {
              "internalType": "string",
              "name": "commentText",
              "type": "string"
            }
          ],
          "internalType": "struct DataTypes.Comment[]",
          "name": "",
          "type": "tuple[]"
        }
      ],
      "stateMutability": "view",
      "type": "function"
    },
    {
      "inputs": [
        {
          "internalType": "uint256",
          "name": "postId",
          "type": "uint256"
        }
      ],
      "name": "getReportsForPost",
      "outputs": [
        {
          "components": [
            {
              "internalType": "uint256",
              "name": "id",
              "type": "uint256"
            },
            {
              "internalType": "address",
              "name": "reporter",
              "type": "address"
            },
            {
              "internalType": "string",
              "name": "reason",
              "type": "string"
            }
          ],
          "internalType": "struct DataTypes.Report[]",
          "name": "",
          "type": "tuple[]"
        }
      ],
      "stateMutability": "view",
      "type": "function"
    },
    {
      "inputs": [
        {
          "internalType": "uint256",
          "name": "_id",
          "type": "uint256"
        }
      ],
      "name": "getSinglePost",
      "outputs": [
        {
          "components": [
            {
              "internalType": "uint256",
              "name": "id",
              "type": "uint256"
            },
            {
              "internalType": "address payable",
              "name": "username",
              "type": "address"
            },
            {
              "internalType": "string",
              "name": "postText",
              "type": "string"
            },
            {
              "internalType": "uint256",
              "name": "viewPrice",
              "type": "uint256"
            },
            {
              "internalType": "bool",
              "name": "isDeleted",
              "type": "bool"
            },
            {
              "internalType": "uint256",
              "name": "likes",
              "type": "uint256"
            },
            {
              "internalType": "uint256",
              "name": "dislikes",
              "type": "uint256"
            },
            {
              "internalType": "enum DataTypes.Visibility",
              "name": "visibility",
              "type": "uint8"
            },
            {
              "components": [
                {
                  "internalType": "uint256",
                  "name": "id",
                  "type": "uint256"
                },
                {
                  "internalType": "address payable",
                  "name": "commenter",
                  "type": "address"
                },
                {
                  "internalType": "string",
                  "name": "commentText",
                  "type": "string"
                }
              ],
              "internalType": "struct DataTypes.Comment[]",
              "name": "comments",
              "type": "tuple[]"
            },
            {
              "components": [
                {
                  "internalType": "uint256",
                  "name": "id",
                  "type": "uint256"
                },
                {
                  "internalType": "address",
                  "name": "reporter",
                  "type": "address"
                },
                {
                  "internalType": "string",
                  "name": "reason",
                  "type": "string"
                }
              ],
              "internalType": "struct DataTypes.Report[]",
              "name": "reports",
              "type": "tuple[]"
            },
            {
              "internalType": "address[]",
              "name": "userWhoPaid",
              "type": "address[]"
            },
            {
              "internalType": "bool",
              "name": "hasListed",
              "type": "bool"
            },
            {
              "internalType": "uint256",
              "name": "listPrice",
              "type": "uint256"
            }
          ],
          "internalType": "struct DataTypes.Post",
          "name": "",
          "type": "tuple"
        }
      ],
      "stateMutability": "view",
      "type": "function"
    },
    {
      "inputs": [
        {
          "internalType": "address",
          "name": "",
          "type": "address"
        }
      ],
      "name": "hasAddedGatekeeper",
      "outputs": [
        {
          "internalType": "bool",
          "name": "",
          "type": "bool"
        }
      ],
      "stateMutability": "view",
      "type": "function"
    },
    {
      "inputs": [
        {
          "internalType": "uint256",
          "name": "postId",
          "type": "uint256"
        },
        {
          "internalType": "address",
          "name": "user",
          "type": "address"
        }
      ],
      "name": "hasUserPaidForPost",
      "outputs": [
        {
          "internalType": "bool",
          "name": "",
          "type": "bool"
        }
      ],
      "stateMutability": "view",
      "type": "function"
    },
    {
      "inputs": [
        {
          "internalType": "address",
          "name": "owner",
          "type": "address"
        },
        {
          "internalType": "address",
          "name": "operator",
          "type": "address"
        }
      ],
      "name": "isApprovedForAll",
      "outputs": [
        {
          "internalType": "bool",
          "name": "",
          "type": "bool"
        }
      ],
      "stateMutability": "view",
      "type": "function"
    },
    {
      "inputs": [
        {
          "internalType": "address",
          "name": "_follower",
          "type": "address"
        },
        {
          "internalType": "address",
          "name": "_following",
          "type": "address"
        }
      ],
      "name": "isFollowing",
      "outputs": [
        {
          "internalType": "bool",
          "name": "",
          "type": "bool"
        }
      ],
      "stateMutability": "view",
      "type": "function"
    },
    {
      "inputs": [
        {
          "internalType": "uint256",
          "name": "postId",
          "type": "uint256"
        }
      ],
      "name": "likePost",
      "outputs": [],
      "stateMutability": "nonpayable",
      "type": "function"
    },
    {
      "inputs": [
        {
          "internalType": "uint256",
          "name": "postId",
          "type": "uint256"
        },
        {
          "internalType": "uint256",
          "name": "_listPrice",
          "type": "uint256"
        }
      ],
      "name": "listPost",
      "outputs": [],
      "stateMutability": "nonpayable",
      "type": "function"
    },
    {
      "inputs": [],
      "name": "name",
      "outputs": [
        {
          "internalType": "string",
          "name": "",
          "type": "string"
        }
      ],
      "stateMutability": "view",
      "type": "function"
    },
    {
      "inputs": [
        {
          "internalType": "uint256",
          "name": "tokenId",
          "type": "uint256"
        }
      ],
      "name": "ownerOf",
      "outputs": [
        {
          "internalType": "address",
          "name": "",
          "type": "address"
        }
      ],
      "stateMutability": "view",
      "type": "function"
    },
    {
      "inputs": [],
      "name": "postCounter",
      "outputs": [
        {
          "internalType": "uint256",
          "name": "",
          "type": "uint256"
        }
      ],
      "stateMutability": "view",
      "type": "function"
    },
    {
      "inputs": [
        {
          "internalType": "uint256",
          "name": "",
          "type": "uint256"
        },
        {
          "internalType": "address",
          "name": "",
          "type": "address"
        }
      ],
      "name": "postReports",
      "outputs": [
        {
          "internalType": "bool",
          "name": "",
          "type": "bool"
        }
      ],
      "stateMutability": "view",
      "type": "function"
    },
    {
      "inputs": [
        {
          "internalType": "uint256",
          "name": "",
          "type": "uint256"
        }
      ],
      "name": "posts",
      "outputs": [
        {
          "internalType": "uint256",
          "name": "id",
          "type": "uint256"
        },
        {
          "internalType": "address payable",
          "name": "username",
          "type": "address"
        },
        {
          "internalType": "string",
          "name": "postText",
          "type": "string"
        },
        {
          "internalType": "uint256",
          "name": "viewPrice",
          "type": "uint256"
        },
        {
          "internalType": "bool",
          "name": "isDeleted",
          "type": "bool"
        },
        {
          "internalType": "uint256",
          "name": "likes",
          "type": "uint256"
        },
        {
          "internalType": "uint256",
          "name": "dislikes",
          "type": "uint256"
        },
        {
          "internalType": "enum DataTypes.Visibility",
          "name": "visibility",
          "type": "uint8"
        },
        {
          "internalType": "bool",
          "name": "hasListed",
          "type": "bool"
        },
        {
          "internalType": "uint256",
          "name": "listPrice",
          "type": "uint256"
        }
      ],
      "stateMutability": "view",
      "type": "function"
    },
    {
      "inputs": [
        {
          "internalType": "uint256",
          "name": "postId",
          "type": "uint256"
        },
        {
          "internalType": "string",
          "name": "reason",
          "type": "string"
        }
      ],
      "name": "reportPost",
      "outputs": [],
      "stateMutability": "nonpayable",
      "type": "function"
    },
    {
      "inputs": [
        {
          "internalType": "address",
          "name": "from",
          "type": "address"
        },
        {
          "internalType": "address",
          "name": "to",
          "type": "address"
        },
        {
          "internalType": "uint256",
          "name": "tokenId",
          "type": "uint256"
        }
      ],
      "name": "safeTransferFrom",
      "outputs": [],
      "stateMutability": "nonpayable",
      "type": "function"
    },
    {
      "inputs": [
        {
          "internalType": "address",
          "name": "from",
          "type": "address"
        },
        {
          "internalType": "address",
          "name": "to",
          "type": "address"
        },
        {
          "internalType": "uint256",
          "name": "tokenId",
          "type": "uint256"
        },
        {
          "internalType": "bytes",
          "name": "data",
          "type": "bytes"
        }
      ],
      "name": "safeTransferFrom",
      "outputs": [],
      "stateMutability": "nonpayable",
      "type": "function"
    },
    {
      "inputs": [
        {
          "internalType": "address",
          "name": "operator",
          "type": "address"
        },
        {
          "internalType": "bool",
          "name": "approved",
          "type": "bool"
        }
      ],
      "name": "setApprovalForAll",
      "outputs": [],
      "stateMutability": "nonpayable",
      "type": "function"
    },
    {
      "inputs": [
        {
          "internalType": "bytes4",
          "name": "interfaceId",
          "type": "bytes4"
        }
      ],
      "name": "supportsInterface",
      "outputs": [
        {
          "internalType": "bool",
          "name": "",
          "type": "bool"
        }
      ],
      "stateMutability": "view",
      "type": "function"
    },
    {
      "inputs": [],
      "name": "symbol",
      "outputs": [
        {
          "internalType": "string",
          "name": "",
          "type": "string"
        }
      ],
      "stateMutability": "view",
      "type": "function"
    },
    {
      "inputs": [
        {
          "internalType": "uint256",
          "name": "tokenId",
          "type": "uint256"
        }
      ],
      "name": "tokenURI",
      "outputs": [
        {
          "internalType": "string",
          "name": "",
          "type": "string"
        }
      ],
      "stateMutability": "view",
      "type": "function"
    },
    {
      "inputs": [
        {
          "internalType": "address",
          "name": "from",
          "type": "address"
        },
        {
          "internalType": "address",
          "name": "to",
          "type": "address"
        },
        {
          "internalType": "uint256",
          "name": "tokenId",
          "type": "uint256"
        }
      ],
      "name": "transferFrom",
      "outputs": [],
      "stateMutability": "nonpayable",
      "type": "function"
    },
    {
      "inputs": [
        {
          "internalType": "address",
          "name": "_user",
          "type": "address"
        }
      ],
      "name": "unfollowUser",
      "outputs": [],
      "stateMutability": "nonpayable",
      "type": "function"
    },
    {
      "inputs": [
        {
          "internalType": "uint256",
          "name": "postId",
          "type": "uint256"
        }
      ],
      "name": "unlikePost",
      "outputs": [],
      "stateMutability": "nonpayable",
      "type": "function"
    },
    {
      "inputs": [
        {
          "internalType": "uint256",
          "name": "postId",
          "type": "uint256"
        }
      ],
      "name": "viewPaidPost",
      "outputs": [],
      "stateMutability": "payable",
      "type": "function"
    }
  ],
  "bytecode": "0x60806040523480156200001157600080fd5b5060405180604001604052806007815260200166141bdcdd13919560ca1b815250604051806040016040528060048152602001631413919560e21b81525081600090816200006091906200011f565b5060016200006f82826200011f565b505050620001eb565b634e487b7160e01b600052604160045260246000fd5b600181811c90821680620000a357607f821691505b602082108103620000c457634e487b7160e01b600052602260045260246000fd5b50919050565b601f8211156200011a576000816000526020600020601f850160051c81016020861015620000f55750805b601f850160051c820191505b81811015620001165782815560010162000101565b5050505b505050565b81516001600160401b038111156200013b576200013b62000078565b62000153816200014c84546200008e565b84620000ca565b602080601f8311600181146200018b5760008415620001725750858301515b600019600386901b1c1916600185901b17855562000116565b600085815260208120601f198616915b82811015620001bc578886015182559484019460019091019084016200019b565b5085821015620001db5787850151600019600388901b60f8161c191681555b5050505050600190811b01905550565b61418280620001fb6000396000f3fe6080604052600436106102235760003560e01c806301ffc9a71461022857806306fdde031461025d578063081812fc1461027f578063094cd5ee146102b7578063095ea7b3146102d957806309b3d75e146102f95780630a37b0bc1461031d5780630b1e7f831461034a5780630b3ea7e21461038057806323b872dd146103955780632d68a76c146103b55780632fa67338146103e557806330561100146103f8578063305a67a81461041a57806342842e0e1461043a5780634b7224551461045a5780635950eb5b1461047a5780636352211e1461048f57806366ea76d5146104af578063676ab3b2146104c257806370987be1146104f057806370a0823114610505578063725009d314610525578063789db68a146105455780637ef94bce146105655780638230c4fb1461058557806386be9250146105be5780638cfbc01f146105de57806395d89b41146105f157806399ec3a4214610606578063a22cb4651461064f578063a32f63e71461066f578063a70806f71461068f578063aa7e5683146106af578063ad88881b146106cf578063b446aa011461070a578063b86e6f091461072a578063b88d4fde14610757578063b8b73ac314610777578063c2fe2022146107a7578063c87b56dd146107c7578063d524ff76146107e7578063df3ecbd214610814578063e985e9c51461084f578063f107cfcb1461086f578063fa188de91461088f578063fa269246146108af578063ffc5d7df146108df575b600080fd5b34801561023457600080fd5b50610248610243366004613517565b6108ff565b60405190151581526020015b60405180910390f35b34801561026957600080fd5b50610272610951565b6040516102549190613584565b34801561028b57600080fd5b5061029f61029a366004613597565b6109e3565b6040516001600160a01b039091168152602001610254565b3480156102c357600080fd5b506102d76102d2366004613597565b610a0a565b005b3480156102e557600080fd5b506102d76102f43660046135cc565b610aa4565b34801561030557600080fd5b5061030f60065481565b604051908152602001610254565b34801561032957600080fd5b5061033d610338366004613597565b610bb9565b60405161025491906135f6565b34801561035657600080fd5b5061036a610365366004613597565b610c28565b6040516102549a9998979695949392919061367b565b34801561038c57600080fd5b50600a5461030f565b3480156103a157600080fd5b506102d76103b03660046136ea565b610d13565b3480156103c157600080fd5b5061030f6103d0366004613597565b6000908152600760205260409020600c015490565b6102d76103f3366004613597565b610d44565b34801561040457600080fd5b5061040d610f4d565b60405161025491906138ed565b34801561042657600080fd5b506102d7610435366004613597565b610f5f565b34801561044657600080fd5b506102d76104553660046136ea565b611095565b34801561046657600080fd5b506102d76104753660046139fc565b6110b0565b34801561048657600080fd5b5061040d6111bf565b34801561049b57600080fd5b5061029f6104aa366004613597565b6111cc565b6102d76104bd366004613a54565b611200565b3480156104ce57600080fd5b506104e26104dd366004613597565b611322565b604051610254929190613a98565b3480156104fc57600080fd5b5061040d611405565b34801561051157600080fd5b5061030f610520366004613abe565b611412565b34801561053157600080fd5b506102d7610540366004613597565b611498565b34801561055157600080fd5b506102d7610560366004613ad9565b6114ea565b34801561057157600080fd5b506102d7610580366004613b28565b6115f2565b34801561059157600080fd5b5061029f6105a0366004613597565b6000908152600760205260409020600101546001600160a01b031690565b3480156105ca57600080fd5b506102486105d9366004613b6e565b6117bb565b6102d76105ec366004613597565b611868565b3480156105fd57600080fd5b506102726119de565b34801561061257600080fd5b50610248610621366004613b9a565b6001600160a01b03918216600090815260096020908152604080832093909416825291909152205460ff1690565b34801561065b57600080fd5b506102d761066a366004613bc4565b6119ed565b34801561067b57600080fd5b506104e261068a366004613597565b6119fc565b34801561069b57600080fd5b506102d76106aa366004613abe565b611abc565b3480156106bb57600080fd5b506102d76106ca366004613b28565b611b6e565b3480156106db57600080fd5b506102486106ea366004613b9a565b600960209081526000928352604080842090915290825290205460ff1681565b34801561071657600080fd5b506102d7610725366004613bf5565b611c4c565b34801561073657600080fd5b5061074a610745366004613597565b611d79565b6040516102549190613c17565b34801561076357600080fd5b506102d7610772366004613c2a565b6121cc565b34801561078357600080fd5b5061030f610792366004613597565b60009081526007602052604090206005015490565b3480156107b357600080fd5b5061033d6107c2366004613abe565b6121fe565b3480156107d357600080fd5b506102726107e2366004613597565b6123be565b3480156107f357600080fd5b50610807610802366004613597565b612432565b6040516102549190613ca5565b34801561082057600080fd5b5061024861082f366004613b6e565b600860209081526000928352604080842090915290825290205460ff1681565b34801561085b57600080fd5b5061024861086a366004613b9a565b612559565b34801561087b57600080fd5b506102d761088a366004613abe565b612587565b34801561089b57600080fd5b506102d76108aa366004613597565b61260a565b3480156108bb57600080fd5b506102486108ca366004613abe565b600b6020526000908152604090205460ff1681565b3480156108eb57600080fd5b506108076108fa366004613597565b6126ae565b60006001600160e01b031982166380ac58cd60e01b148061093057506001600160e01b03198216635b5e139f60e01b145b8061094b57506301ffc9a760e01b6001600160e01b03198316145b92915050565b60606000805461096090613cb8565b80601f016020809104026020016040519081016040528092919081815260200182805461098c90613cb8565b80156109d95780601f106109ae576101008083540402835291602001916109d9565b820191906000526020600020905b8154815290600101906020018083116109bc57829003601f168201915b5050505050905090565b60006109ee826127ca565b506000908152600460205260409020546001600160a01b031690565b6000818152600760205260409020600101546001600160a01b03163314610a4c5760405162461bcd60e51b8152600401610a4390613cf2565b60405180910390fd5b600081815260076020908152604091829020600401805460ff19166001908117909155915191825282917f50de60758261258765d60f3764f52b012fb4289c1120010bf8b34f7a7976f815910160405180910390a250565b6000610aaf826111cc565b9050806001600160a01b0316836001600160a01b031603610b1c5760405162461bcd60e51b815260206004820152602160248201527f4552433732313a20617070726f76616c20746f2063757272656e74206f776e656044820152603960f91b6064820152608401610a43565b336001600160a01b0382161480610b385750610b388133612559565b610baa5760405162461bcd60e51b815260206004820152603d60248201527f4552433732313a20617070726f76652063616c6c6572206973206e6f7420746f60448201527f6b656e206f776e6572206f7220617070726f76656420666f7220616c6c0000006064820152608401610a43565b610bb483836127f2565b505050565b600081815260076020908152604091829020600a01805483518184028101840190945280845260609392830182828015610c1c57602002820191906000526020600020905b81546001600160a01b03168152600190910190602001808311610bfe575b50505050509050919050565b60076020526000908152604090208054600182015460028301805492936001600160a01b0390921692610c5a90613cb8565b80601f0160208091040260200160405190810160405280929190818152602001828054610c8690613cb8565b8015610cd35780601f10610ca857610100808354040283529160200191610cd3565b820191906000526020600020905b815481529060010190602001808311610cb657829003601f168201915b50505060038401546004850154600586015460068701546007880154600b890154600c909901549798949760ff948516975092955090939083169216908a565b610d1d3382612860565b610d395760405162461bcd60e51b8152600401610a4390613d33565b610bb48383836128bf565b6000818152600760205260409020600b015460ff16610daf5760405162461bcd60e51b815260206004820152602160248201527f5468697320706f7374206973206e6f74206c697374656420666f722073616c656044820152601760f91b6064820152608401610a43565b600081815260076020526040902060010154336001600160a01b0390911603610e1a5760405162461bcd60e51b815260206004820152601d60248201527f596f752063616e6e6f742062757920796f7572206f776e20706f73742e0000006044820152606401610a43565b6000818152600760205260408082206001015490516001600160a01b0390911691339183913480156108fc02929091818181858888f19350505050158015610e66573d6000803e3d6000fd5b50610e728282856128bf565b60008381526007602090815260408220600180820180546001600160a01b038088166001600160a01b031992831617909255600a840180549384018155865293852090910180549187169190931617909155848252600b8101805460ff19169055600c01819055610ee2336121fe565b905060005b8151811015610f46576000828281518110610f0457610f04613d80565b6020026020010151905085336001600160a01b0316826001600160a01b03166000805160206140ed83398151915260405160405180910390a450600101610ee7565b5050505050565b6060610f5a600080612a11565b905090565b6000818152600760205260409020600101546001600160a01b03163314610f985760405162461bcd60e51b8152600401610a4390613d96565b6000818152600760205260409020600b015460ff161515600114610ff65760405162461bcd60e51b8152602060048201526015602482015274139bdd081b1a5cdd1959081cdbc81d4818d85b89dd605a1b6044820152606401610a43565b6000818152600760205260408120600b8101805460ff19169055600c0181905561101f336121fe565b905060005b8151811015610bb457600082828151811061104157611041613d80565b6020026020010151905083336001600160a01b0316826001600160a01b03167f256c6f8fb6d6cf809bf9adb7c5e148b1ca95f4a804b1e62e7c969fa625fb037c60405160405180910390a450600101611024565b610bb4838383604051806020016040528060008152506121cc565b336000908152600b602052604090205460ff16156111245760405162461bcd60e51b815260206004820152602b60248201527f5468697320616464726573732068617320616c7265616479206164646564206160448201526a1033b0ba32b5b2b2b832b960a91b6064820152608401610a43565b6040805180820190915282815261ffff82166020820152600a8054600181018255600091909152815160029091027fc65a7bb8d6351c1cf70c95a316cc6a92839c986682d98bc35f958f4883f9d2a8019081906111819082613e23565b506020918201516001918201805461ffff191661ffff909216919091179055336000908152600b9092526040909120805460ff191690911790555050565b6060610f5a336000612a11565b6000806111d883612fea565b90506001600160a01b03811661094b5760405162461bcd60e51b8152600401610a4390613ee2565b6006805490600061121083613f2a565b909155505060065460008181526007602052604090208181556001810180546001600160a01b031916331790556002810161124b8582613e23565b506003810183905560048101805460ff19908116909155600b8201805490911690556000600c82015561127e3383613005565b604051829033907f211310f5bdfd60139328b0e0b1235a8d92df3ccfc99b9b80da0d81cbac493aea90600090a360006112b6336121fe565b905060005b815181101561131a5760008282815181106112d8576112d8613d80565b6020026020010151905084336001600160a01b0316826001600160a01b031660008051602061410d83398151915260405160405180910390a4506001016112bb565b505050505050565b6060600080600a848154811061133a5761133a613d80565b906000526020600020906002020160405180604001604052908160008201805461136390613cb8565b80601f016020809104026020016040519081016040528092919081815260200182805461138f90613cb8565b80156113dc5780601f106113b1576101008083540402835291602001916113dc565b820191906000526020600020905b8154815290600101906020018083116113bf57829003601f168201915b50505091835250506001919091015461ffff166020918201528151910151909590945092505050565b6060610f5a336001612a11565b60006001600160a01b03821661147c5760405162461bcd60e51b815260206004820152602960248201527f4552433732313a2061646472657373207a65726f206973206e6f7420612076616044820152683634b21037bbb732b960b91b6064820152608401610a43565b506001600160a01b031660009081526003602052604090205490565b60008181526007602052604081206005018054916114b583613f2a565b9091555050604051339082907fcf765d6f163c9b0d832e2a94f4c8e9bffd32a2c3ca5fdbb8cc67b5fe1441f41390600090a350565b6000838152600760205260409020600101546001600160a01b031633146115235760405162461bcd60e51b8152600401610a4390613cf2565b60008381526007602052604090206004015460ff16156115555760405162461bcd60e51b8152600401610a4390613f43565b60008381526007602052604090206002016115708382613e23565b50600083815260076020526040812060030182905561158e336121fe565b905060005b8151811015610f465760008282815181106115b0576115b0613d80565b6020026020010151905085336001600160a01b0316826001600160a01b031660008051602061410d83398151915260405160405180910390a450600101611593565b600082815260076020526040902060010154336001600160a01b039091160361165d5760405162461bcd60e51b815260206004820181905260248201527f596f752063616e6e6f74207265706f727420796f7572206f776e20706f73742e6044820152606401610a43565b6000828152600c6020908152604080832033845290915290205460ff16156116d35760405162461bcd60e51b8152602060048201526024808201527f596f75206861766520616c7265616479207265706f727465642074686973207060448201526337b9ba1760e11b6064820152608401610a43565b6040805160608101825260008481526007602081815284832060090180548086523383870190815296860188815293835260018082018355918552919093208451600390920201908155935191840180546001600160a01b0319166001600160a01b0390931692909217909155519091829160028201906117549082613e23565b5050506000838152600c6020908152604080832033808552925291829020805460ff19166001179055905184907f52445589f146589c7ef4b77e2a66d0492b4addd046b14551af597215c4334746906117ae908690613584565b60405180910390a3505050565b6000828152600760205260408120600101546001600160a01b038084169116036117e75750600161094b565b60005b6000848152600760205260409020600a015481101561185e576000848152600760205260409020600a0180546001600160a01b03851691908390811061183257611832613d80565b6000918252602090912001546001600160a01b03160361185657600191505061094b565b6001016117ea565b5060009392505050565b60008181526007602052604090206004015460ff16156118bc5760405162461bcd60e51b815260206004820152600f60248201526e1c1bdcdd081a5cc819195b195d1959608a1b6044820152606401610a43565b600081815260076020526040902060010154336001600160a01b03909116036119335760405162461bcd60e51b8152602060048201526024808201527f596f752063616e6e6f742070617920746f207669657720796f7572206f776e206044820152631c1bdcdd60e21b6064820152608401610a43565b6000818152600760205260408082206001015490516001600160a01b03909116913480156108fc02929091818181858888f1935050505015801561197b573d6000803e3d6000fd5b506000818152600760209081526040808320600a01805460018101825590845291832090910180546001600160a01b03191633908117909155905183927fca0f87217b959f6345bff657040723570f1dd514ddceba1730ba67c2c080153a91a350565b60606001805461096090613cb8565b6119f8338383613100565b5050565b600a8181548110611a0c57600080fd5b9060005260206000209060020201600091509050806000018054611a2f90613cb8565b80601f0160208091040260200160405190810160405280929190818152602001828054611a5b90613cb8565b8015611aa85780601f10611a7d57610100808354040283529160200191611aa8565b820191906000526020600020905b815481529060010190602001808311611a8b57829003601f168201915b5050506001909301549192505061ffff1682565b336001600160a01b03821603611b115760405162461bcd60e51b815260206004820152601a6024820152792cb7ba9031b0b73737ba103337b63637bb903cb7bab939b2b63360311b6044820152606401610a43565b6001600160a01b0316600081815260096020908152604080832033808552908352818420805460ff19166001908117909155948452600d8352908320805494850181558352912090910180546001600160a01b0319169091179055565b60008281526007602052604090206004015460ff1615611ba05760405162461bcd60e51b8152600401610a4390613f43565b60408051606080820183526000808352602083015291810191909152600083815260076020526040902060080154611bd9906001613f6c565b81523360208083019182526040808401858152600087815260078452918220600801805460018082018355918452939092208551600390940201928355925190820180546001600160a01b0319166001600160a01b039092169190911790559051829190600282019061131a9082613e23565b6000828152600760205260409020600101546001600160a01b03163314611c855760405162461bcd60e51b8152600401610a4390613d96565b6000828152600760205260409020600b015460ff1615611ce35760405162461bcd60e51b8152602060048201526019602482015278105b1c9958591e481b1a5cdd1959081cdbc81d4818d85b89dd603a1b6044820152606401610a43565b6000828152600760205260408120600b8101805460ff19166001179055600c01829055611d0f336121fe565b905060005b8151811015611d73576000828281518110611d3157611d31613d80565b6020026020010151905084336001600160a01b0316826001600160a01b03166000805160206140ed83398151915260405160405180910390a450600101611d14565b50505050565b611d8161347b565b600082118015611d9357506006548211155b8015611db1575060008281526007602052604090206004015460ff16155b611dfb5760405162461bcd60e51b815260206004820152601b60248201527a141bdcdd081259081a5cc81ddc9bdb99c81bdc8819195b195d1959602a1b6044820152606401610a43565b60008281526007602090815260409182902082516101a0810184528154815260018201546001600160a01b0316928101929092526002810180549293919291840191611e4690613cb8565b80601f0160208091040260200160405190810160405280929190818152602001828054611e7290613cb8565b8015611ebf5780601f10611e9457610100808354040283529160200191611ebf565b820191906000526020600020905b815481529060010190602001808311611ea257829003601f168201915b505050918352505060038201546020820152600482015460ff908116151560408301526005830154606083015260068301546080830152600783015460a090920191166002811115611f1357611f13613643565b6002811115611f2457611f24613643565b815260200160088201805480602002602001604051908101604052809291908181526020016000905b8282101561203157600084815260209081902060408051606081018252600386029092018054835260018101546001600160a01b03169383019390935260028301805492939291840191611fa090613cb8565b80601f0160208091040260200160405190810160405280929190818152602001828054611fcc90613cb8565b80156120195780601f10611fee57610100808354040283529160200191612019565b820191906000526020600020905b815481529060010190602001808311611ffc57829003601f168201915b50505050508152505081526020019060010190611f4d565b50505050815260200160098201805480602002602001604051908101604052809291908181526020016000905b8282101561214257600084815260209081902060408051606081018252600386029092018054835260018101546001600160a01b031693830193909352600283018054929392918401916120b190613cb8565b80601f01602080910402602001604051908101604052809291908181526020018280546120dd90613cb8565b801561212a5780601f106120ff5761010080835404028352916020019161212a565b820191906000526020600020905b81548152906001019060200180831161210d57829003601f168201915b5050505050815250508152602001906001019061205e565b505050508152602001600a82018054806020026020016040519081016040528092919081815260200182805480156121a357602002820191906000526020600020905b81546001600160a01b03168152600190910190602001808311612185575b5050509183525050600b82015460ff1615156020820152600c9091015460409091015292915050565b6121d63383612860565b6121f25760405162461bcd60e51b8152600401610a4390613d33565b611d73848484846131c2565b60606000805b6001600160a01b0384166000908152600d60205260409020548110156122a1576001600160a01b0384166000908152600d6020526040812080548390811061224e5761224e613d80565b60009182526020808320909101546001600160a01b0388811684526009835260408085209190921680855292529091205490915060ff1615612298578261229481613f2a565b9350505b50600101612204565b506000816001600160401b038111156122bc576122bc613951565b6040519080825280602002602001820160405280156122e5578160200160208202803683370190505b5090506000805b6001600160a01b0386166000908152600d60205260409020548110156123b4576001600160a01b0386166000908152600d6020526040812080548390811061233657612336613d80565b60009182526020808320909101546001600160a01b038a811684526009835260408085209190921680855292529091205490915060ff16156123ab578084848151811061238557612385613d80565b6001600160a01b0390921660209283029190910190910152826123a781613f2a565b9350505b506001016122ec565b5090949350505050565b60606123c9826127ca565b60006123e060408051602081019091526000815290565b90506000815111612400576040518060200160405280600081525061242b565b8061240a846131f5565b60405160200161241b929190613f7f565b6040516020818303038152906040525b9392505050565b606060076000838152602001908152602001600020600801805480602002602001604051908101604052809291908181526020016000905b8282101561254e57600084815260209081902060408051606081018252600386029092018054835260018101546001600160a01b031693830193909352600283018054929392918401916124bd90613cb8565b80601f01602080910402602001604051908101604052809291908181526020018280546124e990613cb8565b80156125365780601f1061250b57610100808354040283529160200191612536565b820191906000526020600020905b81548152906001019060200180831161251957829003601f168201915b5050505050815250508152602001906001019061246a565b505050509050919050565b6001600160a01b03918216600090815260056020908152604080832093909416825291909152205460ff1690565b336001600160a01b038216036125de5760405162461bcd60e51b815260206004820152601c60248201527b2cb7ba9031b0b73737ba103ab73337b63637bb903cb7bab939b2b63360211b6044820152606401610a43565b6001600160a01b031660009081526009602090815260408083203384529091529020805460ff19169055565b60008181526007602052604090206005015461265c5760405162461bcd60e51b8152602060048201526011602482015270506f737420686173206e6f206c696b657360781b6044820152606401610a43565b600081815260076020526040812060050180549161267983613fae565b9091555050604051339082907f82092d1196022c48d901e5dc4b17451dbce942b8a9ded42fc6f2a4a5e8fd89b990600090a350565b606060076000838152602001908152602001600020600901805480602002602001604051908101604052809291908181526020016000905b8282101561254e57600084815260209081902060408051606081018252600386029092018054835260018101546001600160a01b0316938301939093526002830180549293929184019161273990613cb8565b80601f016020809104026020016040519081016040528092919081815260200182805461276590613cb8565b80156127b25780601f10612787576101008083540402835291602001916127b2565b820191906000526020600020905b81548152906001019060200180831161279557829003601f168201915b505050505081525050815260200190600101906126e6565b6127d381613287565b6127ef5760405162461bcd60e51b8152600401610a4390613ee2565b50565b600081815260046020526040902080546001600160a01b0319166001600160a01b0384169081179091558190612827826111cc565b6001600160a01b03167f8c5be1e5ebec7d5bd14f71427d1e84f3dd0314c0f7b2291e5b200ac8c7c3b92560405160405180910390a45050565b60008061286c836111cc565b9050806001600160a01b0316846001600160a01b0316148061289357506128938185612559565b806128b75750836001600160a01b03166128ac846109e3565b6001600160a01b0316145b949350505050565b826001600160a01b03166128d2826111cc565b6001600160a01b0316146128f85760405162461bcd60e51b8152600401610a4390613fc5565b6001600160a01b03821661295a5760405162461bcd60e51b8152602060048201526024808201527f4552433732313a207472616e7366657220746f20746865207a65726f206164646044820152637265737360e01b6064820152608401610a43565b826001600160a01b031661296d826111cc565b6001600160a01b0316146129935760405162461bcd60e51b8152600401610a4390613fc5565b600081815260046020908152604080832080546001600160a01b03199081169091556001600160a01b03878116808652600385528386208054600019019055908716808652838620805460010190558686526002909452828520805490921684179091559051849360008051602061412d83398151915291a4505050565b6060600060015b6006548111612ad85760008181526007602052604090206004015460ff16158015612ab357506001600160a01b0385161580612a7057506000818152600760205260409020600101546001600160a01b038681169116145b80612ab35750838015612ab3575033600090815260096020908152604080832084845260078352818420600101546001600160a01b0316845290915290205460ff165b15612ac65781612ac281613f2a565b9250505b80612ad081613f2a565b915050612a18565b506000816001600160401b03811115612af357612af3613951565b604051908082528060200260200182016040528015612b2c57816020015b612b1961347b565b815260200190600190039081612b115790505b509050600060015b6006548111612fdf5760008181526007602052604090206004015460ff16158015612bcf57506001600160a01b0387161580612b8c57506000818152600760205260409020600101546001600160a01b038881169116145b80612bcf5750858015612bcf575033600090815260096020908152604080832084845260078352818420600101546001600160a01b0316845290915290205460ff165b15612fcd5760008181526007602090815260409182902082516101a0810184528154815260018201546001600160a01b0316928101929092526002810180549293919291840191612c1f90613cb8565b80601f0160208091040260200160405190810160405280929190818152602001828054612c4b90613cb8565b8015612c985780601f10612c6d57610100808354040283529160200191612c98565b820191906000526020600020905b815481529060010190602001808311612c7b57829003601f168201915b505050918352505060038201546020820152600482015460ff908116151560408301526005830154606083015260068301546080830152600783015460a090920191166002811115612cec57612cec613643565b6002811115612cfd57612cfd613643565b815260200160088201805480602002602001604051908101604052809291908181526020016000905b82821015612e0a57600084815260209081902060408051606081018252600386029092018054835260018101546001600160a01b03169383019390935260028301805492939291840191612d7990613cb8565b80601f0160208091040260200160405190810160405280929190818152602001828054612da590613cb8565b8015612df25780601f10612dc757610100808354040283529160200191612df2565b820191906000526020600020905b815481529060010190602001808311612dd557829003601f168201915b50505050508152505081526020019060010190612d26565b50505050815260200160098201805480602002602001604051908101604052809291908181526020016000905b82821015612f1b57600084815260209081902060408051606081018252600386029092018054835260018101546001600160a01b03169383019390935260028301805492939291840191612e8a90613cb8565b80601f0160208091040260200160405190810160405280929190818152602001828054612eb690613cb8565b8015612f035780601f10612ed857610100808354040283529160200191612f03565b820191906000526020600020905b815481529060010190602001808311612ee657829003601f168201915b50505050508152505081526020019060010190612e37565b505050508152602001600a8201805480602002602001604051908101604052809291908181526020018280548015612f7c57602002820191906000526020600020905b81546001600160a01b03168152600190910190602001808311612f5e575b5050509183525050600b82015460ff1615156020820152600c909101546040909101528351849084908110612fb357612fb3613d80565b60200260200101819052508180612fc990613f2a565b9250505b80612fd781613f2a565b915050612b34565b509095945050505050565b6000908152600260205260409020546001600160a01b031690565b6001600160a01b03821661305b5760405162461bcd60e51b815260206004820181905260248201527f4552433732313a206d696e7420746f20746865207a65726f20616464726573736044820152606401610a43565b61306481613287565b156130815760405162461bcd60e51b8152600401610a439061400a565b61308a81613287565b156130a75760405162461bcd60e51b8152600401610a439061400a565b6001600160a01b038216600081815260036020908152604080832080546001019055848352600290915280822080546001600160a01b03191684179055518392919060008051602061412d833981519152908290a45050565b816001600160a01b0316836001600160a01b03160361315d5760405162461bcd60e51b815260206004820152601960248201527822a9219b99189d1030b8383937bb32903a379031b0b63632b960391b6044820152606401610a43565b6001600160a01b03838116600081815260056020908152604080832094871680845294825291829020805460ff191686151590811790915591519182527f17307eab39ab6107e8899845ad3d59bd9653f200f220920489ca2b5937696c3191016117ae565b6131cd8484846128bf565b6131d9848484846132a4565b611d735760405162461bcd60e51b8152600401610a4390614040565b60606000613202836133a5565b60010190506000816001600160401b0381111561322157613221613951565b6040519080825280601f01601f19166020018201604052801561324b576020820181803683370190505b5090508181016020015b600019016f181899199a1a9b1b9c1cb0b131b232b360811b600a86061a8153600a850494508461325557509392505050565b60008061329383612fea565b6001600160a01b0316141592915050565b60006001600160a01b0384163b1561339a57604051630a85bd0160e11b81526001600160a01b0385169063150b7a02906132e8903390899088908890600401614092565b6020604051808303816000875af1925050508015613323575060408051601f3d908101601f19168201909252613320918101906140cf565b60015b613380573d808015613351576040519150601f19603f3d011682016040523d82523d6000602084013e613356565b606091505b5080516000036133785760405162461bcd60e51b8152600401610a4390614040565b805181602001fd5b6001600160e01b031916630a85bd0160e11b1490506128b7565b506001949350505050565b60008072184f03e93ff9f4daa797ed6e38ed64bf6a1f0160401b83106133e45772184f03e93ff9f4daa797ed6e38ed64bf6a1f0160401b830492506040015b6904ee2d6d415b85acef8160201b831061340e576904ee2d6d415b85acef8160201b830492506020015b662386f26fc10000831061342c57662386f26fc10000830492506010015b6305f5e1008310613444576305f5e100830492506008015b612710831061345857612710830492506004015b6064831061346a576064830492506002015b600a831061094b5760010192915050565b604051806101a001604052806000815260200160006001600160a01b0316815260200160608152602001600081526020016000151581526020016000815260200160008152602001600060028111156134d6576134d6613643565b8152602001606081526020016060815260200160608152602001600015158152602001600081525090565b6001600160e01b0319811681146127ef57600080fd5b60006020828403121561352957600080fd5b813561242b81613501565b60005b8381101561354f578181015183820152602001613537565b50506000910152565b60008151808452613570816020860160208601613534565b601f01601f19169290920160200192915050565b60208152600061242b6020830184613558565b6000602082840312156135a957600080fd5b5035919050565b80356001600160a01b03811681146135c757600080fd5b919050565b600080604083850312156135df57600080fd5b6135e8836135b0565b946020939093013593505050565b6020808252825182820181905260009190848201906040850190845b818110156136375783516001600160a01b031683529284019291840191600101613612565b50909695505050505050565b634e487b7160e01b600052602160045260246000fd5b6003811061367757634e487b7160e01b600052602160045260246000fd5b9052565b8a81526001600160a01b038a166020820152610140604082018190526000906136a68382018c613558565b91505088606083015287151560808301528660a08301528560c08301526136d060e0830186613659565b921515610100820152610120015298975050505050505050565b6000806000606084860312156136ff57600080fd5b613708846135b0565b9250613716602085016135b0565b9150604084013590509250925092565b600082825180855260208086019550808260051b84010181860160005b8481101561379a57858303601f19018952815180518452848101516001600160a01b03168585015260409081015160609185018290529061378681860183613558565b9a86019a9450505090830190600101613743565b5090979650505050505050565b60008151808452602080850194506020840160005b838110156137e15781516001600160a01b0316875295820195908201906001016137bc565b509495945050505050565b60006101a082518452602083015161380f60208601826001600160a01b03169052565b50604083015181604086015261382782860182613558565b915050606083015160608501526080830151613847608086018215159052565b5060a083015160a085015260c083015160c085015260e083015161386e60e0860182613659565b5061010080840151858303828701526138878382613726565b9250505061012080840151858303828701526138a38382613726565b9250505061014080840151858303828701526138bf83826137a7565b92505050610160808401516138d78287018215159052565b5050610180928301519390920192909252919050565b600060208083016020845280855180835260408601915060408160051b87010192506020870160005b8281101561394457603f198886030184526139328583516137ec565b94509285019290850190600101613916565b5092979650505050505050565b634e487b7160e01b600052604160045260246000fd5b60006001600160401b038084111561398157613981613951565b604051601f8501601f19908116603f011681019082821181831017156139a9576139a9613951565b816040528093508581528686860111156139c257600080fd5b858560208301376000602087830101525050509392505050565b600082601f8301126139ed57600080fd5b61242b83833560208501613967565b60008060408385031215613a0f57600080fd5b82356001600160401b03811115613a2557600080fd5b613a31858286016139dc565b925050602083013561ffff81168114613a4957600080fd5b809150509250929050565b60008060408385031215613a6757600080fd5b82356001600160401b03811115613a7d57600080fd5b613a89858286016139dc565b95602094909401359450505050565b604081526000613aab6040830185613558565b905061ffff831660208301529392505050565b600060208284031215613ad057600080fd5b61242b826135b0565b600080600060608486031215613aee57600080fd5b8335925060208401356001600160401b03811115613b0b57600080fd5b613b17868287016139dc565b925050604084013590509250925092565b60008060408385031215613b3b57600080fd5b8235915060208301356001600160401b03811115613b5857600080fd5b613b64858286016139dc565b9150509250929050565b60008060408385031215613b8157600080fd5b82359150613b91602084016135b0565b90509250929050565b60008060408385031215613bad57600080fd5b613bb6836135b0565b9150613b91602084016135b0565b60008060408385031215613bd757600080fd5b613be0836135b0565b915060208301358015158114613a4957600080fd5b60008060408385031215613c0857600080fd5b50508035926020909101359150565b60208152600061242b60208301846137ec565b60008060008060808587031215613c4057600080fd5b613c49856135b0565b9350613c57602086016135b0565b92506040850135915060608501356001600160401b03811115613c7957600080fd5b8501601f81018713613c8a57600080fd5b613c9987823560208401613967565b91505092959194509250565b60208152600061242b6020830184613726565b600181811c90821680613ccc57607f821691505b602082108103613cec57634e487b7160e01b600052602260045260246000fd5b50919050565b60208082526021908201527f596f7520617265206e6f7420746865206f776e6572206f662074686520706f736040820152601d60fa1b606082015260800190565b6020808252602d908201527f4552433732313a2063616c6c6572206973206e6f7420746f6b656e206f776e6560408201526c1c881bdc88185c1c1c9bdd9959609a1b606082015260800190565b634e487b7160e01b600052603260045260246000fd5b60208082526025908201527f596f7520617265206e6f7420746865206f776e657220736f20752063616e2774604082015264081b1a5cdd60da1b606082015260800190565b601f821115610bb4576000816000526020600020601f850160051c81016020861015613e045750805b601f850160051c820191505b8181101561131a57828155600101613e10565b81516001600160401b03811115613e3c57613e3c613951565b613e5081613e4a8454613cb8565b84613ddb565b602080601f831160018114613e855760008415613e6d5750858301515b600019600386901b1c1916600185901b17855561131a565b600085815260208120601f198616915b82811015613eb457888601518255948401946001909101908401613e95565b5085821015613ed25787850151600019600388901b60f8161c191681555b5050505050600190811b01905550565b602080825260189082015277115490cdcc8c4e881a5b9d985b1a59081d1bdad95b88125160421b604082015260600190565b634e487b7160e01b600052601160045260246000fd5b600060018201613f3c57613f3c613f14565b5060010190565b6020808252600f908201526e141bdcdd081a5cc819195b195d1959608a1b604082015260600190565b8082018082111561094b5761094b613f14565b60008351613f91818460208801613534565b835190830190613fa5818360208801613534565b01949350505050565b600081613fbd57613fbd613f14565b506000190190565b60208082526025908201527f4552433732313a207472616e736665722066726f6d20696e636f72726563742060408201526437bbb732b960d91b606082015260800190565b6020808252601c908201527b115490cdcc8c4e881d1bdad95b88185b1c9958591e481b5a5b9d195960221b604082015260600190565b60208082526032908201527f4552433732313a207472616e7366657220746f206e6f6e20455243373231526560408201527131b2b4bb32b91034b6b83632b6b2b73a32b960711b606082015260800190565b6001600160a01b03858116825284166020820152604081018390526080606082018190526000906140c590830184613558565b9695505050505050565b6000602082840312156140e157600080fd5b815161242b8161350156fe31d3ceab37a9e9f8eda503b03797fdd8f87efdf7761c7a945ad92604ff3d174e24b938973c8140b346b07674d8cb0151b0a325a29498587f93be31b90ad2aee6ddf252ad1be2c89b69c2b068fc378daa952ba7f163c4a11628f55a4df523b3efa2646970667358221220cdc12860c6cd5ce2b235a2f628fe2700411893bb3394ac32aac64d760869702f64736f6c63430008180033",
  "linkReferences": {},
  "deployedLinkReferences": {}
}