{
  "_format": "hh-sol-artifact-1",
  "contractName": "PostManagement",
  "sourceName": "contracts/PostManagement.sol",
  "abi": [
    {
      "inputs": [],
      "stateMutability": "nonpayable",
      "type": "constructor"
    },
    {
      "anonymous": false,
      "inputs": [
        {
          "indexed": true,
          "internalType": "address",
          "name": "recipient",
          "type": "address"
        },
        {
          "indexed": true,
          "internalType": "uint256",
          "name": "postId",
          "type": "uint256"
        }
      ],
      "name": "AddPost",
      "type": "event"
    },
    {
      "anonymous": false,
      "inputs": [
        {
          "indexed": true,
          "internalType": "address",
          "name": "owner",
          "type": "address"
        },
        {
          "indexed": true,
          "internalType": "address",
          "name": "approved",
          "type": "address"
        },
        {
          "indexed": true,
          "internalType": "uint256",
          "name": "tokenId",
          "type": "uint256"
        }
      ],
      "name": "Approval",
      "type": "event"
    },
    {
      "anonymous": false,
      "inputs": [
        {
          "indexed": true,
          "internalType": "address",
          "name": "owner",
          "type": "address"
        },
        {
          "indexed": true,
          "internalType": "address",
          "name": "operator",
          "type": "address"
        },
        {
          "indexed": false,
          "internalType": "bool",
          "name": "approved",
          "type": "bool"
        }
      ],
      "name": "ApprovalForAll",
      "type": "event"
    },
    {
      "anonymous": false,
      "inputs": [
        {
          "indexed": true,
          "internalType": "address",
          "name": "follower",
          "type": "address"
        },
        {
          "indexed": true,
          "internalType": "address",
          "name": "sender",
          "type": "address"
        },
        {
          "indexed": true,
          "internalType": "uint256",
          "name": "postId",
          "type": "uint256"
        }
      ],
      "name": "BuyPostEvent",
      "type": "event"
    },
    {
      "anonymous": false,
      "inputs": [
        {
          "indexed": true,
          "internalType": "address",
          "name": "follower",
          "type": "address"
        },
        {
          "indexed": true,
          "internalType": "address",
          "name": "sender",
          "type": "address"
        },
        {
          "indexed": true,
          "internalType": "uint256",
          "name": "postId",
          "type": "uint256"
        }
      ],
      "name": "CancelPostEvent",
      "type": "event"
    },
    {
      "anonymous": false,
      "inputs": [
        {
          "indexed": true,
          "internalType": "uint256",
          "name": "postId",
          "type": "uint256"
        },
        {
          "indexed": false,
          "internalType": "bool",
          "name": "isDeleted",
          "type": "bool"
        }
      ],
      "name": "DeletePost",
      "type": "event"
    },
    {
      "anonymous": false,
      "inputs": [
        {
          "indexed": true,
          "internalType": "address",
          "name": "sender",
          "type": "address"
        },
        {
          "indexed": true,
          "internalType": "uint256",
          "name": "postId",
          "type": "uint256"
        }
      ],
      "name": "DislikePost",
      "type": "event"
    },
    {
      "anonymous": false,
      "inputs": [
        {
          "indexed": true,
          "internalType": "address",
          "name": "sender",
          "type": "address"
        },
        {
          "indexed": true,
          "internalType": "uint256",
          "name": "postId",
          "type": "uint256"
        }
      ],
      "name": "LikePost",
      "type": "event"
    },
    {
      "anonymous": false,
      "inputs": [
        {
          "indexed": true,
          "internalType": "address",
          "name": "follower",
          "type": "address"
        },
        {
          "indexed": true,
          "internalType": "address",
          "name": "sender",
          "type": "address"
        },
        {
          "indexed": true,
          "internalType": "uint256",
          "name": "postId",
          "type": "uint256"
        }
      ],
      "name": "ListPostEvent",
      "type": "event"
    },
    {
      "anonymous": false,
      "inputs": [
        {
          "indexed": true,
          "internalType": "address",
          "name": "follower",
          "type": "address"
        },
        {
          "indexed": true,
          "internalType": "address",
          "name": "sender",
          "type": "address"
        },
        {
          "indexed": true,
          "internalType": "uint256",
          "name": "postId",
          "type": "uint256"
        }
      ],
      "name": "NewPostForFollower",
      "type": "event"
    },
    {
      "anonymous": false,
      "inputs": [
        {
          "indexed": false,
          "internalType": "address[]",
          "name": "followers",
          "type": "address[]"
        },
        {
          "indexed": true,
          "internalType": "address",
          "name": "sender",
          "type": "address"
        },
        {
          "indexed": true,
          "internalType": "uint256",
          "name": "postId",
          "type": "uint256"
        }
      ],
      "name": "NewPostForFollowers",
      "type": "event"
    },
    {
      "anonymous": false,
      "inputs": [
        {
          "indexed": true,
          "internalType": "uint256",
          "name": "postId",
          "type": "uint256"
        },
        {
          "indexed": true,
          "internalType": "address",
          "name": "liker",
          "type": "address"
        }
      ],
      "name": "PostLiked",
      "type": "event"
    },
    {
      "anonymous": false,
      "inputs": [
        {
          "indexed": true,
          "internalType": "uint256",
          "name": "postId",
          "type": "uint256"
        },
        {
          "indexed": true,
          "internalType": "address",
          "name": "reporter",
          "type": "address"
        },
        {
          "indexed": false,
          "internalType": "string",
          "name": "reason",
          "type": "string"
        }
      ],
      "name": "PostReported",
      "type": "event"
    },
    {
      "anonymous": false,
      "inputs": [
        {
          "indexed": true,
          "internalType": "uint256",
          "name": "postId",
          "type": "uint256"
        },
        {
          "indexed": true,
          "internalType": "address",
          "name": "unliker",
          "type": "address"
        }
      ],
      "name": "PostUnliked",
      "type": "event"
    },
    {
      "anonymous": false,
      "inputs": [
        {
          "indexed": true,
          "internalType": "address",
          "name": "sender",
          "type": "address"
        },
        {
          "indexed": true,
          "internalType": "uint256",
          "name": "postId",
          "type": "uint256"
        },
        {
          "indexed": false,
          "internalType": "uint256",
          "name": "tipAmount",
          "type": "uint256"
        }
      ],
      "name": "TipPost",
      "type": "event"
    },
    {
      "anonymous": false,
      "inputs": [
        {
          "indexed": true,
          "internalType": "address",
          "name": "from",
          "type": "address"
        },
        {
          "indexed": true,
          "internalType": "address",
          "name": "to",
          "type": "address"
        },
        {
          "indexed": true,
          "internalType": "uint256",
          "name": "tokenId",
          "type": "uint256"
        }
      ],
      "name": "Transfer",
      "type": "event"
    },
    {
      "anonymous": false,
      "inputs": [
        {
          "indexed": false,
          "internalType": "string",
          "name": "name",
          "type": "string"
        },
        {
          "indexed": false,
          "internalType": "address",
          "name": "userAddress",
          "type": "address"
        },
        {
          "indexed": false,
          "internalType": "string",
          "name": "imageUrl",
          "type": "string"
        }
      ],
      "name": "UserRegistered",
      "type": "event"
    },
    {
      "anonymous": false,
      "inputs": [
        {
          "indexed": true,
          "internalType": "address",
          "name": "sender",
          "type": "address"
        },
        {
          "indexed": true,
          "internalType": "uint256",
          "name": "postId",
          "type": "uint256"
        }
      ],
      "name": "ViewPost",
      "type": "event"
    },
    {
      "inputs": [
        {
          "internalType": "uint256",
          "name": "_postId",
          "type": "uint256"
        },
        {
          "internalType": "string",
          "name": "_commentText",
          "type": "string"
        }
      ],
      "name": "addComment",
      "outputs": [],
      "stateMutability": "nonpayable",
      "type": "function"
    },
    {
      "inputs": [
        {
          "internalType": "string",
          "name": "ip",
          "type": "string"
        },
        {
          "internalType": "uint16",
          "name": "port",
          "type": "uint16"
        }
      ],
      "name": "addGatekeeper",
      "outputs": [],
      "stateMutability": "nonpayable",
      "type": "function"
    },
    {
      "inputs": [
        {
          "internalType": "string",
          "name": "_postText",
          "type": "string"
        },
        {
          "internalType": "uint256",
          "name": "_viewPrice",
          "type": "uint256"
        }
      ],
      "name": "addPost",
      "outputs": [],
      "stateMutability": "payable",
      "type": "function"
    },
    {
      "inputs": [
        {
          "internalType": "address",
          "name": "to",
          "type": "address"
        },
        {
          "internalType": "uint256",
          "name": "tokenId",
          "type": "uint256"
        }
      ],
      "name": "approve",
      "outputs": [],
      "stateMutability": "nonpayable",
      "type": "function"
    },
    {
      "inputs": [
        {
          "internalType": "address",
          "name": "owner",
          "type": "address"
        }
      ],
      "name": "balanceOf",
      "outputs": [
        {
          "internalType": "uint256",
          "name": "",
          "type": "uint256"
        }
      ],
      "stateMutability": "view",
      "type": "function"
    },
    {
      "inputs": [
        {
          "internalType": "uint256",
          "name": "postId",
          "type": "uint256"
        }
      ],
      "name": "buyPost",
      "outputs": [],
      "stateMutability": "payable",
      "type": "function"
    },
    {
      "inputs": [
        {
          "internalType": "uint256",
          "name": "postId",
          "type": "uint256"
        }
      ],
      "name": "cancelListing",
      "outputs": [],
      "stateMutability": "nonpayable",
      "type": "function"
    },
    {
      "inputs": [
        {
          "internalType": "uint256",
          "name": "postId",
          "type": "uint256"
        }
      ],
      "name": "deletePost",
      "outputs": [],
      "stateMutability": "nonpayable",
      "type": "function"
    },
    {
      "inputs": [
        {
          "internalType": "uint256",
          "name": "_postId",
          "type": "uint256"
        },
        {
          "internalType": "string",
          "name": "_newPostText",
          "type": "string"
        },
        {
          "internalType": "uint256",
          "name": "_newPrice",
          "type": "uint256"
        }
      ],
      "name": "editPost",
      "outputs": [],
      "stateMutability": "nonpayable",
      "type": "function"
    },
    {
      "inputs": [
        {
          "internalType": "address",
          "name": "_user",
          "type": "address"
        }
      ],
      "name": "followUser",
      "outputs": [],
      "stateMutability": "nonpayable",
      "type": "function"
    },
    {
      "inputs": [
        {
          "internalType": "address",
          "name": "",
          "type": "address"
        },
        {
          "internalType": "address",
          "name": "",
          "type": "address"
        }
      ],
      "name": "followers",
      "outputs": [
        {
          "internalType": "bool",
          "name": "",
          "type": "bool"
        }
      ],
      "stateMutability": "view",
      "type": "function"
    },
    {
      "inputs": [
        {
          "internalType": "uint256",
          "name": "",
          "type": "uint256"
        }
      ],
      "name": "gatekeepers",
      "outputs": [
        {
          "internalType": "string",
          "name": "ip",
          "type": "string"
        },
        {
          "internalType": "uint16",
          "name": "port",
          "type": "uint16"
        }
      ],
      "stateMutability": "view",
      "type": "function"
    },
    {
      "inputs": [],
      "name": "getAllPosts",
      "outputs": [
        {
          "components": [
            {
              "internalType": "uint256",
              "name": "id",
              "type": "uint256"
            },
            {
              "internalType": "address payable",
              "name": "username",
              "type": "address"
            },
            {
              "internalType": "string",
              "name": "postText",
              "type": "string"
            },
            {
              "internalType": "uint256",
              "name": "viewPrice",
              "type": "uint256"
            },
            {
              "internalType": "bool",
              "name": "isDeleted",
              "type": "bool"
            },
            {
              "internalType": "uint256",
              "name": "likes",
              "type": "uint256"
            },
            {
              "internalType": "uint256",
              "name": "dislikes",
              "type": "uint256"
            },
            {
              "internalType": "enum DataTypes.Visibility",
              "name": "visibility",
              "type": "uint8"
            },
            {
              "components": [
                {
                  "internalType": "uint256",
                  "name": "id",
                  "type": "uint256"
                },
                {
                  "internalType": "address payable",
                  "name": "commenter",
                  "type": "address"
                },
                {
                  "internalType": "string",
                  "name": "commentText",
                  "type": "string"
                }
              ],
              "internalType": "struct DataTypes.Comment[]",
              "name": "comments",
              "type": "tuple[]"
            },
            {
              "components": [
                {
                  "internalType": "uint256",
                  "name": "id",
                  "type": "uint256"
                },
                {
                  "internalType": "address",
                  "name": "reporter",
                  "type": "address"
                },
                {
                  "internalType": "string",
                  "name": "reason",
                  "type": "string"
                }
              ],
              "internalType": "struct DataTypes.Report[]",
              "name": "reports",
              "type": "tuple[]"
            },
            {
              "internalType": "address[]",
              "name": "userWhoPaid",
              "type": "address[]"
            },
            {
              "internalType": "bool",
              "name": "hasListed",
              "type": "bool"
            },
            {
              "internalType": "uint256",
              "name": "listPrice",
              "type": "uint256"
            }
          ],
          "internalType": "struct DataTypes.Post[]",
          "name": "",
          "type": "tuple[]"
        }
      ],
      "stateMutability": "view",
      "type": "function"
    },
    {
      "inputs": [
        {
          "internalType": "uint256",
          "name": "tokenId",
          "type": "uint256"
        }
      ],
      "name": "getApproved",
      "outputs": [
        {
          "internalType": "address",
          "name": "",
          "type": "address"
        }
      ],
      "stateMutability": "view",
      "type": "function"
    },
    {
      "inputs": [],
      "name": "getFollowedUsersPosts",
      "outputs": [
        {
          "components": [
            {
              "internalType": "uint256",
              "name": "id",
              "type": "uint256"
            },
            {
              "internalType": "address payable",
              "name": "username",
              "type": "address"
            },
            {
              "internalType": "string",
              "name": "postText",
              "type": "string"
            },
            {
              "internalType": "uint256",
              "name": "viewPrice",
              "type": "uint256"
            },
            {
              "internalType": "bool",
              "name": "isDeleted",
              "type": "bool"
            },
            {
              "internalType": "uint256",
              "name": "likes",
              "type": "uint256"
            },
            {
              "internalType": "uint256",
              "name": "dislikes",
              "type": "uint256"
            },
            {
              "internalType": "enum DataTypes.Visibility",
              "name": "visibility",
              "type": "uint8"
            },
            {
              "components": [
                {
                  "internalType": "uint256",
                  "name": "id",
                  "type": "uint256"
                },
                {
                  "internalType": "address payable",
                  "name": "commenter",
                  "type": "address"
                },
                {
                  "internalType": "string",
                  "name": "commentText",
                  "type": "string"
                }
              ],
              "internalType": "struct DataTypes.Comment[]",
              "name": "comments",
              "type": "tuple[]"
            },
            {
              "components": [
                {
                  "internalType": "uint256",
                  "name": "id",
                  "type": "uint256"
                },
                {
                  "internalType": "address",
                  "name": "reporter",
                  "type": "address"
                },
                {
                  "internalType": "string",
                  "name": "reason",
                  "type": "string"
                }
              ],
              "internalType": "struct DataTypes.Report[]",
              "name": "reports",
              "type": "tuple[]"
            },
            {
              "internalType": "address[]",
              "name": "userWhoPaid",
              "type": "address[]"
            },
            {
              "internalType": "bool",
              "name": "hasListed",
              "type": "bool"
            },
            {
              "internalType": "uint256",
              "name": "listPrice",
              "type": "uint256"
            }
          ],
          "internalType": "struct DataTypes.Post[]",
          "name": "",
          "type": "tuple[]"
        }
      ],
      "stateMutability": "view",
      "type": "function"
    },
    {
      "inputs": [
        {
          "internalType": "address",
          "name": "user",
          "type": "address"
        }
      ],
      "name": "getFollowers",
      "outputs": [
        {
          "internalType": "address[]",
          "name": "",
          "type": "address[]"
        }
      ],
      "stateMutability": "view",
      "type": "function"
    },
    {
      "inputs": [
        {
          "internalType": "uint256",
          "name": "index",
          "type": "uint256"
        }
      ],
      "name": "getGatekeeper",
      "outputs": [
        {
          "internalType": "string",
          "name": "ip",
          "type": "string"
        },
        {
          "internalType": "uint16",
          "name": "port",
          "type": "uint16"
        }
      ],
      "stateMutability": "view",
      "type": "function"
    },
    {
      "inputs": [],
      "name": "getGatekeepersCount",
      "outputs": [
        {
          "internalType": "uint256",
          "name": "",
          "type": "uint256"
        }
      ],
      "stateMutability": "view",
      "type": "function"
    },
    {
      "inputs": [
        {
          "internalType": "uint256",
          "name": "postId",
          "type": "uint256"
        }
      ],
      "name": "getLikesForPost",
      "outputs": [
        {
          "internalType": "uint256",
          "name": "",
          "type": "uint256"
        }
      ],
      "stateMutability": "view",
      "type": "function"
    },
    {
      "inputs": [
        {
          "internalType": "uint256",
          "name": "postId",
          "type": "uint256"
        }
      ],
      "name": "getListPrice",
      "outputs": [
        {
          "internalType": "uint256",
          "name": "",
          "type": "uint256"
        }
      ],
      "stateMutability": "view",
      "type": "function"
    },
    {
      "inputs": [],
      "name": "getMyPosts",
      "outputs": [
        {
          "components": [
            {
              "internalType": "uint256",
              "name": "id",
              "type": "uint256"
            },
            {
              "internalType": "address payable",
              "name": "username",
              "type": "address"
            },
            {
              "internalType": "string",
              "name": "postText",
              "type": "string"
            },
            {
              "internalType": "uint256",
              "name": "viewPrice",
              "type": "uint256"
            },
            {
              "internalType": "bool",
              "name": "isDeleted",
              "type": "bool"
            },
            {
              "internalType": "uint256",
              "name": "likes",
              "type": "uint256"
            },
            {
              "internalType": "uint256",
              "name": "dislikes",
              "type": "uint256"
            },
            {
              "internalType": "enum DataTypes.Visibility",
              "name": "visibility",
              "type": "uint8"
            },
            {
              "components": [
                {
                  "internalType": "uint256",
                  "name": "id",
                  "type": "uint256"
                },
                {
                  "internalType": "address payable",
                  "name": "commenter",
                  "type": "address"
                },
                {
                  "internalType": "string",
                  "name": "commentText",
                  "type": "string"
                }
              ],
              "internalType": "struct DataTypes.Comment[]",
              "name": "comments",
              "type": "tuple[]"
            },
            {
              "components": [
                {
                  "internalType": "uint256",
                  "name": "id",
                  "type": "uint256"
                },
                {
                  "internalType": "address",
                  "name": "reporter",
                  "type": "address"
                },
                {
                  "internalType": "string",
                  "name": "reason",
                  "type": "string"
                }
              ],
              "internalType": "struct DataTypes.Report[]",
              "name": "reports",
              "type": "tuple[]"
            },
            {
              "internalType": "address[]",
              "name": "userWhoPaid",
              "type": "address[]"
            },
            {
              "internalType": "bool",
              "name": "hasListed",
              "type": "bool"
            },
            {
              "internalType": "uint256",
              "name": "listPrice",
              "type": "uint256"
            }
          ],
          "internalType": "struct DataTypes.Post[]",
          "name": "",
          "type": "tuple[]"
        }
      ],
      "stateMutability": "view",
      "type": "function"
    },
    {
      "inputs": [
        {
          "internalType": "uint256",
          "name": "_postId",
          "type": "uint256"
        }
      ],
      "name": "getOwnerName",
      "outputs": [
        {
          "internalType": "address",
          "name": "",
          "type": "address"
        }
      ],
      "stateMutability": "view",
      "type": "function"
    },
    {
      "inputs": [
        {
          "internalType": "uint256",
          "name": "postId",
          "type": "uint256"
        }
      ],
      "name": "getPaidUsersByPostId",
      "outputs": [
        {
          "internalType": "address[]",
          "name": "",
          "type": "address[]"
        }
      ],
      "stateMutability": "view",
      "type": "function"
    },
    {
      "inputs": [
        {
          "internalType": "uint256",
          "name": "_postId",
          "type": "uint256"
        }
      ],
      "name": "getPostComments",
      "outputs": [
        {
          "components": [
            {
              "internalType": "uint256",
              "name": "id",
              "type": "uint256"
            },
            {
              "internalType": "address payable",
              "name": "commenter",
              "type": "address"
            },
            {
              "internalType": "string",
              "name": "commentText",
              "type": "string"
            }
          ],
          "internalType": "struct DataTypes.Comment[]",
          "name": "",
          "type": "tuple[]"
        }
      ],
      "stateMutability": "view",
      "type": "function"
    },
    {
      "inputs": [
        {
          "internalType": "uint256",
          "name": "postId",
          "type": "uint256"
        }
      ],
      "name": "getReportsForPost",
      "outputs": [
        {
          "components": [
            {
              "internalType": "uint256",
              "name": "id",
              "type": "uint256"
            },
            {
              "internalType": "address",
              "name": "reporter",
              "type": "address"
            },
            {
              "internalType": "string",
              "name": "reason",
              "type": "string"
            }
          ],
          "internalType": "struct DataTypes.Report[]",
          "name": "",
          "type": "tuple[]"
        }
      ],
      "stateMutability": "view",
      "type": "function"
    },
    {
      "inputs": [
        {
          "internalType": "uint256",
          "name": "_id",
          "type": "uint256"
        }
      ],
      "name": "getSinglePost",
      "outputs": [
        {
          "components": [
            {
              "internalType": "uint256",
              "name": "id",
              "type": "uint256"
            },
            {
              "internalType": "address payable",
              "name": "username",
              "type": "address"
            },
            {
              "internalType": "string",
              "name": "postText",
              "type": "string"
            },
            {
              "internalType": "uint256",
              "name": "viewPrice",
              "type": "uint256"
            },
            {
              "internalType": "bool",
              "name": "isDeleted",
              "type": "bool"
            },
            {
              "internalType": "uint256",
              "name": "likes",
              "type": "uint256"
            },
            {
              "internalType": "uint256",
              "name": "dislikes",
              "type": "uint256"
            },
            {
              "internalType": "enum DataTypes.Visibility",
              "name": "visibility",
              "type": "uint8"
            },
            {
              "components": [
                {
                  "internalType": "uint256",
                  "name": "id",
                  "type": "uint256"
                },
                {
                  "internalType": "address payable",
                  "name": "commenter",
                  "type": "address"
                },
                {
                  "internalType": "string",
                  "name": "commentText",
                  "type": "string"
                }
              ],
              "internalType": "struct DataTypes.Comment[]",
              "name": "comments",
              "type": "tuple[]"
            },
            {
              "components": [
                {
                  "internalType": "uint256",
                  "name": "id",
                  "type": "uint256"
                },
                {
                  "internalType": "address",
                  "name": "reporter",
                  "type": "address"
                },
                {
                  "internalType": "string",
                  "name": "reason",
                  "type": "string"
                }
              ],
              "internalType": "struct DataTypes.Report[]",
              "name": "reports",
              "type": "tuple[]"
            },
            {
              "internalType": "address[]",
              "name": "userWhoPaid",
              "type": "address[]"
            },
            {
              "internalType": "bool",
              "name": "hasListed",
              "type": "bool"
            },
            {
              "internalType": "uint256",
              "name": "listPrice",
              "type": "uint256"
            }
          ],
          "internalType": "struct DataTypes.Post",
          "name": "",
          "type": "tuple"
        }
      ],
      "stateMutability": "view",
      "type": "function"
    },
    {
      "inputs": [
        {
          "internalType": "string",
          "name": "name",
          "type": "string"
        }
      ],
      "name": "getUsersByName",
      "outputs": [
        {
          "components": [
            {
              "internalType": "address",
              "name": "userAddress",
              "type": "address"
            },
            {
              "internalType": "string",
              "name": "imageUrl",
              "type": "string"
            }
          ],
          "internalType": "struct DataTypes.User[]",
          "name": "",
          "type": "tuple[]"
        }
      ],
      "stateMutability": "view",
      "type": "function"
    },
    {
      "inputs": [
        {
          "internalType": "address",
          "name": "",
          "type": "address"
        }
      ],
      "name": "hasAddedGatekeeper",
      "outputs": [
        {
          "internalType": "bool",
          "name": "",
          "type": "bool"
        }
      ],
      "stateMutability": "view",
      "type": "function"
    },
    {
      "inputs": [
        {
          "internalType": "uint256",
          "name": "postId",
          "type": "uint256"
        },
        {
          "internalType": "address",
          "name": "user",
          "type": "address"
        }
      ],
      "name": "hasUserPaidForPost",
      "outputs": [
        {
          "internalType": "bool",
          "name": "",
          "type": "bool"
        }
      ],
      "stateMutability": "view",
      "type": "function"
    },
    {
      "inputs": [
        {
          "internalType": "address",
          "name": "owner",
          "type": "address"
        },
        {
          "internalType": "address",
          "name": "operator",
          "type": "address"
        }
      ],
      "name": "isApprovedForAll",
      "outputs": [
        {
          "internalType": "bool",
          "name": "",
          "type": "bool"
        }
      ],
      "stateMutability": "view",
      "type": "function"
    },
    {
      "inputs": [
        {
          "internalType": "address",
          "name": "_follower",
          "type": "address"
        },
        {
          "internalType": "address",
          "name": "_following",
          "type": "address"
        }
      ],
      "name": "isFollowing",
      "outputs": [
        {
          "internalType": "bool",
          "name": "",
          "type": "bool"
        }
      ],
      "stateMutability": "view",
      "type": "function"
    },
    {
      "inputs": [
        {
          "internalType": "uint256",
          "name": "postId",
          "type": "uint256"
        }
      ],
      "name": "likePost",
      "outputs": [],
      "stateMutability": "nonpayable",
      "type": "function"
    },
    {
      "inputs": [
        {
          "internalType": "uint256",
          "name": "postId",
          "type": "uint256"
        },
        {
          "internalType": "uint256",
          "name": "_listPrice",
          "type": "uint256"
        }
      ],
      "name": "listPost",
      "outputs": [],
      "stateMutability": "nonpayable",
      "type": "function"
    },
    {
      "inputs": [],
      "name": "name",
      "outputs": [
        {
          "internalType": "string",
          "name": "",
          "type": "string"
        }
      ],
      "stateMutability": "view",
      "type": "function"
    },
    {
      "inputs": [
        {
          "internalType": "uint256",
          "name": "tokenId",
          "type": "uint256"
        }
      ],
      "name": "ownerOf",
      "outputs": [
        {
          "internalType": "address",
          "name": "",
          "type": "address"
        }
      ],
      "stateMutability": "view",
      "type": "function"
    },
    {
      "inputs": [],
      "name": "postCounter",
      "outputs": [
        {
          "internalType": "uint256",
          "name": "",
          "type": "uint256"
        }
      ],
      "stateMutability": "view",
      "type": "function"
    },
    {
      "inputs": [
        {
          "internalType": "uint256",
          "name": "",
          "type": "uint256"
        },
        {
          "internalType": "address",
          "name": "",
          "type": "address"
        }
      ],
      "name": "postReports",
      "outputs": [
        {
          "internalType": "bool",
          "name": "",
          "type": "bool"
        }
      ],
      "stateMutability": "view",
      "type": "function"
    },
    {
      "inputs": [
        {
          "internalType": "uint256",
          "name": "",
          "type": "uint256"
        }
      ],
      "name": "posts",
      "outputs": [
        {
          "internalType": "uint256",
          "name": "id",
          "type": "uint256"
        },
        {
          "internalType": "address payable",
          "name": "username",
          "type": "address"
        },
        {
          "internalType": "string",
          "name": "postText",
          "type": "string"
        },
        {
          "internalType": "uint256",
          "name": "viewPrice",
          "type": "uint256"
        },
        {
          "internalType": "bool",
          "name": "isDeleted",
          "type": "bool"
        },
        {
          "internalType": "uint256",
          "name": "likes",
          "type": "uint256"
        },
        {
          "internalType": "uint256",
          "name": "dislikes",
          "type": "uint256"
        },
        {
          "internalType": "enum DataTypes.Visibility",
          "name": "visibility",
          "type": "uint8"
        },
        {
          "internalType": "bool",
          "name": "hasListed",
          "type": "bool"
        },
        {
          "internalType": "uint256",
          "name": "listPrice",
          "type": "uint256"
        }
      ],
      "stateMutability": "view",
      "type": "function"
    },
    {
      "inputs": [
        {
          "internalType": "string",
          "name": "name",
          "type": "string"
        },
        {
          "internalType": "string",
          "name": "imageUrl",
          "type": "string"
        }
      ],
      "name": "registerUser",
      "outputs": [],
      "stateMutability": "nonpayable",
      "type": "function"
    },
    {
      "inputs": [
        {
          "internalType": "uint256",
          "name": "postId",
          "type": "uint256"
        },
        {
          "internalType": "string",
          "name": "reason",
          "type": "string"
        }
      ],
      "name": "reportPost",
      "outputs": [],
      "stateMutability": "nonpayable",
      "type": "function"
    },
    {
      "inputs": [
        {
          "internalType": "address",
          "name": "from",
          "type": "address"
        },
        {
          "internalType": "address",
          "name": "to",
          "type": "address"
        },
        {
          "internalType": "uint256",
          "name": "tokenId",
          "type": "uint256"
        }
      ],
      "name": "safeTransferFrom",
      "outputs": [],
      "stateMutability": "nonpayable",
      "type": "function"
    },
    {
      "inputs": [
        {
          "internalType": "address",
          "name": "from",
          "type": "address"
        },
        {
          "internalType": "address",
          "name": "to",
          "type": "address"
        },
        {
          "internalType": "uint256",
          "name": "tokenId",
          "type": "uint256"
        },
        {
          "internalType": "bytes",
          "name": "data",
          "type": "bytes"
        }
      ],
      "name": "safeTransferFrom",
      "outputs": [],
      "stateMutability": "nonpayable",
      "type": "function"
    },
    {
      "inputs": [
        {
          "internalType": "address",
          "name": "operator",
          "type": "address"
        },
        {
          "internalType": "bool",
          "name": "approved",
          "type": "bool"
        }
      ],
      "name": "setApprovalForAll",
      "outputs": [],
      "stateMutability": "nonpayable",
      "type": "function"
    },
    {
      "inputs": [
        {
          "internalType": "bytes4",
          "name": "interfaceId",
          "type": "bytes4"
        }
      ],
      "name": "supportsInterface",
      "outputs": [
        {
          "internalType": "bool",
          "name": "",
          "type": "bool"
        }
      ],
      "stateMutability": "view",
      "type": "function"
    },
    {
      "inputs": [],
      "name": "symbol",
      "outputs": [
        {
          "internalType": "string",
          "name": "",
          "type": "string"
        }
      ],
      "stateMutability": "view",
      "type": "function"
    },
    {
      "inputs": [
        {
          "internalType": "uint256",
          "name": "tokenId",
          "type": "uint256"
        }
      ],
      "name": "tokenURI",
      "outputs": [
        {
          "internalType": "string",
          "name": "",
          "type": "string"
        }
      ],
      "stateMutability": "view",
      "type": "function"
    },
    {
      "inputs": [
        {
          "internalType": "address",
          "name": "from",
          "type": "address"
        },
        {
          "internalType": "address",
          "name": "to",
          "type": "address"
        },
        {
          "internalType": "uint256",
          "name": "tokenId",
          "type": "uint256"
        }
      ],
      "name": "transferFrom",
      "outputs": [],
      "stateMutability": "nonpayable",
      "type": "function"
    },
    {
      "inputs": [
        {
          "internalType": "address",
          "name": "_user",
          "type": "address"
        }
      ],
      "name": "unfollowUser",
      "outputs": [],
      "stateMutability": "nonpayable",
      "type": "function"
    },
    {
      "inputs": [
        {
          "internalType": "uint256",
          "name": "postId",
          "type": "uint256"
        }
      ],
      "name": "unlikePost",
      "outputs": [],
      "stateMutability": "nonpayable",
      "type": "function"
    },
    {
      "inputs": [
        {
          "internalType": "uint256",
          "name": "postId",
          "type": "uint256"
        }
      ],
      "name": "viewPaidPost",
      "outputs": [],
      "stateMutability": "payable",
      "type": "function"
    }
  ],
  "bytecode": "0x60806040523480156200001157600080fd5b5060405180604001604052806007815260200166141bdcdd13919560ca1b815250604051806040016040528060048152602001631413919560e21b81525081600090816200006091906200011f565b5060016200006f82826200011f565b505050620001eb565b634e487b7160e01b600052604160045260246000fd5b600181811c90821680620000a357607f821691505b602082108103620000c457634e487b7160e01b600052602260045260246000fd5b50919050565b601f8211156200011a576000816000526020600020601f850160051c81016020861015620000f55750805b601f850160051c820191505b81811015620001165782815560010162000101565b5050505b505050565b81516001600160401b038111156200013b576200013b62000078565b62000153816200014c84546200008e565b84620000ca565b602080601f8311600181146200018b5760008415620001725750858301515b600019600386901b1c1916600185901b17855562000116565b600085815260208120601f198616915b82811015620001bc578886015182559484019460019091019084016200019b565b5085821015620001db5787850151600019600388901b60f8161c191681555b5050505050600190811b01905550565b61464780620001fb6000396000f3fe6080604052600436106102395760003560e01c806301ffc9a71461023e57806306fdde0314610273578063081812fc14610295578063094cd5ee146102cd578063095ea7b3146102ef57806309b3d75e1461030f5780630a37b0bc146103335780630b1e7f83146103605780630b3ea7e2146103965780631d2e4afd146103ab57806323b872dd146103cb5780632d68a76c146103eb5780632fa673381461041b578063305611001461042e578063305a67a81461045057806342842e0e146104705780634b722455146104905780635950eb5b146104b05780636352211e146104c557806366ea76d5146104e5578063676ab3b2146104f857806370987be11461052657806370a082311461053b578063725009d31461055b578063789db68a1461057b5780637ef94bce1461059b5780638230c4fb146105bb57806386be9250146105f45780638cfbc01f1461061457806395d89b411461062757806399ec3a421461063c578063a22cb46514610685578063a32f63e7146106a5578063a4c5ad59146106c5578063a70806f7146106f2578063aa7e568314610712578063ad88881b14610732578063b446aa011461076d578063b86e6f091461078d578063b88d4fde146107ba578063b8b73ac3146107da578063c2fe20221461080a578063c87b56dd1461082a578063d524ff761461084a578063df3ecbd214610877578063e985e9c5146108b2578063f107cfcb146108d2578063fa188de9146108f2578063fa26924614610912578063ffc5d7df14610942575b600080fd5b34801561024a57600080fd5b5061025e610259366004613880565b610962565b60405190151581526020015b60405180910390f35b34801561027f57600080fd5b506102886109b4565b60405161026a91906138ed565b3480156102a157600080fd5b506102b56102b0366004613900565b610a46565b6040516001600160a01b03909116815260200161026a565b3480156102d957600080fd5b506102ed6102e8366004613900565b610a6d565b005b3480156102fb57600080fd5b506102ed61030a366004613935565b610b07565b34801561031b57600080fd5b5061032560065481565b60405190815260200161026a565b34801561033f57600080fd5b5061035361034e366004613900565b610c1c565b60405161026a919061395f565b34801561036c57600080fd5b5061038061037b366004613900565b610c8b565b60405161026a9a999897969594939291906139e4565b3480156103a257600080fd5b50600a54610325565b3480156103b757600080fd5b506102ed6103c6366004613afe565b610d76565b3480156103d757600080fd5b506102ed6103e6366004613b61565b610ec9565b3480156103f757600080fd5b50610325610406366004613900565b6000908152600760205260409020600c015490565b6102ed610429366004613900565b610efa565b34801561043a57600080fd5b50610443611103565b60405161026a9190613d64565b34801561045c57600080fd5b506102ed61046b366004613900565b611115565b34801561047c57600080fd5b506102ed61048b366004613b61565b61124b565b34801561049c57600080fd5b506102ed6104ab366004613dc8565b611266565b3480156104bc57600080fd5b50610443611375565b3480156104d157600080fd5b506102b56104e0366004613900565b611382565b6102ed6104f3366004613e20565b6113b6565b34801561050457600080fd5b50610518610513366004613900565b611558565b60405161026a929190613e64565b34801561053257600080fd5b5061044361163b565b34801561054757600080fd5b50610325610556366004613e8a565b611648565b34801561056757600080fd5b506102ed610576366004613900565b6116ce565b34801561058757600080fd5b506102ed610596366004613ea5565b611720565b3480156105a757600080fd5b506102ed6105b6366004613ef4565b61183a565b3480156105c757600080fd5b506102b56105d6366004613900565b6000908152600760205260409020600101546001600160a01b031690565b34801561060057600080fd5b5061025e61060f366004613f30565b611a03565b6102ed610622366004613900565b611ab0565b34801561063357600080fd5b50610288611c26565b34801561064857600080fd5b5061025e610657366004613f5c565b6001600160a01b03918216600090815260096020908152604080832093909416825291909152205460ff1690565b34801561069157600080fd5b506102ed6106a0366004613f86565b611c35565b3480156106b157600080fd5b506105186106c0366004613900565b611c44565b3480156106d157600080fd5b506106e56106e0366004613fb7565b611d04565b60405161026a9190613feb565b3480156106fe57600080fd5b506102ed61070d366004613e8a565b611e28565b34801561071e57600080fd5b506102ed61072d366004613ef4565b611eda565b34801561073e57600080fd5b5061025e61074d366004613f5c565b600960209081526000928352604080842090915290825290205460ff1681565b34801561077957600080fd5b506102ed61078836600461406a565b611fc0565b34801561079957600080fd5b506107ad6107a8366004613900565b6120ed565b60405161026a919061408c565b3480156107c657600080fd5b506102ed6107d536600461409f565b612540565b3480156107e657600080fd5b506103256107f5366004613900565b60009081526007602052604090206005015490565b34801561081657600080fd5b50610353610825366004613e8a565b612572565b34801561083657600080fd5b50610288610845366004613900565b612732565b34801561085657600080fd5b5061086a610865366004613900565b6127a6565b60405161026a919061411a565b34801561088357600080fd5b5061025e610892366004613f30565b600860209081526000928352604080842090915290825290205460ff1681565b3480156108be57600080fd5b5061025e6108cd366004613f5c565b6128c2565b3480156108de57600080fd5b506102ed6108ed366004613e8a565b6128f0565b3480156108fe57600080fd5b506102ed61090d366004613900565b612973565b34801561091e57600080fd5b5061025e61092d366004613e8a565b600b6020526000908152604090205460ff1681565b34801561094e57600080fd5b5061086a61095d366004613900565b612a17565b60006001600160e01b031982166380ac58cd60e01b148061099357506001600160e01b03198216635b5e139f60e01b145b806109ae57506301ffc9a760e01b6001600160e01b03198316145b92915050565b6060600080546109c39061412d565b80601f01602080910402602001604051908101604052809291908181526020018280546109ef9061412d565b8015610a3c5780601f10610a1157610100808354040283529160200191610a3c565b820191906000526020600020905b815481529060010190602001808311610a1f57829003601f168201915b5050505050905090565b6000610a5182612b33565b506000908152600460205260409020546001600160a01b031690565b6000818152600760205260409020600101546001600160a01b03163314610aaf5760405162461bcd60e51b8152600401610aa690614167565b60405180910390fd5b600081815260076020908152604091829020600401805460ff19166001908117909155915191825282917f50de60758261258765d60f3764f52b012fb4289c1120010bf8b34f7a7976f815910160405180910390a250565b6000610b1282611382565b9050806001600160a01b0316836001600160a01b031603610b7f5760405162461bcd60e51b815260206004820152602160248201527f4552433732313a20617070726f76616c20746f2063757272656e74206f776e656044820152603960f91b6064820152608401610aa6565b336001600160a01b0382161480610b9b5750610b9b81336128c2565b610c0d5760405162461bcd60e51b815260206004820152603d60248201527f4552433732313a20617070726f76652063616c6c6572206973206e6f7420746f60448201527f6b656e206f776e6572206f7220617070726f76656420666f7220616c6c0000006064820152608401610aa6565b610c178383612b5b565b505050565b600081815260076020908152604091829020600a01805483518184028101840190945280845260609392830182828015610c7f57602002820191906000526020600020905b81546001600160a01b03168152600190910190602001808311610c61575b50505050509050919050565b60076020526000908152604090208054600182015460028301805492936001600160a01b0390921692610cbd9061412d565b80601f0160208091040260200160405190810160405280929190818152602001828054610ce99061412d565b8015610d365780601f10610d0b57610100808354040283529160200191610d36565b820191906000526020600020905b815481529060010190602001808311610d1957829003601f168201915b50505060038401546004850154600586015460068701546007880154600b890154600c909901549798949760ff948516975092955090939083169216908a565b6000600e83604051610d8891906141a8565b9081526020016040518091039020905060005b8154811015610e4757336001600160a01b0316828281548110610dc057610dc06141c4565b60009182526020909120600290910201546001600160a01b031603610e3f5782828281548110610df257610df26141c4565b90600052602060002090600202016001019081610e0f9190614222565b506000805160206145d2833981519152843385604051610e31939291906142e1565b60405180910390a150505050565b600101610d9b565b50604080518082019091523381526020808201848152835460018082018655600086815293909320845160029092020180546001600160a01b0319166001600160a01b0390921691909117815590518392820190610ea59082614222565b5050506000805160206145d2833981519152843385604051610e31939291906142e1565b610ed33382612bc9565b610eef5760405162461bcd60e51b8152600401610aa69061431f565b610c17838383612c28565b6000818152600760205260409020600b015460ff16610f655760405162461bcd60e51b815260206004820152602160248201527f5468697320706f7374206973206e6f74206c697374656420666f722073616c656044820152601760f91b6064820152608401610aa6565b600081815260076020526040902060010154336001600160a01b0390911603610fd05760405162461bcd60e51b815260206004820152601d60248201527f596f752063616e6e6f742062757920796f7572206f776e20706f73742e0000006044820152606401610aa6565b6000818152600760205260408082206001015490516001600160a01b0390911691339183913480156108fc02929091818181858888f1935050505015801561101c573d6000803e3d6000fd5b50611028828285612c28565b60008381526007602090815260408220600180820180546001600160a01b038088166001600160a01b031992831617909255600a840180549384018155865293852090910180549187169190931617909155848252600b8101805460ff19169055600c0181905561109833612572565b905060005b81518110156110fc5760008282815181106110ba576110ba6141c4565b6020026020010151905085336001600160a01b0316826001600160a01b03166000805160206145b283398151915260405160405180910390a45060010161109d565b5050505050565b6060611110600080612d7a565b905090565b6000818152600760205260409020600101546001600160a01b0316331461114e5760405162461bcd60e51b8152600401610aa69061436c565b6000818152600760205260409020600b015460ff1615156001146111ac5760405162461bcd60e51b8152602060048201526015602482015274139bdd081b1a5cdd1959081cdbc81d4818d85b89dd605a1b6044820152606401610aa6565b6000818152600760205260408120600b8101805460ff19169055600c018190556111d533612572565b905060005b8151811015610c175760008282815181106111f7576111f76141c4565b6020026020010151905083336001600160a01b0316826001600160a01b03167f256c6f8fb6d6cf809bf9adb7c5e148b1ca95f4a804b1e62e7c969fa625fb037c60405160405180910390a4506001016111da565b610c1783838360405180602001604052806000815250612540565b336000908152600b602052604090205460ff16156112da5760405162461bcd60e51b815260206004820152602b60248201527f5468697320616464726573732068617320616c7265616479206164646564206160448201526a1033b0ba32b5b2b2b832b960a91b6064820152608401610aa6565b6040805180820190915282815261ffff82166020820152600a8054600181018255600091909152815160029091027fc65a7bb8d6351c1cf70c95a316cc6a92839c986682d98bc35f958f4883f9d2a8019081906113379082614222565b506020918201516001918201805461ffff191661ffff909216919091179055336000908152600b9092526040909120805460ff191690911790555050565b6060611110336000612d7a565b60008061138e83613353565b90506001600160a01b0381166109ae5760405162461bcd60e51b8152600401610aa6906143b1565b600680549060006113c6836143f9565b909155505060065460008181526007602052604090208181556001810180546001600160a01b03191633179055600281016114018582614222565b506003810183905560048101805460ff19908116909155600b8201805490911690556000600c820155611434338361336e565b604051829033907f211310f5bdfd60139328b0e0b1235a8d92df3ccfc99b9b80da0d81cbac493aea90600090a3600061146c33612572565b9050600081516001600160401b0381111561148957611489613a53565b6040519080825280602002602001820160405280156114b2578160200160208202803683370190505b50905060005b825181101561150d578281815181106114d3576114d36141c4565b60200260200101518282815181106114ed576114ed6141c4565b6001600160a01b03909216602092830291909101909101526001016114b8565b5083336001600160a01b03167f460870b760e463f9ef9677553ef233b833ab264f938d9f67199b4fb153f5be2c83604051611548919061395f565b60405180910390a3505050505050565b6060600080600a8481548110611570576115706141c4565b90600052602060002090600202016040518060400160405290816000820180546115999061412d565b80601f01602080910402602001604051908101604052809291908181526020018280546115c59061412d565b80156116125780601f106115e757610100808354040283529160200191611612565b820191906000526020600020905b8154815290600101906020018083116115f557829003601f168201915b50505091835250506001919091015461ffff166020918201528151910151909590945092505050565b6060611110336001612d7a565b60006001600160a01b0382166116b25760405162461bcd60e51b815260206004820152602960248201527f4552433732313a2061646472657373207a65726f206973206e6f7420612076616044820152683634b21037bbb732b960b91b6064820152608401610aa6565b506001600160a01b031660009081526003602052604090205490565b60008181526007602052604081206005018054916116eb836143f9565b9091555050604051339082907fcf765d6f163c9b0d832e2a94f4c8e9bffd32a2c3ca5fdbb8cc67b5fe1441f41390600090a350565b6000838152600760205260409020600101546001600160a01b031633146117595760405162461bcd60e51b8152600401610aa690614167565b60008381526007602052604090206004015460ff161561178b5760405162461bcd60e51b8152600401610aa690614412565b60008381526007602052604090206002016117a68382614222565b5060008381526007602052604081206003018290556117c433612572565b905060005b81518110156110fc5760008282815181106117e6576117e66141c4565b6020026020010151905085336001600160a01b0316826001600160a01b03167f24b938973c8140b346b07674d8cb0151b0a325a29498587f93be31b90ad2aee660405160405180910390a4506001016117c9565b600082815260076020526040902060010154336001600160a01b03909116036118a55760405162461bcd60e51b815260206004820181905260248201527f596f752063616e6e6f74207265706f727420796f7572206f776e20706f73742e6044820152606401610aa6565b6000828152600c6020908152604080832033845290915290205460ff161561191b5760405162461bcd60e51b8152602060048201526024808201527f596f75206861766520616c7265616479207265706f727465642074686973207060448201526337b9ba1760e11b6064820152608401610aa6565b6040805160608101825260008481526007602081815284832060090180548086523383870190815296860188815293835260018082018355918552919093208451600390920201908155935191840180546001600160a01b0319166001600160a01b03909316929092179091555190918291600282019061199c9082614222565b5050506000838152600c6020908152604080832033808552925291829020805460ff19166001179055905184907f52445589f146589c7ef4b77e2a66d0492b4addd046b14551af597215c4334746906119f69086906138ed565b60405180910390a3505050565b6000828152600760205260408120600101546001600160a01b03808416911603611a2f575060016109ae565b60005b6000848152600760205260409020600a0154811015611aa6576000848152600760205260409020600a0180546001600160a01b038516919083908110611a7a57611a7a6141c4565b6000918252602090912001546001600160a01b031603611a9e5760019150506109ae565b600101611a32565b5060009392505050565b60008181526007602052604090206004015460ff1615611b045760405162461bcd60e51b815260206004820152600f60248201526e1c1bdcdd081a5cc819195b195d1959608a1b6044820152606401610aa6565b600081815260076020526040902060010154336001600160a01b0390911603611b7b5760405162461bcd60e51b8152602060048201526024808201527f596f752063616e6e6f742070617920746f207669657720796f7572206f776e206044820152631c1bdcdd60e21b6064820152608401610aa6565b6000818152600760205260408082206001015490516001600160a01b03909116913480156108fc02929091818181858888f19350505050158015611bc3573d6000803e3d6000fd5b506000818152600760209081526040808320600a01805460018101825590845291832090910180546001600160a01b03191633908117909155905183927fca0f87217b959f6345bff657040723570f1dd514ddceba1730ba67c2c080153a91a350565b6060600180546109c39061412d565b611c40338383613469565b5050565b600a8181548110611c5457600080fd5b9060005260206000209060020201600091509050806000018054611c779061412d565b80601f0160208091040260200160405190810160405280929190818152602001828054611ca39061412d565b8015611cf05780601f10611cc557610100808354040283529160200191611cf0565b820191906000526020600020905b815481529060010190602001808311611cd357829003601f168201915b5050506001909301549192505061ffff1682565b6060600e82604051611d1691906141a8565b9081526020016040518091039020805480602002602001604051908101604052809291908181526020016000905b82821015611e1d576000848152602090819020604080518082019091526002850290910180546001600160a01b031682526001810180549293919291840191611d8c9061412d565b80601f0160208091040260200160405190810160405280929190818152602001828054611db89061412d565b8015611e055780601f10611dda57610100808354040283529160200191611e05565b820191906000526020600020905b815481529060010190602001808311611de857829003601f168201915b50505050508152505081526020019060010190611d44565b505050509050919050565b336001600160a01b03821603611e7d5760405162461bcd60e51b815260206004820152601a6024820152792cb7ba9031b0b73737ba103337b63637bb903cb7bab939b2b63360311b6044820152606401610aa6565b6001600160a01b0316600081815260096020908152604080832033808552908352818420805460ff19166001908117909155948452600d8352908320805494850181558352912090910180546001600160a01b0319169091179055565b60008281526007602052604090206004015460ff1615611f0c5760405162461bcd60e51b8152600401610aa690614412565b60408051606080820183526000808352602083015291810191909152600083815260076020526040902060080154611f4590600161443b565b81523360208083019182526040808401858152600087815260078452918220600801805460018082018355918452939092208551600390940201928355925190820180546001600160a01b0319166001600160a01b0390921691909117905590518291906002820190611fb89082614222565b505050505050565b6000828152600760205260409020600101546001600160a01b03163314611ff95760405162461bcd60e51b8152600401610aa69061436c565b6000828152600760205260409020600b015460ff16156120575760405162461bcd60e51b8152602060048201526019602482015278105b1c9958591e481b1a5cdd1959081cdbc81d4818d85b89dd603a1b6044820152606401610aa6565b6000828152600760205260408120600b8101805460ff19166001179055600c0182905561208333612572565b905060005b81518110156120e75760008282815181106120a5576120a56141c4565b6020026020010151905084336001600160a01b0316826001600160a01b03166000805160206145b283398151915260405160405180910390a450600101612088565b50505050565b6120f56137e4565b60008211801561210757506006548211155b8015612125575060008281526007602052604090206004015460ff16155b61216f5760405162461bcd60e51b815260206004820152601b60248201527a141bdcdd081259081a5cc81ddc9bdb99c81bdc8819195b195d1959602a1b6044820152606401610aa6565b60008281526007602090815260409182902082516101a0810184528154815260018201546001600160a01b03169281019290925260028101805492939192918401916121ba9061412d565b80601f01602080910402602001604051908101604052809291908181526020018280546121e69061412d565b80156122335780601f1061220857610100808354040283529160200191612233565b820191906000526020600020905b81548152906001019060200180831161221657829003601f168201915b505050918352505060038201546020820152600482015460ff908116151560408301526005830154606083015260068301546080830152600783015460a090920191166002811115612287576122876139ac565b6002811115612298576122986139ac565b815260200160088201805480602002602001604051908101604052809291908181526020016000905b828210156123a557600084815260209081902060408051606081018252600386029092018054835260018101546001600160a01b031693830193909352600283018054929392918401916123149061412d565b80601f01602080910402602001604051908101604052809291908181526020018280546123409061412d565b801561238d5780601f106123625761010080835404028352916020019161238d565b820191906000526020600020905b81548152906001019060200180831161237057829003601f168201915b505050505081525050815260200190600101906122c1565b50505050815260200160098201805480602002602001604051908101604052809291908181526020016000905b828210156124b657600084815260209081902060408051606081018252600386029092018054835260018101546001600160a01b031693830193909352600283018054929392918401916124259061412d565b80601f01602080910402602001604051908101604052809291908181526020018280546124519061412d565b801561249e5780601f106124735761010080835404028352916020019161249e565b820191906000526020600020905b81548152906001019060200180831161248157829003601f168201915b505050505081525050815260200190600101906123d2565b505050508152602001600a820180548060200260200160405190810160405280929190818152602001828054801561251757602002820191906000526020600020905b81546001600160a01b031681526001909101906020018083116124f9575b5050509183525050600b82015460ff1615156020820152600c9091015460409091015292915050565b61254a3383612bc9565b6125665760405162461bcd60e51b8152600401610aa69061431f565b6120e78484848461352b565b60606000805b6001600160a01b0384166000908152600d6020526040902054811015612615576001600160a01b0384166000908152600d602052604081208054839081106125c2576125c26141c4565b60009182526020808320909101546001600160a01b0388811684526009835260408085209190921680855292529091205490915060ff161561260c5782612608816143f9565b9350505b50600101612578565b506000816001600160401b0381111561263057612630613a53565b604051908082528060200260200182016040528015612659578160200160208202803683370190505b5090506000805b6001600160a01b0386166000908152600d6020526040902054811015612728576001600160a01b0386166000908152600d602052604081208054839081106126aa576126aa6141c4565b60009182526020808320909101546001600160a01b038a811684526009835260408085209190921680855292529091205490915060ff161561271f57808484815181106126f9576126f96141c4565b6001600160a01b03909216602092830291909101909101528261271b816143f9565b9350505b50600101612660565b5090949350505050565b606061273d82612b33565b600061275460408051602081019091526000815290565b90506000815111612774576040518060200160405280600081525061279f565b8061277e8461355e565b60405160200161278f92919061444e565b6040516020818303038152906040525b9392505050565b606060076000838152602001908152602001600020600801805480602002602001604051908101604052809291908181526020016000905b82821015611e1d57600084815260209081902060408051606081018252600386029092018054835260018101546001600160a01b031693830193909352600283018054929392918401916128319061412d565b80601f016020809104026020016040519081016040528092919081815260200182805461285d9061412d565b80156128aa5780601f1061287f576101008083540402835291602001916128aa565b820191906000526020600020905b81548152906001019060200180831161288d57829003601f168201915b505050505081525050815260200190600101906127de565b6001600160a01b03918216600090815260056020908152604080832093909416825291909152205460ff1690565b336001600160a01b038216036129475760405162461bcd60e51b815260206004820152601c60248201527b2cb7ba9031b0b73737ba103ab73337b63637bb903cb7bab939b2b63360211b6044820152606401610aa6565b6001600160a01b031660009081526009602090815260408083203384529091529020805460ff19169055565b6000818152600760205260409020600501546129c55760405162461bcd60e51b8152602060048201526011602482015270506f737420686173206e6f206c696b657360781b6044820152606401610aa6565b60008181526007602052604081206005018054916129e28361447d565b9091555050604051339082907f82092d1196022c48d901e5dc4b17451dbce942b8a9ded42fc6f2a4a5e8fd89b990600090a350565b606060076000838152602001908152602001600020600901805480602002602001604051908101604052809291908181526020016000905b82821015611e1d57600084815260209081902060408051606081018252600386029092018054835260018101546001600160a01b03169383019390935260028301805492939291840191612aa29061412d565b80601f0160208091040260200160405190810160405280929190818152602001828054612ace9061412d565b8015612b1b5780601f10612af057610100808354040283529160200191612b1b565b820191906000526020600020905b815481529060010190602001808311612afe57829003601f168201915b50505050508152505081526020019060010190612a4f565b612b3c816135f0565b612b585760405162461bcd60e51b8152600401610aa6906143b1565b50565b600081815260046020526040902080546001600160a01b0319166001600160a01b0384169081179091558190612b9082611382565b6001600160a01b03167f8c5be1e5ebec7d5bd14f71427d1e84f3dd0314c0f7b2291e5b200ac8c7c3b92560405160405180910390a45050565b600080612bd583611382565b9050806001600160a01b0316846001600160a01b03161480612bfc5750612bfc81856128c2565b80612c205750836001600160a01b0316612c1584610a46565b6001600160a01b0316145b949350505050565b826001600160a01b0316612c3b82611382565b6001600160a01b031614612c615760405162461bcd60e51b8152600401610aa690614494565b6001600160a01b038216612cc35760405162461bcd60e51b8152602060048201526024808201527f4552433732313a207472616e7366657220746f20746865207a65726f206164646044820152637265737360e01b6064820152608401610aa6565b826001600160a01b0316612cd682611382565b6001600160a01b031614612cfc5760405162461bcd60e51b8152600401610aa690614494565b600081815260046020908152604080832080546001600160a01b03199081169091556001600160a01b0387811680865260038552838620805460001901905590871680865283862080546001019055868652600290945282852080549092168417909155905184936000805160206145f283398151915291a4505050565b6060600060015b6006548111612e415760008181526007602052604090206004015460ff16158015612e1c57506001600160a01b0385161580612dd957506000818152600760205260409020600101546001600160a01b038681169116145b80612e1c5750838015612e1c575033600090815260096020908152604080832084845260078352818420600101546001600160a01b0316845290915290205460ff165b15612e2f5781612e2b816143f9565b9250505b80612e39816143f9565b915050612d81565b506000816001600160401b03811115612e5c57612e5c613a53565b604051908082528060200260200182016040528015612e9557816020015b612e826137e4565b815260200190600190039081612e7a5790505b509050600060015b60065481116133485760008181526007602052604090206004015460ff16158015612f3857506001600160a01b0387161580612ef557506000818152600760205260409020600101546001600160a01b038881169116145b80612f385750858015612f38575033600090815260096020908152604080832084845260078352818420600101546001600160a01b0316845290915290205460ff165b156133365760008181526007602090815260409182902082516101a0810184528154815260018201546001600160a01b0316928101929092526002810180549293919291840191612f889061412d565b80601f0160208091040260200160405190810160405280929190818152602001828054612fb49061412d565b80156130015780601f10612fd657610100808354040283529160200191613001565b820191906000526020600020905b815481529060010190602001808311612fe457829003601f168201915b505050918352505060038201546020820152600482015460ff908116151560408301526005830154606083015260068301546080830152600783015460a090920191166002811115613055576130556139ac565b6002811115613066576130666139ac565b815260200160088201805480602002602001604051908101604052809291908181526020016000905b8282101561317357600084815260209081902060408051606081018252600386029092018054835260018101546001600160a01b031693830193909352600283018054929392918401916130e29061412d565b80601f016020809104026020016040519081016040528092919081815260200182805461310e9061412d565b801561315b5780601f106131305761010080835404028352916020019161315b565b820191906000526020600020905b81548152906001019060200180831161313e57829003601f168201915b5050505050815250508152602001906001019061308f565b50505050815260200160098201805480602002602001604051908101604052809291908181526020016000905b8282101561328457600084815260209081902060408051606081018252600386029092018054835260018101546001600160a01b031693830193909352600283018054929392918401916131f39061412d565b80601f016020809104026020016040519081016040528092919081815260200182805461321f9061412d565b801561326c5780601f106132415761010080835404028352916020019161326c565b820191906000526020600020905b81548152906001019060200180831161324f57829003601f168201915b505050505081525050815260200190600101906131a0565b505050508152602001600a82018054806020026020016040519081016040528092919081815260200182805480156132e557602002820191906000526020600020905b81546001600160a01b031681526001909101906020018083116132c7575b5050509183525050600b82015460ff1615156020820152600c90910154604090910152835184908490811061331c5761331c6141c4565b60200260200101819052508180613332906143f9565b9250505b80613340816143f9565b915050612e9d565b509095945050505050565b6000908152600260205260409020546001600160a01b031690565b6001600160a01b0382166133c45760405162461bcd60e51b815260206004820181905260248201527f4552433732313a206d696e7420746f20746865207a65726f20616464726573736044820152606401610aa6565b6133cd816135f0565b156133ea5760405162461bcd60e51b8152600401610aa6906144d9565b6133f3816135f0565b156134105760405162461bcd60e51b8152600401610aa6906144d9565b6001600160a01b038216600081815260036020908152604080832080546001019055848352600290915280822080546001600160a01b0319168417905551839291906000805160206145f2833981519152908290a45050565b816001600160a01b0316836001600160a01b0316036134c65760405162461bcd60e51b815260206004820152601960248201527822a9219b99189d1030b8383937bb32903a379031b0b63632b960391b6044820152606401610aa6565b6001600160a01b03838116600081815260056020908152604080832094871680845294825291829020805460ff191686151590811790915591519182527f17307eab39ab6107e8899845ad3d59bd9653f200f220920489ca2b5937696c3191016119f6565b613536848484612c28565b6135428484848461360d565b6120e75760405162461bcd60e51b8152600401610aa69061450f565b6060600061356b8361370e565b60010190506000816001600160401b0381111561358a5761358a613a53565b6040519080825280601f01601f1916602001820160405280156135b4576020820181803683370190505b5090508181016020015b600019016f181899199a1a9b1b9c1cb0b131b232b360811b600a86061a8153600a85049450846135be57509392505050565b6000806135fc83613353565b6001600160a01b0316141592915050565b60006001600160a01b0384163b1561370357604051630a85bd0160e11b81526001600160a01b0385169063150b7a0290613651903390899088908890600401614561565b6020604051808303816000875af192505050801561368c575060408051601f3d908101601f1916820190925261368991810190614594565b60015b6136e9573d8080156136ba576040519150601f19603f3d011682016040523d82523d6000602084013e6136bf565b606091505b5080516000036136e15760405162461bcd60e51b8152600401610aa69061450f565b805181602001fd5b6001600160e01b031916630a85bd0160e11b149050612c20565b506001949350505050565b60008072184f03e93ff9f4daa797ed6e38ed64bf6a1f0160401b831061374d5772184f03e93ff9f4daa797ed6e38ed64bf6a1f0160401b830492506040015b6904ee2d6d415b85acef8160201b8310613777576904ee2d6d415b85acef8160201b830492506020015b662386f26fc10000831061379557662386f26fc10000830492506010015b6305f5e10083106137ad576305f5e100830492506008015b61271083106137c157612710830492506004015b606483106137d3576064830492506002015b600a83106109ae5760010192915050565b604051806101a001604052806000815260200160006001600160a01b03168152602001606081526020016000815260200160001515815260200160008152602001600081526020016000600281111561383f5761383f6139ac565b8152602001606081526020016060815260200160608152602001600015158152602001600081525090565b6001600160e01b031981168114612b5857600080fd5b60006020828403121561389257600080fd5b813561279f8161386a565b60005b838110156138b85781810151838201526020016138a0565b50506000910152565b600081518084526138d981602086016020860161389d565b601f01601f19169290920160200192915050565b60208152600061279f60208301846138c1565b60006020828403121561391257600080fd5b5035919050565b80356001600160a01b038116811461393057600080fd5b919050565b6000806040838503121561394857600080fd5b61395183613919565b946020939093013593505050565b6020808252825182820181905260009190848201906040850190845b818110156139a05783516001600160a01b03168352928401929184019160010161397b565b50909695505050505050565b634e487b7160e01b600052602160045260246000fd5b600381106139e057634e487b7160e01b600052602160045260246000fd5b9052565b8a81526001600160a01b038a16602082015261014060408201819052600090613a0f8382018c6138c1565b91505088606083015287151560808301528660a08301528560c0830152613a3960e08301866139c2565b921515610100820152610120015298975050505050505050565b634e487b7160e01b600052604160045260246000fd5b60006001600160401b0380841115613a8357613a83613a53565b604051601f8501601f19908116603f01168101908282118183101715613aab57613aab613a53565b81604052809350858152868686011115613ac457600080fd5b858560208301376000602087830101525050509392505050565b600082601f830112613aef57600080fd5b61279f83833560208501613a69565b60008060408385031215613b1157600080fd5b82356001600160401b0380821115613b2857600080fd5b613b3486838701613ade565b93506020850135915080821115613b4a57600080fd5b50613b5785828601613ade565b9150509250929050565b600080600060608486031215613b7657600080fd5b613b7f84613919565b9250613b8d60208501613919565b9150604084013590509250925092565b600082825180855260208086019550808260051b84010181860160005b84811015613c1157858303601f19018952815180518452848101516001600160a01b031685850152604090810151606091850182905290613bfd818601836138c1565b9a86019a9450505090830190600101613bba565b5090979650505050505050565b60008151808452602080850194506020840160005b83811015613c585781516001600160a01b031687529582019590820190600101613c33565b509495945050505050565b60006101a0825184526020830151613c8660208601826001600160a01b03169052565b506040830151816040860152613c9e828601826138c1565b915050606083015160608501526080830151613cbe608086018215159052565b5060a083015160a085015260c083015160c085015260e0830151613ce560e08601826139c2565b506101008084015185830382870152613cfe8382613b9d565b925050506101208084015185830382870152613d1a8382613b9d565b925050506101408084015185830382870152613d368382613c1e565b9250505061016080840151613d4e8287018215159052565b5050610180928301519390920192909252919050565b600060208083016020845280855180835260408601915060408160051b87010192506020870160005b82811015613dbb57603f19888603018452613da9858351613c63565b94509285019290850190600101613d8d565b5092979650505050505050565b60008060408385031215613ddb57600080fd5b82356001600160401b03811115613df157600080fd5b613dfd85828601613ade565b925050602083013561ffff81168114613e1557600080fd5b809150509250929050565b60008060408385031215613e3357600080fd5b82356001600160401b03811115613e4957600080fd5b613e5585828601613ade565b95602094909401359450505050565b604081526000613e7760408301856138c1565b905061ffff831660208301529392505050565b600060208284031215613e9c57600080fd5b61279f82613919565b600080600060608486031215613eba57600080fd5b8335925060208401356001600160401b03811115613ed757600080fd5b613ee386828701613ade565b925050604084013590509250925092565b60008060408385031215613f0757600080fd5b8235915060208301356001600160401b03811115613f2457600080fd5b613b5785828601613ade565b60008060408385031215613f4357600080fd5b82359150613f5360208401613919565b90509250929050565b60008060408385031215613f6f57600080fd5b613f7883613919565b9150613f5360208401613919565b60008060408385031215613f9957600080fd5b613fa283613919565b915060208301358015158114613e1557600080fd5b600060208284031215613fc957600080fd5b81356001600160401b03811115613fdf57600080fd5b612c2084828501613ade565b600060208083018184528085518083526040925060408601915060408160051b87010184880160005b8381101561405c57888303603f19018552815180516001600160a01b03168452870151878401879052614049878501826138c1565b9588019593505090860190600101614014565b509098975050505050505050565b6000806040838503121561407d57600080fd5b50508035926020909101359150565b60208152600061279f6020830184613c63565b600080600080608085870312156140b557600080fd5b6140be85613919565b93506140cc60208601613919565b92506040850135915060608501356001600160401b038111156140ee57600080fd5b8501601f810187136140ff57600080fd5b61410e87823560208401613a69565b91505092959194509250565b60208152600061279f6020830184613b9d565b600181811c9082168061414157607f821691505b60208210810361416157634e487b7160e01b600052602260045260246000fd5b50919050565b60208082526021908201527f596f7520617265206e6f7420746865206f776e6572206f662074686520706f736040820152601d60fa1b606082015260800190565b600082516141ba81846020870161389d565b9190910192915050565b634e487b7160e01b600052603260045260246000fd5b601f821115610c17576000816000526020600020601f850160051c810160208610156142035750805b601f850160051c820191505b81811015611fb85782815560010161420f565b81516001600160401b0381111561423b5761423b613a53565b61424f81614249845461412d565b846141da565b602080601f831160018114614284576000841561426c5750858301515b600019600386901b1c1916600185901b178555611fb8565b600085815260208120601f198616915b828110156142b357888601518255948401946001909101908401614294565b50858210156142d15787850151600019600388901b60f8161c191681555b5050505050600190811b01905550565b6060815260006142f460608301866138c1565b6001600160a01b0385166020840152828103604084015261431581856138c1565b9695505050505050565b6020808252602d908201527f4552433732313a2063616c6c6572206973206e6f7420746f6b656e206f776e6560408201526c1c881bdc88185c1c1c9bdd9959609a1b606082015260800190565b60208082526025908201527f596f7520617265206e6f7420746865206f776e657220736f20752063616e2774604082015264081b1a5cdd60da1b606082015260800190565b602080825260189082015277115490cdcc8c4e881a5b9d985b1a59081d1bdad95b88125160421b604082015260600190565b634e487b7160e01b600052601160045260246000fd5b60006001820161440b5761440b6143e3565b5060010190565b6020808252600f908201526e141bdcdd081a5cc819195b195d1959608a1b604082015260600190565b808201808211156109ae576109ae6143e3565b6000835161446081846020880161389d565b83519083019061447481836020880161389d565b01949350505050565b60008161448c5761448c6143e3565b506000190190565b60208082526025908201527f4552433732313a207472616e736665722066726f6d20696e636f72726563742060408201526437bbb732b960d91b606082015260800190565b6020808252601c908201527b115490cdcc8c4e881d1bdad95b88185b1c9958591e481b5a5b9d195960221b604082015260600190565b60208082526032908201527f4552433732313a207472616e7366657220746f206e6f6e20455243373231526560408201527131b2b4bb32b91034b6b83632b6b2b73a32b960711b606082015260800190565b6001600160a01b0385811682528416602082015260408101839052608060608201819052600090614315908301846138c1565b6000602082840312156145a657600080fd5b815161279f8161386a56fe31d3ceab37a9e9f8eda503b03797fdd8f87efdf7761c7a945ad92604ff3d174ed75d102e54ea2b96689d7faeedfc100215b2b72309ec65513704909d6019857fddf252ad1be2c89b69c2b068fc378daa952ba7f163c4a11628f55a4df523b3efa264697066735822122095d99a7e44c73bd97835986fb1c574252327be542ddf42b60e5ca4fa3256650064736f6c63430008180033",
  "linkReferences": {},
  "deployedLinkReferences": {}
}