{
  "_format": "hh-sol-artifact-1",
  "contractName": "PostManagement",
  "sourceName": "contracts/PostManagement.sol",
  "abi": [
    {
      "anonymous": false,
      "inputs": [
        {
          "indexed": true,
          "internalType": "address",
          "name": "recipient",
          "type": "address"
        },
        {
          "indexed": true,
          "internalType": "uint256",
          "name": "postId",
          "type": "uint256"
        },
        {
          "indexed": true,
          "internalType": "bool",
          "name": "isPaid",
          "type": "bool"
        }
      ],
      "name": "AddPost",
      "type": "event"
    },
    {
      "anonymous": false,
      "inputs": [
        {
          "indexed": true,
          "internalType": "uint256",
          "name": "postId",
          "type": "uint256"
        },
        {
          "indexed": false,
          "internalType": "bool",
          "name": "isDeleted",
          "type": "bool"
        }
      ],
      "name": "DeletePost",
      "type": "event"
    },
    {
      "anonymous": false,
      "inputs": [
        {
          "indexed": true,
          "internalType": "address",
          "name": "sender",
          "type": "address"
        },
        {
          "indexed": true,
          "internalType": "uint256",
          "name": "postId",
          "type": "uint256"
        },
        {
          "indexed": false,
          "internalType": "uint256",
          "name": "tipAmount",
          "type": "uint256"
        }
      ],
      "name": "TipPost",
      "type": "event"
    },
    {
      "inputs": [
        {
          "internalType": "string",
          "name": "_postText",
          "type": "string"
        },
        {
          "internalType": "bool",
          "name": "_isPaid",
          "type": "bool"
        },
        {
          "internalType": "uint256",
          "name": "_viewPrice",
          "type": "uint256"
        }
      ],
      "name": "addPost",
      "outputs": [],
      "stateMutability": "payable",
      "type": "function"
    },
    {
      "inputs": [],
      "name": "commentCounter",
      "outputs": [
        {
          "internalType": "uint256",
          "name": "_value",
          "type": "uint256"
        }
      ],
      "stateMutability": "view",
      "type": "function"
    },
    {
      "inputs": [
        {
          "internalType": "uint256",
          "name": "postId",
          "type": "uint256"
        }
      ],
      "name": "deletePost",
      "outputs": [],
      "stateMutability": "nonpayable",
      "type": "function"
    },
    {
      "inputs": [
        {
          "internalType": "uint256",
          "name": "_postId",
          "type": "uint256"
        },
        {
          "internalType": "string",
          "name": "_newPostText",
          "type": "string"
        }
      ],
      "name": "editPost",
      "outputs": [],
      "stateMutability": "nonpayable",
      "type": "function"
    },
    {
      "inputs": [],
      "name": "getAllposts",
      "outputs": [
        {
          "components": [
            {
              "internalType": "uint256",
              "name": "id",
              "type": "uint256"
            },
            {
              "internalType": "address",
              "name": "username",
              "type": "address"
            },
            {
              "internalType": "string",
              "name": "postText",
              "type": "string"
            },
            {
              "internalType": "bool",
              "name": "isPaid",
              "type": "bool"
            },
            {
              "internalType": "uint256",
              "name": "viewPrice",
              "type": "uint256"
            },
            {
              "internalType": "bool",
              "name": "isDeleted",
              "type": "bool"
            },
            {
              "internalType": "uint256",
              "name": "likes",
              "type": "uint256"
            },
            {
              "internalType": "uint256",
              "name": "dislikes",
              "type": "uint256"
            },
            {
              "internalType": "enum DataTypes.Visibility",
              "name": "visibility",
              "type": "uint8"
            },
            {
              "internalType": "string[]",
              "name": "tags",
              "type": "string[]"
            }
          ],
          "internalType": "struct DataTypes.PostData[]",
          "name": "",
          "type": "tuple[]"
        }
      ],
      "stateMutability": "view",
      "type": "function"
    },
    {
      "inputs": [],
      "name": "getMyposts",
      "outputs": [
        {
          "components": [
            {
              "internalType": "uint256",
              "name": "id",
              "type": "uint256"
            },
            {
              "internalType": "address",
              "name": "username",
              "type": "address"
            },
            {
              "internalType": "string",
              "name": "postText",
              "type": "string"
            },
            {
              "internalType": "bool",
              "name": "isPaid",
              "type": "bool"
            },
            {
              "internalType": "uint256",
              "name": "viewPrice",
              "type": "uint256"
            },
            {
              "internalType": "bool",
              "name": "isDeleted",
              "type": "bool"
            },
            {
              "internalType": "uint256",
              "name": "likes",
              "type": "uint256"
            },
            {
              "internalType": "uint256",
              "name": "dislikes",
              "type": "uint256"
            },
            {
              "internalType": "enum DataTypes.Visibility",
              "name": "visibility",
              "type": "uint8"
            },
            {
              "internalType": "string[]",
              "name": "tags",
              "type": "string[]"
            }
          ],
          "internalType": "struct DataTypes.PostData[]",
          "name": "",
          "type": "tuple[]"
        }
      ],
      "stateMutability": "view",
      "type": "function"
    },
    {
      "inputs": [
        {
          "internalType": "uint256",
          "name": "postId",
          "type": "uint256"
        }
      ],
      "name": "getpostDetails",
      "outputs": [
        {
          "internalType": "uint256",
          "name": "",
          "type": "uint256"
        },
        {
          "internalType": "address",
          "name": "",
          "type": "address"
        },
        {
          "internalType": "string",
          "name": "",
          "type": "string"
        },
        {
          "internalType": "bool",
          "name": "",
          "type": "bool"
        },
        {
          "internalType": "uint256",
          "name": "",
          "type": "uint256"
        },
        {
          "internalType": "bool",
          "name": "",
          "type": "bool"
        }
      ],
      "stateMutability": "view",
      "type": "function"
    },
    {
      "inputs": [],
      "name": "postCounter",
      "outputs": [
        {
          "internalType": "uint256",
          "name": "_value",
          "type": "uint256"
        }
      ],
      "stateMutability": "view",
      "type": "function"
    },
    {
      "inputs": [
        {
          "internalType": "uint256",
          "name": "",
          "type": "uint256"
        },
        {
          "internalType": "uint256",
          "name": "",
          "type": "uint256"
        }
      ],
      "name": "postToReports",
      "outputs": [
        {
          "internalType": "uint256",
          "name": "id",
          "type": "uint256"
        },
        {
          "internalType": "address",
          "name": "reporter",
          "type": "address"
        },
        {
          "internalType": "uint256",
          "name": "postId",
          "type": "uint256"
        },
        {
          "internalType": "string",
          "name": "reason",
          "type": "string"
        }
      ],
      "stateMutability": "view",
      "type": "function"
    },
    {
      "inputs": [
        {
          "internalType": "uint256",
          "name": "",
          "type": "uint256"
        }
      ],
      "name": "posts",
      "outputs": [
        {
          "internalType": "uint256",
          "name": "id",
          "type": "uint256"
        },
        {
          "internalType": "address payable",
          "name": "username",
          "type": "address"
        },
        {
          "internalType": "string",
          "name": "postText",
          "type": "string"
        },
        {
          "internalType": "bool",
          "name": "isPaid",
          "type": "bool"
        },
        {
          "internalType": "uint256",
          "name": "viewPrice",
          "type": "uint256"
        },
        {
          "internalType": "bool",
          "name": "isDeleted",
          "type": "bool"
        },
        {
          "internalType": "uint256",
          "name": "likes",
          "type": "uint256"
        },
        {
          "internalType": "uint256",
          "name": "dislikes",
          "type": "uint256"
        },
        {
          "internalType": "enum DataTypes.Visibility",
          "name": "visibility",
          "type": "uint8"
        }
      ],
      "stateMutability": "view",
      "type": "function"
    },
    {
      "inputs": [],
      "name": "reportCounter",
      "outputs": [
        {
          "internalType": "uint256",
          "name": "_value",
          "type": "uint256"
        }
      ],
      "stateMutability": "view",
      "type": "function"
    },
    {
      "inputs": [
        {
          "internalType": "uint256",
          "name": "_postId",
          "type": "uint256"
        },
        {
          "internalType": "string",
          "name": "_reason",
          "type": "string"
        }
      ],
      "name": "reportPost",
      "outputs": [],
      "stateMutability": "nonpayable",
      "type": "function"
    },
    {
      "inputs": [
        {
          "internalType": "uint256",
          "name": "",
          "type": "uint256"
        }
      ],
      "name": "reports",
      "outputs": [
        {
          "internalType": "uint256",
          "name": "id",
          "type": "uint256"
        },
        {
          "internalType": "address",
          "name": "reporter",
          "type": "address"
        },
        {
          "internalType": "uint256",
          "name": "postId",
          "type": "uint256"
        },
        {
          "internalType": "string",
          "name": "reason",
          "type": "string"
        }
      ],
      "stateMutability": "view",
      "type": "function"
    },
    {
      "inputs": [
        {
          "internalType": "string",
          "name": "_tag",
          "type": "string"
        }
      ],
      "name": "searchPostsByTag",
      "outputs": [
        {
          "components": [
            {
              "internalType": "uint256",
              "name": "id",
              "type": "uint256"
            },
            {
              "internalType": "address",
              "name": "username",
              "type": "address"
            },
            {
              "internalType": "string",
              "name": "postText",
              "type": "string"
            },
            {
              "internalType": "bool",
              "name": "isPaid",
              "type": "bool"
            },
            {
              "internalType": "uint256",
              "name": "viewPrice",
              "type": "uint256"
            },
            {
              "internalType": "bool",
              "name": "isDeleted",
              "type": "bool"
            },
            {
              "internalType": "uint256",
              "name": "likes",
              "type": "uint256"
            },
            {
              "internalType": "uint256",
              "name": "dislikes",
              "type": "uint256"
            },
            {
              "internalType": "enum DataTypes.Visibility",
              "name": "visibility",
              "type": "uint8"
            },
            {
              "internalType": "string[]",
              "name": "tags",
              "type": "string[]"
            }
          ],
          "internalType": "struct DataTypes.PostData[]",
          "name": "",
          "type": "tuple[]"
        }
      ],
      "stateMutability": "view",
      "type": "function"
    },
    {
      "inputs": [
        {
          "internalType": "address",
          "name": "_user",
          "type": "address"
        }
      ],
      "name": "searchPostsByUser",
      "outputs": [
        {
          "components": [
            {
              "internalType": "uint256",
              "name": "id",
              "type": "uint256"
            },
            {
              "internalType": "address",
              "name": "username",
              "type": "address"
            },
            {
              "internalType": "string",
              "name": "postText",
              "type": "string"
            },
            {
              "internalType": "bool",
              "name": "isPaid",
              "type": "bool"
            },
            {
              "internalType": "uint256",
              "name": "viewPrice",
              "type": "uint256"
            },
            {
              "internalType": "bool",
              "name": "isDeleted",
              "type": "bool"
            },
            {
              "internalType": "uint256",
              "name": "likes",
              "type": "uint256"
            },
            {
              "internalType": "uint256",
              "name": "dislikes",
              "type": "uint256"
            },
            {
              "internalType": "enum DataTypes.Visibility",
              "name": "visibility",
              "type": "uint8"
            },
            {
              "internalType": "string[]",
              "name": "tags",
              "type": "string[]"
            }
          ],
          "internalType": "struct DataTypes.PostData[]",
          "name": "",
          "type": "tuple[]"
        }
      ],
      "stateMutability": "view",
      "type": "function"
    },
    {
      "inputs": [
        {
          "internalType": "uint256",
          "name": "postId",
          "type": "uint256"
        },
        {
          "internalType": "uint256",
          "name": "tipAmnt",
          "type": "uint256"
        }
      ],
      "name": "tipPost",
      "outputs": [],
      "stateMutability": "payable",
      "type": "function"
    },
    {
      "inputs": [
        {
          "internalType": "uint256",
          "name": "postId",
          "type": "uint256"
        }
      ],
      "name": "viewPaidPost",
      "outputs": [],
      "stateMutability": "payable",
      "type": "function"
    },
    {
      "inputs": [
        {
          "internalType": "uint256",
          "name": "_postId",
          "type": "uint256"
        }
      ],
      "name": "viewReports",
      "outputs": [
        {
          "components": [
            {
              "internalType": "uint256",
              "name": "id",
              "type": "uint256"
            },
            {
              "internalType": "address",
              "name": "reporter",
              "type": "address"
            },
            {
              "internalType": "uint256",
              "name": "postId",
              "type": "uint256"
            },
            {
              "internalType": "string",
              "name": "reason",
              "type": "string"
            }
          ],
          "internalType": "struct DataTypes.Report[]",
          "name": "",
          "type": "tuple[]"
        }
      ],
      "stateMutability": "view",
      "type": "function"
    }
  ],
  "bytecode": "0x608060405234801561001057600080fd5b50612deb806100206000396000f3fe6080604052600436106101095760003560e01c80639b7791d311610095578063b9bc38f211610064578063b9bc38f214610380578063c06585bb146103ab578063c942adf7146103c7578063cf7a6a2a14610407578063fa99654a1461044957610109565b80639b7791d3146102bf5780639e1757b6146102ea578063aee5c3491461032a578063b8c0a1ef1461035557610109565b80637ef94bce116100dc5780637ef94bce146101e457806389fc81991461020d5780638ad8c53e1461024a5780638cfbc01f1461026657806392fccfa71461028257610109565b8063094cd5ee1461010e57806309b3d75e146101375780630b1e7f83146101625780632ecec467146101a7575b600080fd5b34801561011a57600080fd5b5061013560048036038101906101309190611c55565b610472565b005b34801561014357600080fd5b5061014c61057f565b6040516101599190611c91565b60405180910390f35b34801561016e57600080fd5b5061018960048036038101906101849190611c55565b61058b565b60405161019e99989796959493929190611e0f565b60405180910390f35b3480156101b357600080fd5b506101ce60048036038101906101c99190611fd8565b6106a8565b6040516101db919061231e565b60405180910390f35b3480156101f057600080fd5b5061020b60048036038101906102069190612340565b6106bc565b005b34801561021957600080fd5b50610234600480360381019061022f91906123c8565b6108d2565b604051610241919061231e565b60405180910390f35b610264600480360381019061025f9190612421565b6108f4565b005b610280600480360381019061027b9190611c55565b610a10565b005b34801561028e57600080fd5b506102a960048036038101906102a49190611c55565b610b5b565b6040516102b691906125b5565b60405180910390f35b3480156102cb57600080fd5b506102d4610cc9565b6040516102e1919061231e565b60405180910390f35b3480156102f657600080fd5b50610311600480360381019061030c91906125d7565b610ce9565b6040516103219493929190612626565b60405180910390f35b34801561033657600080fd5b5061033f610dde565b60405161034c919061231e565b60405180910390f35b34801561036157600080fd5b5061036a610dff565b6040516103779190611c91565b60405180910390f35b34801561038c57600080fd5b50610395610e0b565b6040516103a29190611c91565b60405180910390f35b6103c560048036038101906103c091906125d7565b610e17565b005b3480156103d357600080fd5b506103ee60048036038101906103e99190611c55565b61102f565b6040516103fe9493929190612626565b60405180910390f35b34801561041357600080fd5b5061042e60048036038101906104299190611c55565b611107565b60405161044096959493929190612672565b60405180910390f35b34801561045557600080fd5b50610470600480360381019061046b9190612340565b61121f565b005b3373ffffffffffffffffffffffffffffffffffffffff1660008083815260200190815260200160002060010160009054906101000a900473ffffffffffffffffffffffffffffffffffffffff1673ffffffffffffffffffffffffffffffffffffffff1614610515576040517f08c379a000000000000000000000000000000000000000000000000000000000815260040161050c9061274c565b60405180910390fd5b600160008083815260200190815260200160002060050160006101000a81548160ff021916908315150217905550807f50de60758261258765d60f3764f52b012fb4289c1120010bf8b34f7a7976f8156001604051610574919061276c565b60405180910390a250565b60018060000154905081565b60006020528060005260406000206000915090508060000154908060010160009054906101000a900473ffffffffffffffffffffffffffffffffffffffff16908060020180546105da906127b6565b80601f0160208091040260200160405190810160405280929190818152602001828054610606906127b6565b80156106535780601f1061062857610100808354040283529160200191610653565b820191906000526020600020905b81548152906001019060200180831161063657829003601f168201915b5050505050908060030160009054906101000a900460ff16908060040154908060050160009054906101000a900460ff169080600601549080600701549080600a0160009054906101000a900460ff16905089565b60606106b560008361134c565b9050919050565b60008083815260200190815260200160002060050160009054906101000a900460ff161561071f576040517f08c379a000000000000000000000000000000000000000000000000000000000815260040161071690612833565b60405180910390fd5b6107296003611a83565b60006107356003611a99565b905061073f611b4e565b8181600001818152505033816020019073ffffffffffffffffffffffffffffffffffffffff16908173ffffffffffffffffffffffffffffffffffffffff16815250508381604001818152505082816060018190525080600460008481526020019081526020016000206000820151816000015560208201518160010160006101000a81548173ffffffffffffffffffffffffffffffffffffffff021916908373ffffffffffffffffffffffffffffffffffffffff16021790555060408201518160020155606082015181600301908161081891906129ff565b50905050600560008581526020019081526020016000208190806001815401808255809150506001900390600052602060002090600402016000909190919091506000820151816000015560208201518160010160006101000a81548173ffffffffffffffffffffffffffffffffffffffff021916908373ffffffffffffffffffffffffffffffffffffffff1602179055506040820151816002015560608201518160030190816108c991906129ff565b50505050505050565b60606108ed826040518060200160405280600081525061134c565b9050919050565b6108fe6001611a83565b600061090a6001611a99565b905060008060008381526020019081526020016000209050818160000181905550338160010160006101000a81548173ffffffffffffffffffffffffffffffffffffffff021916908373ffffffffffffffffffffffffffffffffffffffff1602179055508481600201908161097f91906129ff565b50838160030160006101000a81548160ff02191690831515021790555082816004018190555060008160050160006101000a81548160ff021916908315150217905550831515823373ffffffffffffffffffffffffffffffffffffffff167f2c922782adeb210be8cf4fc4aa2e86b3664918635a8df6cd2ce02a38026ec88e60405160405180910390a45050505050565b60008082815260200190815260200160002060030160009054906101000a900460ff16610a72576040517f08c379a0000000000000000000000000000000000000000000000000000000008152600401610a6990612b1d565b60405180910390fd5b600080600083815260200190815260200160002060040154905060008083815260200190815260200160002060010160009054906101000a900473ffffffffffffffffffffffffffffffffffffffff1673ffffffffffffffffffffffffffffffffffffffff166108fc829081150290604051600060405180830381858888f19350505050158015610b07573d6000803e3d6000fd5b50813373ffffffffffffffffffffffffffffffffffffffff167fbe1ddb02a80576b41c4fb49186f5a199649c12e322b8a235e1817271f119910d34604051610b4f9190611c91565b60405180910390a35050565b606060056000838152602001908152602001600020805480602002602001604051908101604052809291908181526020016000905b82821015610cbe5783829060005260206000209060040201604051806080016040529081600082015481526020016001820160009054906101000a900473ffffffffffffffffffffffffffffffffffffffff1673ffffffffffffffffffffffffffffffffffffffff1673ffffffffffffffffffffffffffffffffffffffff16815260200160028201548152602001600382018054610c2d906127b6565b80601f0160208091040260200160405190810160405280929190818152602001828054610c59906127b6565b8015610ca65780601f10610c7b57610100808354040283529160200191610ca6565b820191906000526020600020905b815481529060010190602001808311610c8957829003601f168201915b50505050508152505081526020019060010190610b90565b505050509050919050565b6060610ce4336040518060200160405280600081525061134c565b905090565b60056020528160005260406000208181548110610d0557600080fd5b9060005260206000209060040201600091509150508060000154908060010160009054906101000a900473ffffffffffffffffffffffffffffffffffffffff1690806002015490806003018054610d5b906127b6565b80601f0160208091040260200160405190810160405280929190818152602001828054610d87906127b6565b8015610dd45780601f10610da957610100808354040283529160200191610dd4565b820191906000526020600020905b815481529060010190602001808311610db757829003601f168201915b5050505050905084565b6060610dfa60006040518060200160405280600081525061134c565b905090565b60028060000154905081565b60038060000154905081565b60008083815260200190815260200160002060050160009054906101000a900460ff1615610e7a576040517f08c379a0000000000000000000000000000000000000000000000000000000008152600401610e7190612b89565b60405180910390fd5b60008111610ebd576040517f08c379a0000000000000000000000000000000000000000000000000000000008152600401610eb490612bf5565b60405180910390fd5b3373ffffffffffffffffffffffffffffffffffffffff1660008084815260200190815260200160002060010160009054906101000a900473ffffffffffffffffffffffffffffffffffffffff1673ffffffffffffffffffffffffffffffffffffffff1603610f60576040517f08c379a0000000000000000000000000000000000000000000000000000000008152600401610f5790612c61565b60405180910390fd5b60008083815260200190815260200160002060010160009054906101000a900473ffffffffffffffffffffffffffffffffffffffff1673ffffffffffffffffffffffffffffffffffffffff166108fc829081150290604051600060405180830381858888f19350505050158015610fdb573d6000803e3d6000fd5b50813373ffffffffffffffffffffffffffffffffffffffff167fbe1ddb02a80576b41c4fb49186f5a199649c12e322b8a235e1817271f119910d836040516110239190611c91565b60405180910390a35050565b60046020528060005260406000206000915090508060000154908060010160009054906101000a900473ffffffffffffffffffffffffffffffffffffffff1690806002015490806003018054611084906127b6565b80601f01602080910402602001604051908101604052809291908181526020018280546110b0906127b6565b80156110fd5780601f106110d2576101008083540402835291602001916110fd565b820191906000526020600020905b8154815290600101906020018083116110e057829003601f168201915b5050505050905084565b6000806060600080600080600080898152602001908152602001600020905080600001548160010160009054906101000a900473ffffffffffffffffffffffffffffffffffffffff16826002018360030160009054906101000a900460ff1684600401548560050160009054906101000a900460ff16838054611189906127b6565b80601f01602080910402602001604051908101604052809291908181526020018280546111b5906127b6565b80156112025780601f106111d757610100808354040283529160200191611202565b820191906000526020600020905b8154815290600101906020018083116111e557829003601f168201915b505050505093509650965096509650965096505091939550919395565b3373ffffffffffffffffffffffffffffffffffffffff1660008084815260200190815260200160002060010160009054906101000a900473ffffffffffffffffffffffffffffffffffffffff1673ffffffffffffffffffffffffffffffffffffffff16146112c2576040517f08c379a00000000000000000000000000000000000000000000000000000000081526004016112b99061274c565b60405180910390fd5b60008083815260200190815260200160002060050160009054906101000a900460ff1615611325576040517f08c379a000000000000000000000000000000000000000000000000000000000815260040161131c90612833565b60405180910390fd5b80600080848152602001908152602001600020600201908161134791906129ff565b505050565b6060600060405160200161135f90612cb2565b60405160208183030381529060405280519060200120905060008360405160200161138a9190612cf8565b604051602081830303815290604052805190602001209050600080600190505b6113b46001611a99565b81116115a857600073ffffffffffffffffffffffffffffffffffffffff168773ffffffffffffffffffffffffffffffffffffffff16148061145557508673ffffffffffffffffffffffffffffffffffffffff1660008083815260200190815260200160002060010160009054906101000a900473ffffffffffffffffffffffffffffffffffffffff1673ffffffffffffffffffffffffffffffffffffffff16145b80156115555750838314806115545750611553600080838152602001908152602001600020600b01805480602002602001604051908101604052809291908181526020016000905b828210156115495783829060005260206000200180546114bc906127b6565b80601f01602080910402602001604051908101604052809291908181526020018280546114e8906127b6565b80156115355780601f1061150a57610100808354040283529160200191611535565b820191906000526020600020905b81548152906001019060200180831161151857829003601f168201915b50505050508152602001906001019061149d565b5050505087611aa7565b5b5b8015611581575060008082815260200190815260200160002060050160009054906101000a900460ff16155b1561159557818061159190612d3e565b9250505b80806115a090612d3e565b9150506113aa565b5060008167ffffffffffffffff8111156115c5576115c4611ead565b5b6040519080825280602002602001820160405280156115fe57816020015b6115eb611b8c565b8152602001906001900390816115e35790505b509050600080600190505b6116136001611a99565b8111611a7457600073ffffffffffffffffffffffffffffffffffffffff168973ffffffffffffffffffffffffffffffffffffffff1614806116b457508873ffffffffffffffffffffffffffffffffffffffff1660008083815260200190815260200160002060010160009054906101000a900473ffffffffffffffffffffffffffffffffffffffff1673ffffffffffffffffffffffffffffffffffffffff16145b80156117b45750858514806117b357506117b2600080838152602001908152602001600020600b01805480602002602001604051908101604052809291908181526020016000905b828210156117a857838290600052602060002001805461171b906127b6565b80601f0160208091040260200160405190810160405280929190818152602001828054611747906127b6565b80156117945780601f1061176957610100808354040283529160200191611794565b820191906000526020600020905b81548152906001019060200180831161177757829003601f168201915b5050505050815260200190600101906116fc565b5050505089611aa7565b5b5b80156117e0575060008082815260200190815260200160002060050160009054906101000a900460ff16155b15611a615760008060008381526020019081526020016000209050604051806101400160405280826000015481526020018260010160009054906101000a900473ffffffffffffffffffffffffffffffffffffffff1673ffffffffffffffffffffffffffffffffffffffff168152602001826002018054611860906127b6565b80601f016020809104026020016040519081016040528092919081815260200182805461188c906127b6565b80156118d95780601f106118ae576101008083540402835291602001916118d9565b820191906000526020600020905b8154815290600101906020018083116118bc57829003601f168201915b505050505081526020018260030160009054906101000a900460ff1615158152602001826004015481526020018260050160009054906101000a900460ff1615158152602001826006015481526020018260070154815260200182600a0160009054906101000a900460ff16600281111561195757611956611d98565b5b815260200182600b01805480602002602001604051908101604052809291908181526020016000905b82821015611a2c57838290600052602060002001805461199f906127b6565b80601f01602080910402602001604051908101604052809291908181526020018280546119cb906127b6565b8015611a185780601f106119ed57610100808354040283529160200191611a18565b820191906000526020600020905b8154815290600101906020018083116119fb57829003601f168201915b505050505081526020019060010190611980565b50505050815250848481518110611a4657611a45612d86565b5b60200260200101819052508280611a5c90612d3e565b935050505b8080611a6c90612d3e565b915050611609565b50819550505050505092915050565b6001816000016000828254019250508190555050565b600081600001549050919050565b600080600090505b8351811015611b425782604051602001611ac99190612cf8565b60405160208183030381529060405280519060200120848281518110611af257611af1612d86565b5b6020026020010151604051602001611b0a9190612cf8565b6040516020818303038152906040528051906020012003611b2f576001915050611b48565b8080611b3a90612d3e565b915050611aaf565b50600090505b92915050565b604051806080016040528060008152602001600073ffffffffffffffffffffffffffffffffffffffff16815260200160008152602001606081525090565b60405180610140016040528060008152602001600073ffffffffffffffffffffffffffffffffffffffff1681526020016060815260200160001515815260200160008152602001600015158152602001600081526020016000815260200160006002811115611bfe57611bfd611d98565b5b8152602001606081525090565b6000604051905090565b600080fd5b600080fd5b6000819050919050565b611c3281611c1f565b8114611c3d57600080fd5b50565b600081359050611c4f81611c29565b92915050565b600060208284031215611c6b57611c6a611c15565b5b6000611c7984828501611c40565b91505092915050565b611c8b81611c1f565b82525050565b6000602082019050611ca66000830184611c82565b92915050565b600073ffffffffffffffffffffffffffffffffffffffff82169050919050565b6000611cd782611cac565b9050919050565b611ce781611ccc565b82525050565b600081519050919050565b600082825260208201905092915050565b60005b83811015611d27578082015181840152602081019050611d0c565b60008484015250505050565b6000601f19601f8301169050919050565b6000611d4f82611ced565b611d598185611cf8565b9350611d69818560208601611d09565b611d7281611d33565b840191505092915050565b60008115159050919050565b611d9281611d7d565b82525050565b7f4e487b7100000000000000000000000000000000000000000000000000000000600052602160045260246000fd5b60038110611dd857611dd7611d98565b5b50565b6000819050611de982611dc7565b919050565b6000611df982611ddb565b9050919050565b611e0981611dee565b82525050565b600061012082019050611e25600083018c611c82565b611e32602083018b611cde565b8181036040830152611e44818a611d44565b9050611e536060830189611d89565b611e606080830188611c82565b611e6d60a0830187611d89565b611e7a60c0830186611c82565b611e8760e0830185611c82565b611e95610100830184611e00565b9a9950505050505050505050565b600080fd5b600080fd5b7f4e487b7100000000000000000000000000000000000000000000000000000000600052604160045260246000fd5b611ee582611d33565b810181811067ffffffffffffffff82111715611f0457611f03611ead565b5b80604052505050565b6000611f17611c0b565b9050611f238282611edc565b919050565b600067ffffffffffffffff821115611f4357611f42611ead565b5b611f4c82611d33565b9050602081019050919050565b82818337600083830152505050565b6000611f7b611f7684611f28565b611f0d565b905082815260208101848484011115611f9757611f96611ea8565b5b611fa2848285611f59565b509392505050565b600082601f830112611fbf57611fbe611ea3565b5b8135611fcf848260208601611f68565b91505092915050565b600060208284031215611fee57611fed611c15565b5b600082013567ffffffffffffffff81111561200c5761200b611c1a565b5b61201884828501611faa565b91505092915050565b600081519050919050565b600082825260208201905092915050565b6000819050602082019050919050565b61205681611c1f565b82525050565b600061206782611cac565b9050919050565b6120778161205c565b82525050565b600082825260208201905092915050565b600061209982611ced565b6120a3818561207d565b93506120b3818560208601611d09565b6120bc81611d33565b840191505092915050565b6120d081611d7d565b82525050565b6120df81611dee565b82525050565b600081519050919050565b600082825260208201905092915050565b6000819050602082019050919050565b600061211d838361208e565b905092915050565b6000602082019050919050565b600061213d826120e5565b61214781856120f0565b93508360208202850161215985612101565b8060005b8581101561219557848403895281516121768582612111565b945061218183612125565b925060208a0199505060018101905061215d565b50829750879550505050505092915050565b6000610140830160008301516121c0600086018261204d565b5060208301516121d3602086018261206e565b50604083015184820360408601526121eb828261208e565b915050606083015161220060608601826120c7565b506080830151612213608086018261204d565b5060a083015161222660a08601826120c7565b5060c083015161223960c086018261204d565b5060e083015161224c60e086018261204d565b506101008301516122616101008601826120d6565b5061012083015184820361012086015261227b8282612132565b9150508091505092915050565b600061229483836121a7565b905092915050565b6000602082019050919050565b60006122b482612021565b6122be818561202c565b9350836020820285016122d08561203d565b8060005b8581101561230c57848403895281516122ed8582612288565b94506122f88361229c565b925060208a019950506001810190506122d4565b50829750879550505050505092915050565b6000602082019050818103600083015261233881846122a9565b905092915050565b6000806040838503121561235757612356611c15565b5b600061236585828601611c40565b925050602083013567ffffffffffffffff81111561238657612385611c1a565b5b61239285828601611faa565b9150509250929050565b6123a58161205c565b81146123b057600080fd5b50565b6000813590506123c28161239c565b92915050565b6000602082840312156123de576123dd611c15565b5b60006123ec848285016123b3565b91505092915050565b6123fe81611d7d565b811461240957600080fd5b50565b60008135905061241b816123f5565b92915050565b60008060006060848603121561243a57612439611c15565b5b600084013567ffffffffffffffff81111561245857612457611c1a565b5b61246486828701611faa565b93505060206124758682870161240c565b925050604061248686828701611c40565b9150509250925092565b600081519050919050565b600082825260208201905092915050565b6000819050602082019050919050565b60006080830160008301516124d4600086018261204d565b5060208301516124e7602086018261206e565b5060408301516124fa604086018261204d565b5060608301518482036060860152612512828261208e565b9150508091505092915050565b600061252b83836124bc565b905092915050565b6000602082019050919050565b600061254b82612490565b612555818561249b565b935083602082028501612567856124ac565b8060005b858110156125a35784840389528151612584858261251f565b945061258f83612533565b925060208a0199505060018101905061256b565b50829750879550505050505092915050565b600060208201905081810360008301526125cf8184612540565b905092915050565b600080604083850312156125ee576125ed611c15565b5b60006125fc85828601611c40565b925050602061260d85828601611c40565b9150509250929050565b6126208161205c565b82525050565b600060808201905061263b6000830187611c82565b6126486020830186612617565b6126556040830185611c82565b81810360608301526126678184611d44565b905095945050505050565b600060c0820190506126876000830189611c82565b6126946020830188612617565b81810360408301526126a68187611d44565b90506126b56060830186611d89565b6126c26080830185611c82565b6126cf60a0830184611d89565b979650505050505050565b7f596f7520617265206e6f7420746865206f776e6572206f662074686520706f7360008201527f7400000000000000000000000000000000000000000000000000000000000000602082015250565b6000612736602183611cf8565b9150612741826126da565b604082019050919050565b6000602082019050818103600083015261276581612729565b9050919050565b60006020820190506127816000830184611d89565b92915050565b7f4e487b7100000000000000000000000000000000000000000000000000000000600052602260045260246000fd5b600060028204905060018216806127ce57607f821691505b6020821081036127e1576127e0612787565b5b50919050565b7f506f73742069732064656c657465640000000000000000000000000000000000600082015250565b600061281d600f83611cf8565b9150612828826127e7565b602082019050919050565b6000602082019050818103600083015261284c81612810565b9050919050565b60008190508160005260206000209050919050565b60006020601f8301049050919050565b600082821b905092915050565b6000600883026128b57fffffffffffffffffffffffffffffffffffffffffffffffffffffffffffffffff82612878565b6128bf8683612878565b95508019841693508086168417925050509392505050565b6000819050919050565b60006128fc6128f76128f284611c1f565b6128d7565b611c1f565b9050919050565b6000819050919050565b612916836128e1565b61292a61292282612903565b848454612885565b825550505050565b600090565b61293f612932565b61294a81848461290d565b505050565b5b8181101561296e57612963600082612937565b600181019050612950565b5050565b601f8211156129b35761298481612853565b61298d84612868565b8101602085101561299c578190505b6129b06129a885612868565b83018261294f565b50505b505050565b600082821c905092915050565b60006129d6600019846008026129b8565b1980831691505092915050565b60006129ef83836129c5565b9150826002028217905092915050565b612a0882611ced565b67ffffffffffffffff811115612a2157612a20611ead565b5b612a2b82546127b6565b612a36828285612972565b600060209050601f831160018114612a695760008415612a57578287015190505b612a6185826129e3565b865550612ac9565b601f198416612a7786612853565b60005b82811015612a9f57848901518255600182019150602085019450602081019050612a7a565b86831015612abc5784890151612ab8601f8916826129c5565b8355505b6001600288020188555050505b505050505050565b7f506f7374206973206e6f74207061696400000000000000000000000000000000600082015250565b6000612b07601083611cf8565b9150612b1282612ad1565b602082019050919050565b60006020820190508181036000830152612b3681612afa565b9050919050565b7f706f73742069732064656c657465640000000000000000000000000000000000600082015250565b6000612b73600f83611cf8565b9150612b7e82612b3d565b602082019050919050565b60006020820190508181036000830152612ba281612b66565b9050919050565b7f496e76616c69642074697020616d6f756e740000000000000000000000000000600082015250565b6000612bdf601283611cf8565b9150612bea82612ba9565b602082019050919050565b60006020820190508181036000830152612c0e81612bd2565b9050919050565b7f596f752063616e6e6f742074697020796f7572206f776e20706f737400000000600082015250565b6000612c4b601c83611cf8565b9150612c5682612c15565b602082019050919050565b60006020820190508181036000830152612c7a81612c3e565b9050919050565b600081905092915050565b50565b6000612c9c600083612c81565b9150612ca782612c8c565b600082019050919050565b6000612cbd82612c8f565b9150819050919050565b6000612cd282611ced565b612cdc8185612c81565b9350612cec818560208601611d09565b80840191505092915050565b6000612d048284612cc7565b915081905092915050565b7f4e487b7100000000000000000000000000000000000000000000000000000000600052601160045260246000fd5b6000612d4982611c1f565b91507fffffffffffffffffffffffffffffffffffffffffffffffffffffffffffffffff8203612d7b57612d7a612d0f565b5b600182019050919050565b7f4e487b7100000000000000000000000000000000000000000000000000000000600052603260045260246000fdfea2646970667358221220c282abbda2fe91cd728b4c71be1d1d05b1150fbcb336d4ca6a4adc73651bf49264736f6c63430008130033",
  "linkReferences": {},
  "deployedLinkReferences": {}
}