{
  "_format": "hh-sol-artifact-1",
  "contractName": "PostBase",
  "sourceName": "contracts/PostBase.sol",
  "abi": [
    {
      "inputs": [],
      "name": "commentCounter",
      "outputs": [
        {
          "internalType": "uint256",
          "name": "_value",
          "type": "uint256"
        }
      ],
      "stateMutability": "view",
      "type": "function"
    },
    {
      "inputs": [],
      "name": "postCounter",
      "outputs": [
        {
          "internalType": "uint256",
          "name": "_value",
          "type": "uint256"
        }
      ],
      "stateMutability": "view",
      "type": "function"
    },
    {
      "inputs": [
        {
          "internalType": "uint256",
          "name": "",
          "type": "uint256"
        }
      ],
      "name": "posts",
      "outputs": [
        {
          "internalType": "uint256",
          "name": "id",
          "type": "uint256"
        },
        {
          "internalType": "address payable",
          "name": "username",
          "type": "address"
        },
        {
          "internalType": "string",
          "name": "postText",
          "type": "string"
        },
        {
          "internalType": "bool",
          "name": "isPaid",
          "type": "bool"
        },
        {
          "internalType": "uint256",
          "name": "viewPrice",
          "type": "uint256"
        },
        {
          "internalType": "bool",
          "name": "isDeleted",
          "type": "bool"
        },
        {
          "internalType": "uint256",
          "name": "likes",
          "type": "uint256"
        },
        {
          "internalType": "uint256",
          "name": "dislikes",
          "type": "uint256"
        },
        {
          "internalType": "enum DataTypes.Visibility",
          "name": "visibility",
          "type": "uint8"
        }
      ],
      "stateMutability": "view",
      "type": "function"
    },
    {
      "inputs": [],
      "name": "reportCounter",
      "outputs": [
        {
          "internalType": "uint256",
          "name": "_value",
          "type": "uint256"
        }
      ],
      "stateMutability": "view",
      "type": "function"
    }
  ],
  "bytecode": "0x608060405234801561001057600080fd5b50610543806100206000396000f3fe608060405234801561001057600080fd5b506004361061004c5760003560e01c806309b3d75e146100515780630b1e7f831461006f578063b8c0a1ef146100a7578063b9bc38f2146100c5575b600080fd5b6100596100e3565b604051610066919061023d565b60405180910390f35b61008960048036038101906100849190610289565b6100ef565b60405161009e99989796959493929190610419565b60405180910390f35b6100af61020c565b6040516100bc919061023d565b60405180910390f35b6100cd610218565b6040516100da919061023d565b60405180910390f35b60018060000154905081565b60006020528060005260406000206000915090508060000154908060010160009054906101000a900473ffffffffffffffffffffffffffffffffffffffff169080600201805461013e906104dc565b80601f016020809104026020016040519081016040528092919081815260200182805461016a906104dc565b80156101b75780601f1061018c576101008083540402835291602001916101b7565b820191906000526020600020905b81548152906001019060200180831161019a57829003601f168201915b5050505050908060030160009054906101000a900460ff16908060040154908060050160009054906101000a900460ff169080600601549080600701549080600a0160009054906101000a900460ff16905089565b60028060000154905081565b60038060000154905081565b6000819050919050565b61023781610224565b82525050565b6000602082019050610252600083018461022e565b92915050565b600080fd5b61026681610224565b811461027157600080fd5b50565b6000813590506102838161025d565b92915050565b60006020828403121561029f5761029e610258565b5b60006102ad84828501610274565b91505092915050565b600073ffffffffffffffffffffffffffffffffffffffff82169050919050565b60006102e1826102b6565b9050919050565b6102f1816102d6565b82525050565b600081519050919050565b600082825260208201905092915050565b60005b83811015610331578082015181840152602081019050610316565b60008484015250505050565b6000601f19601f8301169050919050565b6000610359826102f7565b6103638185610302565b9350610373818560208601610313565b61037c8161033d565b840191505092915050565b60008115159050919050565b61039c81610387565b82525050565b7f4e487b7100000000000000000000000000000000000000000000000000000000600052602160045260246000fd5b600381106103e2576103e16103a2565b5b50565b60008190506103f3826103d1565b919050565b6000610403826103e5565b9050919050565b610413816103f8565b82525050565b60006101208201905061042f600083018c61022e565b61043c602083018b6102e8565b818103604083015261044e818a61034e565b905061045d6060830189610393565b61046a608083018861022e565b61047760a0830187610393565b61048460c083018661022e565b61049160e083018561022e565b61049f61010083018461040a565b9a9950505050505050505050565b7f4e487b7100000000000000000000000000000000000000000000000000000000600052602260045260246000fd5b600060028204905060018216806104f457607f821691505b602082108103610507576105066104ad565b5b5091905056fea2646970667358221220ce07f959c1bb9c903bba5a30c72378f9dc0462703e3cd0eabad2d235c9660b5264736f6c63430008130033",
  "linkReferences": {},
  "deployedLinkReferences": {}
}