{
  "_format": "hh-sol-artifact-1",
  "contractName": "SocialMedia",
  "sourceName": "contracts/main.sol",
  "abi": [
    {
      "inputs": [],
      "stateMutability": "nonpayable",
      "type": "constructor"
    },
    {
      "anonymous": false,
      "inputs": [
        {
          "indexed": true,
          "internalType": "address",
          "name": "recipient",
          "type": "address"
        },
        {
          "indexed": true,
          "internalType": "uint256",
          "name": "postId",
          "type": "uint256"
        }
      ],
      "name": "AddPost",
      "type": "event"
    },
    {
      "anonymous": false,
      "inputs": [
        {
          "indexed": true,
          "internalType": "address",
          "name": "owner",
          "type": "address"
        },
        {
          "indexed": true,
          "internalType": "address",
          "name": "approved",
          "type": "address"
        },
        {
          "indexed": true,
          "internalType": "uint256",
          "name": "tokenId",
          "type": "uint256"
        }
      ],
      "name": "Approval",
      "type": "event"
    },
    {
      "anonymous": false,
      "inputs": [
        {
          "indexed": true,
          "internalType": "address",
          "name": "owner",
          "type": "address"
        },
        {
          "indexed": true,
          "internalType": "address",
          "name": "operator",
          "type": "address"
        },
        {
          "indexed": false,
          "internalType": "bool",
          "name": "approved",
          "type": "bool"
        }
      ],
      "name": "ApprovalForAll",
      "type": "event"
    },
    {
      "anonymous": false,
      "inputs": [
        {
          "indexed": true,
          "internalType": "address",
          "name": "follower",
          "type": "address"
        },
        {
          "indexed": true,
          "internalType": "address",
          "name": "sender",
          "type": "address"
        },
        {
          "indexed": true,
          "internalType": "uint256",
          "name": "postId",
          "type": "uint256"
        }
      ],
      "name": "BuyPostEvent",
      "type": "event"
    },
    {
      "anonymous": false,
      "inputs": [
        {
          "indexed": true,
          "internalType": "address",
          "name": "follower",
          "type": "address"
        },
        {
          "indexed": true,
          "internalType": "address",
          "name": "sender",
          "type": "address"
        },
        {
          "indexed": true,
          "internalType": "uint256",
          "name": "postId",
          "type": "uint256"
        }
      ],
      "name": "CancelPostEvent",
      "type": "event"
    },
    {
      "anonymous": false,
      "inputs": [
        {
          "indexed": true,
          "internalType": "uint256",
          "name": "postId",
          "type": "uint256"
        },
        {
          "indexed": false,
          "internalType": "bool",
          "name": "isDeleted",
          "type": "bool"
        }
      ],
      "name": "DeletePost",
      "type": "event"
    },
    {
      "anonymous": false,
      "inputs": [
        {
          "indexed": true,
          "internalType": "address",
          "name": "sender",
          "type": "address"
        },
        {
          "indexed": true,
          "internalType": "uint256",
          "name": "postId",
          "type": "uint256"
        }
      ],
      "name": "DislikePost",
      "type": "event"
    },
    {
      "anonymous": false,
      "inputs": [
        {
          "indexed": true,
          "internalType": "address",
          "name": "sender",
          "type": "address"
        },
        {
          "indexed": true,
          "internalType": "uint256",
          "name": "postId",
          "type": "uint256"
        }
      ],
      "name": "LikePost",
      "type": "event"
    },
    {
      "anonymous": false,
      "inputs": [
        {
          "indexed": true,
          "internalType": "address",
          "name": "follower",
          "type": "address"
        },
        {
          "indexed": true,
          "internalType": "address",
          "name": "sender",
          "type": "address"
        },
        {
          "indexed": true,
          "internalType": "uint256",
          "name": "postId",
          "type": "uint256"
        }
      ],
      "name": "ListPostEvent",
      "type": "event"
    },
    {
      "anonymous": false,
      "inputs": [
        {
          "indexed": true,
          "internalType": "address",
          "name": "follower",
          "type": "address"
        },
        {
          "indexed": true,
          "internalType": "address",
          "name": "sender",
          "type": "address"
        },
        {
          "indexed": true,
          "internalType": "uint256",
          "name": "postId",
          "type": "uint256"
        }
      ],
      "name": "NewPostForFollower",
      "type": "event"
    },
    {
      "anonymous": false,
      "inputs": [
        {
          "indexed": true,
          "internalType": "uint256",
          "name": "postId",
          "type": "uint256"
        },
        {
          "indexed": true,
          "internalType": "address",
          "name": "liker",
          "type": "address"
        }
      ],
      "name": "PostLiked",
      "type": "event"
    },
    {
      "anonymous": false,
      "inputs": [
        {
          "indexed": true,
          "internalType": "uint256",
          "name": "postId",
          "type": "uint256"
        },
        {
          "indexed": true,
          "internalType": "address",
          "name": "reporter",
          "type": "address"
        },
        {
          "indexed": false,
          "internalType": "string",
          "name": "reason",
          "type": "string"
        }
      ],
      "name": "PostReported",
      "type": "event"
    },
    {
      "anonymous": false,
      "inputs": [
        {
          "indexed": true,
          "internalType": "uint256",
          "name": "postId",
          "type": "uint256"
        },
        {
          "indexed": true,
          "internalType": "address",
          "name": "unliker",
          "type": "address"
        }
      ],
      "name": "PostUnliked",
      "type": "event"
    },
    {
      "anonymous": false,
      "inputs": [
        {
          "indexed": true,
          "internalType": "address",
          "name": "sender",
          "type": "address"
        },
        {
          "indexed": true,
          "internalType": "uint256",
          "name": "postId",
          "type": "uint256"
        },
        {
          "indexed": false,
          "internalType": "uint256",
          "name": "tipAmount",
          "type": "uint256"
        }
      ],
      "name": "TipPost",
      "type": "event"
    },
    {
      "anonymous": false,
      "inputs": [
        {
          "indexed": true,
          "internalType": "address",
          "name": "from",
          "type": "address"
        },
        {
          "indexed": true,
          "internalType": "address",
          "name": "to",
          "type": "address"
        },
        {
          "indexed": true,
          "internalType": "uint256",
          "name": "tokenId",
          "type": "uint256"
        }
      ],
      "name": "Transfer",
      "type": "event"
    },
    {
      "anonymous": false,
      "inputs": [
        {
          "indexed": true,
          "internalType": "address",
          "name": "sender",
          "type": "address"
        },
        {
          "indexed": true,
          "internalType": "uint256",
          "name": "postId",
          "type": "uint256"
        }
      ],
      "name": "ViewPost",
      "type": "event"
    },
    {
      "inputs": [
        {
          "internalType": "uint256",
          "name": "_postId",
          "type": "uint256"
        },
        {
          "internalType": "string",
          "name": "_commentText",
          "type": "string"
        }
      ],
      "name": "addComment",
      "outputs": [],
      "stateMutability": "nonpayable",
      "type": "function"
    },
    {
      "inputs": [
        {
          "internalType": "string",
          "name": "ip",
          "type": "string"
        },
        {
          "internalType": "uint16",
          "name": "port",
          "type": "uint16"
        }
      ],
      "name": "addGatekeeper",
      "outputs": [],
      "stateMutability": "nonpayable",
      "type": "function"
    },
    {
      "inputs": [
        {
          "internalType": "string",
          "name": "_postText",
          "type": "string"
        },
        {
          "internalType": "uint256",
          "name": "_viewPrice",
          "type": "uint256"
        }
      ],
      "name": "addPost",
      "outputs": [],
      "stateMutability": "payable",
      "type": "function"
    },
    {
      "inputs": [
        {
          "internalType": "address",
          "name": "to",
          "type": "address"
        },
        {
          "internalType": "uint256",
          "name": "tokenId",
          "type": "uint256"
        }
      ],
      "name": "approve",
      "outputs": [],
      "stateMutability": "nonpayable",
      "type": "function"
    },
    {
      "inputs": [
        {
          "internalType": "address",
          "name": "owner",
          "type": "address"
        }
      ],
      "name": "balanceOf",
      "outputs": [
        {
          "internalType": "uint256",
          "name": "",
          "type": "uint256"
        }
      ],
      "stateMutability": "view",
      "type": "function"
    },
    {
      "inputs": [
        {
          "internalType": "uint256",
          "name": "postId",
          "type": "uint256"
        }
      ],
      "name": "buyPost",
      "outputs": [],
      "stateMutability": "payable",
      "type": "function"
    },
    {
      "inputs": [
        {
          "internalType": "uint256",
          "name": "postId",
          "type": "uint256"
        }
      ],
      "name": "cancelListing",
      "outputs": [],
      "stateMutability": "nonpayable",
      "type": "function"
    },
    {
      "inputs": [],
      "name": "clearNotifications",
      "outputs": [],
      "stateMutability": "nonpayable",
      "type": "function"
    },
    {
      "inputs": [
        {
          "internalType": "uint256",
          "name": "postId",
          "type": "uint256"
        }
      ],
      "name": "deletePost",
      "outputs": [],
      "stateMutability": "nonpayable",
      "type": "function"
    },
    {
      "inputs": [
        {
          "internalType": "uint256",
          "name": "_postId",
          "type": "uint256"
        },
        {
          "internalType": "string",
          "name": "_newPostText",
          "type": "string"
        },
        {
          "internalType": "uint256",
          "name": "_newPrice",
          "type": "uint256"
        }
      ],
      "name": "editPost",
      "outputs": [],
      "stateMutability": "nonpayable",
      "type": "function"
    },
    {
      "inputs": [
        {
          "internalType": "address",
          "name": "_user",
          "type": "address"
        }
      ],
      "name": "followUser",
      "outputs": [],
      "stateMutability": "nonpayable",
      "type": "function"
    },
    {
      "inputs": [
        {
          "internalType": "address",
          "name": "",
          "type": "address"
        },
        {
          "internalType": "address",
          "name": "",
          "type": "address"
        }
      ],
      "name": "followers",
      "outputs": [
        {
          "internalType": "bool",
          "name": "",
          "type": "bool"
        }
      ],
      "stateMutability": "view",
      "type": "function"
    },
    {
      "inputs": [
        {
          "internalType": "uint256",
          "name": "",
          "type": "uint256"
        }
      ],
      "name": "gatekeepers",
      "outputs": [
        {
          "internalType": "string",
          "name": "ip",
          "type": "string"
        },
        {
          "internalType": "uint16",
          "name": "port",
          "type": "uint16"
        }
      ],
      "stateMutability": "view",
      "type": "function"
    },
    {
      "inputs": [],
      "name": "getAllPosts",
      "outputs": [
        {
          "components": [
            {
              "internalType": "uint256",
              "name": "id",
              "type": "uint256"
            },
            {
              "internalType": "address payable",
              "name": "username",
              "type": "address"
            },
            {
              "internalType": "string",
              "name": "postText",
              "type": "string"
            },
            {
              "internalType": "uint256",
              "name": "viewPrice",
              "type": "uint256"
            },
            {
              "internalType": "bool",
              "name": "isDeleted",
              "type": "bool"
            },
            {
              "internalType": "uint256",
              "name": "likes",
              "type": "uint256"
            },
            {
              "internalType": "uint256",
              "name": "dislikes",
              "type": "uint256"
            },
            {
              "internalType": "enum DataTypes.Visibility",
              "name": "visibility",
              "type": "uint8"
            },
            {
              "components": [
                {
                  "internalType": "uint256",
                  "name": "id",
                  "type": "uint256"
                },
                {
                  "internalType": "address payable",
                  "name": "commenter",
                  "type": "address"
                },
                {
                  "internalType": "string",
                  "name": "commentText",
                  "type": "string"
                }
              ],
              "internalType": "struct DataTypes.Comment[]",
              "name": "comments",
              "type": "tuple[]"
            },
            {
              "components": [
                {
                  "internalType": "uint256",
                  "name": "id",
                  "type": "uint256"
                },
                {
                  "internalType": "address",
                  "name": "reporter",
                  "type": "address"
                },
                {
                  "internalType": "string",
                  "name": "reason",
                  "type": "string"
                }
              ],
              "internalType": "struct DataTypes.Report[]",
              "name": "reports",
              "type": "tuple[]"
            },
            {
              "internalType": "address[]",
              "name": "userWhoPaid",
              "type": "address[]"
            },
            {
              "internalType": "bool",
              "name": "hasListed",
              "type": "bool"
            },
            {
              "internalType": "uint256",
              "name": "listPrice",
              "type": "uint256"
            }
          ],
          "internalType": "struct DataTypes.Post[]",
          "name": "",
          "type": "tuple[]"
        }
      ],
      "stateMutability": "view",
      "type": "function"
    },
    {
      "inputs": [
        {
          "internalType": "uint256",
          "name": "tokenId",
          "type": "uint256"
        }
      ],
      "name": "getApproved",
      "outputs": [
        {
          "internalType": "address",
          "name": "",
          "type": "address"
        }
      ],
      "stateMutability": "view",
      "type": "function"
    },
    {
      "inputs": [],
      "name": "getFollowedUsersPosts",
      "outputs": [
        {
          "components": [
            {
              "internalType": "uint256",
              "name": "id",
              "type": "uint256"
            },
            {
              "internalType": "address payable",
              "name": "username",
              "type": "address"
            },
            {
              "internalType": "string",
              "name": "postText",
              "type": "string"
            },
            {
              "internalType": "uint256",
              "name": "viewPrice",
              "type": "uint256"
            },
            {
              "internalType": "bool",
              "name": "isDeleted",
              "type": "bool"
            },
            {
              "internalType": "uint256",
              "name": "likes",
              "type": "uint256"
            },
            {
              "internalType": "uint256",
              "name": "dislikes",
              "type": "uint256"
            },
            {
              "internalType": "enum DataTypes.Visibility",
              "name": "visibility",
              "type": "uint8"
            },
            {
              "components": [
                {
                  "internalType": "uint256",
                  "name": "id",
                  "type": "uint256"
                },
                {
                  "internalType": "address payable",
                  "name": "commenter",
                  "type": "address"
                },
                {
                  "internalType": "string",
                  "name": "commentText",
                  "type": "string"
                }
              ],
              "internalType": "struct DataTypes.Comment[]",
              "name": "comments",
              "type": "tuple[]"
            },
            {
              "components": [
                {
                  "internalType": "uint256",
                  "name": "id",
                  "type": "uint256"
                },
                {
                  "internalType": "address",
                  "name": "reporter",
                  "type": "address"
                },
                {
                  "internalType": "string",
                  "name": "reason",
                  "type": "string"
                }
              ],
              "internalType": "struct DataTypes.Report[]",
              "name": "reports",
              "type": "tuple[]"
            },
            {
              "internalType": "address[]",
              "name": "userWhoPaid",
              "type": "address[]"
            },
            {
              "internalType": "bool",
              "name": "hasListed",
              "type": "bool"
            },
            {
              "internalType": "uint256",
              "name": "listPrice",
              "type": "uint256"
            }
          ],
          "internalType": "struct DataTypes.Post[]",
          "name": "",
          "type": "tuple[]"
        }
      ],
      "stateMutability": "view",
      "type": "function"
    },
    {
      "inputs": [
        {
          "internalType": "address",
          "name": "user",
          "type": "address"
        }
      ],
      "name": "getFollowers",
      "outputs": [
        {
          "internalType": "address[]",
          "name": "",
          "type": "address[]"
        }
      ],
      "stateMutability": "view",
      "type": "function"
    },
    {
      "inputs": [
        {
          "internalType": "uint256",
          "name": "index",
          "type": "uint256"
        }
      ],
      "name": "getGatekeeper",
      "outputs": [
        {
          "internalType": "string",
          "name": "ip",
          "type": "string"
        },
        {
          "internalType": "uint16",
          "name": "port",
          "type": "uint16"
        }
      ],
      "stateMutability": "view",
      "type": "function"
    },
    {
      "inputs": [],
      "name": "getGatekeepersCount",
      "outputs": [
        {
          "internalType": "uint256",
          "name": "",
          "type": "uint256"
        }
      ],
      "stateMutability": "view",
      "type": "function"
    },
    {
      "inputs": [
        {
          "internalType": "uint256",
          "name": "postId",
          "type": "uint256"
        }
      ],
      "name": "getLikesForPost",
      "outputs": [
        {
          "internalType": "uint256",
          "name": "",
          "type": "uint256"
        }
      ],
      "stateMutability": "view",
      "type": "function"
    },
    {
      "inputs": [
        {
          "internalType": "uint256",
          "name": "postId",
          "type": "uint256"
        }
      ],
      "name": "getListPrice",
      "outputs": [
        {
          "internalType": "uint256",
          "name": "",
          "type": "uint256"
        }
      ],
      "stateMutability": "view",
      "type": "function"
    },
    {
      "inputs": [],
      "name": "getMyPosts",
      "outputs": [
        {
          "components": [
            {
              "internalType": "uint256",
              "name": "id",
              "type": "uint256"
            },
            {
              "internalType": "address payable",
              "name": "username",
              "type": "address"
            },
            {
              "internalType": "string",
              "name": "postText",
              "type": "string"
            },
            {
              "internalType": "uint256",
              "name": "viewPrice",
              "type": "uint256"
            },
            {
              "internalType": "bool",
              "name": "isDeleted",
              "type": "bool"
            },
            {
              "internalType": "uint256",
              "name": "likes",
              "type": "uint256"
            },
            {
              "internalType": "uint256",
              "name": "dislikes",
              "type": "uint256"
            },
            {
              "internalType": "enum DataTypes.Visibility",
              "name": "visibility",
              "type": "uint8"
            },
            {
              "components": [
                {
                  "internalType": "uint256",
                  "name": "id",
                  "type": "uint256"
                },
                {
                  "internalType": "address payable",
                  "name": "commenter",
                  "type": "address"
                },
                {
                  "internalType": "string",
                  "name": "commentText",
                  "type": "string"
                }
              ],
              "internalType": "struct DataTypes.Comment[]",
              "name": "comments",
              "type": "tuple[]"
            },
            {
              "components": [
                {
                  "internalType": "uint256",
                  "name": "id",
                  "type": "uint256"
                },
                {
                  "internalType": "address",
                  "name": "reporter",
                  "type": "address"
                },
                {
                  "internalType": "string",
                  "name": "reason",
                  "type": "string"
                }
              ],
              "internalType": "struct DataTypes.Report[]",
              "name": "reports",
              "type": "tuple[]"
            },
            {
              "internalType": "address[]",
              "name": "userWhoPaid",
              "type": "address[]"
            },
            {
              "internalType": "bool",
              "name": "hasListed",
              "type": "bool"
            },
            {
              "internalType": "uint256",
              "name": "listPrice",
              "type": "uint256"
            }
          ],
          "internalType": "struct DataTypes.Post[]",
          "name": "",
          "type": "tuple[]"
        }
      ],
      "stateMutability": "view",
      "type": "function"
    },
    {
      "inputs": [
        {
          "internalType": "uint256",
          "name": "_postId",
          "type": "uint256"
        }
      ],
      "name": "getOwnerName",
      "outputs": [
        {
          "internalType": "address",
          "name": "",
          "type": "address"
        }
      ],
      "stateMutability": "view",
      "type": "function"
    },
    {
      "inputs": [
        {
          "internalType": "uint256",
          "name": "postId",
          "type": "uint256"
        }
      ],
      "name": "getPaidUsersByPostId",
      "outputs": [
        {
          "internalType": "address[]",
          "name": "",
          "type": "address[]"
        }
      ],
      "stateMutability": "view",
      "type": "function"
    },
    {
      "inputs": [
        {
          "internalType": "uint256",
          "name": "_postId",
          "type": "uint256"
        }
      ],
      "name": "getPostComments",
      "outputs": [
        {
          "components": [
            {
              "internalType": "uint256",
              "name": "id",
              "type": "uint256"
            },
            {
              "internalType": "address payable",
              "name": "commenter",
              "type": "address"
            },
            {
              "internalType": "string",
              "name": "commentText",
              "type": "string"
            }
          ],
          "internalType": "struct DataTypes.Comment[]",
          "name": "",
          "type": "tuple[]"
        }
      ],
      "stateMutability": "view",
      "type": "function"
    },
    {
      "inputs": [
        {
          "internalType": "uint256",
          "name": "postId",
          "type": "uint256"
        }
      ],
      "name": "getReportsForPost",
      "outputs": [
        {
          "components": [
            {
              "internalType": "uint256",
              "name": "id",
              "type": "uint256"
            },
            {
              "internalType": "address",
              "name": "reporter",
              "type": "address"
            },
            {
              "internalType": "string",
              "name": "reason",
              "type": "string"
            }
          ],
          "internalType": "struct DataTypes.Report[]",
          "name": "",
          "type": "tuple[]"
        }
      ],
      "stateMutability": "view",
      "type": "function"
    },
    {
      "inputs": [
        {
          "internalType": "uint256",
          "name": "_id",
          "type": "uint256"
        }
      ],
      "name": "getSinglePost",
      "outputs": [
        {
          "components": [
            {
              "internalType": "uint256",
              "name": "id",
              "type": "uint256"
            },
            {
              "internalType": "address payable",
              "name": "username",
              "type": "address"
            },
            {
              "internalType": "string",
              "name": "postText",
              "type": "string"
            },
            {
              "internalType": "uint256",
              "name": "viewPrice",
              "type": "uint256"
            },
            {
              "internalType": "bool",
              "name": "isDeleted",
              "type": "bool"
            },
            {
              "internalType": "uint256",
              "name": "likes",
              "type": "uint256"
            },
            {
              "internalType": "uint256",
              "name": "dislikes",
              "type": "uint256"
            },
            {
              "internalType": "enum DataTypes.Visibility",
              "name": "visibility",
              "type": "uint8"
            },
            {
              "components": [
                {
                  "internalType": "uint256",
                  "name": "id",
                  "type": "uint256"
                },
                {
                  "internalType": "address payable",
                  "name": "commenter",
                  "type": "address"
                },
                {
                  "internalType": "string",
                  "name": "commentText",
                  "type": "string"
                }
              ],
              "internalType": "struct DataTypes.Comment[]",
              "name": "comments",
              "type": "tuple[]"
            },
            {
              "components": [
                {
                  "internalType": "uint256",
                  "name": "id",
                  "type": "uint256"
                },
                {
                  "internalType": "address",
                  "name": "reporter",
                  "type": "address"
                },
                {
                  "internalType": "string",
                  "name": "reason",
                  "type": "string"
                }
              ],
              "internalType": "struct DataTypes.Report[]",
              "name": "reports",
              "type": "tuple[]"
            },
            {
              "internalType": "address[]",
              "name": "userWhoPaid",
              "type": "address[]"
            },
            {
              "internalType": "bool",
              "name": "hasListed",
              "type": "bool"
            },
            {
              "internalType": "uint256",
              "name": "listPrice",
              "type": "uint256"
            }
          ],
          "internalType": "struct DataTypes.Post",
          "name": "",
          "type": "tuple"
        }
      ],
      "stateMutability": "view",
      "type": "function"
    },
    {
      "inputs": [
        {
          "internalType": "address",
          "name": "",
          "type": "address"
        }
      ],
      "name": "hasAddedGatekeeper",
      "outputs": [
        {
          "internalType": "bool",
          "name": "",
          "type": "bool"
        }
      ],
      "stateMutability": "view",
      "type": "function"
    },
    {
      "inputs": [
        {
          "internalType": "uint256",
          "name": "postId",
          "type": "uint256"
        },
        {
          "internalType": "address",
          "name": "user",
          "type": "address"
        }
      ],
      "name": "hasUserPaidForPost",
      "outputs": [
        {
          "internalType": "bool",
          "name": "",
          "type": "bool"
        }
      ],
      "stateMutability": "view",
      "type": "function"
    },
    {
      "inputs": [
        {
          "internalType": "address",
          "name": "owner",
          "type": "address"
        },
        {
          "internalType": "address",
          "name": "operator",
          "type": "address"
        }
      ],
      "name": "isApprovedForAll",
      "outputs": [
        {
          "internalType": "bool",
          "name": "",
          "type": "bool"
        }
      ],
      "stateMutability": "view",
      "type": "function"
    },
    {
      "inputs": [
        {
          "internalType": "address",
          "name": "_follower",
          "type": "address"
        },
        {
          "internalType": "address",
          "name": "_following",
          "type": "address"
        }
      ],
      "name": "isFollowing",
      "outputs": [
        {
          "internalType": "bool",
          "name": "",
          "type": "bool"
        }
      ],
      "stateMutability": "view",
      "type": "function"
    },
    {
      "inputs": [
        {
          "internalType": "uint256",
          "name": "postId",
          "type": "uint256"
        }
      ],
      "name": "likePost",
      "outputs": [],
      "stateMutability": "nonpayable",
      "type": "function"
    },
    {
      "inputs": [
        {
          "internalType": "uint256",
          "name": "postId",
          "type": "uint256"
        },
        {
          "internalType": "uint256",
          "name": "_listPrice",
          "type": "uint256"
        }
      ],
      "name": "listPost",
      "outputs": [],
      "stateMutability": "nonpayable",
      "type": "function"
    },
    {
      "inputs": [],
      "name": "name",
      "outputs": [
        {
          "internalType": "string",
          "name": "",
          "type": "string"
        }
      ],
      "stateMutability": "view",
      "type": "function"
    },
    {
      "inputs": [
        {
          "internalType": "uint256",
          "name": "tokenId",
          "type": "uint256"
        }
      ],
      "name": "ownerOf",
      "outputs": [
        {
          "internalType": "address",
          "name": "",
          "type": "address"
        }
      ],
      "stateMutability": "view",
      "type": "function"
    },
    {
      "inputs": [],
      "name": "postCounter",
      "outputs": [
        {
          "internalType": "uint256",
          "name": "",
          "type": "uint256"
        }
      ],
      "stateMutability": "view",
      "type": "function"
    },
    {
      "inputs": [
        {
          "internalType": "uint256",
          "name": "",
          "type": "uint256"
        },
        {
          "internalType": "address",
          "name": "",
          "type": "address"
        }
      ],
      "name": "postReports",
      "outputs": [
        {
          "internalType": "bool",
          "name": "",
          "type": "bool"
        }
      ],
      "stateMutability": "view",
      "type": "function"
    },
    {
      "inputs": [
        {
          "internalType": "uint256",
          "name": "",
          "type": "uint256"
        }
      ],
      "name": "posts",
      "outputs": [
        {
          "internalType": "uint256",
          "name": "id",
          "type": "uint256"
        },
        {
          "internalType": "address payable",
          "name": "username",
          "type": "address"
        },
        {
          "internalType": "string",
          "name": "postText",
          "type": "string"
        },
        {
          "internalType": "uint256",
          "name": "viewPrice",
          "type": "uint256"
        },
        {
          "internalType": "bool",
          "name": "isDeleted",
          "type": "bool"
        },
        {
          "internalType": "uint256",
          "name": "likes",
          "type": "uint256"
        },
        {
          "internalType": "uint256",
          "name": "dislikes",
          "type": "uint256"
        },
        {
          "internalType": "enum DataTypes.Visibility",
          "name": "visibility",
          "type": "uint8"
        },
        {
          "internalType": "bool",
          "name": "hasListed",
          "type": "bool"
        },
        {
          "internalType": "uint256",
          "name": "listPrice",
          "type": "uint256"
        }
      ],
      "stateMutability": "view",
      "type": "function"
    },
    {
      "inputs": [
        {
          "internalType": "uint256",
          "name": "postId",
          "type": "uint256"
        },
        {
          "internalType": "string",
          "name": "reason",
          "type": "string"
        }
      ],
      "name": "reportPost",
      "outputs": [],
      "stateMutability": "nonpayable",
      "type": "function"
    },
    {
      "inputs": [
        {
          "internalType": "address",
          "name": "from",
          "type": "address"
        },
        {
          "internalType": "address",
          "name": "to",
          "type": "address"
        },
        {
          "internalType": "uint256",
          "name": "tokenId",
          "type": "uint256"
        }
      ],
      "name": "safeTransferFrom",
      "outputs": [],
      "stateMutability": "nonpayable",
      "type": "function"
    },
    {
      "inputs": [
        {
          "internalType": "address",
          "name": "from",
          "type": "address"
        },
        {
          "internalType": "address",
          "name": "to",
          "type": "address"
        },
        {
          "internalType": "uint256",
          "name": "tokenId",
          "type": "uint256"
        },
        {
          "internalType": "bytes",
          "name": "data",
          "type": "bytes"
        }
      ],
      "name": "safeTransferFrom",
      "outputs": [],
      "stateMutability": "nonpayable",
      "type": "function"
    },
    {
      "inputs": [
        {
          "internalType": "address",
          "name": "operator",
          "type": "address"
        },
        {
          "internalType": "bool",
          "name": "approved",
          "type": "bool"
        }
      ],
      "name": "setApprovalForAll",
      "outputs": [],
      "stateMutability": "nonpayable",
      "type": "function"
    },
    {
      "inputs": [
        {
          "internalType": "bytes4",
          "name": "interfaceId",
          "type": "bytes4"
        }
      ],
      "name": "supportsInterface",
      "outputs": [
        {
          "internalType": "bool",
          "name": "",
          "type": "bool"
        }
      ],
      "stateMutability": "view",
      "type": "function"
    },
    {
      "inputs": [],
      "name": "symbol",
      "outputs": [
        {
          "internalType": "string",
          "name": "",
          "type": "string"
        }
      ],
      "stateMutability": "view",
      "type": "function"
    },
    {
      "inputs": [
        {
          "internalType": "uint256",
          "name": "tokenId",
          "type": "uint256"
        }
      ],
      "name": "tokenURI",
      "outputs": [
        {
          "internalType": "string",
          "name": "",
          "type": "string"
        }
      ],
      "stateMutability": "view",
      "type": "function"
    },
    {
      "inputs": [
        {
          "internalType": "address",
          "name": "from",
          "type": "address"
        },
        {
          "internalType": "address",
          "name": "to",
          "type": "address"
        },
        {
          "internalType": "uint256",
          "name": "tokenId",
          "type": "uint256"
        }
      ],
      "name": "transferFrom",
      "outputs": [],
      "stateMutability": "nonpayable",
      "type": "function"
    },
    {
      "inputs": [
        {
          "internalType": "address",
          "name": "_user",
          "type": "address"
        }
      ],
      "name": "unfollowUser",
      "outputs": [],
      "stateMutability": "nonpayable",
      "type": "function"
    },
    {
      "inputs": [
        {
          "internalType": "uint256",
          "name": "postId",
          "type": "uint256"
        }
      ],
      "name": "unlikePost",
      "outputs": [],
      "stateMutability": "nonpayable",
      "type": "function"
    },
    {
      "inputs": [
        {
          "internalType": "address",
          "name": "",
          "type": "address"
        },
        {
          "internalType": "uint256",
          "name": "",
          "type": "uint256"
        }
      ],
      "name": "userNotifications",
      "outputs": [
        {
          "internalType": "enum NotificationsManagement.NotificationType",
          "name": "notificationType",
          "type": "uint8"
        },
        {
          "internalType": "address",
          "name": "fromUser",
          "type": "address"
        },
        {
          "internalType": "uint256",
          "name": "associatedPostId",
          "type": "uint256"
        },
        {
          "internalType": "string",
          "name": "additionalInfo",
          "type": "string"
        }
      ],
      "stateMutability": "view",
      "type": "function"
    },
    {
      "inputs": [],
      "name": "viewNotifications",
      "outputs": [
        {
          "components": [
            {
              "internalType": "enum NotificationsManagement.NotificationType",
              "name": "notificationType",
              "type": "uint8"
            },
            {
              "internalType": "address",
              "name": "fromUser",
              "type": "address"
            },
            {
              "internalType": "uint256",
              "name": "associatedPostId",
              "type": "uint256"
            },
            {
              "internalType": "string",
              "name": "additionalInfo",
              "type": "string"
            }
          ],
          "internalType": "struct NotificationsManagement.Notification[]",
          "name": "",
          "type": "tuple[]"
        }
      ],
      "stateMutability": "view",
      "type": "function"
    },
    {
      "inputs": [
        {
          "internalType": "uint256",
          "name": "postId",
          "type": "uint256"
        }
      ],
      "name": "viewPaidPost",
      "outputs": [],
      "stateMutability": "payable",
      "type": "function"
    }
  ],
  "bytecode": "0x60806040523480156200001157600080fd5b5060405180604001604052806007815260200166141bdcdd13919560ca1b815250604051806040016040528060048152602001631413919560e21b81525081600090816200006091906200011f565b5060016200006f82826200011f565b505050620001eb565b634e487b7160e01b600052604160045260246000fd5b600181811c90821680620000a357607f821691505b602082108103620000c457634e487b7160e01b600052602260045260246000fd5b50919050565b601f8211156200011a576000816000526020600020601f850160051c81016020861015620000f55750805b601f850160051c820191505b81811015620001165782815560010162000101565b5050505b505050565b81516001600160401b038111156200013b576200013b62000078565b62000153816200014c84546200008e565b84620000ca565b602080601f8311600181146200018b5760008415620001725750858301515b600019600386901b1c1916600185901b17855562000116565b600085815260208120601f198616915b82811015620001bc578886015182559484019460019091019084016200019b565b5085821015620001db5787850151600019600388901b60f8161c191681555b5050505050600190811b01905550565b61459680620001fb6000396000f3fe6080604052600436106102445760003560e01c806301ffc9a71461024957806305ec4e711461027e57806306fdde03146102a0578063081812fc146102c2578063094cd5ee146102fa578063095ea7b31461031c57806309b3d75e1461033c5780630a37b0bc146103605780630b1e7f831461038d5780630b3ea7e2146103c357806323b872dd146103d85780632d68a76c146103f85780632fa6733814610428578063305611001461043b578063305a67a81461045d57806338c919101461047d57806342842e0e146104ad5780634b722455146104cd5780635950eb5b146104ed5780636352211e1461050257806366ea76d514610522578063676ab3b21461053557806370987be11461056357806370a0823114610578578063725009d314610598578063789db68a146105b85780637ef94bce146105d85780638230c4fb146105f857806386be9250146106315780638cfbc01f14610651578063900baf131461066457806395d89b411461067957806399ec3a421461068e578063a22cb465146106d7578063a32f63e7146106f7578063a70806f714610717578063aa7e568314610737578063ad88881b14610757578063b446aa0114610792578063b86e6f09146107b2578063b88d4fde146107df578063b8b73ac3146107ff578063c2fe20221461082f578063c87b56dd1461084f578063d524ff761461086f578063df3ecbd21461089c578063e985e9c5146108d7578063f107cfcb146108f7578063fa188de914610917578063fa26924614610937578063ffc5d7df14610967575b600080fd5b34801561025557600080fd5b50610269610264366004613893565b610987565b60405190151581526020015b60405180910390f35b34801561028a57600080fd5b506102936109d9565b604051610275919061392a565b3480156102ac57600080fd5b506102b5610b30565b60405161027591906139c6565b3480156102ce57600080fd5b506102e26102dd3660046139d9565b610bc2565b6040516001600160a01b039091168152602001610275565b34801561030657600080fd5b5061031a6103153660046139d9565b610be9565b005b34801561032857600080fd5b5061031a610337366004613a0e565b610c83565b34801561034857600080fd5b5061035260065481565b604051908152602001610275565b34801561036c57600080fd5b5061038061037b3660046139d9565b610d98565b6040516102759190613a7d565b34801561039957600080fd5b506103ad6103a83660046139d9565b610e07565b6040516102759a99989796959493929190613aa0565b3480156103cf57600080fd5b50600a54610352565b3480156103e457600080fd5b5061031a6103f3366004613b0f565b610ef2565b34801561040457600080fd5b506103526104133660046139d9565b6000908152600760205260409020600c015490565b61031a6104363660046139d9565b610f23565b34801561044757600080fd5b5061045061112c565b6040516102759190613ccd565b34801561046957600080fd5b5061031a6104783660046139d9565b61113e565b34801561048957600080fd5b5061049d610498366004613a0e565b611274565b6040516102759493929190613d31565b3480156104b957600080fd5b5061031a6104c8366004613b0f565b611353565b3480156104d957600080fd5b5061031a6104e8366004613e1a565b61136e565b3480156104f957600080fd5b5061045061147d565b34801561050e57600080fd5b506102e261051d3660046139d9565b61148a565b61031a610530366004613e72565b6114be565b34801561054157600080fd5b506105556105503660046139d9565b6115e0565b604051610275929190613eb6565b34801561056f57600080fd5b506104506116c3565b34801561058457600080fd5b50610352610593366004613edc565b6116d0565b3480156105a457600080fd5b5061031a6105b33660046139d9565b611756565b3480156105c457600080fd5b5061031a6105d3366004613ef7565b6117a8565b3480156105e457600080fd5b5061031a6105f3366004613f46565b6118b0565b34801561060457600080fd5b506102e26106133660046139d9565b6000908152600760205260409020600101546001600160a01b031690565b34801561063d57600080fd5b5061026961064c366004613f8c565b611a79565b61031a61065f3660046139d9565b611b26565b34801561067057600080fd5b5061031a611c9c565b34801561068557600080fd5b506102b5611cb6565b34801561069a57600080fd5b506102696106a9366004613fb8565b6001600160a01b03918216600090815260096020908152604080832093909416825291909152205460ff1690565b3480156106e357600080fd5b5061031a6106f2366004613fe2565b611cc5565b34801561070357600080fd5b506105556107123660046139d9565b611cd4565b34801561072357600080fd5b5061031a610732366004613edc565b611d94565b34801561074357600080fd5b5061031a610752366004613f46565b611e46565b34801561076357600080fd5b50610269610772366004613fb8565b600960209081526000928352604080842090915290825290205460ff1681565b34801561079e57600080fd5b5061031a6107ad366004614013565b611f24565b3480156107be57600080fd5b506107d26107cd3660046139d9565b612051565b6040516102759190614035565b3480156107eb57600080fd5b5061031a6107fa366004614048565b6124a4565b34801561080b57600080fd5b5061035261081a3660046139d9565b60009081526007602052604090206005015490565b34801561083b57600080fd5b5061038061084a366004613edc565b6124d6565b34801561085b57600080fd5b506102b561086a3660046139d9565b612696565b34801561087b57600080fd5b5061088f61088a3660046139d9565b61270a565b60405161027591906140c3565b3480156108a857600080fd5b506102696108b7366004613f8c565b600860209081526000928352604080842090915290825290205460ff1681565b3480156108e357600080fd5b506102696108f2366004613fb8565b612831565b34801561090357600080fd5b5061031a610912366004613edc565b61285f565b34801561092357600080fd5b5061031a6109323660046139d9565b6128e2565b34801561094357600080fd5b50610269610952366004613edc565b600b6020526000908152604090205460ff1681565b34801561097357600080fd5b5061088f6109823660046139d9565b612986565b60006001600160e01b031982166380ac58cd60e01b14806109b857506001600160e01b03198216635b5e139f60e01b145b806109d357506301ffc9a760e01b6001600160e01b03198316145b92915050565b336000908152600e60209081526040808320805482518185028101850190935280835260609492939192909184015b82821015610b2757838290600052602060002090600302016040518060800160405290816000820160009054906101000a900460ff166003811115610a4f57610a4f6138b0565b6003811115610a6057610a606138b0565b8152815461010090046001600160a01b0316602082015260018201546040820152600282018054606090920191610a96906140d6565b80601f0160208091040260200160405190810160405280929190818152602001828054610ac2906140d6565b8015610b0f5780601f10610ae457610100808354040283529160200191610b0f565b820191906000526020600020905b815481529060010190602001808311610af257829003601f168201915b50505050508152505081526020019060010190610a08565b50505050905090565b606060008054610b3f906140d6565b80601f0160208091040260200160405190810160405280929190818152602001828054610b6b906140d6565b8015610bb85780601f10610b8d57610100808354040283529160200191610bb8565b820191906000526020600020905b815481529060010190602001808311610b9b57829003601f168201915b5050505050905090565b6000610bcd82612aa2565b506000908152600460205260409020546001600160a01b031690565b6000818152600760205260409020600101546001600160a01b03163314610c2b5760405162461bcd60e51b8152600401610c2290614110565b60405180910390fd5b600081815260076020908152604091829020600401805460ff19166001908117909155915191825282917f50de60758261258765d60f3764f52b012fb4289c1120010bf8b34f7a7976f815910160405180910390a250565b6000610c8e8261148a565b9050806001600160a01b0316836001600160a01b031603610cfb5760405162461bcd60e51b815260206004820152602160248201527f4552433732313a20617070726f76616c20746f2063757272656e74206f776e656044820152603960f91b6064820152608401610c22565b336001600160a01b0382161480610d175750610d178133612831565b610d895760405162461bcd60e51b815260206004820152603d60248201527f4552433732313a20617070726f76652063616c6c6572206973206e6f7420746f60448201527f6b656e206f776e6572206f7220617070726f76656420666f7220616c6c0000006064820152608401610c22565b610d938383612aca565b505050565b600081815260076020908152604091829020600a01805483518184028101840190945280845260609392830182828015610dfb57602002820191906000526020600020905b81546001600160a01b03168152600190910190602001808311610ddd575b50505050509050919050565b60076020526000908152604090208054600182015460028301805492936001600160a01b0390921692610e39906140d6565b80601f0160208091040260200160405190810160405280929190818152602001828054610e65906140d6565b8015610eb25780601f10610e8757610100808354040283529160200191610eb2565b820191906000526020600020905b815481529060010190602001808311610e9557829003601f168201915b50505060038401546004850154600586015460068701546007880154600b890154600c909901549798949760ff948516975092955090939083169216908a565b610efc3382612b38565b610f185760405162461bcd60e51b8152600401610c2290614151565b610d93838383612b97565b6000818152600760205260409020600b015460ff16610f8e5760405162461bcd60e51b815260206004820152602160248201527f5468697320706f7374206973206e6f74206c697374656420666f722073616c656044820152601760f91b6064820152608401610c22565b600081815260076020526040902060010154336001600160a01b0390911603610ff95760405162461bcd60e51b815260206004820152601d60248201527f596f752063616e6e6f742062757920796f7572206f776e20706f73742e0000006044820152606401610c22565b6000818152600760205260408082206001015490516001600160a01b0390911691339183913480156108fc02929091818181858888f19350505050158015611045573d6000803e3d6000fd5b50611051828285612b97565b60008381526007602090815260408220600180820180546001600160a01b038088166001600160a01b031992831617909255600a840180549384018155865293852090910180549187169190931617909155848252600b8101805460ff19169055600c018190556110c1336124d6565b905060005b81518110156111255760008282815181106110e3576110e361419e565b6020026020010151905085336001600160a01b0316826001600160a01b031660008051602061450183398151915260405160405180910390a4506001016110c6565b5050505050565b6060611139600080612ce9565b905090565b6000818152600760205260409020600101546001600160a01b031633146111775760405162461bcd60e51b8152600401610c22906141b4565b6000818152600760205260409020600b015460ff1615156001146111d55760405162461bcd60e51b8152602060048201526015602482015274139bdd081b1a5cdd1959081cdbc81d4818d85b89dd605a1b6044820152606401610c22565b6000818152600760205260408120600b8101805460ff19169055600c018190556111fe336124d6565b905060005b8151811015610d935760008282815181106112205761122061419e565b6020026020010151905083336001600160a01b0316826001600160a01b03167f256c6f8fb6d6cf809bf9adb7c5e148b1ca95f4a804b1e62e7c969fa625fb037c60405160405180910390a450600101611203565b600e602052816000526040600020818154811061129057600080fd5b600091825260209091206003909102018054600182015460028301805460ff841696506101009093046001600160a01b031694509092916112d0906140d6565b80601f01602080910402602001604051908101604052809291908181526020018280546112fc906140d6565b80156113495780601f1061131e57610100808354040283529160200191611349565b820191906000526020600020905b81548152906001019060200180831161132c57829003601f168201915b5050505050905084565b610d93838383604051806020016040528060008152506124a4565b336000908152600b602052604090205460ff16156113e25760405162461bcd60e51b815260206004820152602b60248201527f5468697320616464726573732068617320616c7265616479206164646564206160448201526a1033b0ba32b5b2b2b832b960a91b6064820152608401610c22565b6040805180820190915282815261ffff82166020820152600a8054600181018255600091909152815160029091027fc65a7bb8d6351c1cf70c95a316cc6a92839c986682d98bc35f958f4883f9d2a80190819061143f9082614241565b506020918201516001918201805461ffff191661ffff909216919091179055336000908152600b9092526040909120805460ff191690911790555050565b6060611139336000612ce9565b600080611496836132c2565b90506001600160a01b0381166109d35760405162461bcd60e51b8152600401610c2290614300565b600680549060006114ce83614348565b909155505060065460008181526007602052604090208181556001810180546001600160a01b03191633179055600281016115098582614241565b506003810183905560048101805460ff19908116909155600b8201805490911690556000600c82015561153c33836132dd565b604051829033907f211310f5bdfd60139328b0e0b1235a8d92df3ccfc99b9b80da0d81cbac493aea90600090a36000611574336124d6565b905060005b81518110156115d85760008282815181106115965761159661419e565b6020026020010151905084336001600160a01b0316826001600160a01b031660008051602061452183398151915260405160405180910390a450600101611579565b505050505050565b6060600080600a84815481106115f8576115f861419e565b9060005260206000209060020201604051806040016040529081600082018054611621906140d6565b80601f016020809104026020016040519081016040528092919081815260200182805461164d906140d6565b801561169a5780601f1061166f5761010080835404028352916020019161169a565b820191906000526020600020905b81548152906001019060200180831161167d57829003601f168201915b50505091835250506001919091015461ffff166020918201528151910151909590945092505050565b6060611139336001612ce9565b60006001600160a01b03821661173a5760405162461bcd60e51b815260206004820152602960248201527f4552433732313a2061646472657373207a65726f206973206e6f7420612076616044820152683634b21037bbb732b960b91b6064820152608401610c22565b506001600160a01b031660009081526003602052604090205490565b600081815260076020526040812060050180549161177383614348565b9091555050604051339082907fcf765d6f163c9b0d832e2a94f4c8e9bffd32a2c3ca5fdbb8cc67b5fe1441f41390600090a350565b6000838152600760205260409020600101546001600160a01b031633146117e15760405162461bcd60e51b8152600401610c2290614110565b60008381526007602052604090206004015460ff16156118135760405162461bcd60e51b8152600401610c2290614361565b600083815260076020526040902060020161182e8382614241565b50600083815260076020526040812060030182905561184c336124d6565b905060005b815181101561112557600082828151811061186e5761186e61419e565b6020026020010151905085336001600160a01b0316826001600160a01b031660008051602061452183398151915260405160405180910390a450600101611851565b600082815260076020526040902060010154336001600160a01b039091160361191b5760405162461bcd60e51b815260206004820181905260248201527f596f752063616e6e6f74207265706f727420796f7572206f776e20706f73742e6044820152606401610c22565b6000828152600c6020908152604080832033845290915290205460ff16156119915760405162461bcd60e51b8152602060048201526024808201527f596f75206861766520616c7265616479207265706f727465642074686973207060448201526337b9ba1760e11b6064820152608401610c22565b6040805160608101825260008481526007602081815284832060090180548086523383870190815296860188815293835260018082018355918552919093208451600390920201908155935191840180546001600160a01b0319166001600160a01b039093169290921790915551909182916002820190611a129082614241565b5050506000838152600c6020908152604080832033808552925291829020805460ff19166001179055905184907f52445589f146589c7ef4b77e2a66d0492b4addd046b14551af597215c433474690611a6c9086906139c6565b60405180910390a3505050565b6000828152600760205260408120600101546001600160a01b03808416911603611aa5575060016109d3565b60005b6000848152600760205260409020600a0154811015611b1c576000848152600760205260409020600a0180546001600160a01b038516919083908110611af057611af061419e565b6000918252602090912001546001600160a01b031603611b145760019150506109d3565b600101611aa8565b5060009392505050565b60008181526007602052604090206004015460ff1615611b7a5760405162461bcd60e51b815260206004820152600f60248201526e1c1bdcdd081a5cc819195b195d1959608a1b6044820152606401610c22565b600081815260076020526040902060010154336001600160a01b0390911603611bf15760405162461bcd60e51b8152602060048201526024808201527f596f752063616e6e6f742070617920746f207669657720796f7572206f776e206044820152631c1bdcdd60e21b6064820152608401610c22565b6000818152600760205260408082206001015490516001600160a01b03909116913480156108fc02929091818181858888f19350505050158015611c39573d6000803e3d6000fd5b506000818152600760209081526040808320600a01805460018101825590845291832090910180546001600160a01b03191633908117909155905183927fca0f87217b959f6345bff657040723570f1dd514ddceba1730ba67c2c080153a91a350565b336000908152600e60205260408120611cb491613753565b565b606060018054610b3f906140d6565b611cd03383836133d8565b5050565b600a8181548110611ce457600080fd5b9060005260206000209060020201600091509050806000018054611d07906140d6565b80601f0160208091040260200160405190810160405280929190818152602001828054611d33906140d6565b8015611d805780601f10611d5557610100808354040283529160200191611d80565b820191906000526020600020905b815481529060010190602001808311611d6357829003601f168201915b5050506001909301549192505061ffff1682565b336001600160a01b03821603611de95760405162461bcd60e51b815260206004820152601a6024820152792cb7ba9031b0b73737ba103337b63637bb903cb7bab939b2b63360311b6044820152606401610c22565b6001600160a01b0316600081815260096020908152604080832033808552908352818420805460ff19166001908117909155948452600d8352908320805494850181558352912090910180546001600160a01b0319169091179055565b60008281526007602052604090206004015460ff1615611e785760405162461bcd60e51b8152600401610c2290614361565b60408051606080820183526000808352602083015291810191909152600083815260076020526040902060080154611eb190600161438a565b81523360208083019182526040808401858152600087815260078452918220600801805460018082018355918452939092208551600390940201928355925190820180546001600160a01b0319166001600160a01b03909216919091179055905182919060028201906115d89082614241565b6000828152600760205260409020600101546001600160a01b03163314611f5d5760405162461bcd60e51b8152600401610c22906141b4565b6000828152600760205260409020600b015460ff1615611fbb5760405162461bcd60e51b8152602060048201526019602482015278105b1c9958591e481b1a5cdd1959081cdbc81d4818d85b89dd603a1b6044820152606401610c22565b6000828152600760205260408120600b8101805460ff19166001179055600c01829055611fe7336124d6565b905060005b815181101561204b5760008282815181106120095761200961419e565b6020026020010151905084336001600160a01b0316826001600160a01b031660008051602061450183398151915260405160405180910390a450600101611fec565b50505050565b612059613774565b60008211801561206b57506006548211155b8015612089575060008281526007602052604090206004015460ff16155b6120d35760405162461bcd60e51b815260206004820152601b60248201527a141bdcdd081259081a5cc81ddc9bdb99c81bdc8819195b195d1959602a1b6044820152606401610c22565b60008281526007602090815260409182902082516101a0810184528154815260018201546001600160a01b031692810192909252600281018054929391929184019161211e906140d6565b80601f016020809104026020016040519081016040528092919081815260200182805461214a906140d6565b80156121975780601f1061216c57610100808354040283529160200191612197565b820191906000526020600020905b81548152906001019060200180831161217a57829003601f168201915b505050918352505060038201546020820152600482015460ff908116151560408301526005830154606083015260068301546080830152600783015460a0909201911660028111156121eb576121eb6138b0565b60028111156121fc576121fc6138b0565b815260200160088201805480602002602001604051908101604052809291908181526020016000905b8282101561230957600084815260209081902060408051606081018252600386029092018054835260018101546001600160a01b03169383019390935260028301805492939291840191612278906140d6565b80601f01602080910402602001604051908101604052809291908181526020018280546122a4906140d6565b80156122f15780601f106122c6576101008083540402835291602001916122f1565b820191906000526020600020905b8154815290600101906020018083116122d457829003601f168201915b50505050508152505081526020019060010190612225565b50505050815260200160098201805480602002602001604051908101604052809291908181526020016000905b8282101561241a57600084815260209081902060408051606081018252600386029092018054835260018101546001600160a01b03169383019390935260028301805492939291840191612389906140d6565b80601f01602080910402602001604051908101604052809291908181526020018280546123b5906140d6565b80156124025780601f106123d757610100808354040283529160200191612402565b820191906000526020600020905b8154815290600101906020018083116123e557829003601f168201915b50505050508152505081526020019060010190612336565b505050508152602001600a820180548060200260200160405190810160405280929190818152602001828054801561247b57602002820191906000526020600020905b81546001600160a01b0316815260019091019060200180831161245d575b5050509183525050600b82015460ff1615156020820152600c9091015460409091015292915050565b6124ae3383612b38565b6124ca5760405162461bcd60e51b8152600401610c2290614151565b61204b8484848461349a565b60606000805b6001600160a01b0384166000908152600d6020526040902054811015612579576001600160a01b0384166000908152600d602052604081208054839081106125265761252661419e565b60009182526020808320909101546001600160a01b0388811684526009835260408085209190921680855292529091205490915060ff1615612570578261256c81614348565b9350505b506001016124dc565b506000816001600160401b0381111561259457612594613d6f565b6040519080825280602002602001820160405280156125bd578160200160208202803683370190505b5090506000805b6001600160a01b0386166000908152600d602052604090205481101561268c576001600160a01b0386166000908152600d6020526040812080548390811061260e5761260e61419e565b60009182526020808320909101546001600160a01b038a811684526009835260408085209190921680855292529091205490915060ff1615612683578084848151811061265d5761265d61419e565b6001600160a01b03909216602092830291909101909101528261267f81614348565b9350505b506001016125c4565b5090949350505050565b60606126a182612aa2565b60006126b860408051602081019091526000815290565b905060008151116126d85760405180602001604052806000815250612703565b806126e2846134cd565b6040516020016126f392919061439d565b6040516020818303038152906040525b9392505050565b606060076000838152602001908152602001600020600801805480602002602001604051908101604052809291908181526020016000905b8282101561282657600084815260209081902060408051606081018252600386029092018054835260018101546001600160a01b03169383019390935260028301805492939291840191612795906140d6565b80601f01602080910402602001604051908101604052809291908181526020018280546127c1906140d6565b801561280e5780601f106127e35761010080835404028352916020019161280e565b820191906000526020600020905b8154815290600101906020018083116127f157829003601f168201915b50505050508152505081526020019060010190612742565b505050509050919050565b6001600160a01b03918216600090815260056020908152604080832093909416825291909152205460ff1690565b336001600160a01b038216036128b65760405162461bcd60e51b815260206004820152601c60248201527b2cb7ba9031b0b73737ba103ab73337b63637bb903cb7bab939b2b63360211b6044820152606401610c22565b6001600160a01b031660009081526009602090815260408083203384529091529020805460ff19169055565b6000818152600760205260409020600501546129345760405162461bcd60e51b8152602060048201526011602482015270506f737420686173206e6f206c696b657360781b6044820152606401610c22565b6000818152600760205260408120600501805491612951836143cc565b9091555050604051339082907f82092d1196022c48d901e5dc4b17451dbce942b8a9ded42fc6f2a4a5e8fd89b990600090a350565b606060076000838152602001908152602001600020600901805480602002602001604051908101604052809291908181526020016000905b8282101561282657600084815260209081902060408051606081018252600386029092018054835260018101546001600160a01b03169383019390935260028301805492939291840191612a11906140d6565b80601f0160208091040260200160405190810160405280929190818152602001828054612a3d906140d6565b8015612a8a5780601f10612a5f57610100808354040283529160200191612a8a565b820191906000526020600020905b815481529060010190602001808311612a6d57829003601f168201915b505050505081525050815260200190600101906129be565b612aab8161355f565b612ac75760405162461bcd60e51b8152600401610c2290614300565b50565b600081815260046020526040902080546001600160a01b0319166001600160a01b0384169081179091558190612aff8261148a565b6001600160a01b03167f8c5be1e5ebec7d5bd14f71427d1e84f3dd0314c0f7b2291e5b200ac8c7c3b92560405160405180910390a45050565b600080612b448361148a565b9050806001600160a01b0316846001600160a01b03161480612b6b5750612b6b8185612831565b80612b8f5750836001600160a01b0316612b8484610bc2565b6001600160a01b0316145b949350505050565b826001600160a01b0316612baa8261148a565b6001600160a01b031614612bd05760405162461bcd60e51b8152600401610c22906143e3565b6001600160a01b038216612c325760405162461bcd60e51b8152602060048201526024808201527f4552433732313a207472616e7366657220746f20746865207a65726f206164646044820152637265737360e01b6064820152608401610c22565b826001600160a01b0316612c458261148a565b6001600160a01b031614612c6b5760405162461bcd60e51b8152600401610c22906143e3565b600081815260046020908152604080832080546001600160a01b03199081169091556001600160a01b03878116808652600385528386208054600019019055908716808652838620805460010190558686526002909452828520805490921684179091559051849360008051602061454183398151915291a4505050565b6060600060015b6006548111612db05760008181526007602052604090206004015460ff16158015612d8b57506001600160a01b0385161580612d4857506000818152600760205260409020600101546001600160a01b038681169116145b80612d8b5750838015612d8b575033600090815260096020908152604080832084845260078352818420600101546001600160a01b0316845290915290205460ff165b15612d9e5781612d9a81614348565b9250505b80612da881614348565b915050612cf0565b506000816001600160401b03811115612dcb57612dcb613d6f565b604051908082528060200260200182016040528015612e0457816020015b612df1613774565b815260200190600190039081612de95790505b509050600060015b60065481116132b75760008181526007602052604090206004015460ff16158015612ea757506001600160a01b0387161580612e6457506000818152600760205260409020600101546001600160a01b038881169116145b80612ea75750858015612ea7575033600090815260096020908152604080832084845260078352818420600101546001600160a01b0316845290915290205460ff165b156132a55760008181526007602090815260409182902082516101a0810184528154815260018201546001600160a01b0316928101929092526002810180549293919291840191612ef7906140d6565b80601f0160208091040260200160405190810160405280929190818152602001828054612f23906140d6565b8015612f705780601f10612f4557610100808354040283529160200191612f70565b820191906000526020600020905b815481529060010190602001808311612f5357829003601f168201915b505050918352505060038201546020820152600482015460ff908116151560408301526005830154606083015260068301546080830152600783015460a090920191166002811115612fc457612fc46138b0565b6002811115612fd557612fd56138b0565b815260200160088201805480602002602001604051908101604052809291908181526020016000905b828210156130e257600084815260209081902060408051606081018252600386029092018054835260018101546001600160a01b03169383019390935260028301805492939291840191613051906140d6565b80601f016020809104026020016040519081016040528092919081815260200182805461307d906140d6565b80156130ca5780601f1061309f576101008083540402835291602001916130ca565b820191906000526020600020905b8154815290600101906020018083116130ad57829003601f168201915b50505050508152505081526020019060010190612ffe565b50505050815260200160098201805480602002602001604051908101604052809291908181526020016000905b828210156131f357600084815260209081902060408051606081018252600386029092018054835260018101546001600160a01b03169383019390935260028301805492939291840191613162906140d6565b80601f016020809104026020016040519081016040528092919081815260200182805461318e906140d6565b80156131db5780601f106131b0576101008083540402835291602001916131db565b820191906000526020600020905b8154815290600101906020018083116131be57829003601f168201915b5050505050815250508152602001906001019061310f565b505050508152602001600a820180548060200260200160405190810160405280929190818152602001828054801561325457602002820191906000526020600020905b81546001600160a01b03168152600190910190602001808311613236575b5050509183525050600b82015460ff1615156020820152600c90910154604090910152835184908490811061328b5761328b61419e565b602002602001018190525081806132a190614348565b9250505b806132af81614348565b915050612e0c565b509095945050505050565b6000908152600260205260409020546001600160a01b031690565b6001600160a01b0382166133335760405162461bcd60e51b815260206004820181905260248201527f4552433732313a206d696e7420746f20746865207a65726f20616464726573736044820152606401610c22565b61333c8161355f565b156133595760405162461bcd60e51b8152600401610c2290614428565b6133628161355f565b1561337f5760405162461bcd60e51b8152600401610c2290614428565b6001600160a01b038216600081815260036020908152604080832080546001019055848352600290915280822080546001600160a01b031916841790555183929190600080516020614541833981519152908290a45050565b816001600160a01b0316836001600160a01b0316036134355760405162461bcd60e51b815260206004820152601960248201527822a9219b99189d1030b8383937bb32903a379031b0b63632b960391b6044820152606401610c22565b6001600160a01b03838116600081815260056020908152604080832094871680845294825291829020805460ff191686151590811790915591519182527f17307eab39ab6107e8899845ad3d59bd9653f200f220920489ca2b5937696c319101611a6c565b6134a5848484612b97565b6134b18484848461357c565b61204b5760405162461bcd60e51b8152600401610c229061445e565b606060006134da8361367d565b60010190506000816001600160401b038111156134f9576134f9613d6f565b6040519080825280601f01601f191660200182016040528015613523576020820181803683370190505b5090508181016020015b600019016f181899199a1a9b1b9c1cb0b131b232b360811b600a86061a8153600a850494508461352d57509392505050565b60008061356b836132c2565b6001600160a01b0316141592915050565b60006001600160a01b0384163b1561367257604051630a85bd0160e11b81526001600160a01b0385169063150b7a02906135c09033908990889088906004016144b0565b6020604051808303816000875af19250505080156135fb575060408051601f3d908101601f191682019092526135f8918101906144e3565b60015b613658573d808015613629576040519150601f19603f3d011682016040523d82523d6000602084013e61362e565b606091505b5080516000036136505760405162461bcd60e51b8152600401610c229061445e565b805181602001fd5b6001600160e01b031916630a85bd0160e11b149050612b8f565b506001949350505050565b60008072184f03e93ff9f4daa797ed6e38ed64bf6a1f0160401b83106136bc5772184f03e93ff9f4daa797ed6e38ed64bf6a1f0160401b830492506040015b6904ee2d6d415b85acef8160201b83106136e6576904ee2d6d415b85acef8160201b830492506020015b662386f26fc10000831061370457662386f26fc10000830492506010015b6305f5e100831061371c576305f5e100830492506008015b612710831061373057612710830492506004015b60648310613742576064830492506002015b600a83106109d35760010192915050565b5080546000825560030290600052602060002090810190612ac791906137fa565b604051806101a001604052806000815260200160006001600160a01b0316815260200160608152602001600081526020016000151581526020016000815260200160008152602001600060028111156137cf576137cf6138b0565b8152602001606081526020016060815260200160608152602001600015158152602001600081525090565b8082111561382f5780546001600160a81b03191681556000600182018190556138266002830182613833565b506003016137fa565b5090565b50805461383f906140d6565b6000825580601f1061384f575050565b601f016020900490600052602060002090810190612ac791905b8082111561382f5760008155600101613869565b6001600160e01b031981168114612ac757600080fd5b6000602082840312156138a557600080fd5b81356127038161387d565b634e487b7160e01b600052602160045260246000fd5b600481106138d6576138d66138b0565b9052565b60005b838110156138f55781810151838201526020016138dd565b50506000910152565b600081518084526139168160208601602086016138da565b601f01601f19169290920160200192915050565b600060208083018184528085518083526040925060408601915060408160051b87010184880160005b838110156139b857603f19898403018552815160806139738583516138c6565b818901516001600160a01b0316858a015287820151888601526060918201519185018190526139a4818601836138fe565b968901969450505090860190600101613953565b509098975050505050505050565b60208152600061270360208301846138fe565b6000602082840312156139eb57600080fd5b5035919050565b80356001600160a01b0381168114613a0957600080fd5b919050565b60008060408385031215613a2157600080fd5b613a2a836139f2565b946020939093013593505050565b60008151808452602080850194506020840160005b83811015613a725781516001600160a01b031687529582019590820190600101613a4d565b509495945050505050565b6020815260006127036020830184613a38565b600381106138d6576138d66138b0565b8a81526001600160a01b038a16602082015261014060408201819052600090613acb8382018c6138fe565b91505088606083015287151560808301528660a08301528560c0830152613af560e0830186613a90565b921515610100820152610120015298975050505050505050565b600080600060608486031215613b2457600080fd5b613b2d846139f2565b9250613b3b602085016139f2565b9150604084013590509250925092565b600082825180855260208086019550808260051b84010181860160005b84811015613bbf57858303601f19018952815180518452848101516001600160a01b031685850152604090810151606091850182905290613bab818601836138fe565b9a86019a9450505090830190600101613b68565b5090979650505050505050565b60006101a0825184526020830151613bef60208601826001600160a01b03169052565b506040830151816040860152613c07828601826138fe565b915050606083015160608501526080830151613c27608086018215159052565b5060a083015160a085015260c083015160c085015260e0830151613c4e60e0860182613a90565b506101008084015185830382870152613c678382613b4b565b925050506101208084015185830382870152613c838382613b4b565b925050506101408084015185830382870152613c9f8382613a38565b9250505061016080840151613cb78287018215159052565b5050610180928301519390920192909252919050565b600060208083016020845280855180835260408601915060408160051b87010192506020870160005b82811015613d2457603f19888603018452613d12858351613bcc565b94509285019290850190600101613cf6565b5092979650505050505050565b613d3b81866138c6565b60018060a01b0384166020820152826040820152608060608201526000613d6560808301846138fe565b9695505050505050565b634e487b7160e01b600052604160045260246000fd5b60006001600160401b0380841115613d9f57613d9f613d6f565b604051601f8501601f19908116603f01168101908282118183101715613dc757613dc7613d6f565b81604052809350858152868686011115613de057600080fd5b858560208301376000602087830101525050509392505050565b600082601f830112613e0b57600080fd5b61270383833560208501613d85565b60008060408385031215613e2d57600080fd5b82356001600160401b03811115613e4357600080fd5b613e4f85828601613dfa565b925050602083013561ffff81168114613e6757600080fd5b809150509250929050565b60008060408385031215613e8557600080fd5b82356001600160401b03811115613e9b57600080fd5b613ea785828601613dfa565b95602094909401359450505050565b604081526000613ec960408301856138fe565b905061ffff831660208301529392505050565b600060208284031215613eee57600080fd5b612703826139f2565b600080600060608486031215613f0c57600080fd5b8335925060208401356001600160401b03811115613f2957600080fd5b613f3586828701613dfa565b925050604084013590509250925092565b60008060408385031215613f5957600080fd5b8235915060208301356001600160401b03811115613f7657600080fd5b613f8285828601613dfa565b9150509250929050565b60008060408385031215613f9f57600080fd5b82359150613faf602084016139f2565b90509250929050565b60008060408385031215613fcb57600080fd5b613fd4836139f2565b9150613faf602084016139f2565b60008060408385031215613ff557600080fd5b613ffe836139f2565b915060208301358015158114613e6757600080fd5b6000806040838503121561402657600080fd5b50508035926020909101359150565b6020815260006127036020830184613bcc565b6000806000806080858703121561405e57600080fd5b614067856139f2565b9350614075602086016139f2565b92506040850135915060608501356001600160401b0381111561409757600080fd5b8501601f810187136140a857600080fd5b6140b787823560208401613d85565b91505092959194509250565b6020815260006127036020830184613b4b565b600181811c908216806140ea57607f821691505b60208210810361410a57634e487b7160e01b600052602260045260246000fd5b50919050565b60208082526021908201527f596f7520617265206e6f7420746865206f776e6572206f662074686520706f736040820152601d60fa1b606082015260800190565b6020808252602d908201527f4552433732313a2063616c6c6572206973206e6f7420746f6b656e206f776e6560408201526c1c881bdc88185c1c1c9bdd9959609a1b606082015260800190565b634e487b7160e01b600052603260045260246000fd5b60208082526025908201527f596f7520617265206e6f7420746865206f776e657220736f20752063616e2774604082015264081b1a5cdd60da1b606082015260800190565b601f821115610d93576000816000526020600020601f850160051c810160208610156142225750805b601f850160051c820191505b818110156115d85782815560010161422e565b81516001600160401b0381111561425a5761425a613d6f565b61426e8161426884546140d6565b846141f9565b602080601f8311600181146142a3576000841561428b5750858301515b600019600386901b1c1916600185901b1785556115d8565b600085815260208120601f198616915b828110156142d2578886015182559484019460019091019084016142b3565b50858210156142f05787850151600019600388901b60f8161c191681555b5050505050600190811b01905550565b602080825260189082015277115490cdcc8c4e881a5b9d985b1a59081d1bdad95b88125160421b604082015260600190565b634e487b7160e01b600052601160045260246000fd5b60006001820161435a5761435a614332565b5060010190565b6020808252600f908201526e141bdcdd081a5cc819195b195d1959608a1b604082015260600190565b808201808211156109d3576109d3614332565b600083516143af8184602088016138da565b8351908301906143c38183602088016138da565b01949350505050565b6000816143db576143db614332565b506000190190565b60208082526025908201527f4552433732313a207472616e736665722066726f6d20696e636f72726563742060408201526437bbb732b960d91b606082015260800190565b6020808252601c908201527b115490cdcc8c4e881d1bdad95b88185b1c9958591e481b5a5b9d195960221b604082015260600190565b60208082526032908201527f4552433732313a207472616e7366657220746f206e6f6e20455243373231526560408201527131b2b4bb32b91034b6b83632b6b2b73a32b960711b606082015260800190565b6001600160a01b0385811682528416602082015260408101839052608060608201819052600090613d65908301846138fe565b6000602082840312156144f557600080fd5b81516127038161387d56fe31d3ceab37a9e9f8eda503b03797fdd8f87efdf7761c7a945ad92604ff3d174e24b938973c8140b346b07674d8cb0151b0a325a29498587f93be31b90ad2aee6ddf252ad1be2c89b69c2b068fc378daa952ba7f163c4a11628f55a4df523b3efa2646970667358221220d3a53b8501a23eab0312a824e2655b00679c54583db2435bb5d651ad5f6d1d9e64736f6c63430008180033",
  "linkReferences": {},
  "deployedLinkReferences": {}
}