{
  "_format": "hh-sol-artifact-1",
  "contractName": "SocialMedia",
  "sourceName": "contracts/main.sol",
  "abi": [
    {
      "inputs": [],
      "stateMutability": "nonpayable",
      "type": "constructor"
    },
    {
      "anonymous": false,
      "inputs": [
        {
          "indexed": true,
          "internalType": "address",
          "name": "recipient",
          "type": "address"
        },
        {
          "indexed": true,
          "internalType": "uint256",
          "name": "postId",
          "type": "uint256"
        }
      ],
      "name": "AddPost",
      "type": "event"
    },
    {
      "anonymous": false,
      "inputs": [
        {
          "indexed": true,
          "internalType": "address",
          "name": "owner",
          "type": "address"
        },
        {
          "indexed": true,
          "internalType": "address",
          "name": "approved",
          "type": "address"
        },
        {
          "indexed": true,
          "internalType": "uint256",
          "name": "tokenId",
          "type": "uint256"
        }
      ],
      "name": "Approval",
      "type": "event"
    },
    {
      "anonymous": false,
      "inputs": [
        {
          "indexed": true,
          "internalType": "address",
          "name": "owner",
          "type": "address"
        },
        {
          "indexed": true,
          "internalType": "address",
          "name": "operator",
          "type": "address"
        },
        {
          "indexed": false,
          "internalType": "bool",
          "name": "approved",
          "type": "bool"
        }
      ],
      "name": "ApprovalForAll",
      "type": "event"
    },
    {
      "anonymous": false,
      "inputs": [
        {
          "indexed": true,
          "internalType": "address",
          "name": "follower",
          "type": "address"
        },
        {
          "indexed": true,
          "internalType": "address",
          "name": "sender",
          "type": "address"
        },
        {
          "indexed": true,
          "internalType": "uint256",
          "name": "postId",
          "type": "uint256"
        }
      ],
      "name": "BuyPostEvent",
      "type": "event"
    },
    {
      "anonymous": false,
      "inputs": [
        {
          "indexed": true,
          "internalType": "address",
          "name": "follower",
          "type": "address"
        },
        {
          "indexed": true,
          "internalType": "address",
          "name": "sender",
          "type": "address"
        },
        {
          "indexed": true,
          "internalType": "uint256",
          "name": "postId",
          "type": "uint256"
        }
      ],
      "name": "CancelPostEvent",
      "type": "event"
    },
    {
      "anonymous": false,
      "inputs": [
        {
          "indexed": true,
          "internalType": "uint256",
          "name": "postId",
          "type": "uint256"
        },
        {
          "indexed": false,
          "internalType": "bool",
          "name": "isDeleted",
          "type": "bool"
        }
      ],
      "name": "DeletePost",
      "type": "event"
    },
    {
      "anonymous": false,
      "inputs": [
        {
          "indexed": true,
          "internalType": "address",
          "name": "sender",
          "type": "address"
        },
        {
          "indexed": true,
          "internalType": "uint256",
          "name": "postId",
          "type": "uint256"
        }
      ],
      "name": "DislikePost",
      "type": "event"
    },
    {
      "anonymous": false,
      "inputs": [
        {
          "indexed": true,
          "internalType": "address",
          "name": "sender",
          "type": "address"
        },
        {
          "indexed": true,
          "internalType": "uint256",
          "name": "postId",
          "type": "uint256"
        }
      ],
      "name": "LikePost",
      "type": "event"
    },
    {
      "anonymous": false,
      "inputs": [
        {
          "indexed": true,
          "internalType": "address",
          "name": "follower",
          "type": "address"
        },
        {
          "indexed": true,
          "internalType": "address",
          "name": "sender",
          "type": "address"
        },
        {
          "indexed": true,
          "internalType": "uint256",
          "name": "postId",
          "type": "uint256"
        }
      ],
      "name": "ListPostEvent",
      "type": "event"
    },
    {
      "anonymous": false,
      "inputs": [
        {
          "indexed": true,
          "internalType": "address",
          "name": "follower",
          "type": "address"
        },
        {
          "indexed": true,
          "internalType": "address",
          "name": "sender",
          "type": "address"
        },
        {
          "indexed": true,
          "internalType": "uint256",
          "name": "postId",
          "type": "uint256"
        }
      ],
      "name": "NewPostForFollower",
      "type": "event"
    },
    {
      "anonymous": false,
      "inputs": [
        {
          "indexed": true,
          "internalType": "uint256",
          "name": "postId",
          "type": "uint256"
        },
        {
          "indexed": true,
          "internalType": "address",
          "name": "liker",
          "type": "address"
        }
      ],
      "name": "PostLiked",
      "type": "event"
    },
    {
      "anonymous": false,
      "inputs": [
        {
          "indexed": true,
          "internalType": "uint256",
          "name": "postId",
          "type": "uint256"
        },
        {
          "indexed": true,
          "internalType": "address",
          "name": "reporter",
          "type": "address"
        },
        {
          "indexed": false,
          "internalType": "string",
          "name": "reason",
          "type": "string"
        }
      ],
      "name": "PostReported",
      "type": "event"
    },
    {
      "anonymous": false,
      "inputs": [
        {
          "indexed": true,
          "internalType": "uint256",
          "name": "postId",
          "type": "uint256"
        },
        {
          "indexed": true,
          "internalType": "address",
          "name": "unliker",
          "type": "address"
        }
      ],
      "name": "PostUnliked",
      "type": "event"
    },
    {
      "anonymous": false,
      "inputs": [
        {
          "indexed": true,
          "internalType": "address",
          "name": "sender",
          "type": "address"
        },
        {
          "indexed": true,
          "internalType": "uint256",
          "name": "postId",
          "type": "uint256"
        },
        {
          "indexed": false,
          "internalType": "uint256",
          "name": "tipAmount",
          "type": "uint256"
        }
      ],
      "name": "TipPost",
      "type": "event"
    },
    {
      "anonymous": false,
      "inputs": [
        {
          "indexed": true,
          "internalType": "address",
          "name": "from",
          "type": "address"
        },
        {
          "indexed": true,
          "internalType": "address",
          "name": "to",
          "type": "address"
        },
        {
          "indexed": true,
          "internalType": "uint256",
          "name": "tokenId",
          "type": "uint256"
        }
      ],
      "name": "Transfer",
      "type": "event"
    },
    {
      "anonymous": false,
      "inputs": [
        {
          "indexed": false,
          "internalType": "string",
          "name": "name",
          "type": "string"
        },
        {
          "indexed": false,
          "internalType": "address",
          "name": "userAddress",
          "type": "address"
        },
        {
          "indexed": false,
          "internalType": "string",
          "name": "imageUrl",
          "type": "string"
        }
      ],
      "name": "UserRegistered",
      "type": "event"
    },
    {
      "anonymous": false,
      "inputs": [
        {
          "indexed": true,
          "internalType": "address",
          "name": "sender",
          "type": "address"
        },
        {
          "indexed": true,
          "internalType": "uint256",
          "name": "postId",
          "type": "uint256"
        }
      ],
      "name": "ViewPost",
      "type": "event"
    },
    {
      "inputs": [
        {
          "internalType": "uint256",
          "name": "_postId",
          "type": "uint256"
        },
        {
          "internalType": "string",
          "name": "_commentText",
          "type": "string"
        }
      ],
      "name": "addComment",
      "outputs": [],
      "stateMutability": "nonpayable",
      "type": "function"
    },
    {
      "inputs": [
        {
          "internalType": "string",
          "name": "ip",
          "type": "string"
        },
        {
          "internalType": "uint16",
          "name": "port",
          "type": "uint16"
        }
      ],
      "name": "addGatekeeper",
      "outputs": [],
      "stateMutability": "nonpayable",
      "type": "function"
    },
    {
      "inputs": [
        {
          "internalType": "string",
          "name": "_postText",
          "type": "string"
        },
        {
          "internalType": "uint256",
          "name": "_viewPrice",
          "type": "uint256"
        }
      ],
      "name": "addPost",
      "outputs": [],
      "stateMutability": "payable",
      "type": "function"
    },
    {
      "inputs": [
        {
          "internalType": "address",
          "name": "to",
          "type": "address"
        },
        {
          "internalType": "uint256",
          "name": "tokenId",
          "type": "uint256"
        }
      ],
      "name": "approve",
      "outputs": [],
      "stateMutability": "nonpayable",
      "type": "function"
    },
    {
      "inputs": [
        {
          "internalType": "address",
          "name": "owner",
          "type": "address"
        }
      ],
      "name": "balanceOf",
      "outputs": [
        {
          "internalType": "uint256",
          "name": "",
          "type": "uint256"
        }
      ],
      "stateMutability": "view",
      "type": "function"
    },
    {
      "inputs": [
        {
          "internalType": "uint256",
          "name": "postId",
          "type": "uint256"
        }
      ],
      "name": "buyPost",
      "outputs": [],
      "stateMutability": "payable",
      "type": "function"
    },
    {
      "inputs": [
        {
          "internalType": "uint256",
          "name": "postId",
          "type": "uint256"
        }
      ],
      "name": "cancelListing",
      "outputs": [],
      "stateMutability": "nonpayable",
      "type": "function"
    },
    {
      "inputs": [
        {
          "internalType": "uint256",
          "name": "postId",
          "type": "uint256"
        }
      ],
      "name": "deletePost",
      "outputs": [],
      "stateMutability": "nonpayable",
      "type": "function"
    },
    {
      "inputs": [
        {
          "internalType": "uint256",
          "name": "_postId",
          "type": "uint256"
        },
        {
          "internalType": "string",
          "name": "_newPostText",
          "type": "string"
        },
        {
          "internalType": "uint256",
          "name": "_newPrice",
          "type": "uint256"
        }
      ],
      "name": "editPost",
      "outputs": [],
      "stateMutability": "nonpayable",
      "type": "function"
    },
    {
      "inputs": [
        {
          "internalType": "address",
          "name": "_user",
          "type": "address"
        }
      ],
      "name": "followUser",
      "outputs": [],
      "stateMutability": "nonpayable",
      "type": "function"
    },
    {
      "inputs": [
        {
          "internalType": "address",
          "name": "",
          "type": "address"
        },
        {
          "internalType": "address",
          "name": "",
          "type": "address"
        }
      ],
      "name": "followers",
      "outputs": [
        {
          "internalType": "bool",
          "name": "",
          "type": "bool"
        }
      ],
      "stateMutability": "view",
      "type": "function"
    },
    {
      "inputs": [
        {
          "internalType": "uint256",
          "name": "",
          "type": "uint256"
        }
      ],
      "name": "gatekeepers",
      "outputs": [
        {
          "internalType": "string",
          "name": "ip",
          "type": "string"
        },
        {
          "internalType": "uint16",
          "name": "port",
          "type": "uint16"
        }
      ],
      "stateMutability": "view",
      "type": "function"
    },
    {
      "inputs": [],
      "name": "getAllPosts",
      "outputs": [
        {
          "components": [
            {
              "internalType": "uint256",
              "name": "id",
              "type": "uint256"
            },
            {
              "internalType": "address payable",
              "name": "username",
              "type": "address"
            },
            {
              "internalType": "string",
              "name": "postText",
              "type": "string"
            },
            {
              "internalType": "uint256",
              "name": "viewPrice",
              "type": "uint256"
            },
            {
              "internalType": "bool",
              "name": "isDeleted",
              "type": "bool"
            },
            {
              "internalType": "uint256",
              "name": "likes",
              "type": "uint256"
            },
            {
              "internalType": "uint256",
              "name": "dislikes",
              "type": "uint256"
            },
            {
              "internalType": "enum DataTypes.Visibility",
              "name": "visibility",
              "type": "uint8"
            },
            {
              "components": [
                {
                  "internalType": "uint256",
                  "name": "id",
                  "type": "uint256"
                },
                {
                  "internalType": "address payable",
                  "name": "commenter",
                  "type": "address"
                },
                {
                  "internalType": "string",
                  "name": "commentText",
                  "type": "string"
                }
              ],
              "internalType": "struct DataTypes.Comment[]",
              "name": "comments",
              "type": "tuple[]"
            },
            {
              "components": [
                {
                  "internalType": "uint256",
                  "name": "id",
                  "type": "uint256"
                },
                {
                  "internalType": "address",
                  "name": "reporter",
                  "type": "address"
                },
                {
                  "internalType": "string",
                  "name": "reason",
                  "type": "string"
                }
              ],
              "internalType": "struct DataTypes.Report[]",
              "name": "reports",
              "type": "tuple[]"
            },
            {
              "internalType": "address[]",
              "name": "userWhoPaid",
              "type": "address[]"
            },
            {
              "internalType": "bool",
              "name": "hasListed",
              "type": "bool"
            },
            {
              "internalType": "uint256",
              "name": "listPrice",
              "type": "uint256"
            }
          ],
          "internalType": "struct DataTypes.Post[]",
          "name": "",
          "type": "tuple[]"
        }
      ],
      "stateMutability": "view",
      "type": "function"
    },
    {
      "inputs": [
        {
          "internalType": "uint256",
          "name": "tokenId",
          "type": "uint256"
        }
      ],
      "name": "getApproved",
      "outputs": [
        {
          "internalType": "address",
          "name": "",
          "type": "address"
        }
      ],
      "stateMutability": "view",
      "type": "function"
    },
    {
      "inputs": [],
      "name": "getFollowedUsersPosts",
      "outputs": [
        {
          "components": [
            {
              "internalType": "uint256",
              "name": "id",
              "type": "uint256"
            },
            {
              "internalType": "address payable",
              "name": "username",
              "type": "address"
            },
            {
              "internalType": "string",
              "name": "postText",
              "type": "string"
            },
            {
              "internalType": "uint256",
              "name": "viewPrice",
              "type": "uint256"
            },
            {
              "internalType": "bool",
              "name": "isDeleted",
              "type": "bool"
            },
            {
              "internalType": "uint256",
              "name": "likes",
              "type": "uint256"
            },
            {
              "internalType": "uint256",
              "name": "dislikes",
              "type": "uint256"
            },
            {
              "internalType": "enum DataTypes.Visibility",
              "name": "visibility",
              "type": "uint8"
            },
            {
              "components": [
                {
                  "internalType": "uint256",
                  "name": "id",
                  "type": "uint256"
                },
                {
                  "internalType": "address payable",
                  "name": "commenter",
                  "type": "address"
                },
                {
                  "internalType": "string",
                  "name": "commentText",
                  "type": "string"
                }
              ],
              "internalType": "struct DataTypes.Comment[]",
              "name": "comments",
              "type": "tuple[]"
            },
            {
              "components": [
                {
                  "internalType": "uint256",
                  "name": "id",
                  "type": "uint256"
                },
                {
                  "internalType": "address",
                  "name": "reporter",
                  "type": "address"
                },
                {
                  "internalType": "string",
                  "name": "reason",
                  "type": "string"
                }
              ],
              "internalType": "struct DataTypes.Report[]",
              "name": "reports",
              "type": "tuple[]"
            },
            {
              "internalType": "address[]",
              "name": "userWhoPaid",
              "type": "address[]"
            },
            {
              "internalType": "bool",
              "name": "hasListed",
              "type": "bool"
            },
            {
              "internalType": "uint256",
              "name": "listPrice",
              "type": "uint256"
            }
          ],
          "internalType": "struct DataTypes.Post[]",
          "name": "",
          "type": "tuple[]"
        }
      ],
      "stateMutability": "view",
      "type": "function"
    },
    {
      "inputs": [
        {
          "internalType": "address",
          "name": "user",
          "type": "address"
        }
      ],
      "name": "getFollowers",
      "outputs": [
        {
          "internalType": "address[]",
          "name": "",
          "type": "address[]"
        }
      ],
      "stateMutability": "view",
      "type": "function"
    },
    {
      "inputs": [
        {
          "internalType": "uint256",
          "name": "index",
          "type": "uint256"
        }
      ],
      "name": "getGatekeeper",
      "outputs": [
        {
          "internalType": "string",
          "name": "ip",
          "type": "string"
        },
        {
          "internalType": "uint16",
          "name": "port",
          "type": "uint16"
        }
      ],
      "stateMutability": "view",
      "type": "function"
    },
    {
      "inputs": [],
      "name": "getGatekeepersCount",
      "outputs": [
        {
          "internalType": "uint256",
          "name": "",
          "type": "uint256"
        }
      ],
      "stateMutability": "view",
      "type": "function"
    },
    {
      "inputs": [
        {
          "internalType": "uint256",
          "name": "postId",
          "type": "uint256"
        }
      ],
      "name": "getLikesForPost",
      "outputs": [
        {
          "internalType": "uint256",
          "name": "",
          "type": "uint256"
        }
      ],
      "stateMutability": "view",
      "type": "function"
    },
    {
      "inputs": [
        {
          "internalType": "uint256",
          "name": "postId",
          "type": "uint256"
        }
      ],
      "name": "getListPrice",
      "outputs": [
        {
          "internalType": "uint256",
          "name": "",
          "type": "uint256"
        }
      ],
      "stateMutability": "view",
      "type": "function"
    },
    {
      "inputs": [],
      "name": "getMyPosts",
      "outputs": [
        {
          "components": [
            {
              "internalType": "uint256",
              "name": "id",
              "type": "uint256"
            },
            {
              "internalType": "address payable",
              "name": "username",
              "type": "address"
            },
            {
              "internalType": "string",
              "name": "postText",
              "type": "string"
            },
            {
              "internalType": "uint256",
              "name": "viewPrice",
              "type": "uint256"
            },
            {
              "internalType": "bool",
              "name": "isDeleted",
              "type": "bool"
            },
            {
              "internalType": "uint256",
              "name": "likes",
              "type": "uint256"
            },
            {
              "internalType": "uint256",
              "name": "dislikes",
              "type": "uint256"
            },
            {
              "internalType": "enum DataTypes.Visibility",
              "name": "visibility",
              "type": "uint8"
            },
            {
              "components": [
                {
                  "internalType": "uint256",
                  "name": "id",
                  "type": "uint256"
                },
                {
                  "internalType": "address payable",
                  "name": "commenter",
                  "type": "address"
                },
                {
                  "internalType": "string",
                  "name": "commentText",
                  "type": "string"
                }
              ],
              "internalType": "struct DataTypes.Comment[]",
              "name": "comments",
              "type": "tuple[]"
            },
            {
              "components": [
                {
                  "internalType": "uint256",
                  "name": "id",
                  "type": "uint256"
                },
                {
                  "internalType": "address",
                  "name": "reporter",
                  "type": "address"
                },
                {
                  "internalType": "string",
                  "name": "reason",
                  "type": "string"
                }
              ],
              "internalType": "struct DataTypes.Report[]",
              "name": "reports",
              "type": "tuple[]"
            },
            {
              "internalType": "address[]",
              "name": "userWhoPaid",
              "type": "address[]"
            },
            {
              "internalType": "bool",
              "name": "hasListed",
              "type": "bool"
            },
            {
              "internalType": "uint256",
              "name": "listPrice",
              "type": "uint256"
            }
          ],
          "internalType": "struct DataTypes.Post[]",
          "name": "",
          "type": "tuple[]"
        }
      ],
      "stateMutability": "view",
      "type": "function"
    },
    {
      "inputs": [
        {
          "internalType": "uint256",
          "name": "_postId",
          "type": "uint256"
        }
      ],
      "name": "getOwnerName",
      "outputs": [
        {
          "internalType": "address",
          "name": "",
          "type": "address"
        }
      ],
      "stateMutability": "view",
      "type": "function"
    },
    {
      "inputs": [
        {
          "internalType": "uint256",
          "name": "postId",
          "type": "uint256"
        }
      ],
      "name": "getPaidUsersByPostId",
      "outputs": [
        {
          "internalType": "address[]",
          "name": "",
          "type": "address[]"
        }
      ],
      "stateMutability": "view",
      "type": "function"
    },
    {
      "inputs": [
        {
          "internalType": "uint256",
          "name": "_postId",
          "type": "uint256"
        }
      ],
      "name": "getPostComments",
      "outputs": [
        {
          "components": [
            {
              "internalType": "uint256",
              "name": "id",
              "type": "uint256"
            },
            {
              "internalType": "address payable",
              "name": "commenter",
              "type": "address"
            },
            {
              "internalType": "string",
              "name": "commentText",
              "type": "string"
            }
          ],
          "internalType": "struct DataTypes.Comment[]",
          "name": "",
          "type": "tuple[]"
        }
      ],
      "stateMutability": "view",
      "type": "function"
    },
    {
      "inputs": [
        {
          "internalType": "uint256",
          "name": "postId",
          "type": "uint256"
        }
      ],
      "name": "getReportsForPost",
      "outputs": [
        {
          "components": [
            {
              "internalType": "uint256",
              "name": "id",
              "type": "uint256"
            },
            {
              "internalType": "address",
              "name": "reporter",
              "type": "address"
            },
            {
              "internalType": "string",
              "name": "reason",
              "type": "string"
            }
          ],
          "internalType": "struct DataTypes.Report[]",
          "name": "",
          "type": "tuple[]"
        }
      ],
      "stateMutability": "view",
      "type": "function"
    },
    {
      "inputs": [
        {
          "internalType": "uint256",
          "name": "_id",
          "type": "uint256"
        }
      ],
      "name": "getSinglePost",
      "outputs": [
        {
          "components": [
            {
              "internalType": "uint256",
              "name": "id",
              "type": "uint256"
            },
            {
              "internalType": "address payable",
              "name": "username",
              "type": "address"
            },
            {
              "internalType": "string",
              "name": "postText",
              "type": "string"
            },
            {
              "internalType": "uint256",
              "name": "viewPrice",
              "type": "uint256"
            },
            {
              "internalType": "bool",
              "name": "isDeleted",
              "type": "bool"
            },
            {
              "internalType": "uint256",
              "name": "likes",
              "type": "uint256"
            },
            {
              "internalType": "uint256",
              "name": "dislikes",
              "type": "uint256"
            },
            {
              "internalType": "enum DataTypes.Visibility",
              "name": "visibility",
              "type": "uint8"
            },
            {
              "components": [
                {
                  "internalType": "uint256",
                  "name": "id",
                  "type": "uint256"
                },
                {
                  "internalType": "address payable",
                  "name": "commenter",
                  "type": "address"
                },
                {
                  "internalType": "string",
                  "name": "commentText",
                  "type": "string"
                }
              ],
              "internalType": "struct DataTypes.Comment[]",
              "name": "comments",
              "type": "tuple[]"
            },
            {
              "components": [
                {
                  "internalType": "uint256",
                  "name": "id",
                  "type": "uint256"
                },
                {
                  "internalType": "address",
                  "name": "reporter",
                  "type": "address"
                },
                {
                  "internalType": "string",
                  "name": "reason",
                  "type": "string"
                }
              ],
              "internalType": "struct DataTypes.Report[]",
              "name": "reports",
              "type": "tuple[]"
            },
            {
              "internalType": "address[]",
              "name": "userWhoPaid",
              "type": "address[]"
            },
            {
              "internalType": "bool",
              "name": "hasListed",
              "type": "bool"
            },
            {
              "internalType": "uint256",
              "name": "listPrice",
              "type": "uint256"
            }
          ],
          "internalType": "struct DataTypes.Post",
          "name": "",
          "type": "tuple"
        }
      ],
      "stateMutability": "view",
      "type": "function"
    },
    {
      "inputs": [
        {
          "internalType": "string",
          "name": "name",
          "type": "string"
        }
      ],
      "name": "getUsersByName",
      "outputs": [
        {
          "components": [
            {
              "internalType": "address",
              "name": "userAddress",
              "type": "address"
            },
            {
              "internalType": "string",
              "name": "imageUrl",
              "type": "string"
            }
          ],
          "internalType": "struct DataTypes.User[]",
          "name": "",
          "type": "tuple[]"
        },
        {
          "internalType": "bool[]",
          "name": "",
          "type": "bool[]"
        }
      ],
      "stateMutability": "view",
      "type": "function"
    },
    {
      "inputs": [
        {
          "internalType": "address",
          "name": "",
          "type": "address"
        }
      ],
      "name": "hasAddedGatekeeper",
      "outputs": [
        {
          "internalType": "bool",
          "name": "",
          "type": "bool"
        }
      ],
      "stateMutability": "view",
      "type": "function"
    },
    {
      "inputs": [
        {
          "internalType": "uint256",
          "name": "postId",
          "type": "uint256"
        },
        {
          "internalType": "address",
          "name": "user",
          "type": "address"
        }
      ],
      "name": "hasUserPaidForPost",
      "outputs": [
        {
          "internalType": "bool",
          "name": "",
          "type": "bool"
        }
      ],
      "stateMutability": "view",
      "type": "function"
    },
    {
      "inputs": [
        {
          "internalType": "address",
          "name": "owner",
          "type": "address"
        },
        {
          "internalType": "address",
          "name": "operator",
          "type": "address"
        }
      ],
      "name": "isApprovedForAll",
      "outputs": [
        {
          "internalType": "bool",
          "name": "",
          "type": "bool"
        }
      ],
      "stateMutability": "view",
      "type": "function"
    },
    {
      "inputs": [
        {
          "internalType": "address",
          "name": "_follower",
          "type": "address"
        },
        {
          "internalType": "address",
          "name": "_following",
          "type": "address"
        }
      ],
      "name": "isFollowing",
      "outputs": [
        {
          "internalType": "bool",
          "name": "",
          "type": "bool"
        }
      ],
      "stateMutability": "view",
      "type": "function"
    },
    {
      "inputs": [
        {
          "internalType": "uint256",
          "name": "postId",
          "type": "uint256"
        }
      ],
      "name": "likePost",
      "outputs": [],
      "stateMutability": "nonpayable",
      "type": "function"
    },
    {
      "inputs": [
        {
          "internalType": "uint256",
          "name": "postId",
          "type": "uint256"
        },
        {
          "internalType": "uint256",
          "name": "_listPrice",
          "type": "uint256"
        }
      ],
      "name": "listPost",
      "outputs": [],
      "stateMutability": "nonpayable",
      "type": "function"
    },
    {
      "inputs": [],
      "name": "name",
      "outputs": [
        {
          "internalType": "string",
          "name": "",
          "type": "string"
        }
      ],
      "stateMutability": "view",
      "type": "function"
    },
    {
      "inputs": [
        {
          "internalType": "uint256",
          "name": "tokenId",
          "type": "uint256"
        }
      ],
      "name": "ownerOf",
      "outputs": [
        {
          "internalType": "address",
          "name": "",
          "type": "address"
        }
      ],
      "stateMutability": "view",
      "type": "function"
    },
    {
      "inputs": [],
      "name": "postCounter",
      "outputs": [
        {
          "internalType": "uint256",
          "name": "",
          "type": "uint256"
        }
      ],
      "stateMutability": "view",
      "type": "function"
    },
    {
      "inputs": [
        {
          "internalType": "uint256",
          "name": "",
          "type": "uint256"
        },
        {
          "internalType": "address",
          "name": "",
          "type": "address"
        }
      ],
      "name": "postReports",
      "outputs": [
        {
          "internalType": "bool",
          "name": "",
          "type": "bool"
        }
      ],
      "stateMutability": "view",
      "type": "function"
    },
    {
      "inputs": [
        {
          "internalType": "uint256",
          "name": "",
          "type": "uint256"
        }
      ],
      "name": "posts",
      "outputs": [
        {
          "internalType": "uint256",
          "name": "id",
          "type": "uint256"
        },
        {
          "internalType": "address payable",
          "name": "username",
          "type": "address"
        },
        {
          "internalType": "string",
          "name": "postText",
          "type": "string"
        },
        {
          "internalType": "uint256",
          "name": "viewPrice",
          "type": "uint256"
        },
        {
          "internalType": "bool",
          "name": "isDeleted",
          "type": "bool"
        },
        {
          "internalType": "uint256",
          "name": "likes",
          "type": "uint256"
        },
        {
          "internalType": "uint256",
          "name": "dislikes",
          "type": "uint256"
        },
        {
          "internalType": "enum DataTypes.Visibility",
          "name": "visibility",
          "type": "uint8"
        },
        {
          "internalType": "bool",
          "name": "hasListed",
          "type": "bool"
        },
        {
          "internalType": "uint256",
          "name": "listPrice",
          "type": "uint256"
        }
      ],
      "stateMutability": "view",
      "type": "function"
    },
    {
      "inputs": [
        {
          "internalType": "string",
          "name": "name",
          "type": "string"
        },
        {
          "internalType": "string",
          "name": "imageUrl",
          "type": "string"
        }
      ],
      "name": "registerUser",
      "outputs": [],
      "stateMutability": "nonpayable",
      "type": "function"
    },
    {
      "inputs": [
        {
          "internalType": "uint256",
          "name": "postId",
          "type": "uint256"
        },
        {
          "internalType": "string",
          "name": "reason",
          "type": "string"
        }
      ],
      "name": "reportPost",
      "outputs": [],
      "stateMutability": "nonpayable",
      "type": "function"
    },
    {
      "inputs": [
        {
          "internalType": "address",
          "name": "from",
          "type": "address"
        },
        {
          "internalType": "address",
          "name": "to",
          "type": "address"
        },
        {
          "internalType": "uint256",
          "name": "tokenId",
          "type": "uint256"
        }
      ],
      "name": "safeTransferFrom",
      "outputs": [],
      "stateMutability": "nonpayable",
      "type": "function"
    },
    {
      "inputs": [
        {
          "internalType": "address",
          "name": "from",
          "type": "address"
        },
        {
          "internalType": "address",
          "name": "to",
          "type": "address"
        },
        {
          "internalType": "uint256",
          "name": "tokenId",
          "type": "uint256"
        },
        {
          "internalType": "bytes",
          "name": "data",
          "type": "bytes"
        }
      ],
      "name": "safeTransferFrom",
      "outputs": [],
      "stateMutability": "nonpayable",
      "type": "function"
    },
    {
      "inputs": [
        {
          "internalType": "address",
          "name": "operator",
          "type": "address"
        },
        {
          "internalType": "bool",
          "name": "approved",
          "type": "bool"
        }
      ],
      "name": "setApprovalForAll",
      "outputs": [],
      "stateMutability": "nonpayable",
      "type": "function"
    },
    {
      "inputs": [
        {
          "internalType": "bytes4",
          "name": "interfaceId",
          "type": "bytes4"
        }
      ],
      "name": "supportsInterface",
      "outputs": [
        {
          "internalType": "bool",
          "name": "",
          "type": "bool"
        }
      ],
      "stateMutability": "view",
      "type": "function"
    },
    {
      "inputs": [],
      "name": "symbol",
      "outputs": [
        {
          "internalType": "string",
          "name": "",
          "type": "string"
        }
      ],
      "stateMutability": "view",
      "type": "function"
    },
    {
      "inputs": [
        {
          "internalType": "uint256",
          "name": "tokenId",
          "type": "uint256"
        }
      ],
      "name": "tokenURI",
      "outputs": [
        {
          "internalType": "string",
          "name": "",
          "type": "string"
        }
      ],
      "stateMutability": "view",
      "type": "function"
    },
    {
      "inputs": [
        {
          "internalType": "address",
          "name": "from",
          "type": "address"
        },
        {
          "internalType": "address",
          "name": "to",
          "type": "address"
        },
        {
          "internalType": "uint256",
          "name": "tokenId",
          "type": "uint256"
        }
      ],
      "name": "transferFrom",
      "outputs": [],
      "stateMutability": "nonpayable",
      "type": "function"
    },
    {
      "inputs": [
        {
          "internalType": "address",
          "name": "_user",
          "type": "address"
        }
      ],
      "name": "unfollowUser",
      "outputs": [],
      "stateMutability": "nonpayable",
      "type": "function"
    },
    {
      "inputs": [
        {
          "internalType": "uint256",
          "name": "postId",
          "type": "uint256"
        }
      ],
      "name": "unlikePost",
      "outputs": [],
      "stateMutability": "nonpayable",
      "type": "function"
    },
    {
      "inputs": [
        {
          "internalType": "uint256",
          "name": "postId",
          "type": "uint256"
        }
      ],
      "name": "viewPaidPost",
      "outputs": [],
      "stateMutability": "payable",
      "type": "function"
    }
  ],
  "bytecode": "0x60806040523480156200001157600080fd5b5060405180604001604052806007815260200166141bdcdd13919560ca1b815250604051806040016040528060048152602001631413919560e21b81525081600090816200006091906200011f565b5060016200006f82826200011f565b505050620001eb565b634e487b7160e01b600052604160045260246000fd5b600181811c90821680620000a357607f821691505b602082108103620000c457634e487b7160e01b600052602260045260246000fd5b50919050565b601f8211156200011a576000816000526020600020601f850160051c81016020861015620000f55750805b601f850160051c820191505b81811015620001165782815560010162000101565b5050505b505050565b81516001600160401b038111156200013b576200013b62000078565b62000153816200014c84546200008e565b84620000ca565b602080601f8311600181146200018b5760008415620001725750858301515b600019600386901b1c1916600185901b17855562000116565b600085815260208120601f198616915b82811015620001bc578886015182559484019460019091019084016200019b565b5085821015620001db5787850151600019600388901b60f8161c191681555b5050505050600190811b01905550565b6146c780620001fb6000396000f3fe6080604052600436106102395760003560e01c806301ffc9a71461023e57806306fdde0314610273578063081812fc14610295578063094cd5ee146102cd578063095ea7b3146102ef57806309b3d75e1461030f5780630a37b0bc146103335780630b1e7f83146103605780630b3ea7e2146103965780631d2e4afd146103ab57806323b872dd146103cb5780632d68a76c146103eb5780632fa673381461041b578063305611001461042e578063305a67a81461045057806342842e0e146104705780634b722455146104905780635950eb5b146104b05780636352211e146104c557806366ea76d5146104e5578063676ab3b2146104f857806370987be11461052657806370a082311461053b578063725009d31461055b578063789db68a1461057b5780637ef94bce1461059b5780638230c4fb146105bb57806386be9250146105f45780638cfbc01f1461061457806395d89b411461062757806399ec3a421461063c578063a22cb4651461065c578063a32f63e71461067c578063a4c5ad591461069c578063a70806f7146106ca578063aa7e5683146106ea578063ad88881b1461070a578063b446aa0114610745578063b86e6f0914610765578063b88d4fde14610792578063b8b73ac3146107b2578063c2fe2022146107e2578063c87b56dd14610802578063d524ff7614610822578063df3ecbd21461084f578063e985e9c51461088a578063f107cfcb146108aa578063fa188de9146108ca578063fa269246146108ea578063ffc5d7df1461091a575b600080fd5b34801561024a57600080fd5b5061025e6102593660046138a4565b61093a565b60405190151581526020015b60405180910390f35b34801561027f57600080fd5b5061028861098c565b60405161026a9190613911565b3480156102a157600080fd5b506102b56102b0366004613924565b610a1e565b6040516001600160a01b03909116815260200161026a565b3480156102d957600080fd5b506102ed6102e8366004613924565b610a45565b005b3480156102fb57600080fd5b506102ed61030a366004613959565b610adf565b34801561031b57600080fd5b5061032560065481565b60405190815260200161026a565b34801561033f57600080fd5b5061035361034e366004613924565b610bf4565b60405161026a9190613983565b34801561036c57600080fd5b5061038061037b366004613924565b610c63565b60405161026a9a99989796959493929190613a08565b3480156103a257600080fd5b50600a54610325565b3480156103b757600080fd5b506102ed6103c6366004613b22565b610d4e565b3480156103d757600080fd5b506102ed6103e6366004613b85565b610ea1565b3480156103f757600080fd5b50610325610406366004613924565b6000908152600760205260409020600c015490565b6102ed610429366004613924565b610ed2565b34801561043a57600080fd5b506104436110db565b60405161026a9190613d88565b34801561045c57600080fd5b506102ed61046b366004613924565b6110ed565b34801561047c57600080fd5b506102ed61048b366004613b85565b611223565b34801561049c57600080fd5b506102ed6104ab366004613dec565b61123e565b3480156104bc57600080fd5b5061044361134d565b3480156104d157600080fd5b506102b56104e0366004613924565b61135a565b6102ed6104f3366004613e44565b61138e565b34801561050457600080fd5b50610518610513366004613924565b6114b0565b60405161026a929190613e88565b34801561053257600080fd5b50610443611593565b34801561054757600080fd5b50610325610556366004613eae565b6115a0565b34801561056757600080fd5b506102ed610576366004613924565b611626565b34801561058757600080fd5b506102ed610596366004613ec9565b611678565b3480156105a757600080fd5b506102ed6105b6366004613f18565b611780565b3480156105c757600080fd5b506102b56105d6366004613924565b6000908152600760205260409020600101546001600160a01b031690565b34801561060057600080fd5b5061025e61060f366004613f54565b611949565b6102ed610622366004613924565b6119f6565b34801561063357600080fd5b50610288611b6c565b34801561064857600080fd5b5061025e610657366004613f80565b611b7b565b34801561066857600080fd5b506102ed610677366004613faa565b611ba9565b34801561068857600080fd5b50610518610697366004613924565b611bb8565b3480156106a857600080fd5b506106bc6106b7366004613fdb565b611c78565b60405161026a929190614042565b3480156106d657600080fd5b506102ed6106e5366004613eae565b611e49565b3480156106f657600080fd5b506102ed610705366004613f18565b611efb565b34801561071657600080fd5b5061025e610725366004613f80565b600960209081526000928352604080842090915290825290205460ff1681565b34801561075157600080fd5b506102ed6107603660046140d4565b611fd9565b34801561077157600080fd5b50610785610780366004613924565b612106565b60405161026a91906140f6565b34801561079e57600080fd5b506102ed6107ad366004614109565b612559565b3480156107be57600080fd5b506103256107cd366004613924565b60009081526007602052604090206005015490565b3480156107ee57600080fd5b506103536107fd366004613eae565b61258b565b34801561080e57600080fd5b5061028861081d366004613924565b61274b565b34801561082e57600080fd5b5061084261083d366004613924565b6127bf565b60405161026a9190614184565b34801561085b57600080fd5b5061025e61086a366004613f54565b600860209081526000928352604080842090915290825290205460ff1681565b34801561089657600080fd5b5061025e6108a5366004613f80565b6128e6565b3480156108b657600080fd5b506102ed6108c5366004613eae565b612914565b3480156108d657600080fd5b506102ed6108e5366004613924565b612997565b3480156108f657600080fd5b5061025e610905366004613eae565b600b6020526000908152604090205460ff1681565b34801561092657600080fd5b50610842610935366004613924565b612a3b565b60006001600160e01b031982166380ac58cd60e01b148061096b57506001600160e01b03198216635b5e139f60e01b145b8061098657506301ffc9a760e01b6001600160e01b03198316145b92915050565b60606000805461099b90614197565b80601f01602080910402602001604051908101604052809291908181526020018280546109c790614197565b8015610a145780601f106109e957610100808354040283529160200191610a14565b820191906000526020600020905b8154815290600101906020018083116109f757829003601f168201915b5050505050905090565b6000610a2982612b57565b506000908152600460205260409020546001600160a01b031690565b6000818152600760205260409020600101546001600160a01b03163314610a875760405162461bcd60e51b8152600401610a7e906141d1565b60405180910390fd5b600081815260076020908152604091829020600401805460ff19166001908117909155915191825282917f50de60758261258765d60f3764f52b012fb4289c1120010bf8b34f7a7976f815910160405180910390a250565b6000610aea8261135a565b9050806001600160a01b0316836001600160a01b031603610b575760405162461bcd60e51b815260206004820152602160248201527f4552433732313a20617070726f76616c20746f2063757272656e74206f776e656044820152603960f91b6064820152608401610a7e565b336001600160a01b0382161480610b735750610b7381336128e6565b610be55760405162461bcd60e51b815260206004820152603d60248201527f4552433732313a20617070726f76652063616c6c6572206973206e6f7420746f60448201527f6b656e206f776e6572206f7220617070726f76656420666f7220616c6c0000006064820152608401610a7e565b610bef8383612b7f565b505050565b600081815260076020908152604091829020600a01805483518184028101840190945280845260609392830182828015610c5757602002820191906000526020600020905b81546001600160a01b03168152600190910190602001808311610c39575b50505050509050919050565b60076020526000908152604090208054600182015460028301805492936001600160a01b0390921692610c9590614197565b80601f0160208091040260200160405190810160405280929190818152602001828054610cc190614197565b8015610d0e5780601f10610ce357610100808354040283529160200191610d0e565b820191906000526020600020905b815481529060010190602001808311610cf157829003601f168201915b50505060038401546004850154600586015460068701546007880154600b890154600c909901549798949760ff948516975092955090939083169216908a565b6000600e83604051610d609190614212565b9081526020016040518091039020905060005b8154811015610e1f57336001600160a01b0316828281548110610d9857610d9861422e565b60009182526020909120600290910201546001600160a01b031603610e175782828281548110610dca57610dca61422e565b90600052602060002090600202016001019081610de7919061428c565b50600080516020614652833981519152843385604051610e099392919061434b565b60405180910390a150505050565b600101610d73565b50604080518082019091523381526020808201848152835460018082018655600086815293909320845160029092020180546001600160a01b0319166001600160a01b0390921691909117815590518392820190610e7d908261428c565b505050600080516020614652833981519152843385604051610e099392919061434b565b610eab3382612bed565b610ec75760405162461bcd60e51b8152600401610a7e9061437f565b610bef838383612c4c565b6000818152600760205260409020600b015460ff16610f3d5760405162461bcd60e51b815260206004820152602160248201527f5468697320706f7374206973206e6f74206c697374656420666f722073616c656044820152601760f91b6064820152608401610a7e565b600081815260076020526040902060010154336001600160a01b0390911603610fa85760405162461bcd60e51b815260206004820152601d60248201527f596f752063616e6e6f742062757920796f7572206f776e20706f73742e0000006044820152606401610a7e565b6000818152600760205260408082206001015490516001600160a01b0390911691339183913480156108fc02929091818181858888f19350505050158015610ff4573d6000803e3d6000fd5b50611000828285612c4c565b60008381526007602090815260408220600180820180546001600160a01b038088166001600160a01b031992831617909255600a840180549384018155865293852090910180549187169190931617909155848252600b8101805460ff19169055600c018190556110703361258b565b905060005b81518110156110d45760008282815181106110925761109261422e565b6020026020010151905085336001600160a01b0316826001600160a01b031660008051602061461283398151915260405160405180910390a450600101611075565b5050505050565b60606110e8600080612d9e565b905090565b6000818152600760205260409020600101546001600160a01b031633146111265760405162461bcd60e51b8152600401610a7e906143cc565b6000818152600760205260409020600b015460ff1615156001146111845760405162461bcd60e51b8152602060048201526015602482015274139bdd081b1a5cdd1959081cdbc81d4818d85b89dd605a1b6044820152606401610a7e565b6000818152600760205260408120600b8101805460ff19169055600c018190556111ad3361258b565b905060005b8151811015610bef5760008282815181106111cf576111cf61422e565b6020026020010151905083336001600160a01b0316826001600160a01b03167f256c6f8fb6d6cf809bf9adb7c5e148b1ca95f4a804b1e62e7c969fa625fb037c60405160405180910390a4506001016111b2565b610bef83838360405180602001604052806000815250612559565b336000908152600b602052604090205460ff16156112b25760405162461bcd60e51b815260206004820152602b60248201527f5468697320616464726573732068617320616c7265616479206164646564206160448201526a1033b0ba32b5b2b2b832b960a91b6064820152608401610a7e565b6040805180820190915282815261ffff82166020820152600a8054600181018255600091909152815160029091027fc65a7bb8d6351c1cf70c95a316cc6a92839c986682d98bc35f958f4883f9d2a80190819061130f908261428c565b506020918201516001918201805461ffff191661ffff909216919091179055336000908152600b9092526040909120805460ff191690911790555050565b60606110e8336000612d9e565b60008061136683613377565b90506001600160a01b0381166109865760405162461bcd60e51b8152600401610a7e90614411565b6006805490600061139e83614459565b909155505060065460008181526007602052604090208181556001810180546001600160a01b03191633179055600281016113d9858261428c565b506003810183905560048101805460ff19908116909155600b8201805490911690556000600c82015561140c3383613392565b604051829033907f211310f5bdfd60139328b0e0b1235a8d92df3ccfc99b9b80da0d81cbac493aea90600090a360006114443361258b565b905060005b81518110156114a85760008282815181106114665761146661422e565b6020026020010151905084336001600160a01b0316826001600160a01b031660008051602061463283398151915260405160405180910390a450600101611449565b505050505050565b6060600080600a84815481106114c8576114c861422e565b90600052602060002090600202016040518060400160405290816000820180546114f190614197565b80601f016020809104026020016040519081016040528092919081815260200182805461151d90614197565b801561156a5780601f1061153f5761010080835404028352916020019161156a565b820191906000526020600020905b81548152906001019060200180831161154d57829003601f168201915b50505091835250506001919091015461ffff166020918201528151910151909590945092505050565b60606110e8336001612d9e565b60006001600160a01b03821661160a5760405162461bcd60e51b815260206004820152602960248201527f4552433732313a2061646472657373207a65726f206973206e6f7420612076616044820152683634b21037bbb732b960b91b6064820152608401610a7e565b506001600160a01b031660009081526003602052604090205490565b600081815260076020526040812060050180549161164383614459565b9091555050604051339082907fcf765d6f163c9b0d832e2a94f4c8e9bffd32a2c3ca5fdbb8cc67b5fe1441f41390600090a350565b6000838152600760205260409020600101546001600160a01b031633146116b15760405162461bcd60e51b8152600401610a7e906141d1565b60008381526007602052604090206004015460ff16156116e35760405162461bcd60e51b8152600401610a7e90614472565b60008381526007602052604090206002016116fe838261428c565b50600083815260076020526040812060030182905561171c3361258b565b905060005b81518110156110d457600082828151811061173e5761173e61422e565b6020026020010151905085336001600160a01b0316826001600160a01b031660008051602061463283398151915260405160405180910390a450600101611721565b600082815260076020526040902060010154336001600160a01b03909116036117eb5760405162461bcd60e51b815260206004820181905260248201527f596f752063616e6e6f74207265706f727420796f7572206f776e20706f73742e6044820152606401610a7e565b6000828152600c6020908152604080832033845290915290205460ff16156118615760405162461bcd60e51b8152602060048201526024808201527f596f75206861766520616c7265616479207265706f727465642074686973207060448201526337b9ba1760e11b6064820152608401610a7e565b6040805160608101825260008481526007602081815284832060090180548086523383870190815296860188815293835260018082018355918552919093208451600390920201908155935191840180546001600160a01b0319166001600160a01b0390931692909217909155519091829160028201906118e2908261428c565b5050506000838152600c6020908152604080832033808552925291829020805460ff19166001179055905184907f52445589f146589c7ef4b77e2a66d0492b4addd046b14551af597215c43347469061193c908690613911565b60405180910390a3505050565b6000828152600760205260408120600101546001600160a01b0380841691160361197557506001610986565b60005b6000848152600760205260409020600a01548110156119ec576000848152600760205260409020600a0180546001600160a01b0385169190839081106119c0576119c061422e565b6000918252602090912001546001600160a01b0316036119e4576001915050610986565b600101611978565b5060009392505050565b60008181526007602052604090206004015460ff1615611a4a5760405162461bcd60e51b815260206004820152600f60248201526e1c1bdcdd081a5cc819195b195d1959608a1b6044820152606401610a7e565b600081815260076020526040902060010154336001600160a01b0390911603611ac15760405162461bcd60e51b8152602060048201526024808201527f596f752063616e6e6f742070617920746f207669657720796f7572206f776e206044820152631c1bdcdd60e21b6064820152608401610a7e565b6000818152600760205260408082206001015490516001600160a01b03909116913480156108fc02929091818181858888f19350505050158015611b09573d6000803e3d6000fd5b506000818152600760209081526040808320600a01805460018101825590845291832090910180546001600160a01b03191633908117909155905183927fca0f87217b959f6345bff657040723570f1dd514ddceba1730ba67c2c080153a91a350565b60606001805461099b90614197565b6001600160a01b03918216600090815260096020908152604080832093909416825291909152205460ff1690565b611bb433838361348d565b5050565b600a8181548110611bc857600080fd5b9060005260206000209060020201600091509050806000018054611beb90614197565b80601f0160208091040260200160405190810160405280929190818152602001828054611c1790614197565b8015611c645780601f10611c3957610100808354040283529160200191611c64565b820191906000526020600020905b815481529060010190602001808311611c4757829003601f168201915b5050506001909301549192505061ffff1682565b6060806000600e84604051611c8d9190614212565b9081526020016040518091039020805480602002602001604051908101604052809291908181526020016000905b82821015611d94576000848152602090819020604080518082019091526002850290910180546001600160a01b031682526001810180549293919291840191611d0390614197565b80601f0160208091040260200160405190810160405280929190818152602001828054611d2f90614197565b8015611d7c5780601f10611d5157610100808354040283529160200191611d7c565b820191906000526020600020905b815481529060010190602001808311611d5f57829003601f168201915b50505050508152505081526020019060010190611cbb565b505050509050600081516001600160401b03811115611db557611db5613a77565b604051908082528060200260200182016040528015611dde578160200160208202803683370190505b50905060005b8251811015611e3e57611e14838281518110611e0257611e0261422e565b60200260200101516000015133611b7b565b828281518110611e2657611e2661422e565b91151560209283029190910190910152600101611de4565b509094909350915050565b336001600160a01b03821603611e9e5760405162461bcd60e51b815260206004820152601a6024820152792cb7ba9031b0b73737ba103337b63637bb903cb7bab939b2b63360311b6044820152606401610a7e565b6001600160a01b0316600081815260096020908152604080832033808552908352818420805460ff19166001908117909155948452600d8352908320805494850181558352912090910180546001600160a01b0319169091179055565b60008281526007602052604090206004015460ff1615611f2d5760405162461bcd60e51b8152600401610a7e90614472565b60408051606080820183526000808352602083015291810191909152600083815260076020526040902060080154611f6690600161449b565b81523360208083019182526040808401858152600087815260078452918220600801805460018082018355918452939092208551600390940201928355925190820180546001600160a01b0319166001600160a01b03909216919091179055905182919060028201906114a8908261428c565b6000828152600760205260409020600101546001600160a01b031633146120125760405162461bcd60e51b8152600401610a7e906143cc565b6000828152600760205260409020600b015460ff16156120705760405162461bcd60e51b8152602060048201526019602482015278105b1c9958591e481b1a5cdd1959081cdbc81d4818d85b89dd603a1b6044820152606401610a7e565b6000828152600760205260408120600b8101805460ff19166001179055600c0182905561209c3361258b565b905060005b81518110156121005760008282815181106120be576120be61422e565b6020026020010151905084336001600160a01b0316826001600160a01b031660008051602061461283398151915260405160405180910390a4506001016120a1565b50505050565b61210e613808565b60008211801561212057506006548211155b801561213e575060008281526007602052604090206004015460ff16155b6121885760405162461bcd60e51b815260206004820152601b60248201527a141bdcdd081259081a5cc81ddc9bdb99c81bdc8819195b195d1959602a1b6044820152606401610a7e565b60008281526007602090815260409182902082516101a0810184528154815260018201546001600160a01b03169281019290925260028101805492939192918401916121d390614197565b80601f01602080910402602001604051908101604052809291908181526020018280546121ff90614197565b801561224c5780601f106122215761010080835404028352916020019161224c565b820191906000526020600020905b81548152906001019060200180831161222f57829003601f168201915b505050918352505060038201546020820152600482015460ff908116151560408301526005830154606083015260068301546080830152600783015460a0909201911660028111156122a0576122a06139d0565b60028111156122b1576122b16139d0565b815260200160088201805480602002602001604051908101604052809291908181526020016000905b828210156123be57600084815260209081902060408051606081018252600386029092018054835260018101546001600160a01b0316938301939093526002830180549293929184019161232d90614197565b80601f016020809104026020016040519081016040528092919081815260200182805461235990614197565b80156123a65780601f1061237b576101008083540402835291602001916123a6565b820191906000526020600020905b81548152906001019060200180831161238957829003601f168201915b505050505081525050815260200190600101906122da565b50505050815260200160098201805480602002602001604051908101604052809291908181526020016000905b828210156124cf57600084815260209081902060408051606081018252600386029092018054835260018101546001600160a01b0316938301939093526002830180549293929184019161243e90614197565b80601f016020809104026020016040519081016040528092919081815260200182805461246a90614197565b80156124b75780601f1061248c576101008083540402835291602001916124b7565b820191906000526020600020905b81548152906001019060200180831161249a57829003601f168201915b505050505081525050815260200190600101906123eb565b505050508152602001600a820180548060200260200160405190810160405280929190818152602001828054801561253057602002820191906000526020600020905b81546001600160a01b03168152600190910190602001808311612512575b5050509183525050600b82015460ff1615156020820152600c9091015460409091015292915050565b6125633383612bed565b61257f5760405162461bcd60e51b8152600401610a7e9061437f565b6121008484848461354f565b60606000805b6001600160a01b0384166000908152600d602052604090205481101561262e576001600160a01b0384166000908152600d602052604081208054839081106125db576125db61422e565b60009182526020808320909101546001600160a01b0388811684526009835260408085209190921680855292529091205490915060ff1615612625578261262181614459565b9350505b50600101612591565b506000816001600160401b0381111561264957612649613a77565b604051908082528060200260200182016040528015612672578160200160208202803683370190505b5090506000805b6001600160a01b0386166000908152600d6020526040902054811015612741576001600160a01b0386166000908152600d602052604081208054839081106126c3576126c361422e565b60009182526020808320909101546001600160a01b038a811684526009835260408085209190921680855292529091205490915060ff161561273857808484815181106127125761271261422e565b6001600160a01b03909216602092830291909101909101528261273481614459565b9350505b50600101612679565b5090949350505050565b606061275682612b57565b600061276d60408051602081019091526000815290565b9050600081511161278d57604051806020016040528060008152506127b8565b8061279784613582565b6040516020016127a89291906144ae565b6040516020818303038152906040525b9392505050565b606060076000838152602001908152602001600020600801805480602002602001604051908101604052809291908181526020016000905b828210156128db57600084815260209081902060408051606081018252600386029092018054835260018101546001600160a01b0316938301939093526002830180549293929184019161284a90614197565b80601f016020809104026020016040519081016040528092919081815260200182805461287690614197565b80156128c35780601f10612898576101008083540402835291602001916128c3565b820191906000526020600020905b8154815290600101906020018083116128a657829003601f168201915b505050505081525050815260200190600101906127f7565b505050509050919050565b6001600160a01b03918216600090815260056020908152604080832093909416825291909152205460ff1690565b336001600160a01b0382160361296b5760405162461bcd60e51b815260206004820152601c60248201527b2cb7ba9031b0b73737ba103ab73337b63637bb903cb7bab939b2b63360211b6044820152606401610a7e565b6001600160a01b031660009081526009602090815260408083203384529091529020805460ff19169055565b6000818152600760205260409020600501546129e95760405162461bcd60e51b8152602060048201526011602482015270506f737420686173206e6f206c696b657360781b6044820152606401610a7e565b6000818152600760205260408120600501805491612a06836144dd565b9091555050604051339082907f82092d1196022c48d901e5dc4b17451dbce942b8a9ded42fc6f2a4a5e8fd89b990600090a350565b606060076000838152602001908152602001600020600901805480602002602001604051908101604052809291908181526020016000905b828210156128db57600084815260209081902060408051606081018252600386029092018054835260018101546001600160a01b03169383019390935260028301805492939291840191612ac690614197565b80601f0160208091040260200160405190810160405280929190818152602001828054612af290614197565b8015612b3f5780601f10612b1457610100808354040283529160200191612b3f565b820191906000526020600020905b815481529060010190602001808311612b2257829003601f168201915b50505050508152505081526020019060010190612a73565b612b6081613614565b612b7c5760405162461bcd60e51b8152600401610a7e90614411565b50565b600081815260046020526040902080546001600160a01b0319166001600160a01b0384169081179091558190612bb48261135a565b6001600160a01b03167f8c5be1e5ebec7d5bd14f71427d1e84f3dd0314c0f7b2291e5b200ac8c7c3b92560405160405180910390a45050565b600080612bf98361135a565b9050806001600160a01b0316846001600160a01b03161480612c205750612c2081856128e6565b80612c445750836001600160a01b0316612c3984610a1e565b6001600160a01b0316145b949350505050565b826001600160a01b0316612c5f8261135a565b6001600160a01b031614612c855760405162461bcd60e51b8152600401610a7e906144f4565b6001600160a01b038216612ce75760405162461bcd60e51b8152602060048201526024808201527f4552433732313a207472616e7366657220746f20746865207a65726f206164646044820152637265737360e01b6064820152608401610a7e565b826001600160a01b0316612cfa8261135a565b6001600160a01b031614612d205760405162461bcd60e51b8152600401610a7e906144f4565b600081815260046020908152604080832080546001600160a01b03199081169091556001600160a01b03878116808652600385528386208054600019019055908716808652838620805460010190558686526002909452828520805490921684179091559051849360008051602061467283398151915291a4505050565b6060600060015b6006548111612e655760008181526007602052604090206004015460ff16158015612e4057506001600160a01b0385161580612dfd57506000818152600760205260409020600101546001600160a01b038681169116145b80612e405750838015612e40575033600090815260096020908152604080832084845260078352818420600101546001600160a01b0316845290915290205460ff165b15612e535781612e4f81614459565b9250505b80612e5d81614459565b915050612da5565b506000816001600160401b03811115612e8057612e80613a77565b604051908082528060200260200182016040528015612eb957816020015b612ea6613808565b815260200190600190039081612e9e5790505b509050600060015b600654811161336c5760008181526007602052604090206004015460ff16158015612f5c57506001600160a01b0387161580612f1957506000818152600760205260409020600101546001600160a01b038881169116145b80612f5c5750858015612f5c575033600090815260096020908152604080832084845260078352818420600101546001600160a01b0316845290915290205460ff165b1561335a5760008181526007602090815260409182902082516101a0810184528154815260018201546001600160a01b0316928101929092526002810180549293919291840191612fac90614197565b80601f0160208091040260200160405190810160405280929190818152602001828054612fd890614197565b80156130255780601f10612ffa57610100808354040283529160200191613025565b820191906000526020600020905b81548152906001019060200180831161300857829003601f168201915b505050918352505060038201546020820152600482015460ff908116151560408301526005830154606083015260068301546080830152600783015460a090920191166002811115613079576130796139d0565b600281111561308a5761308a6139d0565b815260200160088201805480602002602001604051908101604052809291908181526020016000905b8282101561319757600084815260209081902060408051606081018252600386029092018054835260018101546001600160a01b0316938301939093526002830180549293929184019161310690614197565b80601f016020809104026020016040519081016040528092919081815260200182805461313290614197565b801561317f5780601f106131545761010080835404028352916020019161317f565b820191906000526020600020905b81548152906001019060200180831161316257829003601f168201915b505050505081525050815260200190600101906130b3565b50505050815260200160098201805480602002602001604051908101604052809291908181526020016000905b828210156132a857600084815260209081902060408051606081018252600386029092018054835260018101546001600160a01b0316938301939093526002830180549293929184019161321790614197565b80601f016020809104026020016040519081016040528092919081815260200182805461324390614197565b80156132905780601f1061326557610100808354040283529160200191613290565b820191906000526020600020905b81548152906001019060200180831161327357829003601f168201915b505050505081525050815260200190600101906131c4565b505050508152602001600a820180548060200260200160405190810160405280929190818152602001828054801561330957602002820191906000526020600020905b81546001600160a01b031681526001909101906020018083116132eb575b5050509183525050600b82015460ff1615156020820152600c9091015460409091015283518490849081106133405761334061422e565b6020026020010181905250818061335690614459565b9250505b8061336481614459565b915050612ec1565b509095945050505050565b6000908152600260205260409020546001600160a01b031690565b6001600160a01b0382166133e85760405162461bcd60e51b815260206004820181905260248201527f4552433732313a206d696e7420746f20746865207a65726f20616464726573736044820152606401610a7e565b6133f181613614565b1561340e5760405162461bcd60e51b8152600401610a7e90614539565b61341781613614565b156134345760405162461bcd60e51b8152600401610a7e90614539565b6001600160a01b038216600081815260036020908152604080832080546001019055848352600290915280822080546001600160a01b031916841790555183929190600080516020614672833981519152908290a45050565b816001600160a01b0316836001600160a01b0316036134ea5760405162461bcd60e51b815260206004820152601960248201527822a9219b99189d1030b8383937bb32903a379031b0b63632b960391b6044820152606401610a7e565b6001600160a01b03838116600081815260056020908152604080832094871680845294825291829020805460ff191686151590811790915591519182527f17307eab39ab6107e8899845ad3d59bd9653f200f220920489ca2b5937696c31910161193c565b61355a848484612c4c565b61356684848484613631565b6121005760405162461bcd60e51b8152600401610a7e9061456f565b6060600061358f83613732565b60010190506000816001600160401b038111156135ae576135ae613a77565b6040519080825280601f01601f1916602001820160405280156135d8576020820181803683370190505b5090508181016020015b600019016f181899199a1a9b1b9c1cb0b131b232b360811b600a86061a8153600a85049450846135e257509392505050565b60008061362083613377565b6001600160a01b0316141592915050565b60006001600160a01b0384163b1561372757604051630a85bd0160e11b81526001600160a01b0385169063150b7a02906136759033908990889088906004016145c1565b6020604051808303816000875af19250505080156136b0575060408051601f3d908101601f191682019092526136ad918101906145f4565b60015b61370d573d8080156136de576040519150601f19603f3d011682016040523d82523d6000602084013e6136e3565b606091505b5080516000036137055760405162461bcd60e51b8152600401610a7e9061456f565b805181602001fd5b6001600160e01b031916630a85bd0160e11b149050612c44565b506001949350505050565b60008072184f03e93ff9f4daa797ed6e38ed64bf6a1f0160401b83106137715772184f03e93ff9f4daa797ed6e38ed64bf6a1f0160401b830492506040015b6904ee2d6d415b85acef8160201b831061379b576904ee2d6d415b85acef8160201b830492506020015b662386f26fc1000083106137b957662386f26fc10000830492506010015b6305f5e10083106137d1576305f5e100830492506008015b61271083106137e557612710830492506004015b606483106137f7576064830492506002015b600a83106109865760010192915050565b604051806101a001604052806000815260200160006001600160a01b031681526020016060815260200160008152602001600015158152602001600081526020016000815260200160006002811115613863576138636139d0565b8152602001606081526020016060815260200160608152602001600015158152602001600081525090565b6001600160e01b031981168114612b7c57600080fd5b6000602082840312156138b657600080fd5b81356127b88161388e565b60005b838110156138dc5781810151838201526020016138c4565b50506000910152565b600081518084526138fd8160208601602086016138c1565b601f01601f19169290920160200192915050565b6020815260006127b860208301846138e5565b60006020828403121561393657600080fd5b5035919050565b80356001600160a01b038116811461395457600080fd5b919050565b6000806040838503121561396c57600080fd5b6139758361393d565b946020939093013593505050565b6020808252825182820181905260009190848201906040850190845b818110156139c45783516001600160a01b03168352928401929184019160010161399f565b50909695505050505050565b634e487b7160e01b600052602160045260246000fd5b60038110613a0457634e487b7160e01b600052602160045260246000fd5b9052565b8a81526001600160a01b038a16602082015261014060408201819052600090613a338382018c6138e5565b91505088606083015287151560808301528660a08301528560c0830152613a5d60e08301866139e6565b921515610100820152610120015298975050505050505050565b634e487b7160e01b600052604160045260246000fd5b60006001600160401b0380841115613aa757613aa7613a77565b604051601f8501601f19908116603f01168101908282118183101715613acf57613acf613a77565b81604052809350858152868686011115613ae857600080fd5b858560208301376000602087830101525050509392505050565b600082601f830112613b1357600080fd5b6127b883833560208501613a8d565b60008060408385031215613b3557600080fd5b82356001600160401b0380821115613b4c57600080fd5b613b5886838701613b02565b93506020850135915080821115613b6e57600080fd5b50613b7b85828601613b02565b9150509250929050565b600080600060608486031215613b9a57600080fd5b613ba38461393d565b9250613bb16020850161393d565b9150604084013590509250925092565b600082825180855260208086019550808260051b84010181860160005b84811015613c3557858303601f19018952815180518452848101516001600160a01b031685850152604090810151606091850182905290613c21818601836138e5565b9a86019a9450505090830190600101613bde565b5090979650505050505050565b60008151808452602080850194506020840160005b83811015613c7c5781516001600160a01b031687529582019590820190600101613c57565b509495945050505050565b60006101a0825184526020830151613caa60208601826001600160a01b03169052565b506040830151816040860152613cc2828601826138e5565b915050606083015160608501526080830151613ce2608086018215159052565b5060a083015160a085015260c083015160c085015260e0830151613d0960e08601826139e6565b506101008084015185830382870152613d228382613bc1565b925050506101208084015185830382870152613d3e8382613bc1565b925050506101408084015185830382870152613d5a8382613c42565b9250505061016080840151613d728287018215159052565b5050610180928301519390920192909252919050565b600060208083016020845280855180835260408601915060408160051b87010192506020870160005b82811015613ddf57603f19888603018452613dcd858351613c87565b94509285019290850190600101613db1565b5092979650505050505050565b60008060408385031215613dff57600080fd5b82356001600160401b03811115613e1557600080fd5b613e2185828601613b02565b925050602083013561ffff81168114613e3957600080fd5b809150509250929050565b60008060408385031215613e5757600080fd5b82356001600160401b03811115613e6d57600080fd5b613e7985828601613b02565b95602094909401359450505050565b604081526000613e9b60408301856138e5565b905061ffff831660208301529392505050565b600060208284031215613ec057600080fd5b6127b88261393d565b600080600060608486031215613ede57600080fd5b8335925060208401356001600160401b03811115613efb57600080fd5b613f0786828701613b02565b925050604084013590509250925092565b60008060408385031215613f2b57600080fd5b8235915060208301356001600160401b03811115613f4857600080fd5b613b7b85828601613b02565b60008060408385031215613f6757600080fd5b82359150613f776020840161393d565b90509250929050565b60008060408385031215613f9357600080fd5b613f9c8361393d565b9150613f776020840161393d565b60008060408385031215613fbd57600080fd5b613fc68361393d565b915060208301358015158114613e3957600080fd5b600060208284031215613fed57600080fd5b81356001600160401b0381111561400357600080fd5b612c4484828501613b02565b60008151808452602080850194506020840160005b83811015613c7c578151151587529582019590820190600101614024565b600060408083016040845280865180835260608601915060608160051b8701019250602080890160005b838110156140b457888603605f19018552815180516001600160a01b031687528301518387018890526140a1888801826138e5565b965050938201939082019060010161406c565b5050868403818801525050506140ca818661400f565b9695505050505050565b600080604083850312156140e757600080fd5b50508035926020909101359150565b6020815260006127b86020830184613c87565b6000806000806080858703121561411f57600080fd5b6141288561393d565b93506141366020860161393d565b92506040850135915060608501356001600160401b0381111561415857600080fd5b8501601f8101871361416957600080fd5b61417887823560208401613a8d565b91505092959194509250565b6020815260006127b86020830184613bc1565b600181811c908216806141ab57607f821691505b6020821081036141cb57634e487b7160e01b600052602260045260246000fd5b50919050565b60208082526021908201527f596f7520617265206e6f7420746865206f776e6572206f662074686520706f736040820152601d60fa1b606082015260800190565b600082516142248184602087016138c1565b9190910192915050565b634e487b7160e01b600052603260045260246000fd5b601f821115610bef576000816000526020600020601f850160051c8101602086101561426d5750805b601f850160051c820191505b818110156114a857828155600101614279565b81516001600160401b038111156142a5576142a5613a77565b6142b9816142b38454614197565b84614244565b602080601f8311600181146142ee57600084156142d65750858301515b600019600386901b1c1916600185901b1785556114a8565b600085815260208120601f198616915b8281101561431d578886015182559484019460019091019084016142fe565b508582101561433b5787850151600019600388901b60f8161c191681555b5050505050600190811b01905550565b60608152600061435e60608301866138e5565b6001600160a01b038516602084015282810360408401526140ca81856138e5565b6020808252602d908201527f4552433732313a2063616c6c6572206973206e6f7420746f6b656e206f776e6560408201526c1c881bdc88185c1c1c9bdd9959609a1b606082015260800190565b60208082526025908201527f596f7520617265206e6f7420746865206f776e657220736f20752063616e2774604082015264081b1a5cdd60da1b606082015260800190565b602080825260189082015277115490cdcc8c4e881a5b9d985b1a59081d1bdad95b88125160421b604082015260600190565b634e487b7160e01b600052601160045260246000fd5b60006001820161446b5761446b614443565b5060010190565b6020808252600f908201526e141bdcdd081a5cc819195b195d1959608a1b604082015260600190565b8082018082111561098657610986614443565b600083516144c08184602088016138c1565b8351908301906144d48183602088016138c1565b01949350505050565b6000816144ec576144ec614443565b506000190190565b60208082526025908201527f4552433732313a207472616e736665722066726f6d20696e636f72726563742060408201526437bbb732b960d91b606082015260800190565b6020808252601c908201527b115490cdcc8c4e881d1bdad95b88185b1c9958591e481b5a5b9d195960221b604082015260600190565b60208082526032908201527f4552433732313a207472616e7366657220746f206e6f6e20455243373231526560408201527131b2b4bb32b91034b6b83632b6b2b73a32b960711b606082015260800190565b6001600160a01b03858116825284166020820152604081018390526080606082018190526000906140ca908301846138e5565b60006020828403121561460657600080fd5b81516127b88161388e56fe31d3ceab37a9e9f8eda503b03797fdd8f87efdf7761c7a945ad92604ff3d174e24b938973c8140b346b07674d8cb0151b0a325a29498587f93be31b90ad2aee6d75d102e54ea2b96689d7faeedfc100215b2b72309ec65513704909d6019857fddf252ad1be2c89b69c2b068fc378daa952ba7f163c4a11628f55a4df523b3efa2646970667358221220092e65fd658cc1d08ade8c99e07e3eb725d4a2bac618b695fa6252b0b8b8712664736f6c63430008180033",
  "linkReferences": {},
  "deployedLinkReferences": {}
}