{
  "_format": "hh-sol-artifact-1",
  "contractName": "NotificationsManagement",
  "sourceName": "contracts/NotificationsManagement.sol",
  "abi": [
    {
      "inputs": [],
      "name": "clearNotifications",
      "outputs": [],
      "stateMutability": "nonpayable",
      "type": "function"
    },
    {
      "inputs": [
        {
          "internalType": "address",
          "name": "",
          "type": "address"
        },
        {
          "internalType": "uint256",
          "name": "",
          "type": "uint256"
        }
      ],
      "name": "userNotifications",
      "outputs": [
        {
          "internalType": "enum NotificationsManagement.NotificationType",
          "name": "notificationType",
          "type": "uint8"
        },
        {
          "internalType": "address",
          "name": "fromUser",
          "type": "address"
        },
        {
          "internalType": "uint256",
          "name": "associatedPostId",
          "type": "uint256"
        },
        {
          "internalType": "string",
          "name": "additionalInfo",
          "type": "string"
        }
      ],
      "stateMutability": "view",
      "type": "function"
    },
    {
      "inputs": [],
      "name": "viewNotifications",
      "outputs": [
        {
          "components": [
            {
              "internalType": "enum NotificationsManagement.NotificationType",
              "name": "notificationType",
              "type": "uint8"
            },
            {
              "internalType": "address",
              "name": "fromUser",
              "type": "address"
            },
            {
              "internalType": "uint256",
              "name": "associatedPostId",
              "type": "uint256"
            },
            {
              "internalType": "string",
              "name": "additionalInfo",
              "type": "string"
            }
          ],
          "internalType": "struct NotificationsManagement.Notification[]",
          "name": "",
          "type": "tuple[]"
        }
      ],
      "stateMutability": "view",
      "type": "function"
    }
  ],
  "bytecode": "0x608060405234801561001057600080fd5b50610586806100206000396000f3fe608060405234801561001057600080fd5b50600436106100415760003560e01c806305ec4e711461004657806338c9191014610064578063900baf1314610087575b600080fd5b61004e610091565b60405161005b9190610404565b60405180910390f35b6100776100723660046104a0565b6101e6565b60405161005b94939291906104d8565b61008f6102c5565b005b33600090815260208181526040808320805482518185028101850190935280835260609492939192909184015b828210156101dd57838290600052602060002090600302016040518060800160405290816000820160009054906101000a900460ff16600381111561010557610105610386565b600381111561011657610116610386565b8152815461010090046001600160a01b031660208201526001820154604082015260028201805460609092019161014c90610516565b80601f016020809104026020016040519081016040528092919081815260200182805461017890610516565b80156101c55780601f1061019a576101008083540402835291602001916101c5565b820191906000526020600020905b8154815290600101906020018083116101a857829003601f168201915b505050505081525050815260200190600101906100be565b50505050905090565b6000602052816000526040600020818154811061020257600080fd5b600091825260209091206003909102018054600182015460028301805460ff841696506101009093046001600160a01b0316945090929161024290610516565b80601f016020809104026020016040519081016040528092919081815260200182805461026e90610516565b80156102bb5780601f10610290576101008083540402835291602001916102bb565b820191906000526020600020905b81548152906001019060200180831161029e57829003601f168201915b5050505050905084565b3360009081526020819052604081206102dd916102df565b565b50805460008255600302906000526020600020908101906103009190610303565b50565b808211156103385780546001600160a81b031916815560006001820181905561032f600283018261033c565b50600301610303565b5090565b50805461034890610516565b6000825580601f10610358575050565b601f01602090049060005260206000209081019061030091905b808211156103385760008155600101610372565b634e487b7160e01b600052602160045260246000fd5b600481106103ba57634e487b7160e01b600052602160045260246000fd5b9052565b6000815180845260005b818110156103e4576020818501810151868301820152016103c8565b506000602082860101526020601f19601f83011685010191505092915050565b600060208083018184528085518083526040925060408601915060408160051b87010184880160005b8381101561049257603f198984030185528151608061044d85835161039c565b818901516001600160a01b0316858a0152878201518886015260609182015191850181905261047e818601836103be565b96890196945050509086019060010161042d565b509098975050505050505050565b600080604083850312156104b357600080fd5b82356001600160a01b03811681146104ca57600080fd5b946020939093013593505050565b6104e2818661039c565b60018060a01b038416602082015282604082015260806060820152600061050c60808301846103be565b9695505050505050565b600181811c9082168061052a57607f821691505b60208210810361054a57634e487b7160e01b600052602260045260246000fd5b5091905056fea2646970667358221220c2a570105c1bcc9ae8e9da4fe0605db52e848ef0553b46a4fdfce181958b193264736f6c63430008180033",
  "linkReferences": {},
  "deployedLinkReferences": {}
}