{
  "_format": "hh-sol-artifact-1",
  "contractName": "ProfileManagement",
  "sourceName": "contracts/ProfileManagement.sol",
  "abi": [
    {
      "inputs": [
        {
          "internalType": "string",
          "name": "_name",
          "type": "string"
        },
        {
          "internalType": "string",
          "name": "_bio",
          "type": "string"
        },
        {
          "internalType": "string",
          "name": "_imageLink",
          "type": "string"
        }
      ],
      "name": "setProfile",
      "outputs": [],
      "stateMutability": "nonpayable",
      "type": "function"
    },
    {
      "inputs": [
        {
          "internalType": "address",
          "name": "",
          "type": "address"
        }
      ],
      "name": "userProfiles",
      "outputs": [
        {
          "internalType": "string",
          "name": "name",
          "type": "string"
        },
        {
          "internalType": "string",
          "name": "bio",
          "type": "string"
        },
        {
          "internalType": "string",
          "name": "profileImageLink",
          "type": "string"
        }
      ],
      "stateMutability": "view",
      "type": "function"
    },
    {
      "inputs": [
        {
          "internalType": "address",
          "name": "_user",
          "type": "address"
        }
      ],
      "name": "viewProfile",
      "outputs": [
        {
          "components": [
            {
              "internalType": "string",
              "name": "name",
              "type": "string"
            },
            {
              "internalType": "string",
              "name": "bio",
              "type": "string"
            },
            {
              "internalType": "string",
              "name": "profileImageLink",
              "type": "string"
            }
          ],
          "internalType": "struct ProfileManagement.Profile",
          "name": "",
          "type": "tuple"
        }
      ],
      "stateMutability": "view",
      "type": "function"
    }
  ],
  "bytecode": "0x608060405234801561001057600080fd5b50610896806100206000396000f3fe608060405234801561001057600080fd5b50600436106100415760003560e01c8063332d56d71461004657806346e08141146100715780635264031414610091575b600080fd5b6100596100543660046104d3565b6100a6565b60405161006893929190610549565b60405180910390f35b61008461007f3660046104d3565b610260565b604051610068919061058c565b6100a461009f36600461068f565b610447565b005b6000602081905290815260409020805481906100c190610716565b80601f01602080910402602001604051908101604052809291908181526020018280546100ed90610716565b801561013a5780601f1061010f5761010080835404028352916020019161013a565b820191906000526020600020905b81548152906001019060200180831161011d57829003601f168201915b50505050509080600101805461014f90610716565b80601f016020809104026020016040519081016040528092919081815260200182805461017b90610716565b80156101c85780601f1061019d576101008083540402835291602001916101c8565b820191906000526020600020905b8154815290600101906020018083116101ab57829003601f168201915b5050505050908060020180546101dd90610716565b80601f016020809104026020016040519081016040528092919081815260200182805461020990610716565b80156102565780601f1061022b57610100808354040283529160200191610256565b820191906000526020600020905b81548152906001019060200180831161023957829003601f168201915b5050505050905083565b6102686104b2565b6001600160a01b0382166000908152602081905260409081902081516060810190925280548290829061029a90610716565b80601f01602080910402602001604051908101604052809291908181526020018280546102c690610716565b80156103135780601f106102e857610100808354040283529160200191610313565b820191906000526020600020905b8154815290600101906020018083116102f657829003601f168201915b5050505050815260200160018201805461032c90610716565b80601f016020809104026020016040519081016040528092919081815260200182805461035890610716565b80156103a55780601f1061037a576101008083540402835291602001916103a5565b820191906000526020600020905b81548152906001019060200180831161038857829003601f168201915b505050505081526020016002820180546103be90610716565b80601f01602080910402602001604051908101604052809291908181526020018280546103ea90610716565b80156104375780601f1061040c57610100808354040283529160200191610437565b820191906000526020600020905b81548152906001019060200180831161041a57829003601f168201915b5050505050815250509050919050565b61044f6104b2565b838152602080820184905260408083018490523360009081529182905290208151829190819061047f90826107a1565b506020820151600182019061049490826107a1565b50604082015160028201906104a990826107a1565b50505050505050565b60405180606001604052806060815260200160608152602001606081525090565b6000602082840312156104e557600080fd5b81356001600160a01b03811681146104fc57600080fd5b9392505050565b6000815180845260005b818110156105295760208185018101518683018201520161050d565b506000602082860101526020601f19601f83011685010191505092915050565b60608152600061055c6060830186610503565b828103602084015261056e8186610503565b905082810360408401526105828185610503565b9695505050505050565b6020815260008251606060208401526105a86080840182610503565b90506020840151601f19808584030160408601526105c68383610503565b92506040860151915080858403016060860152506105e48282610503565b95945050505050565b634e487b7160e01b600052604160045260246000fd5b600082601f83011261061457600080fd5b81356001600160401b038082111561062e5761062e6105ed565b604051601f8301601f19908116603f01168101908282118183101715610656576106566105ed565b8160405283815286602085880101111561066f57600080fd5b836020870160208301376000602085830101528094505050505092915050565b6000806000606084860312156106a457600080fd5b83356001600160401b03808211156106bb57600080fd5b6106c787838801610603565b945060208601359150808211156106dd57600080fd5b6106e987838801610603565b935060408601359150808211156106ff57600080fd5b5061070c86828701610603565b9150509250925092565b600181811c9082168061072a57607f821691505b60208210810361074a57634e487b7160e01b600052602260045260246000fd5b50919050565b601f82111561079c576000816000526020600020601f850160051c810160208610156107795750805b601f850160051c820191505b8181101561079857828155600101610785565b5050505b505050565b81516001600160401b038111156107ba576107ba6105ed565b6107ce816107c88454610716565b84610750565b602080601f83116001811461080357600084156107eb5750858301515b600019600386901b1c1916600185901b178555610798565b600085815260208120601f198616915b8281101561083257888601518255948401946001909101908401610813565b50858210156108505787850151600019600388901b60f8161c191681555b5050505050600190811b0190555056fea2646970667358221220a60cc89befc22f9c7a6154fdcd7f01fcc54fbd8ce290c82d710f68e686d8b05764736f6c63430008180033",
  "linkReferences": {},
  "deployedLinkReferences": {}
}