{
  "_format": "hh-sol-artifact-1",
  "contractName": "NotificationsManagement",
  "sourceName": "contracts/NotificationsManagement.sol",
  "abi": [
    {
      "inputs": [],
      "name": "clearNotifications",
      "outputs": [],
      "stateMutability": "nonpayable",
      "type": "function"
    },
    {
      "inputs": [
        {
          "internalType": "address",
          "name": "",
          "type": "address"
        },
        {
          "internalType": "uint256",
          "name": "",
          "type": "uint256"
        }
      ],
      "name": "userNotifications",
      "outputs": [
        {
          "internalType": "enum DataTypes.NotificationType",
          "name": "notificationType",
          "type": "uint8"
        },
        {
          "internalType": "address",
          "name": "fromUser",
          "type": "address"
        },
        {
          "internalType": "uint256",
          "name": "associatedPostId",
          "type": "uint256"
        },
        {
          "internalType": "string",
          "name": "additionalInfo",
          "type": "string"
        }
      ],
      "stateMutability": "view",
      "type": "function"
    },
    {
      "inputs": [],
      "name": "viewNotifications",
      "outputs": [
        {
          "components": [
            {
              "internalType": "enum DataTypes.NotificationType",
              "name": "notificationType",
              "type": "uint8"
            },
            {
              "internalType": "address",
              "name": "fromUser",
              "type": "address"
            },
            {
              "internalType": "uint256",
              "name": "associatedPostId",
              "type": "uint256"
            },
            {
              "internalType": "string",
              "name": "additionalInfo",
              "type": "string"
            }
          ],
          "internalType": "struct DataTypes.Notification[]",
          "name": "",
          "type": "tuple[]"
        }
      ],
      "stateMutability": "view",
      "type": "function"
    }
  ],
  "bytecode": "0x608060405234801561001057600080fd5b50610940806100206000396000f3fe608060405234801561001057600080fd5b50600436106100415760003560e01c806305ec4e711461004657806338c9191014610064578063900baf1314610097575b600080fd5b61004e6100a1565b60405161005b9190610728565b60405180910390f35b61007e600480360381019061007991906107a7565b610269565b60405161008e949392919061085e565b60405180910390f35b61009f61036b565b005b60606000803373ffffffffffffffffffffffffffffffffffffffff1673ffffffffffffffffffffffffffffffffffffffff168152602001908152602001600020805480602002602001604051908101604052809291908181526020016000905b8282101561026057838290600052602060002090600302016040518060800160405290816000820160009054906101000a900460ff166003811115610149576101486104ce565b5b600381111561015b5761015a6104ce565b5b81526020016000820160019054906101000a900473ffffffffffffffffffffffffffffffffffffffff1673ffffffffffffffffffffffffffffffffffffffff1673ffffffffffffffffffffffffffffffffffffffff168152602001600182015481526020016002820180546101cf906108d9565b80601f01602080910402602001604051908101604052809291908181526020018280546101fb906108d9565b80156102485780601f1061021d57610100808354040283529160200191610248565b820191906000526020600020905b81548152906001019060200180831161022b57829003601f168201915b50505050508152505081526020019060010190610101565b50505050905090565b6000602052816000526040600020818154811061028557600080fd5b9060005260206000209060030201600091509150508060000160009054906101000a900460ff16908060000160019054906101000a900473ffffffffffffffffffffffffffffffffffffffff16908060010154908060020180546102e8906108d9565b80601f0160208091040260200160405190810160405280929190818152602001828054610314906108d9565b80156103615780601f1061033657610100808354040283529160200191610361565b820191906000526020600020905b81548152906001019060200180831161034457829003601f168201915b5050505050905084565b6000803373ffffffffffffffffffffffffffffffffffffffff1673ffffffffffffffffffffffffffffffffffffffff16815260200190815260200160002060006103b591906103b7565b565b50805460008255600302906000526020600020908101906103d891906103db565b50565b5b8082111561044157600080820160006101000a81549060ff02191690556000820160016101000a81549073ffffffffffffffffffffffffffffffffffffffff021916905560018201600090556002820160006104389190610445565b506003016103dc565b5090565b508054610451906108d9565b6000825580601f106104635750610482565b601f0160209004906000526020600020908101906104819190610485565b5b50565b5b8082111561049e576000816000905550600101610486565b5090565b600081519050919050565b600082825260208201905092915050565b6000819050602082019050919050565b7f4e487b7100000000000000000000000000000000000000000000000000000000600052602160045260246000fd5b6004811061050e5761050d6104ce565b5b50565b600081905061051f826104fd565b919050565b600061052f82610511565b9050919050565b61053f81610524565b82525050565b600073ffffffffffffffffffffffffffffffffffffffff82169050919050565b600061057082610545565b9050919050565b61058081610565565b82525050565b6000819050919050565b61059981610586565b82525050565b600081519050919050565b600082825260208201905092915050565b60005b838110156105d95780820151818401526020810190506105be565b60008484015250505050565b6000601f19601f8301169050919050565b60006106018261059f565b61060b81856105aa565b935061061b8185602086016105bb565b610624816105e5565b840191505092915050565b60006080830160008301516106476000860182610536565b50602083015161065a6020860182610577565b50604083015161066d6040860182610590565b506060830151848203606086015261068582826105f6565b9150508091505092915050565b600061069e838361062f565b905092915050565b6000602082019050919050565b60006106be826104a2565b6106c881856104ad565b9350836020820285016106da856104be565b8060005b8581101561071657848403895281516106f78582610692565b9450610702836106a6565b925060208a019950506001810190506106de565b50829750879550505050505092915050565b6000602082019050818103600083015261074281846106b3565b905092915050565b600080fd5b61075881610565565b811461076357600080fd5b50565b6000813590506107758161074f565b92915050565b61078481610586565b811461078f57600080fd5b50565b6000813590506107a18161077b565b92915050565b600080604083850312156107be576107bd61074a565b5b60006107cc85828601610766565b92505060206107dd85828601610792565b9150509250929050565b6107f081610524565b82525050565b6107ff81610565565b82525050565b61080e81610586565b82525050565b600082825260208201905092915050565b60006108308261059f565b61083a8185610814565b935061084a8185602086016105bb565b610853816105e5565b840191505092915050565b600060808201905061087360008301876107e7565b61088060208301866107f6565b61088d6040830185610805565b818103606083015261089f8184610825565b905095945050505050565b7f4e487b7100000000000000000000000000000000000000000000000000000000600052602260045260246000fd5b600060028204905060018216806108f157607f821691505b602082108103610904576109036108aa565b5b5091905056fea2646970667358221220333121c3968548222535441f18ee44207c2748b001f316ad552fcd59142eb0af64736f6c63430008130033",
  "linkReferences": {},
  "deployedLinkReferences": {}
}