{
  "_format": "hh-sol-artifact-1",
  "contractName": "SocialMediaContract",
  "sourceName": "contracts/LegacySocialMediaContract.sol",
  "abi": [
    {
      "anonymous": false,
      "inputs": [
        {
          "indexed": true,
          "internalType": "address",
          "name": "recipient",
          "type": "address"
        },
        {
          "indexed": true,
          "internalType": "uint256",
          "name": "postId",
          "type": "uint256"
        },
        {
          "indexed": true,
          "internalType": "bool",
          "name": "isPaid",
          "type": "bool"
        }
      ],
      "name": "AddPost",
      "type": "event"
    },
    {
      "anonymous": false,
      "inputs": [
        {
          "indexed": true,
          "internalType": "uint256",
          "name": "postId",
          "type": "uint256"
        },
        {
          "indexed": false,
          "internalType": "bool",
          "name": "isDeleted",
          "type": "bool"
        }
      ],
      "name": "DeletePost",
      "type": "event"
    },
    {
      "anonymous": false,
      "inputs": [
        {
          "indexed": true,
          "internalType": "address",
          "name": "sender",
          "type": "address"
        },
        {
          "indexed": true,
          "internalType": "uint256",
          "name": "postId",
          "type": "uint256"
        },
        {
          "indexed": false,
          "internalType": "uint256",
          "name": "tipAmount",
          "type": "uint256"
        }
      ],
      "name": "TipPost",
      "type": "event"
    },
    {
      "inputs": [
        {
          "internalType": "uint256",
          "name": "_postId",
          "type": "uint256"
        },
        {
          "internalType": "string",
          "name": "_commentText",
          "type": "string"
        }
      ],
      "name": "addComment",
      "outputs": [],
      "stateMutability": "nonpayable",
      "type": "function"
    },
    {
      "inputs": [
        {
          "internalType": "string",
          "name": "_postText",
          "type": "string"
        },
        {
          "internalType": "bool",
          "name": "_isPaid",
          "type": "bool"
        },
        {
          "internalType": "uint256",
          "name": "_viewPrice",
          "type": "uint256"
        }
      ],
      "name": "addPost",
      "outputs": [],
      "stateMutability": "payable",
      "type": "function"
    },
    {
      "inputs": [
        {
          "internalType": "address",
          "name": "_userToBlock",
          "type": "address"
        }
      ],
      "name": "blockUser",
      "outputs": [],
      "stateMutability": "nonpayable",
      "type": "function"
    },
    {
      "inputs": [
        {
          "internalType": "address",
          "name": "",
          "type": "address"
        },
        {
          "internalType": "address",
          "name": "",
          "type": "address"
        }
      ],
      "name": "blockedBy",
      "outputs": [
        {
          "internalType": "bool",
          "name": "",
          "type": "bool"
        }
      ],
      "stateMutability": "view",
      "type": "function"
    },
    {
      "inputs": [
        {
          "internalType": "uint256",
          "name": "_postId",
          "type": "uint256"
        },
        {
          "internalType": "address",
          "name": "_user",
          "type": "address"
        }
      ],
      "name": "canViewPost",
      "outputs": [
        {
          "internalType": "bool",
          "name": "",
          "type": "bool"
        }
      ],
      "stateMutability": "view",
      "type": "function"
    },
    {
      "inputs": [
        {
          "internalType": "uint256",
          "name": "_postId",
          "type": "uint256"
        },
        {
          "internalType": "enum SocialMediaContract.Visibility",
          "name": "_visibility",
          "type": "uint8"
        }
      ],
      "name": "changePostVisibility",
      "outputs": [],
      "stateMutability": "nonpayable",
      "type": "function"
    },
    {
      "inputs": [],
      "name": "clearNotifications",
      "outputs": [],
      "stateMutability": "nonpayable",
      "type": "function"
    },
    {
      "inputs": [
        {
          "internalType": "uint256",
          "name": "postId",
          "type": "uint256"
        }
      ],
      "name": "deletePost",
      "outputs": [],
      "stateMutability": "nonpayable",
      "type": "function"
    },
    {
      "inputs": [
        {
          "internalType": "uint256",
          "name": "_postId",
          "type": "uint256"
        },
        {
          "internalType": "string",
          "name": "_newPostText",
          "type": "string"
        }
      ],
      "name": "editPost",
      "outputs": [],
      "stateMutability": "nonpayable",
      "type": "function"
    },
    {
      "inputs": [
        {
          "internalType": "address",
          "name": "_userToFollow",
          "type": "address"
        }
      ],
      "name": "followUser",
      "outputs": [],
      "stateMutability": "nonpayable",
      "type": "function"
    },
    {
      "inputs": [
        {
          "internalType": "address",
          "name": "",
          "type": "address"
        },
        {
          "internalType": "uint256",
          "name": "",
          "type": "uint256"
        }
      ],
      "name": "followers",
      "outputs": [
        {
          "internalType": "address",
          "name": "",
          "type": "address"
        }
      ],
      "stateMutability": "view",
      "type": "function"
    },
    {
      "inputs": [
        {
          "internalType": "address",
          "name": "",
          "type": "address"
        },
        {
          "internalType": "uint256",
          "name": "",
          "type": "uint256"
        }
      ],
      "name": "following",
      "outputs": [
        {
          "internalType": "address",
          "name": "",
          "type": "address"
        }
      ],
      "stateMutability": "view",
      "type": "function"
    },
    {
      "inputs": [
        {
          "internalType": "uint256",
          "name": "postId",
          "type": "uint256"
        }
      ],
      "name": "getpostDetails",
      "outputs": [
        {
          "internalType": "uint256",
          "name": "",
          "type": "uint256"
        },
        {
          "internalType": "address",
          "name": "",
          "type": "address"
        },
        {
          "internalType": "string",
          "name": "",
          "type": "string"
        },
        {
          "internalType": "bool",
          "name": "",
          "type": "bool"
        },
        {
          "internalType": "uint256",
          "name": "",
          "type": "uint256"
        },
        {
          "internalType": "bool",
          "name": "",
          "type": "bool"
        }
      ],
      "stateMutability": "view",
      "type": "function"
    },
    {
      "inputs": [
        {
          "internalType": "address",
          "name": "_user",
          "type": "address"
        },
        {
          "internalType": "address",
          "name": "_blockedUser",
          "type": "address"
        }
      ],
      "name": "isBlocked",
      "outputs": [
        {
          "internalType": "bool",
          "name": "",
          "type": "bool"
        }
      ],
      "stateMutability": "view",
      "type": "function"
    },
    {
      "inputs": [
        {
          "internalType": "address",
          "name": "_follower",
          "type": "address"
        },
        {
          "internalType": "address",
          "name": "_following",
          "type": "address"
        }
      ],
      "name": "isFollowing",
      "outputs": [
        {
          "internalType": "bool",
          "name": "",
          "type": "bool"
        }
      ],
      "stateMutability": "view",
      "type": "function"
    },
    {
      "inputs": [
        {
          "internalType": "uint256",
          "name": "_postId",
          "type": "uint256"
        },
        {
          "internalType": "string",
          "name": "_reason",
          "type": "string"
        }
      ],
      "name": "reportPost",
      "outputs": [],
      "stateMutability": "nonpayable",
      "type": "function"
    },
    {
      "inputs": [
        {
          "internalType": "string",
          "name": "_name",
          "type": "string"
        },
        {
          "internalType": "string",
          "name": "_bio",
          "type": "string"
        },
        {
          "internalType": "string",
          "name": "_imageLink",
          "type": "string"
        }
      ],
      "name": "setProfile",
      "outputs": [],
      "stateMutability": "nonpayable",
      "type": "function"
    },
    {
      "inputs": [
        {
          "internalType": "uint256",
          "name": "postId",
          "type": "uint256"
        },
        {
          "internalType": "uint256",
          "name": "tipAmnt",
          "type": "uint256"
        }
      ],
      "name": "tipPost",
      "outputs": [],
      "stateMutability": "payable",
      "type": "function"
    },
    {
      "inputs": [
        {
          "internalType": "address",
          "name": "_userToUnblock",
          "type": "address"
        }
      ],
      "name": "unblockUser",
      "outputs": [],
      "stateMutability": "nonpayable",
      "type": "function"
    },
    {
      "inputs": [
        {
          "internalType": "address",
          "name": "_userToUnfollow",
          "type": "address"
        }
      ],
      "name": "unfollowUser",
      "outputs": [],
      "stateMutability": "nonpayable",
      "type": "function"
    },
    {
      "inputs": [
        {
          "internalType": "address",
          "name": "",
          "type": "address"
        },
        {
          "internalType": "uint256",
          "name": "",
          "type": "uint256"
        }
      ],
      "name": "userNotifications",
      "outputs": [
        {
          "internalType": "enum SocialMediaContract.NotificationType",
          "name": "notificationType",
          "type": "uint8"
        },
        {
          "internalType": "address",
          "name": "fromUser",
          "type": "address"
        },
        {
          "internalType": "uint256",
          "name": "associatedPostId",
          "type": "uint256"
        },
        {
          "internalType": "string",
          "name": "additionalInfo",
          "type": "string"
        }
      ],
      "stateMutability": "view",
      "type": "function"
    },
    {
      "inputs": [
        {
          "internalType": "address",
          "name": "",
          "type": "address"
        }
      ],
      "name": "userProfiles",
      "outputs": [
        {
          "internalType": "string",
          "name": "name",
          "type": "string"
        },
        {
          "internalType": "string",
          "name": "bio",
          "type": "string"
        },
        {
          "internalType": "string",
          "name": "profileImageLink",
          "type": "string"
        }
      ],
      "stateMutability": "view",
      "type": "function"
    },
    {
      "inputs": [
        {
          "internalType": "uint256",
          "name": "_postId",
          "type": "uint256"
        }
      ],
      "name": "viewComments",
      "outputs": [
        {
          "components": [
            {
              "internalType": "uint256",
              "name": "id",
              "type": "uint256"
            },
            {
              "internalType": "address payable",
              "name": "commenter",
              "type": "address"
            },
            {
              "internalType": "uint256",
              "name": "postId",
              "type": "uint256"
            },
            {
              "internalType": "string",
              "name": "commentText",
              "type": "string"
            }
          ],
          "internalType": "struct SocialMediaContract.Comment[]",
          "name": "",
          "type": "tuple[]"
        }
      ],
      "stateMutability": "view",
      "type": "function"
    },
    {
      "inputs": [],
      "name": "viewNotifications",
      "outputs": [
        {
          "components": [
            {
              "internalType": "enum SocialMediaContract.NotificationType",
              "name": "notificationType",
              "type": "uint8"
            },
            {
              "internalType": "address",
              "name": "fromUser",
              "type": "address"
            },
            {
              "internalType": "uint256",
              "name": "associatedPostId",
              "type": "uint256"
            },
            {
              "internalType": "string",
              "name": "additionalInfo",
              "type": "string"
            }
          ],
          "internalType": "struct SocialMediaContract.Notification[]",
          "name": "",
          "type": "tuple[]"
        }
      ],
      "stateMutability": "view",
      "type": "function"
    },
    {
      "inputs": [
        {
          "internalType": "uint256",
          "name": "postId",
          "type": "uint256"
        }
      ],
      "name": "viewPaidPost",
      "outputs": [],
      "stateMutability": "payable",
      "type": "function"
    },
    {
      "inputs": [
        {
          "internalType": "address",
          "name": "_user",
          "type": "address"
        }
      ],
      "name": "viewProfile",
      "outputs": [
        {
          "components": [
            {
              "internalType": "string",
              "name": "name",
              "type": "string"
            },
            {
              "internalType": "string",
              "name": "bio",
              "type": "string"
            },
            {
              "internalType": "string",
              "name": "profileImageLink",
              "type": "string"
            }
          ],
          "internalType": "struct SocialMediaContract.Profile",
          "name": "",
          "type": "tuple"
        }
      ],
      "stateMutability": "view",
      "type": "function"
    },
    {
      "inputs": [
        {
          "internalType": "uint256",
          "name": "_postId",
          "type": "uint256"
        }
      ],
      "name": "viewReports",
      "outputs": [
        {
          "components": [
            {
              "internalType": "uint256",
              "name": "id",
              "type": "uint256"
            },
            {
              "internalType": "address",
              "name": "reporter",
              "type": "address"
            },
            {
              "internalType": "uint256",
              "name": "postId",
              "type": "uint256"
            },
            {
              "internalType": "string",
              "name": "reason",
              "type": "string"
            }
          ],
          "internalType": "struct SocialMediaContract.Report[]",
          "name": "",
          "type": "tuple[]"
        }
      ],
      "stateMutability": "view",
      "type": "function"
    }
  ],
  "bytecode": "0x608060405234801561001057600080fd5b50614389806100206000396000f3fe60806040526004361061019c5760003560e01c806386c58d3e116100ec578063a70806f71161008a578063cf7a6a2a11610064578063cf7a6a2a146105e6578063ebd009d314610628578063f107cfcb14610665578063fa99654a1461068e5761019c565b8063a70806f714610578578063aa7e5683146105a1578063c06585bb146105ca5761019c565b8063900baf13116100c6578063900baf13146104aa5780639139cda5146104c157806392fccfa7146104fe57806399ec3a421461053b5761019c565b806386c58d3e146104355780638ad8c53e146104725780638cfbc01f1461048e5761019c565b80633da01325116101595780635264031411610133578063526403141461036957806374ee51c4146103925780637ef94bce146103cf578063845e238f146103f85761019c565b80633da01325146102c65780633dea2239146102ef57806346e081411461032c5761019c565b806305ec4e71146101a1578063094cd5ee146101cc578063332d56d7146101f557806338c919101461023457806339d319e5146102745780633b1a1a5a1461029d575b600080fd5b3480156101ad57600080fd5b506101b66106b7565b6040516101c391906130b6565b60405180910390f35b3480156101d857600080fd5b506101f360048036038101906101ee9190613118565b610880565b005b34801561020157600080fd5b5061021c60048036038101906102179190613171565b61098f565b60405161022b939291906131e8565b60405180910390f35b34801561024057600080fd5b5061025b60048036038101906102569190613234565b610b51565b60405161026b94939291906132a1565b60405180910390f35b34801561028057600080fd5b5061029b60048036038101906102969190613171565b610c53565b005b3480156102a957600080fd5b506102c460048036038101906102bf9190613312565b610ceb565b005b3480156102d257600080fd5b506102ed60048036038101906102e89190613171565b610dd1565b005b3480156102fb57600080fd5b5061031660048036038101906103119190613352565b610ed7565b60405161032391906133ad565b60405180910390f35b34801561033857600080fd5b50610353600480360381019061034e9190613171565b611000565b6040516103609190613426565b60405180910390f35b34801561037557600080fd5b50610390600480360381019061038b919061357d565b61120f565b005b34801561039e57600080fd5b506103b960048036038101906103b49190613624565b6112bd565b6040516103c691906133ad565b60405180910390f35b3480156103db57600080fd5b506103f660048036038101906103f19190613664565b6112ec565b005b34801561040457600080fd5b5061041f600480360381019061041a9190613118565b611503565b60405161042c9190613806565b60405180910390f35b34801561044157600080fd5b5061045c60048036038101906104579190613624565b611671565b60405161046991906133ad565b60405180910390f35b61048c60048036038101906104879190613854565b611705565b005b6104a860048036038101906104a39190613118565b611822565b005b3480156104b657600080fd5b506104bf611970565b005b3480156104cd57600080fd5b506104e860048036038101906104e39190613234565b6119bd565b6040516104f591906138c3565b60405180910390f35b34801561050a57600080fd5b5061052560048036038101906105209190613118565b611a0b565b6040516105329190613a03565b60405180910390f35b34801561054757600080fd5b50610562600480360381019061055d9190613624565b611b79565b60405161056f91906133ad565b60405180910390f35b34801561058457600080fd5b5061059f600480360381019061059a9190613171565b611ca2565b005b3480156105ad57600080fd5b506105c860048036038101906105c39190613664565b611e9d565b005b6105e460048036038101906105df9190613a25565b6120b4565b005b3480156105f257600080fd5b5061060d60048036038101906106089190613118565b6122cf565b60405161061f96959493929190613a65565b60405180910390f35b34801561063457600080fd5b5061064f600480360381019061064a9190613234565b6123e8565b60405161065c91906138c3565b60405180910390f35b34801561067157600080fd5b5061068c60048036038101906106879190613171565b612436565b005b34801561069a57600080fd5b506106b560048036038101906106b09190613664565b612496565b005b6060600b60003373ffffffffffffffffffffffffffffffffffffffff1673ffffffffffffffffffffffffffffffffffffffff168152602001908152602001600020805480602002602001604051908101604052809291908181526020016000905b8282101561087757838290600052602060002090600302016040518060800160405290816000820160009054906101000a900460ff1660038111156107605761075f612e5c565b5b600381111561077257610771612e5c565b5b81526020016000820160019054906101000a900473ffffffffffffffffffffffffffffffffffffffff1673ffffffffffffffffffffffffffffffffffffffff1673ffffffffffffffffffffffffffffffffffffffff168152602001600182015481526020016002820180546107e690613afc565b80601f016020809104026020016040519081016040528092919081815260200182805461081290613afc565b801561085f5780601f106108345761010080835404028352916020019161085f565b820191906000526020600020905b81548152906001019060200180831161084257829003601f168201915b50505050508152505081526020019060010190610718565b50505050905090565b3373ffffffffffffffffffffffffffffffffffffffff166003600083815260200190815260200160002060010160009054906101000a900473ffffffffffffffffffffffffffffffffffffffff1673ffffffffffffffffffffffffffffffffffffffff1614610924576040517f08c379a000000000000000000000000000000000000000000000000000000000815260040161091b90613b9f565b60405180910390fd5b60016003600083815260200190815260200160002060050160006101000a81548160ff021916908315150217905550807f50de60758261258765d60f3764f52b012fb4289c1120010bf8b34f7a7976f815600160405161098491906133ad565b60405180910390a250565b600c6020528060005260406000206000915090508060000180546109b290613afc565b80601f01602080910402602001604051908101604052809291908181526020018280546109de90613afc565b8015610a2b5780601f10610a0057610100808354040283529160200191610a2b565b820191906000526020600020905b815481529060010190602001808311610a0e57829003601f168201915b505050505090806001018054610a4090613afc565b80601f0160208091040260200160405190810160405280929190818152602001828054610a6c90613afc565b8015610ab95780601f10610a8e57610100808354040283529160200191610ab9565b820191906000526020600020905b815481529060010190602001808311610a9c57829003601f168201915b505050505090806002018054610ace90613afc565b80601f0160208091040260200160405190810160405280929190818152602001828054610afa90613afc565b8015610b475780601f10610b1c57610100808354040283529160200191610b47565b820191906000526020600020905b815481529060010190602001808311610b2a57829003601f168201915b5050505050905083565b600b6020528160005260406000208181548110610b6d57600080fd5b9060005260206000209060030201600091509150508060000160009054906101000a900460ff16908060000160019054906101000a900473ffffffffffffffffffffffffffffffffffffffff1690806001015490806002018054610bd090613afc565b80601f0160208091040260200160405190810160405280929190818152602001828054610bfc90613afc565b8015610c495780601f10610c1e57610100808354040283529160200191610c49565b820191906000526020600020905b815481529060010190602001808311610c2c57829003601f168201915b5050505050905084565b6000600a60003373ffffffffffffffffffffffffffffffffffffffff1673ffffffffffffffffffffffffffffffffffffffff16815260200190815260200160002060008373ffffffffffffffffffffffffffffffffffffffff1673ffffffffffffffffffffffffffffffffffffffff16815260200190815260200160002060006101000a81548160ff02191690831515021790555050565b3373ffffffffffffffffffffffffffffffffffffffff166003600084815260200190815260200160002060010160009054906101000a900473ffffffffffffffffffffffffffffffffffffffff1673ffffffffffffffffffffffffffffffffffffffff1614610d8f576040517f08c379a0000000000000000000000000000000000000000000000000000000008152600401610d8690613b9f565b60405180910390fd5b8060036000848152602001908152602001600020600a0160006101000a81548160ff02191690836002811115610dc857610dc7612e5c565b5b02179055505050565b3373ffffffffffffffffffffffffffffffffffffffff168173ffffffffffffffffffffffffffffffffffffffff1603610e3f576040517f08c379a0000000000000000000000000000000000000000000000000000000008152600401610e3690613c0b565b60405180910390fd5b6001600a60003373ffffffffffffffffffffffffffffffffffffffff1673ffffffffffffffffffffffffffffffffffffffff16815260200190815260200160002060008373ffffffffffffffffffffffffffffffffffffffff1673ffffffffffffffffffffffffffffffffffffffff16815260200190815260200160002060006101000a81548160ff02191690831515021790555050565b6000806002811115610eec57610eeb612e5c565b5b60036000858152602001908152602001600020600a0160009054906101000a900460ff166002811115610f2257610f21612e5c565b5b03610f305760019050610ffa565b600280811115610f4357610f42612e5c565b5b60036000858152602001908152602001600020600a0160009054906101000a900460ff166002811115610f7957610f78612e5c565b5b148015610fe757508173ffffffffffffffffffffffffffffffffffffffff166003600085815260200190815260200160002060010160009054906101000a900473ffffffffffffffffffffffffffffffffffffffff1673ffffffffffffffffffffffffffffffffffffffff16145b15610ff55760019050610ffa565b600090505b92915050565b611008612ca8565b600c60008373ffffffffffffffffffffffffffffffffffffffff1673ffffffffffffffffffffffffffffffffffffffff16815260200190815260200160002060405180606001604052908160008201805461106290613afc565b80601f016020809104026020016040519081016040528092919081815260200182805461108e90613afc565b80156110db5780601f106110b0576101008083540402835291602001916110db565b820191906000526020600020905b8154815290600101906020018083116110be57829003601f168201915b505050505081526020016001820180546110f490613afc565b80601f016020809104026020016040519081016040528092919081815260200182805461112090613afc565b801561116d5780601f106111425761010080835404028352916020019161116d565b820191906000526020600020905b81548152906001019060200180831161115057829003601f168201915b5050505050815260200160028201805461118690613afc565b80601f01602080910402602001604051908101604052809291908181526020018280546111b290613afc565b80156111ff5780601f106111d4576101008083540402835291602001916111ff565b820191906000526020600020905b8154815290600101906020018083116111e257829003601f168201915b5050505050815250509050919050565b611217612ca8565b83816000018190525082816020018190525081816040018190525080600c60003373ffffffffffffffffffffffffffffffffffffffff1673ffffffffffffffffffffffffffffffffffffffff16815260200190815260200160002060008201518160000190816112879190613dd7565b50602082015181600101908161129d9190613dd7565b5060408201518160020190816112b39190613dd7565b5090505050505050565b600a6020528160005260406000206020528060005260406000206000915091509054906101000a900460ff1681565b6003600083815260200190815260200160002060050160009054906101000a900460ff1615611350576040517f08c379a000000000000000000000000000000000000000000000000000000000815260040161134790613ef5565b60405180910390fd5b61135a60026125c6565b600061136660026125dc565b9050611370612cc9565b8181600001818152505033816020019073ffffffffffffffffffffffffffffffffffffffff16908173ffffffffffffffffffffffffffffffffffffffff16815250508381604001818152505082816060018190525080600660008481526020019081526020016000206000820151816000015560208201518160010160006101000a81548173ffffffffffffffffffffffffffffffffffffffff021916908373ffffffffffffffffffffffffffffffffffffffff1602179055506040820151816002015560608201518160030190816114499190613dd7565b50905050600760008581526020019081526020016000208190806001815401808255809150506001900390600052602060002090600402016000909190919091506000820151816000015560208201518160010160006101000a81548173ffffffffffffffffffffffffffffffffffffffff021916908373ffffffffffffffffffffffffffffffffffffffff1602179055506040820151816002015560608201518160030190816114fa9190613dd7565b50505050505050565b606060056000838152602001908152602001600020805480602002602001604051908101604052809291908181526020016000905b828210156116665783829060005260206000209060040201604051806080016040529081600082015481526020016001820160009054906101000a900473ffffffffffffffffffffffffffffffffffffffff1673ffffffffffffffffffffffffffffffffffffffff1673ffffffffffffffffffffffffffffffffffffffff168152602001600282015481526020016003820180546115d590613afc565b80601f016020809104026020016040519081016040528092919081815260200182805461160190613afc565b801561164e5780601f106116235761010080835404028352916020019161164e565b820191906000526020600020905b81548152906001019060200180831161163157829003601f168201915b50505050508152505081526020019060010190611538565b505050509050919050565b6000600a60008473ffffffffffffffffffffffffffffffffffffffff1673ffffffffffffffffffffffffffffffffffffffff16815260200190815260200160002060008373ffffffffffffffffffffffffffffffffffffffff1673ffffffffffffffffffffffffffffffffffffffff16815260200190815260200160002060009054906101000a900460ff16905092915050565b61170f60006125c6565b600061171b60006125dc565b90506000600360008381526020019081526020016000209050818160000181905550338160010160006101000a81548173ffffffffffffffffffffffffffffffffffffffff021916908373ffffffffffffffffffffffffffffffffffffffff160217905550848160020190816117919190613dd7565b50838160030160006101000a81548160ff02191690831515021790555082816004018190555060008160050160006101000a81548160ff021916908315150217905550831515823373ffffffffffffffffffffffffffffffffffffffff167f2c922782adeb210be8cf4fc4aa2e86b3664918635a8df6cd2ce02a38026ec88e60405160405180910390a45050505050565b6003600082815260200190815260200160002060030160009054906101000a900460ff16611885576040517f08c379a000000000000000000000000000000000000000000000000000000000815260040161187c90613f61565b60405180910390fd5b6000600360008381526020019081526020016000206004015490506003600083815260200190815260200160002060010160009054906101000a900473ffffffffffffffffffffffffffffffffffffffff1673ffffffffffffffffffffffffffffffffffffffff166108fc829081150290604051600060405180830381858888f1935050505015801561191c573d6000803e3d6000fd5b50813373ffffffffffffffffffffffffffffffffffffffff167fbe1ddb02a80576b41c4fb49186f5a199649c12e322b8a235e1817271f119910d346040516119649190613f81565b60405180910390a35050565b600b60003373ffffffffffffffffffffffffffffffffffffffff1673ffffffffffffffffffffffffffffffffffffffff16815260200190815260200160002060006119bb9190612d07565b565b600960205281600052604060002081815481106119d957600080fd5b906000526020600020016000915091509054906101000a900473ffffffffffffffffffffffffffffffffffffffff1681565b606060076000838152602001908152602001600020805480602002602001604051908101604052809291908181526020016000905b82821015611b6e5783829060005260206000209060040201604051806080016040529081600082015481526020016001820160009054906101000a900473ffffffffffffffffffffffffffffffffffffffff1673ffffffffffffffffffffffffffffffffffffffff1673ffffffffffffffffffffffffffffffffffffffff16815260200160028201548152602001600382018054611add90613afc565b80601f0160208091040260200160405190810160405280929190818152602001828054611b0990613afc565b8015611b565780601f10611b2b57610100808354040283529160200191611b56565b820191906000526020600020905b815481529060010190602001808311611b3957829003601f168201915b50505050508152505081526020019060010190611a40565b505050509050919050565b600080600090505b600960008573ffffffffffffffffffffffffffffffffffffffff1673ffffffffffffffffffffffffffffffffffffffff16815260200190815260200160002080549050811015611c96578273ffffffffffffffffffffffffffffffffffffffff16600960008673ffffffffffffffffffffffffffffffffffffffff1673ffffffffffffffffffffffffffffffffffffffff1681526020019081526020016000208281548110611c3357611c32613f9c565b5b9060005260206000200160009054906101000a900473ffffffffffffffffffffffffffffffffffffffff1673ffffffffffffffffffffffffffffffffffffffff1603611c83576001915050611c9c565b8080611c8e90613ffa565b915050611b81565b50600090505b92915050565b3373ffffffffffffffffffffffffffffffffffffffff168173ffffffffffffffffffffffffffffffffffffffff1603611d10576040517f08c379a0000000000000000000000000000000000000000000000000000000008152600401611d079061408e565b60405180910390fd5b611d1a3382611b79565b15611d5a576040517f08c379a0000000000000000000000000000000000000000000000000000000008152600401611d5190614120565b60405180910390fd5b600960003373ffffffffffffffffffffffffffffffffffffffff1673ffffffffffffffffffffffffffffffffffffffff168152602001908152602001600020819080600181540180825580915050600190039060005260206000200160009091909190916101000a81548173ffffffffffffffffffffffffffffffffffffffff021916908373ffffffffffffffffffffffffffffffffffffffff160217905550600860008273ffffffffffffffffffffffffffffffffffffffff1673ffffffffffffffffffffffffffffffffffffffff168152602001908152602001600020339080600181540180825580915050600190039060005260206000200160009091909190916101000a81548173ffffffffffffffffffffffffffffffffffffffff021916908373ffffffffffffffffffffffffffffffffffffffff16021790555050565b6003600083815260200190815260200160002060050160009054906101000a900460ff1615611f01576040517f08c379a0000000000000000000000000000000000000000000000000000000008152600401611ef890613ef5565b60405180910390fd5b611f0b60016125c6565b6000611f1760016125dc565b9050611f21612d2b565b8181600001818152505033816020019073ffffffffffffffffffffffffffffffffffffffff16908173ffffffffffffffffffffffffffffffffffffffff16815250508381604001818152505082816060018190525080600460008481526020019081526020016000206000820151816000015560208201518160010160006101000a81548173ffffffffffffffffffffffffffffffffffffffff021916908373ffffffffffffffffffffffffffffffffffffffff160217905550604082015181600201556060820151816003019081611ffa9190613dd7565b50905050600560008581526020019081526020016000208190806001815401808255809150506001900390600052602060002090600402016000909190919091506000820151816000015560208201518160010160006101000a81548173ffffffffffffffffffffffffffffffffffffffff021916908373ffffffffffffffffffffffffffffffffffffffff1602179055506040820151816002015560608201518160030190816120ab9190613dd7565b50505050505050565b6003600083815260200190815260200160002060050160009054906101000a900460ff1615612118576040517f08c379a000000000000000000000000000000000000000000000000000000000815260040161210f9061418c565b60405180910390fd5b6000811161215b576040517f08c379a0000000000000000000000000000000000000000000000000000000008152600401612152906141f8565b60405180910390fd5b3373ffffffffffffffffffffffffffffffffffffffff166003600084815260200190815260200160002060010160009054906101000a900473ffffffffffffffffffffffffffffffffffffffff1673ffffffffffffffffffffffffffffffffffffffff16036121ff576040517f08c379a00000000000000000000000000000000000000000000000000000000081526004016121f690614264565b60405180910390fd5b6003600083815260200190815260200160002060010160009054906101000a900473ffffffffffffffffffffffffffffffffffffffff1673ffffffffffffffffffffffffffffffffffffffff166108fc829081150290604051600060405180830381858888f1935050505015801561227b573d6000803e3d6000fd5b50813373ffffffffffffffffffffffffffffffffffffffff167fbe1ddb02a80576b41c4fb49186f5a199649c12e322b8a235e1817271f119910d836040516122c39190613f81565b60405180910390a35050565b600080606060008060008060036000898152602001908152602001600020905080600001548160010160009054906101000a900473ffffffffffffffffffffffffffffffffffffffff16826002018360030160009054906101000a900460ff1684600401548560050160009054906101000a900460ff1683805461235290613afc565b80601f016020809104026020016040519081016040528092919081815260200182805461237e90613afc565b80156123cb5780601f106123a0576101008083540402835291602001916123cb565b820191906000526020600020905b8154815290600101906020018083116123ae57829003601f168201915b505050505093509650965096509650965096505091939550919395565b6008602052816000526040600020818154811061240457600080fd5b906000526020600020016000915091509054906101000a900473ffffffffffffffffffffffffffffffffffffffff1681565b6124403382611b79565b61247f576040517f08c379a0000000000000000000000000000000000000000000000000000000008152600401612476906142d0565b60405180910390fd5b61248933826125ea565b6124938133612949565b50565b3373ffffffffffffffffffffffffffffffffffffffff166003600084815260200190815260200160002060010160009054906101000a900473ffffffffffffffffffffffffffffffffffffffff1673ffffffffffffffffffffffffffffffffffffffff161461253a576040517f08c379a000000000000000000000000000000000000000000000000000000000815260040161253190613b9f565b60405180910390fd5b6003600083815260200190815260200160002060050160009054906101000a900460ff161561259e576040517f08c379a000000000000000000000000000000000000000000000000000000000815260040161259590613ef5565b60405180910390fd5b806003600084815260200190815260200160002060020190816125c19190613dd7565b505050565b6001816000016000828254019250508190555050565b600081600001549050919050565b600080600090505b600960008573ffffffffffffffffffffffffffffffffffffffff1673ffffffffffffffffffffffffffffffffffffffff16815260200190815260200160002080549050811015612705578273ffffffffffffffffffffffffffffffffffffffff16600960008673ffffffffffffffffffffffffffffffffffffffff1673ffffffffffffffffffffffffffffffffffffffff16815260200190815260200160002082815481106126a4576126a3613f9c565b5b9060005260206000200160009054906101000a900473ffffffffffffffffffffffffffffffffffffffff1673ffffffffffffffffffffffffffffffffffffffff16036126f257809150612705565b80806126fd90613ffa565b9150506125f2565b506001600960008573ffffffffffffffffffffffffffffffffffffffff1673ffffffffffffffffffffffffffffffffffffffff1681526020019081526020016000208054905061275591906142f0565b8110156128c057600960008473ffffffffffffffffffffffffffffffffffffffff1673ffffffffffffffffffffffffffffffffffffffff1681526020019081526020016000206001600960008673ffffffffffffffffffffffffffffffffffffffff1673ffffffffffffffffffffffffffffffffffffffff168152602001908152602001600020805490506127ea91906142f0565b815481106127fb576127fa613f9c565b5b9060005260206000200160009054906101000a900473ffffffffffffffffffffffffffffffffffffffff16600960008573ffffffffffffffffffffffffffffffffffffffff1673ffffffffffffffffffffffffffffffffffffffff168152602001908152602001600020828154811061287757612876613f9c565b5b9060005260206000200160006101000a81548173ffffffffffffffffffffffffffffffffffffffff021916908373ffffffffffffffffffffffffffffffffffffffff1602179055505b600960008473ffffffffffffffffffffffffffffffffffffffff1673ffffffffffffffffffffffffffffffffffffffff16815260200190815260200160002080548061290f5761290e614324565b5b6001900381819060005260206000200160006101000a81549073ffffffffffffffffffffffffffffffffffffffff02191690559055505050565b600080600090505b600860008573ffffffffffffffffffffffffffffffffffffffff1673ffffffffffffffffffffffffffffffffffffffff16815260200190815260200160002080549050811015612a64578273ffffffffffffffffffffffffffffffffffffffff16600860008673ffffffffffffffffffffffffffffffffffffffff1673ffffffffffffffffffffffffffffffffffffffff1681526020019081526020016000208281548110612a0357612a02613f9c565b5b9060005260206000200160009054906101000a900473ffffffffffffffffffffffffffffffffffffffff1673ffffffffffffffffffffffffffffffffffffffff1603612a5157809150612a64565b8080612a5c90613ffa565b915050612951565b506001600860008573ffffffffffffffffffffffffffffffffffffffff1673ffffffffffffffffffffffffffffffffffffffff16815260200190815260200160002080549050612ab491906142f0565b811015612c1f57600860008473ffffffffffffffffffffffffffffffffffffffff1673ffffffffffffffffffffffffffffffffffffffff1681526020019081526020016000206001600860008673ffffffffffffffffffffffffffffffffffffffff1673ffffffffffffffffffffffffffffffffffffffff16815260200190815260200160002080549050612b4991906142f0565b81548110612b5a57612b59613f9c565b5b9060005260206000200160009054906101000a900473ffffffffffffffffffffffffffffffffffffffff16600860008573ffffffffffffffffffffffffffffffffffffffff1673ffffffffffffffffffffffffffffffffffffffff1681526020019081526020016000208281548110612bd657612bd5613f9c565b5b9060005260206000200160006101000a81548173ffffffffffffffffffffffffffffffffffffffff021916908373ffffffffffffffffffffffffffffffffffffffff1602179055505b600860008473ffffffffffffffffffffffffffffffffffffffff1673ffffffffffffffffffffffffffffffffffffffff168152602001908152602001600020805480612c6e57612c6d614324565b5b6001900381819060005260206000200160006101000a81549073ffffffffffffffffffffffffffffffffffffffff02191690559055505050565b60405180606001604052806060815260200160608152602001606081525090565b604051806080016040528060008152602001600073ffffffffffffffffffffffffffffffffffffffff16815260200160008152602001606081525090565b5080546000825560030290600052602060002090810190612d289190612d69565b50565b604051806080016040528060008152602001600073ffffffffffffffffffffffffffffffffffffffff16815260200160008152602001606081525090565b5b80821115612dcf57600080820160006101000a81549060ff02191690556000820160016101000a81549073ffffffffffffffffffffffffffffffffffffffff02191690556001820160009055600282016000612dc69190612dd3565b50600301612d6a565b5090565b508054612ddf90613afc565b6000825580601f10612df15750612e10565b601f016020900490600052602060002090810190612e0f9190612e13565b5b50565b5b80821115612e2c576000816000905550600101612e14565b5090565b600081519050919050565b600082825260208201905092915050565b6000819050602082019050919050565b7f4e487b7100000000000000000000000000000000000000000000000000000000600052602160045260246000fd5b60048110612e9c57612e9b612e5c565b5b50565b6000819050612ead82612e8b565b919050565b6000612ebd82612e9f565b9050919050565b612ecd81612eb2565b82525050565b600073ffffffffffffffffffffffffffffffffffffffff82169050919050565b6000612efe82612ed3565b9050919050565b612f0e81612ef3565b82525050565b6000819050919050565b612f2781612f14565b82525050565b600081519050919050565b600082825260208201905092915050565b60005b83811015612f67578082015181840152602081019050612f4c565b60008484015250505050565b6000601f19601f8301169050919050565b6000612f8f82612f2d565b612f998185612f38565b9350612fa9818560208601612f49565b612fb281612f73565b840191505092915050565b6000608083016000830151612fd56000860182612ec4565b506020830151612fe86020860182612f05565b506040830151612ffb6040860182612f1e565b50606083015184820360608601526130138282612f84565b9150508091505092915050565b600061302c8383612fbd565b905092915050565b6000602082019050919050565b600061304c82612e30565b6130568185612e3b565b93508360208202850161306885612e4c565b8060005b858110156130a457848403895281516130858582613020565b945061309083613034565b925060208a0199505060018101905061306c565b50829750879550505050505092915050565b600060208201905081810360008301526130d08184613041565b905092915050565b6000604051905090565b600080fd5b600080fd5b6130f581612f14565b811461310057600080fd5b50565b600081359050613112816130ec565b92915050565b60006020828403121561312e5761312d6130e2565b5b600061313c84828501613103565b91505092915050565b61314e81612ef3565b811461315957600080fd5b50565b60008135905061316b81613145565b92915050565b600060208284031215613187576131866130e2565b5b60006131958482850161315c565b91505092915050565b600082825260208201905092915050565b60006131ba82612f2d565b6131c4818561319e565b93506131d4818560208601612f49565b6131dd81612f73565b840191505092915050565b6000606082019050818103600083015261320281866131af565b9050818103602083015261321681856131af565b9050818103604083015261322a81846131af565b9050949350505050565b6000806040838503121561324b5761324a6130e2565b5b60006132598582860161315c565b925050602061326a85828601613103565b9150509250929050565b61327d81612eb2565b82525050565b61328c81612ef3565b82525050565b61329b81612f14565b82525050565b60006080820190506132b66000830187613274565b6132c36020830186613283565b6132d06040830185613292565b81810360608301526132e281846131af565b905095945050505050565b600381106132fa57600080fd5b50565b60008135905061330c816132ed565b92915050565b60008060408385031215613329576133286130e2565b5b600061333785828601613103565b9250506020613348858286016132fd565b9150509250929050565b60008060408385031215613369576133686130e2565b5b600061337785828601613103565b92505060206133888582860161315c565b9150509250929050565b60008115159050919050565b6133a781613392565b82525050565b60006020820190506133c2600083018461339e565b92915050565b600060608301600083015184820360008601526133e58282612f84565b915050602083015184820360208601526133ff8282612f84565b915050604083015184820360408601526134198282612f84565b9150508091505092915050565b6000602082019050818103600083015261344081846133c8565b905092915050565b600080fd5b600080fd5b7f4e487b7100000000000000000000000000000000000000000000000000000000600052604160045260246000fd5b61348a82612f73565b810181811067ffffffffffffffff821117156134a9576134a8613452565b5b80604052505050565b60006134bc6130d8565b90506134c88282613481565b919050565b600067ffffffffffffffff8211156134e8576134e7613452565b5b6134f182612f73565b9050602081019050919050565b82818337600083830152505050565b600061352061351b846134cd565b6134b2565b90508281526020810184848401111561353c5761353b61344d565b5b6135478482856134fe565b509392505050565b600082601f83011261356457613563613448565b5b813561357484826020860161350d565b91505092915050565b600080600060608486031215613596576135956130e2565b5b600084013567ffffffffffffffff8111156135b4576135b36130e7565b5b6135c08682870161354f565b935050602084013567ffffffffffffffff8111156135e1576135e06130e7565b5b6135ed8682870161354f565b925050604084013567ffffffffffffffff81111561360e5761360d6130e7565b5b61361a8682870161354f565b9150509250925092565b6000806040838503121561363b5761363a6130e2565b5b60006136498582860161315c565b925050602061365a8582860161315c565b9150509250929050565b6000806040838503121561367b5761367a6130e2565b5b600061368985828601613103565b925050602083013567ffffffffffffffff8111156136aa576136a96130e7565b5b6136b68582860161354f565b9150509250929050565b600081519050919050565b600082825260208201905092915050565b6000819050602082019050919050565b60006136f782612ed3565b9050919050565b613707816136ec565b82525050565b60006080830160008301516137256000860182612f1e565b50602083015161373860208601826136fe565b50604083015161374b6040860182612f1e565b50606083015184820360608601526137638282612f84565b9150508091505092915050565b600061377c838361370d565b905092915050565b6000602082019050919050565b600061379c826136c0565b6137a681856136cb565b9350836020820285016137b8856136dc565b8060005b858110156137f457848403895281516137d58582613770565b94506137e083613784565b925060208a019950506001810190506137bc565b50829750879550505050505092915050565b600060208201905081810360008301526138208184613791565b905092915050565b61383181613392565b811461383c57600080fd5b50565b60008135905061384e81613828565b92915050565b60008060006060848603121561386d5761386c6130e2565b5b600084013567ffffffffffffffff81111561388b5761388a6130e7565b5b6138978682870161354f565b93505060206138a88682870161383f565b92505060406138b986828701613103565b9150509250925092565b60006020820190506138d86000830184613283565b92915050565b600081519050919050565b600082825260208201905092915050565b6000819050602082019050919050565b60006080830160008301516139226000860182612f1e565b5060208301516139356020860182612f05565b5060408301516139486040860182612f1e565b50606083015184820360608601526139608282612f84565b9150508091505092915050565b6000613979838361390a565b905092915050565b6000602082019050919050565b6000613999826138de565b6139a381856138e9565b9350836020820285016139b5856138fa565b8060005b858110156139f157848403895281516139d2858261396d565b94506139dd83613981565b925060208a019950506001810190506139b9565b50829750879550505050505092915050565b60006020820190508181036000830152613a1d818461398e565b905092915050565b60008060408385031215613a3c57613a3b6130e2565b5b6000613a4a85828601613103565b9250506020613a5b85828601613103565b9150509250929050565b600060c082019050613a7a6000830189613292565b613a876020830188613283565b8181036040830152613a9981876131af565b9050613aa8606083018661339e565b613ab56080830185613292565b613ac260a083018461339e565b979650505050505050565b7f4e487b7100000000000000000000000000000000000000000000000000000000600052602260045260246000fd5b60006002820490506001821680613b1457607f821691505b602082108103613b2757613b26613acd565b5b50919050565b7f596f7520617265206e6f7420746865206f776e6572206f662074686520706f7360008201527f7400000000000000000000000000000000000000000000000000000000000000602082015250565b6000613b8960218361319e565b9150613b9482613b2d565b604082019050919050565b60006020820190508181036000830152613bb881613b7c565b9050919050565b7f596f752063616e6e6f7420626c6f636b20796f757273656c6600000000000000600082015250565b6000613bf560198361319e565b9150613c0082613bbf565b602082019050919050565b60006020820190508181036000830152613c2481613be8565b9050919050565b60008190508160005260206000209050919050565b60006020601f8301049050919050565b600082821b905092915050565b600060088302613c8d7fffffffffffffffffffffffffffffffffffffffffffffffffffffffffffffffff82613c50565b613c978683613c50565b95508019841693508086168417925050509392505050565b6000819050919050565b6000613cd4613ccf613cca84612f14565b613caf565b612f14565b9050919050565b6000819050919050565b613cee83613cb9565b613d02613cfa82613cdb565b848454613c5d565b825550505050565b600090565b613d17613d0a565b613d22818484613ce5565b505050565b5b81811015613d4657613d3b600082613d0f565b600181019050613d28565b5050565b601f821115613d8b57613d5c81613c2b565b613d6584613c40565b81016020851015613d74578190505b613d88613d8085613c40565b830182613d27565b50505b505050565b600082821c905092915050565b6000613dae60001984600802613d90565b1980831691505092915050565b6000613dc78383613d9d565b9150826002028217905092915050565b613de082612f2d565b67ffffffffffffffff811115613df957613df8613452565b5b613e038254613afc565b613e0e828285613d4a565b600060209050601f831160018114613e415760008415613e2f578287015190505b613e398582613dbb565b865550613ea1565b601f198416613e4f86613c2b565b60005b82811015613e7757848901518255600182019150602085019450602081019050613e52565b86831015613e945784890151613e90601f891682613d9d565b8355505b6001600288020188555050505b505050505050565b7f506f73742069732064656c657465640000000000000000000000000000000000600082015250565b6000613edf600f8361319e565b9150613eea82613ea9565b602082019050919050565b60006020820190508181036000830152613f0e81613ed2565b9050919050565b7f506f7374206973206e6f74207061696400000000000000000000000000000000600082015250565b6000613f4b60108361319e565b9150613f5682613f15565b602082019050919050565b60006020820190508181036000830152613f7a81613f3e565b9050919050565b6000602082019050613f966000830184613292565b92915050565b7f4e487b7100000000000000000000000000000000000000000000000000000000600052603260045260246000fd5b7f4e487b7100000000000000000000000000000000000000000000000000000000600052601160045260246000fd5b600061400582612f14565b91507fffffffffffffffffffffffffffffffffffffffffffffffffffffffffffffffff820361403757614036613fcb565b5b600182019050919050565b7f596f752063616e6e6f7420666f6c6c6f7720796f757273656c66000000000000600082015250565b6000614078601a8361319e565b915061408382614042565b602082019050919050565b600060208201905081810360008301526140a78161406b565b9050919050565b7f596f752061726520616c726561647920666f6c6c6f77696e672074686973207560008201527f7365720000000000000000000000000000000000000000000000000000000000602082015250565b600061410a60238361319e565b9150614115826140ae565b604082019050919050565b60006020820190508181036000830152614139816140fd565b9050919050565b7f706f73742069732064656c657465640000000000000000000000000000000000600082015250565b6000614176600f8361319e565b915061418182614140565b602082019050919050565b600060208201905081810360008301526141a581614169565b9050919050565b7f496e76616c69642074697020616d6f756e740000000000000000000000000000600082015250565b60006141e260128361319e565b91506141ed826141ac565b602082019050919050565b60006020820190508181036000830152614211816141d5565b9050919050565b7f596f752063616e6e6f742074697020796f7572206f776e20706f737400000000600082015250565b600061424e601c8361319e565b915061425982614218565b602082019050919050565b6000602082019050818103600083015261427d81614241565b9050919050565b7f596f7520617265206e6f7420666f6c6c6f77696e672074686973207573657200600082015250565b60006142ba601f8361319e565b91506142c582614284565b602082019050919050565b600060208201905081810360008301526142e9816142ad565b9050919050565b60006142fb82612f14565b915061430683612f14565b925082820390508181111561431e5761431d613fcb565b5b92915050565b7f4e487b7100000000000000000000000000000000000000000000000000000000600052603160045260246000fdfea2646970667358221220c55e5b310f8cdf28440e337fb7bb747dc818d5ebb6f98d7acb0f1f388f6a7e5564736f6c63430008130033",
  "linkReferences": {},
  "deployedLinkReferences": {}
}