{
  "_format": "hh-sol-artifact-1",
  "contractName": "SocialMedia",
  "sourceName": "contracts/main.sol",
  "abi": [
    {
      "inputs": [],
      "stateMutability": "nonpayable",
      "type": "constructor"
    },
    {
      "anonymous": false,
      "inputs": [
        {
          "indexed": true,
          "internalType": "address",
          "name": "recipient",
          "type": "address"
        },
        {
          "indexed": true,
          "internalType": "uint256",
          "name": "postId",
          "type": "uint256"
        },
        {
          "indexed": true,
          "internalType": "bool",
          "name": "isPaid",
          "type": "bool"
        }
      ],
      "name": "AddPost",
      "type": "event"
    },
    {
      "anonymous": false,
      "inputs": [
        {
          "indexed": true,
          "internalType": "uint256",
          "name": "postId",
          "type": "uint256"
        },
        {
          "indexed": false,
          "internalType": "bool",
          "name": "isDeleted",
          "type": "bool"
        }
      ],
      "name": "DeletePost",
      "type": "event"
    },
    {
      "anonymous": false,
      "inputs": [
        {
          "indexed": true,
          "internalType": "address",
          "name": "sender",
          "type": "address"
        },
        {
          "indexed": true,
          "internalType": "uint256",
          "name": "postId",
          "type": "uint256"
        },
        {
          "indexed": false,
          "internalType": "uint256",
          "name": "tipAmount",
          "type": "uint256"
        }
      ],
      "name": "TipPost",
      "type": "event"
    },
    {
      "inputs": [
        {
          "internalType": "uint256",
          "name": "_postId",
          "type": "uint256"
        },
        {
          "internalType": "string",
          "name": "_commentText",
          "type": "string"
        }
      ],
      "name": "addComment",
      "outputs": [],
      "stateMutability": "nonpayable",
      "type": "function"
    },
    {
      "inputs": [
        {
          "internalType": "string",
          "name": "_postText",
          "type": "string"
        },
        {
          "internalType": "bool",
          "name": "_isPaid",
          "type": "bool"
        },
        {
          "internalType": "uint256",
          "name": "_viewPrice",
          "type": "uint256"
        }
      ],
      "name": "addPost",
      "outputs": [],
      "stateMutability": "payable",
      "type": "function"
    },
    {
      "inputs": [
        {
          "internalType": "address",
          "name": "_userToBlock",
          "type": "address"
        }
      ],
      "name": "blockUser",
      "outputs": [],
      "stateMutability": "nonpayable",
      "type": "function"
    },
    {
      "inputs": [
        {
          "internalType": "address",
          "name": "",
          "type": "address"
        },
        {
          "internalType": "address",
          "name": "",
          "type": "address"
        }
      ],
      "name": "blockedBy",
      "outputs": [
        {
          "internalType": "bool",
          "name": "",
          "type": "bool"
        }
      ],
      "stateMutability": "view",
      "type": "function"
    },
    {
      "inputs": [],
      "name": "clearNotifications",
      "outputs": [],
      "stateMutability": "nonpayable",
      "type": "function"
    },
    {
      "inputs": [],
      "name": "commentCounter",
      "outputs": [
        {
          "internalType": "uint256",
          "name": "_value",
          "type": "uint256"
        }
      ],
      "stateMutability": "view",
      "type": "function"
    },
    {
      "inputs": [
        {
          "internalType": "uint256",
          "name": "",
          "type": "uint256"
        }
      ],
      "name": "comments",
      "outputs": [
        {
          "internalType": "uint256",
          "name": "id",
          "type": "uint256"
        },
        {
          "internalType": "address payable",
          "name": "commenter",
          "type": "address"
        },
        {
          "internalType": "uint256",
          "name": "postId",
          "type": "uint256"
        },
        {
          "internalType": "string",
          "name": "commentText",
          "type": "string"
        }
      ],
      "stateMutability": "view",
      "type": "function"
    },
    {
      "inputs": [
        {
          "internalType": "uint256",
          "name": "postId",
          "type": "uint256"
        }
      ],
      "name": "deletePost",
      "outputs": [],
      "stateMutability": "nonpayable",
      "type": "function"
    },
    {
      "inputs": [
        {
          "internalType": "uint256",
          "name": "_postId",
          "type": "uint256"
        },
        {
          "internalType": "string",
          "name": "_newPostText",
          "type": "string"
        }
      ],
      "name": "editPost",
      "outputs": [],
      "stateMutability": "nonpayable",
      "type": "function"
    },
    {
      "inputs": [
        {
          "internalType": "address",
          "name": "_userToFollow",
          "type": "address"
        }
      ],
      "name": "followUser",
      "outputs": [],
      "stateMutability": "nonpayable",
      "type": "function"
    },
    {
      "inputs": [
        {
          "internalType": "address",
          "name": "",
          "type": "address"
        },
        {
          "internalType": "uint256",
          "name": "",
          "type": "uint256"
        }
      ],
      "name": "followers",
      "outputs": [
        {
          "internalType": "address",
          "name": "",
          "type": "address"
        }
      ],
      "stateMutability": "view",
      "type": "function"
    },
    {
      "inputs": [
        {
          "internalType": "address",
          "name": "",
          "type": "address"
        },
        {
          "internalType": "uint256",
          "name": "",
          "type": "uint256"
        }
      ],
      "name": "following",
      "outputs": [
        {
          "internalType": "address",
          "name": "",
          "type": "address"
        }
      ],
      "stateMutability": "view",
      "type": "function"
    },
    {
      "inputs": [],
      "name": "getAllposts",
      "outputs": [
        {
          "components": [
            {
              "internalType": "uint256",
              "name": "id",
              "type": "uint256"
            },
            {
              "internalType": "address",
              "name": "username",
              "type": "address"
            },
            {
              "internalType": "string",
              "name": "postText",
              "type": "string"
            },
            {
              "internalType": "bool",
              "name": "isPaid",
              "type": "bool"
            },
            {
              "internalType": "uint256",
              "name": "viewPrice",
              "type": "uint256"
            },
            {
              "internalType": "bool",
              "name": "isDeleted",
              "type": "bool"
            },
            {
              "internalType": "uint256",
              "name": "likes",
              "type": "uint256"
            },
            {
              "internalType": "uint256",
              "name": "dislikes",
              "type": "uint256"
            },
            {
              "internalType": "enum DataTypes.Visibility",
              "name": "visibility",
              "type": "uint8"
            },
            {
              "internalType": "string[]",
              "name": "tags",
              "type": "string[]"
            }
          ],
          "internalType": "struct DataTypes.PostData[]",
          "name": "",
          "type": "tuple[]"
        }
      ],
      "stateMutability": "view",
      "type": "function"
    },
    {
      "inputs": [],
      "name": "getMyposts",
      "outputs": [
        {
          "components": [
            {
              "internalType": "uint256",
              "name": "id",
              "type": "uint256"
            },
            {
              "internalType": "address",
              "name": "username",
              "type": "address"
            },
            {
              "internalType": "string",
              "name": "postText",
              "type": "string"
            },
            {
              "internalType": "bool",
              "name": "isPaid",
              "type": "bool"
            },
            {
              "internalType": "uint256",
              "name": "viewPrice",
              "type": "uint256"
            },
            {
              "internalType": "bool",
              "name": "isDeleted",
              "type": "bool"
            },
            {
              "internalType": "uint256",
              "name": "likes",
              "type": "uint256"
            },
            {
              "internalType": "uint256",
              "name": "dislikes",
              "type": "uint256"
            },
            {
              "internalType": "enum DataTypes.Visibility",
              "name": "visibility",
              "type": "uint8"
            },
            {
              "internalType": "string[]",
              "name": "tags",
              "type": "string[]"
            }
          ],
          "internalType": "struct DataTypes.PostData[]",
          "name": "",
          "type": "tuple[]"
        }
      ],
      "stateMutability": "view",
      "type": "function"
    },
    {
      "inputs": [
        {
          "internalType": "uint256",
          "name": "postId",
          "type": "uint256"
        }
      ],
      "name": "getpostDetails",
      "outputs": [
        {
          "internalType": "uint256",
          "name": "",
          "type": "uint256"
        },
        {
          "internalType": "address",
          "name": "",
          "type": "address"
        },
        {
          "internalType": "string",
          "name": "",
          "type": "string"
        },
        {
          "internalType": "bool",
          "name": "",
          "type": "bool"
        },
        {
          "internalType": "uint256",
          "name": "",
          "type": "uint256"
        },
        {
          "internalType": "bool",
          "name": "",
          "type": "bool"
        }
      ],
      "stateMutability": "view",
      "type": "function"
    },
    {
      "inputs": [
        {
          "internalType": "address",
          "name": "_user",
          "type": "address"
        },
        {
          "internalType": "address",
          "name": "_blockedUser",
          "type": "address"
        }
      ],
      "name": "isBlocked",
      "outputs": [
        {
          "internalType": "bool",
          "name": "",
          "type": "bool"
        }
      ],
      "stateMutability": "view",
      "type": "function"
    },
    {
      "inputs": [
        {
          "internalType": "address",
          "name": "_follower",
          "type": "address"
        },
        {
          "internalType": "address",
          "name": "_following",
          "type": "address"
        }
      ],
      "name": "isFollowing",
      "outputs": [
        {
          "internalType": "bool",
          "name": "",
          "type": "bool"
        }
      ],
      "stateMutability": "view",
      "type": "function"
    },
    {
      "inputs": [],
      "name": "postCounter",
      "outputs": [
        {
          "internalType": "uint256",
          "name": "_value",
          "type": "uint256"
        }
      ],
      "stateMutability": "view",
      "type": "function"
    },
    {
      "inputs": [
        {
          "internalType": "uint256",
          "name": "",
          "type": "uint256"
        },
        {
          "internalType": "uint256",
          "name": "",
          "type": "uint256"
        }
      ],
      "name": "postToComments",
      "outputs": [
        {
          "internalType": "uint256",
          "name": "id",
          "type": "uint256"
        },
        {
          "internalType": "address payable",
          "name": "commenter",
          "type": "address"
        },
        {
          "internalType": "uint256",
          "name": "postId",
          "type": "uint256"
        },
        {
          "internalType": "string",
          "name": "commentText",
          "type": "string"
        }
      ],
      "stateMutability": "view",
      "type": "function"
    },
    {
      "inputs": [
        {
          "internalType": "uint256",
          "name": "",
          "type": "uint256"
        },
        {
          "internalType": "uint256",
          "name": "",
          "type": "uint256"
        }
      ],
      "name": "postToReports",
      "outputs": [
        {
          "internalType": "uint256",
          "name": "id",
          "type": "uint256"
        },
        {
          "internalType": "address",
          "name": "reporter",
          "type": "address"
        },
        {
          "internalType": "uint256",
          "name": "postId",
          "type": "uint256"
        },
        {
          "internalType": "string",
          "name": "reason",
          "type": "string"
        }
      ],
      "stateMutability": "view",
      "type": "function"
    },
    {
      "inputs": [
        {
          "internalType": "uint256",
          "name": "",
          "type": "uint256"
        }
      ],
      "name": "posts",
      "outputs": [
        {
          "internalType": "uint256",
          "name": "id",
          "type": "uint256"
        },
        {
          "internalType": "address payable",
          "name": "username",
          "type": "address"
        },
        {
          "internalType": "string",
          "name": "postText",
          "type": "string"
        },
        {
          "internalType": "bool",
          "name": "isPaid",
          "type": "bool"
        },
        {
          "internalType": "uint256",
          "name": "viewPrice",
          "type": "uint256"
        },
        {
          "internalType": "bool",
          "name": "isDeleted",
          "type": "bool"
        },
        {
          "internalType": "uint256",
          "name": "likes",
          "type": "uint256"
        },
        {
          "internalType": "uint256",
          "name": "dislikes",
          "type": "uint256"
        },
        {
          "internalType": "enum DataTypes.Visibility",
          "name": "visibility",
          "type": "uint8"
        }
      ],
      "stateMutability": "view",
      "type": "function"
    },
    {
      "inputs": [],
      "name": "reportCounter",
      "outputs": [
        {
          "internalType": "uint256",
          "name": "_value",
          "type": "uint256"
        }
      ],
      "stateMutability": "view",
      "type": "function"
    },
    {
      "inputs": [
        {
          "internalType": "uint256",
          "name": "_postId",
          "type": "uint256"
        },
        {
          "internalType": "string",
          "name": "_reason",
          "type": "string"
        }
      ],
      "name": "reportPost",
      "outputs": [],
      "stateMutability": "nonpayable",
      "type": "function"
    },
    {
      "inputs": [
        {
          "internalType": "uint256",
          "name": "",
          "type": "uint256"
        }
      ],
      "name": "reports",
      "outputs": [
        {
          "internalType": "uint256",
          "name": "id",
          "type": "uint256"
        },
        {
          "internalType": "address",
          "name": "reporter",
          "type": "address"
        },
        {
          "internalType": "uint256",
          "name": "postId",
          "type": "uint256"
        },
        {
          "internalType": "string",
          "name": "reason",
          "type": "string"
        }
      ],
      "stateMutability": "view",
      "type": "function"
    },
    {
      "inputs": [
        {
          "internalType": "string",
          "name": "_tag",
          "type": "string"
        }
      ],
      "name": "searchPostsByTag",
      "outputs": [
        {
          "components": [
            {
              "internalType": "uint256",
              "name": "id",
              "type": "uint256"
            },
            {
              "internalType": "address",
              "name": "username",
              "type": "address"
            },
            {
              "internalType": "string",
              "name": "postText",
              "type": "string"
            },
            {
              "internalType": "bool",
              "name": "isPaid",
              "type": "bool"
            },
            {
              "internalType": "uint256",
              "name": "viewPrice",
              "type": "uint256"
            },
            {
              "internalType": "bool",
              "name": "isDeleted",
              "type": "bool"
            },
            {
              "internalType": "uint256",
              "name": "likes",
              "type": "uint256"
            },
            {
              "internalType": "uint256",
              "name": "dislikes",
              "type": "uint256"
            },
            {
              "internalType": "enum DataTypes.Visibility",
              "name": "visibility",
              "type": "uint8"
            },
            {
              "internalType": "string[]",
              "name": "tags",
              "type": "string[]"
            }
          ],
          "internalType": "struct DataTypes.PostData[]",
          "name": "",
          "type": "tuple[]"
        }
      ],
      "stateMutability": "view",
      "type": "function"
    },
    {
      "inputs": [
        {
          "internalType": "address",
          "name": "_user",
          "type": "address"
        }
      ],
      "name": "searchPostsByUser",
      "outputs": [
        {
          "components": [
            {
              "internalType": "uint256",
              "name": "id",
              "type": "uint256"
            },
            {
              "internalType": "address",
              "name": "username",
              "type": "address"
            },
            {
              "internalType": "string",
              "name": "postText",
              "type": "string"
            },
            {
              "internalType": "bool",
              "name": "isPaid",
              "type": "bool"
            },
            {
              "internalType": "uint256",
              "name": "viewPrice",
              "type": "uint256"
            },
            {
              "internalType": "bool",
              "name": "isDeleted",
              "type": "bool"
            },
            {
              "internalType": "uint256",
              "name": "likes",
              "type": "uint256"
            },
            {
              "internalType": "uint256",
              "name": "dislikes",
              "type": "uint256"
            },
            {
              "internalType": "enum DataTypes.Visibility",
              "name": "visibility",
              "type": "uint8"
            },
            {
              "internalType": "string[]",
              "name": "tags",
              "type": "string[]"
            }
          ],
          "internalType": "struct DataTypes.PostData[]",
          "name": "",
          "type": "tuple[]"
        }
      ],
      "stateMutability": "view",
      "type": "function"
    },
    {
      "inputs": [
        {
          "internalType": "string",
          "name": "_name",
          "type": "string"
        },
        {
          "internalType": "string",
          "name": "_bio",
          "type": "string"
        },
        {
          "internalType": "string",
          "name": "_imageLink",
          "type": "string"
        }
      ],
      "name": "setProfile",
      "outputs": [],
      "stateMutability": "nonpayable",
      "type": "function"
    },
    {
      "inputs": [
        {
          "internalType": "uint256",
          "name": "postId",
          "type": "uint256"
        },
        {
          "internalType": "uint256",
          "name": "tipAmnt",
          "type": "uint256"
        }
      ],
      "name": "tipPost",
      "outputs": [],
      "stateMutability": "payable",
      "type": "function"
    },
    {
      "inputs": [
        {
          "internalType": "address",
          "name": "_userToUnblock",
          "type": "address"
        }
      ],
      "name": "unblockUser",
      "outputs": [],
      "stateMutability": "nonpayable",
      "type": "function"
    },
    {
      "inputs": [
        {
          "internalType": "address",
          "name": "_userToUnfollow",
          "type": "address"
        }
      ],
      "name": "unfollowUser",
      "outputs": [],
      "stateMutability": "nonpayable",
      "type": "function"
    },
    {
      "inputs": [
        {
          "internalType": "address",
          "name": "",
          "type": "address"
        },
        {
          "internalType": "uint256",
          "name": "",
          "type": "uint256"
        }
      ],
      "name": "userNotifications",
      "outputs": [
        {
          "internalType": "enum DataTypes.NotificationType",
          "name": "notificationType",
          "type": "uint8"
        },
        {
          "internalType": "address",
          "name": "fromUser",
          "type": "address"
        },
        {
          "internalType": "uint256",
          "name": "associatedPostId",
          "type": "uint256"
        },
        {
          "internalType": "string",
          "name": "additionalInfo",
          "type": "string"
        }
      ],
      "stateMutability": "view",
      "type": "function"
    },
    {
      "inputs": [
        {
          "internalType": "address",
          "name": "",
          "type": "address"
        }
      ],
      "name": "userProfiles",
      "outputs": [
        {
          "internalType": "string",
          "name": "name",
          "type": "string"
        },
        {
          "internalType": "string",
          "name": "bio",
          "type": "string"
        },
        {
          "internalType": "string",
          "name": "profileImageLink",
          "type": "string"
        }
      ],
      "stateMutability": "view",
      "type": "function"
    },
    {
      "inputs": [
        {
          "internalType": "uint256",
          "name": "_postId",
          "type": "uint256"
        }
      ],
      "name": "viewComments",
      "outputs": [
        {
          "components": [
            {
              "internalType": "uint256",
              "name": "id",
              "type": "uint256"
            },
            {
              "internalType": "address payable",
              "name": "commenter",
              "type": "address"
            },
            {
              "internalType": "uint256",
              "name": "postId",
              "type": "uint256"
            },
            {
              "internalType": "string",
              "name": "commentText",
              "type": "string"
            }
          ],
          "internalType": "struct DataTypes.Comment[]",
          "name": "",
          "type": "tuple[]"
        }
      ],
      "stateMutability": "view",
      "type": "function"
    },
    {
      "inputs": [],
      "name": "viewNotifications",
      "outputs": [
        {
          "components": [
            {
              "internalType": "enum DataTypes.NotificationType",
              "name": "notificationType",
              "type": "uint8"
            },
            {
              "internalType": "address",
              "name": "fromUser",
              "type": "address"
            },
            {
              "internalType": "uint256",
              "name": "associatedPostId",
              "type": "uint256"
            },
            {
              "internalType": "string",
              "name": "additionalInfo",
              "type": "string"
            }
          ],
          "internalType": "struct DataTypes.Notification[]",
          "name": "",
          "type": "tuple[]"
        }
      ],
      "stateMutability": "view",
      "type": "function"
    },
    {
      "inputs": [
        {
          "internalType": "uint256",
          "name": "postId",
          "type": "uint256"
        }
      ],
      "name": "viewPaidPost",
      "outputs": [],
      "stateMutability": "payable",
      "type": "function"
    },
    {
      "inputs": [
        {
          "internalType": "address",
          "name": "_user",
          "type": "address"
        }
      ],
      "name": "viewProfile",
      "outputs": [
        {
          "components": [
            {
              "internalType": "string",
              "name": "name",
              "type": "string"
            },
            {
              "internalType": "string",
              "name": "bio",
              "type": "string"
            },
            {
              "internalType": "string",
              "name": "profileImageLink",
              "type": "string"
            }
          ],
          "internalType": "struct DataTypes.Profile",
          "name": "",
          "type": "tuple"
        }
      ],
      "stateMutability": "view",
      "type": "function"
    },
    {
      "inputs": [
        {
          "internalType": "uint256",
          "name": "_postId",
          "type": "uint256"
        }
      ],
      "name": "viewReports",
      "outputs": [
        {
          "components": [
            {
              "internalType": "uint256",
              "name": "id",
              "type": "uint256"
            },
            {
              "internalType": "address",
              "name": "reporter",
              "type": "address"
            },
            {
              "internalType": "uint256",
              "name": "postId",
              "type": "uint256"
            },
            {
              "internalType": "string",
              "name": "reason",
              "type": "string"
            }
          ],
          "internalType": "struct DataTypes.Report[]",
          "name": "",
          "type": "tuple[]"
        }
      ],
      "stateMutability": "view",
      "type": "function"
    }
  ],
  "bytecode": "0x608060405234801561001057600080fd5b5061562280620000216000396000f3fe60806040526004361061021a5760003560e01c80638ebb4c1511610123578063aee5c349116100ab578063c942adf71161006f578063c942adf714610854578063cf7a6a2a14610894578063ebd009d3146108d6578063f107cfcb14610913578063fa99654a1461093c5761021a565b8063aee5c34914610777578063b608c6e8146107a2578063b8c0a1ef146107e2578063b9bc38f21461080d578063c06585bb146108385761021a565b806399ec3a42116100f257806399ec3a421461067d5780639b7791d3146106ba5780639e1757b6146106e5578063a70806f714610725578063aa7e56831461074e5761021a565b80638ebb4c15146105ac578063900baf13146105ec5780639139cda51461060357806392fccfa7146106405761021a565b806346e08141116101a6578063845e238f11610175578063845e238f146104bd57806386c58d3e146104fa57806389fc8199146105375780638ad8c53e146105745780638cfbc01f146105905761021a565b806346e08141146103f1578063526403141461042e57806374ee51c4146104575780637ef94bce146104945761021a565b80632ecec467116101ed5780632ecec467146102e3578063332d56d71461032057806338c919101461035f57806339d319e51461039f5780633da01325146103c85761021a565b806305ec4e711461021f578063094cd5ee1461024a57806309b3d75e146102735780630b1e7f831461029e575b600080fd5b34801561022b57600080fd5b50610234610965565b6040516102419190613ef5565b60405180910390f35b34801561025657600080fd5b50610271600480360381019061026c9190613f57565b610b2e565b005b34801561027f57600080fd5b50610288610c3b565b6040516102959190613f93565b60405180910390f35b3480156102aa57600080fd5b506102c560048036038101906102c09190613f57565b610c47565b6040516102da9998979695949392919061407c565b60405180910390f35b3480156102ef57600080fd5b5061030a60048036038101906103059190614245565b610d64565b6040516103179190614511565b60405180910390f35b34801561032c57600080fd5b506103476004803603810190610342919061455f565b610d78565b6040516103569392919061458c565b60405180910390f35b34801561036b57600080fd5b50610386600480360381019061038191906145d8565b610f3a565b6040516103969493929190614636565b60405180910390f35b3480156103ab57600080fd5b506103c660048036038101906103c1919061455f565b61103c565b005b3480156103d457600080fd5b506103ef60048036038101906103ea919061455f565b6110d4565b005b3480156103fd57600080fd5b506104186004803603810190610413919061455f565b6111da565b60405161042591906146e0565b60405180910390f35b34801561043a57600080fd5b5061045560048036038101906104509190614702565b6113e9565b005b34801561046357600080fd5b5061047e600480360381019061047991906147a9565b611497565b60405161048b91906147e9565b60405180910390f35b3480156104a057600080fd5b506104bb60048036038101906104b69190614804565b6114c6565b005b3480156104c957600080fd5b506104e460048036038101906104df9190613f57565b6116dc565b6040516104f19190614994565b60405180910390f35b34801561050657600080fd5b50610521600480360381019061051c91906147a9565b61184a565b60405161052e91906147e9565b60405180910390f35b34801561054357600080fd5b5061055e6004803603810190610559919061455f565b6118de565b60405161056b9190614511565b60405180910390f35b61058e600480360381019061058991906149e2565b611900565b005b6105aa60048036038101906105a59190613f57565b611a1c565b005b3480156105b857600080fd5b506105d360048036038101906105ce9190613f57565b611b67565b6040516105e39493929190614a51565b60405180910390f35b3480156105f857600080fd5b50610601611c3f565b005b34801561060f57600080fd5b5061062a600480360381019061062591906145d8565b611c8c565b6040516106379190614a9d565b60405180910390f35b34801561064c57600080fd5b5061066760048036038101906106629190613f57565b611cda565b6040516106749190614bdd565b60405180910390f35b34801561068957600080fd5b506106a4600480360381019061069f91906147a9565b611e48565b6040516106b191906147e9565b60405180910390f35b3480156106c657600080fd5b506106cf611f71565b6040516106dc9190614511565b60405180910390f35b3480156106f157600080fd5b5061070c60048036038101906107079190614bff565b611f91565b60405161071c9493929190614c3f565b60405180910390f35b34801561073157600080fd5b5061074c6004803603810190610747919061455f565b612086565b005b34801561075a57600080fd5b5061077560048036038101906107709190614804565b612281565b005b34801561078357600080fd5b5061078c612497565b6040516107999190614511565b60405180910390f35b3480156107ae57600080fd5b506107c960048036038101906107c49190614bff565b6124b8565b6040516107d99493929190614a51565b60405180910390f35b3480156107ee57600080fd5b506107f76125ad565b6040516108049190613f93565b60405180910390f35b34801561081957600080fd5b506108226125b9565b60405161082f9190613f93565b60405180910390f35b610852600480360381019061084d9190614bff565b6125c5565b005b34801561086057600080fd5b5061087b60048036038101906108769190613f57565b6127dd565b60405161088b9493929190614c3f565b60405180910390f35b3480156108a057600080fd5b506108bb60048036038101906108b69190613f57565b6128b5565b6040516108cd96959493929190614c8b565b60405180910390f35b3480156108e257600080fd5b506108fd60048036038101906108f891906145d8565b6129cd565b60405161090a9190614a9d565b60405180910390f35b34801561091f57600080fd5b5061093a6004803603810190610935919061455f565b612a1b565b005b34801561094857600080fd5b50610963600480360381019061095e9190614804565b612a7b565b005b6060600860003373ffffffffffffffffffffffffffffffffffffffff1673ffffffffffffffffffffffffffffffffffffffff168152602001908152602001600020805480602002602001604051908101604052809291908181526020016000905b82821015610b2557838290600052602060002090600302016040518060800160405290816000820160009054906101000a900460ff166003811115610a0e57610a0d613c9b565b5b6003811115610a2057610a1f613c9b565b5b81526020016000820160019054906101000a900473ffffffffffffffffffffffffffffffffffffffff1673ffffffffffffffffffffffffffffffffffffffff1673ffffffffffffffffffffffffffffffffffffffff16815260200160018201548152602001600282018054610a9490614d22565b80601f0160208091040260200160405190810160405280929190818152602001828054610ac090614d22565b8015610b0d5780601f10610ae257610100808354040283529160200191610b0d565b820191906000526020600020905b815481529060010190602001808311610af057829003601f168201915b505050505081525050815260200190600101906109c6565b50505050905090565b3373ffffffffffffffffffffffffffffffffffffffff1660008083815260200190815260200160002060010160009054906101000a900473ffffffffffffffffffffffffffffffffffffffff1673ffffffffffffffffffffffffffffffffffffffff1614610bd1576040517f08c379a0000000000000000000000000000000000000000000000000000000008152600401610bc890614dc5565b60405180910390fd5b600160008083815260200190815260200160002060050160006101000a81548160ff021916908315150217905550807f50de60758261258765d60f3764f52b012fb4289c1120010bf8b34f7a7976f8156001604051610c3091906147e9565b60405180910390a250565b60018060000154905081565b60006020528060005260406000206000915090508060000154908060010160009054906101000a900473ffffffffffffffffffffffffffffffffffffffff1690806002018054610c9690614d22565b80601f0160208091040260200160405190810160405280929190818152602001828054610cc290614d22565b8015610d0f5780601f10610ce457610100808354040283529160200191610d0f565b820191906000526020600020905b815481529060010190602001808311610cf257829003601f168201915b5050505050908060030160009054906101000a900460ff16908060040154908060050160009054906101000a900460ff169080600601549080600701549080600a0160009054906101000a900460ff16905089565b6060610d71600083612ba8565b9050919050565b6009602052806000526040600020600091509050806000018054610d9b90614d22565b80601f0160208091040260200160405190810160405280929190818152602001828054610dc790614d22565b8015610e145780601f10610de957610100808354040283529160200191610e14565b820191906000526020600020905b815481529060010190602001808311610df757829003601f168201915b505050505090806001018054610e2990614d22565b80601f0160208091040260200160405190810160405280929190818152602001828054610e5590614d22565b8015610ea25780601f10610e7757610100808354040283529160200191610ea2565b820191906000526020600020905b815481529060010190602001808311610e8557829003601f168201915b505050505090806002018054610eb790614d22565b80601f0160208091040260200160405190810160405280929190818152602001828054610ee390614d22565b8015610f305780601f10610f0557610100808354040283529160200191610f30565b820191906000526020600020905b815481529060010190602001808311610f1357829003601f168201915b5050505050905083565b60086020528160005260406000208181548110610f5657600080fd5b9060005260206000209060030201600091509150508060000160009054906101000a900460ff16908060000160019054906101000a900473ffffffffffffffffffffffffffffffffffffffff1690806001015490806002018054610fb990614d22565b80601f0160208091040260200160405190810160405280929190818152602001828054610fe590614d22565b80156110325780601f1061100757610100808354040283529160200191611032565b820191906000526020600020905b81548152906001019060200180831161101557829003601f168201915b5050505050905084565b6000600c60003373ffffffffffffffffffffffffffffffffffffffff1673ffffffffffffffffffffffffffffffffffffffff16815260200190815260200160002060008373ffffffffffffffffffffffffffffffffffffffff1673ffffffffffffffffffffffffffffffffffffffff16815260200190815260200160002060006101000a81548160ff02191690831515021790555050565b3373ffffffffffffffffffffffffffffffffffffffff168173ffffffffffffffffffffffffffffffffffffffff1603611142576040517f08c379a000000000000000000000000000000000000000000000000000000000815260040161113990614e31565b60405180910390fd5b6001600c60003373ffffffffffffffffffffffffffffffffffffffff1673ffffffffffffffffffffffffffffffffffffffff16815260200190815260200160002060008373ffffffffffffffffffffffffffffffffffffffff1673ffffffffffffffffffffffffffffffffffffffff16815260200190815260200160002060006101000a81548160ff02191690831515021790555050565b6111e2613a68565b600960008373ffffffffffffffffffffffffffffffffffffffff1673ffffffffffffffffffffffffffffffffffffffff16815260200190815260200160002060405180606001604052908160008201805461123c90614d22565b80601f016020809104026020016040519081016040528092919081815260200182805461126890614d22565b80156112b55780601f1061128a576101008083540402835291602001916112b5565b820191906000526020600020905b81548152906001019060200180831161129857829003601f168201915b505050505081526020016001820180546112ce90614d22565b80601f01602080910402602001604051908101604052809291908181526020018280546112fa90614d22565b80156113475780601f1061131c57610100808354040283529160200191611347565b820191906000526020600020905b81548152906001019060200180831161132a57829003601f168201915b5050505050815260200160028201805461136090614d22565b80601f016020809104026020016040519081016040528092919081815260200182805461138c90614d22565b80156113d95780601f106113ae576101008083540402835291602001916113d9565b820191906000526020600020905b8154815290600101906020018083116113bc57829003601f168201915b5050505050815250509050919050565b6113f1613a68565b83816000018190525082816020018190525081816040018190525080600960003373ffffffffffffffffffffffffffffffffffffffff1673ffffffffffffffffffffffffffffffffffffffff16815260200190815260200160002060008201518160000190816114619190614ffd565b5060208201518160010190816114779190614ffd565b50604082015181600201908161148d9190614ffd565b5090505050505050565b600c6020528160005260406000206020528060005260406000206000915091509054906101000a900460ff1681565b60008083815260200190815260200160002060050160009054906101000a900460ff1615611529576040517f08c379a00000000000000000000000000000000000000000000000000000000081526004016115209061511b565b60405180910390fd5b61153360036132df565b600061153f60036132f5565b9050611549613a89565b8181600001818152505033816020019073ffffffffffffffffffffffffffffffffffffffff16908173ffffffffffffffffffffffffffffffffffffffff16815250508381604001818152505082816060018190525080600460008481526020019081526020016000206000820151816000015560208201518160010160006101000a81548173ffffffffffffffffffffffffffffffffffffffff021916908373ffffffffffffffffffffffffffffffffffffffff1602179055506040820151816002015560608201518160030190816116229190614ffd565b50905050600560008581526020019081526020016000208190806001815401808255809150506001900390600052602060002090600402016000909190919091506000820151816000015560208201518160010160006101000a81548173ffffffffffffffffffffffffffffffffffffffff021916908373ffffffffffffffffffffffffffffffffffffffff1602179055506040820151816002015560608201518160030190816116d39190614ffd565b50505050505050565b606060076000838152602001908152602001600020805480602002602001604051908101604052809291908181526020016000905b8282101561183f5783829060005260206000209060040201604051806080016040529081600082015481526020016001820160009054906101000a900473ffffffffffffffffffffffffffffffffffffffff1673ffffffffffffffffffffffffffffffffffffffff1673ffffffffffffffffffffffffffffffffffffffff168152602001600282015481526020016003820180546117ae90614d22565b80601f01602080910402602001604051908101604052809291908181526020018280546117da90614d22565b80156118275780601f106117fc57610100808354040283529160200191611827565b820191906000526020600020905b81548152906001019060200180831161180a57829003601f168201915b50505050508152505081526020019060010190611711565b505050509050919050565b6000600c60008473ffffffffffffffffffffffffffffffffffffffff1673ffffffffffffffffffffffffffffffffffffffff16815260200190815260200160002060008373ffffffffffffffffffffffffffffffffffffffff1673ffffffffffffffffffffffffffffffffffffffff16815260200190815260200160002060009054906101000a900460ff16905092915050565b60606118f98260405180602001604052806000815250612ba8565b9050919050565b61190a60016132df565b600061191660016132f5565b905060008060008381526020019081526020016000209050818160000181905550338160010160006101000a81548173ffffffffffffffffffffffffffffffffffffffff021916908373ffffffffffffffffffffffffffffffffffffffff1602179055508481600201908161198b9190614ffd565b50838160030160006101000a81548160ff02191690831515021790555082816004018190555060008160050160006101000a81548160ff021916908315150217905550831515823373ffffffffffffffffffffffffffffffffffffffff167f2c922782adeb210be8cf4fc4aa2e86b3664918635a8df6cd2ce02a38026ec88e60405160405180910390a45050505050565b60008082815260200190815260200160002060030160009054906101000a900460ff16611a7e576040517f08c379a0000000000000000000000000000000000000000000000000000000008152600401611a7590615187565b60405180910390fd5b600080600083815260200190815260200160002060040154905060008083815260200190815260200160002060010160009054906101000a900473ffffffffffffffffffffffffffffffffffffffff1673ffffffffffffffffffffffffffffffffffffffff166108fc829081150290604051600060405180830381858888f19350505050158015611b13573d6000803e3d6000fd5b50813373ffffffffffffffffffffffffffffffffffffffff167fbe1ddb02a80576b41c4fb49186f5a199649c12e322b8a235e1817271f119910d34604051611b5b9190613f93565b60405180910390a35050565b60066020528060005260406000206000915090508060000154908060010160009054906101000a900473ffffffffffffffffffffffffffffffffffffffff1690806002015490806003018054611bbc90614d22565b80601f0160208091040260200160405190810160405280929190818152602001828054611be890614d22565b8015611c355780601f10611c0a57610100808354040283529160200191611c35565b820191906000526020600020905b815481529060010190602001808311611c1857829003601f168201915b5050505050905084565b600860003373ffffffffffffffffffffffffffffffffffffffff1673ffffffffffffffffffffffffffffffffffffffff1681526020019081526020016000206000611c8a9190613ac7565b565b600b6020528160005260406000208181548110611ca857600080fd5b906000526020600020016000915091509054906101000a900473ffffffffffffffffffffffffffffffffffffffff1681565b606060056000838152602001908152602001600020805480602002602001604051908101604052809291908181526020016000905b82821015611e3d5783829060005260206000209060040201604051806080016040529081600082015481526020016001820160009054906101000a900473ffffffffffffffffffffffffffffffffffffffff1673ffffffffffffffffffffffffffffffffffffffff1673ffffffffffffffffffffffffffffffffffffffff16815260200160028201548152602001600382018054611dac90614d22565b80601f0160208091040260200160405190810160405280929190818152602001828054611dd890614d22565b8015611e255780601f10611dfa57610100808354040283529160200191611e25565b820191906000526020600020905b815481529060010190602001808311611e0857829003601f168201915b50505050508152505081526020019060010190611d0f565b505050509050919050565b600080600090505b600b60008573ffffffffffffffffffffffffffffffffffffffff1673ffffffffffffffffffffffffffffffffffffffff16815260200190815260200160002080549050811015611f65578273ffffffffffffffffffffffffffffffffffffffff16600b60008673ffffffffffffffffffffffffffffffffffffffff1673ffffffffffffffffffffffffffffffffffffffff1681526020019081526020016000208281548110611f0257611f016151a7565b5b9060005260206000200160009054906101000a900473ffffffffffffffffffffffffffffffffffffffff1673ffffffffffffffffffffffffffffffffffffffff1603611f52576001915050611f6b565b8080611f5d90615205565b915050611e50565b50600090505b92915050565b6060611f8c3360405180602001604052806000815250612ba8565b905090565b60056020528160005260406000208181548110611fad57600080fd5b9060005260206000209060040201600091509150508060000154908060010160009054906101000a900473ffffffffffffffffffffffffffffffffffffffff169080600201549080600301805461200390614d22565b80601f016020809104026020016040519081016040528092919081815260200182805461202f90614d22565b801561207c5780601f106120515761010080835404028352916020019161207c565b820191906000526020600020905b81548152906001019060200180831161205f57829003601f168201915b5050505050905084565b3373ffffffffffffffffffffffffffffffffffffffff168173ffffffffffffffffffffffffffffffffffffffff16036120f4576040517f08c379a00000000000000000000000000000000000000000000000000000000081526004016120eb90615299565b60405180910390fd5b6120fe3382611e48565b1561213e576040517f08c379a00000000000000000000000000000000000000000000000000000000081526004016121359061532b565b60405180910390fd5b600b60003373ffffffffffffffffffffffffffffffffffffffff1673ffffffffffffffffffffffffffffffffffffffff168152602001908152602001600020819080600181540180825580915050600190039060005260206000200160009091909190916101000a81548173ffffffffffffffffffffffffffffffffffffffff021916908373ffffffffffffffffffffffffffffffffffffffff160217905550600a60008273ffffffffffffffffffffffffffffffffffffffff1673ffffffffffffffffffffffffffffffffffffffff168152602001908152602001600020339080600181540180825580915050600190039060005260206000200160009091909190916101000a81548173ffffffffffffffffffffffffffffffffffffffff021916908373ffffffffffffffffffffffffffffffffffffffff16021790555050565b60008083815260200190815260200160002060050160009054906101000a900460ff16156122e4576040517f08c379a00000000000000000000000000000000000000000000000000000000081526004016122db9061511b565b60405180910390fd5b6122ee60026132df565b60006122fa60026132f5565b9050612304613aeb565b8181600001818152505033816020019073ffffffffffffffffffffffffffffffffffffffff16908173ffffffffffffffffffffffffffffffffffffffff16815250508381604001818152505082816060018190525080600660008481526020019081526020016000206000820151816000015560208201518160010160006101000a81548173ffffffffffffffffffffffffffffffffffffffff021916908373ffffffffffffffffffffffffffffffffffffffff1602179055506040820151816002015560608201518160030190816123dd9190614ffd565b50905050600760008581526020019081526020016000208190806001815401808255809150506001900390600052602060002090600402016000909190919091506000820151816000015560208201518160010160006101000a81548173ffffffffffffffffffffffffffffffffffffffff021916908373ffffffffffffffffffffffffffffffffffffffff16021790555060408201518160020155606082015181600301908161248e9190614ffd565b50505050505050565b60606124b3600060405180602001604052806000815250612ba8565b905090565b600760205281600052604060002081815481106124d457600080fd5b9060005260206000209060040201600091509150508060000154908060010160009054906101000a900473ffffffffffffffffffffffffffffffffffffffff169080600201549080600301805461252a90614d22565b80601f016020809104026020016040519081016040528092919081815260200182805461255690614d22565b80156125a35780601f10612578576101008083540402835291602001916125a3565b820191906000526020600020905b81548152906001019060200180831161258657829003601f168201915b5050505050905084565b60028060000154905081565b60038060000154905081565b60008083815260200190815260200160002060050160009054906101000a900460ff1615612628576040517f08c379a000000000000000000000000000000000000000000000000000000000815260040161261f90615397565b60405180910390fd5b6000811161266b576040517f08c379a000000000000000000000000000000000000000000000000000000000815260040161266290615403565b60405180910390fd5b3373ffffffffffffffffffffffffffffffffffffffff1660008084815260200190815260200160002060010160009054906101000a900473ffffffffffffffffffffffffffffffffffffffff1673ffffffffffffffffffffffffffffffffffffffff160361270e576040517f08c379a00000000000000000000000000000000000000000000000000000000081526004016127059061546f565b60405180910390fd5b60008083815260200190815260200160002060010160009054906101000a900473ffffffffffffffffffffffffffffffffffffffff1673ffffffffffffffffffffffffffffffffffffffff166108fc829081150290604051600060405180830381858888f19350505050158015612789573d6000803e3d6000fd5b50813373ffffffffffffffffffffffffffffffffffffffff167fbe1ddb02a80576b41c4fb49186f5a199649c12e322b8a235e1817271f119910d836040516127d19190613f93565b60405180910390a35050565b60046020528060005260406000206000915090508060000154908060010160009054906101000a900473ffffffffffffffffffffffffffffffffffffffff169080600201549080600301805461283290614d22565b80601f016020809104026020016040519081016040528092919081815260200182805461285e90614d22565b80156128ab5780601f10612880576101008083540402835291602001916128ab565b820191906000526020600020905b81548152906001019060200180831161288e57829003601f168201915b5050505050905084565b6000806060600080600080600080898152602001908152602001600020905080600001548160010160009054906101000a900473ffffffffffffffffffffffffffffffffffffffff16826002018360030160009054906101000a900460ff1684600401548560050160009054906101000a900460ff1683805461293790614d22565b80601f016020809104026020016040519081016040528092919081815260200182805461296390614d22565b80156129b05780601f10612985576101008083540402835291602001916129b0565b820191906000526020600020905b81548152906001019060200180831161299357829003601f168201915b505050505093509650965096509650965096505091939550919395565b600a60205281600052604060002081815481106129e957600080fd5b906000526020600020016000915091509054906101000a900473ffffffffffffffffffffffffffffffffffffffff1681565b612a253382611e48565b612a64576040517f08c379a0000000000000000000000000000000000000000000000000000000008152600401612a5b906154db565b60405180910390fd5b612a6e3382613303565b612a788133613662565b50565b3373ffffffffffffffffffffffffffffffffffffffff1660008084815260200190815260200160002060010160009054906101000a900473ffffffffffffffffffffffffffffffffffffffff1673ffffffffffffffffffffffffffffffffffffffff1614612b1e576040517f08c379a0000000000000000000000000000000000000000000000000000000008152600401612b1590614dc5565b60405180910390fd5b60008083815260200190815260200160002060050160009054906101000a900460ff1615612b81576040517f08c379a0000000000000000000000000000000000000000000000000000000008152600401612b789061511b565b60405180910390fd5b806000808481526020019081526020016000206002019081612ba39190614ffd565b505050565b60606000604051602001612bbb9061552c565b604051602081830303815290604052805190602001209050600083604051602001612be69190615572565b604051602081830303815290604052805190602001209050600080600190505b612c1060016132f5565b8111612e0457600073ffffffffffffffffffffffffffffffffffffffff168773ffffffffffffffffffffffffffffffffffffffff161480612cb157508673ffffffffffffffffffffffffffffffffffffffff1660008083815260200190815260200160002060010160009054906101000a900473ffffffffffffffffffffffffffffffffffffffff1673ffffffffffffffffffffffffffffffffffffffff16145b8015612db1575083831480612db05750612daf600080838152602001908152602001600020600b01805480602002602001604051908101604052809291908181526020016000905b82821015612da5578382906000526020600020018054612d1890614d22565b80601f0160208091040260200160405190810160405280929190818152602001828054612d4490614d22565b8015612d915780601f10612d6657610100808354040283529160200191612d91565b820191906000526020600020905b815481529060010190602001808311612d7457829003601f168201915b505050505081526020019060010190612cf9565b50505050876139c1565b5b5b8015612ddd575060008082815260200190815260200160002060050160009054906101000a900460ff16155b15612df1578180612ded90615205565b9250505b8080612dfc90615205565b915050612c06565b5060008167ffffffffffffffff811115612e2157612e2061411a565b5b604051908082528060200260200182016040528015612e5a57816020015b612e47613b29565b815260200190600190039081612e3f5790505b509050600080600190505b612e6f60016132f5565b81116132d057600073ffffffffffffffffffffffffffffffffffffffff168973ffffffffffffffffffffffffffffffffffffffff161480612f1057508873ffffffffffffffffffffffffffffffffffffffff1660008083815260200190815260200160002060010160009054906101000a900473ffffffffffffffffffffffffffffffffffffffff1673ffffffffffffffffffffffffffffffffffffffff16145b801561301057508585148061300f575061300e600080838152602001908152602001600020600b01805480602002602001604051908101604052809291908181526020016000905b82821015613004578382906000526020600020018054612f7790614d22565b80601f0160208091040260200160405190810160405280929190818152602001828054612fa390614d22565b8015612ff05780601f10612fc557610100808354040283529160200191612ff0565b820191906000526020600020905b815481529060010190602001808311612fd357829003601f168201915b505050505081526020019060010190612f58565b50505050896139c1565b5b5b801561303c575060008082815260200190815260200160002060050160009054906101000a900460ff16155b156132bd5760008060008381526020019081526020016000209050604051806101400160405280826000015481526020018260010160009054906101000a900473ffffffffffffffffffffffffffffffffffffffff1673ffffffffffffffffffffffffffffffffffffffff1681526020018260020180546130bc90614d22565b80601f01602080910402602001604051908101604052809291908181526020018280546130e890614d22565b80156131355780601f1061310a57610100808354040283529160200191613135565b820191906000526020600020905b81548152906001019060200180831161311857829003601f168201915b505050505081526020018260030160009054906101000a900460ff1615158152602001826004015481526020018260050160009054906101000a900460ff1615158152602001826006015481526020018260070154815260200182600a0160009054906101000a900460ff1660028111156131b3576131b2613c9b565b5b815260200182600b01805480602002602001604051908101604052809291908181526020016000905b828210156132885783829060005260206000200180546131fb90614d22565b80601f016020809104026020016040519081016040528092919081815260200182805461322790614d22565b80156132745780601f1061324957610100808354040283529160200191613274565b820191906000526020600020905b81548152906001019060200180831161325757829003601f168201915b5050505050815260200190600101906131dc565b505050508152508484815181106132a2576132a16151a7565b5b602002602001018190525082806132b890615205565b935050505b80806132c890615205565b915050612e65565b50819550505050505092915050565b6001816000016000828254019250508190555050565b600081600001549050919050565b600080600090505b600b60008573ffffffffffffffffffffffffffffffffffffffff1673ffffffffffffffffffffffffffffffffffffffff1681526020019081526020016000208054905081101561341e578273ffffffffffffffffffffffffffffffffffffffff16600b60008673ffffffffffffffffffffffffffffffffffffffff1673ffffffffffffffffffffffffffffffffffffffff16815260200190815260200160002082815481106133bd576133bc6151a7565b5b9060005260206000200160009054906101000a900473ffffffffffffffffffffffffffffffffffffffff1673ffffffffffffffffffffffffffffffffffffffff160361340b5780915061341e565b808061341690615205565b91505061330b565b506001600b60008573ffffffffffffffffffffffffffffffffffffffff1673ffffffffffffffffffffffffffffffffffffffff1681526020019081526020016000208054905061346e9190615589565b8110156135d957600b60008473ffffffffffffffffffffffffffffffffffffffff1673ffffffffffffffffffffffffffffffffffffffff1681526020019081526020016000206001600b60008673ffffffffffffffffffffffffffffffffffffffff1673ffffffffffffffffffffffffffffffffffffffff168152602001908152602001600020805490506135039190615589565b81548110613514576135136151a7565b5b9060005260206000200160009054906101000a900473ffffffffffffffffffffffffffffffffffffffff16600b60008573ffffffffffffffffffffffffffffffffffffffff1673ffffffffffffffffffffffffffffffffffffffff16815260200190815260200160002082815481106135905761358f6151a7565b5b9060005260206000200160006101000a81548173ffffffffffffffffffffffffffffffffffffffff021916908373ffffffffffffffffffffffffffffffffffffffff1602179055505b600b60008473ffffffffffffffffffffffffffffffffffffffff1673ffffffffffffffffffffffffffffffffffffffff168152602001908152602001600020805480613628576136276155bd565b5b6001900381819060005260206000200160006101000a81549073ffffffffffffffffffffffffffffffffffffffff02191690559055505050565b600080600090505b600a60008573ffffffffffffffffffffffffffffffffffffffff1673ffffffffffffffffffffffffffffffffffffffff1681526020019081526020016000208054905081101561377d578273ffffffffffffffffffffffffffffffffffffffff16600a60008673ffffffffffffffffffffffffffffffffffffffff1673ffffffffffffffffffffffffffffffffffffffff168152602001908152602001600020828154811061371c5761371b6151a7565b5b9060005260206000200160009054906101000a900473ffffffffffffffffffffffffffffffffffffffff1673ffffffffffffffffffffffffffffffffffffffff160361376a5780915061377d565b808061377590615205565b91505061366a565b506001600a60008573ffffffffffffffffffffffffffffffffffffffff1673ffffffffffffffffffffffffffffffffffffffff168152602001908152602001600020805490506137cd9190615589565b81101561393857600a60008473ffffffffffffffffffffffffffffffffffffffff1673ffffffffffffffffffffffffffffffffffffffff1681526020019081526020016000206001600a60008673ffffffffffffffffffffffffffffffffffffffff1673ffffffffffffffffffffffffffffffffffffffff168152602001908152602001600020805490506138629190615589565b81548110613873576138726151a7565b5b9060005260206000200160009054906101000a900473ffffffffffffffffffffffffffffffffffffffff16600a60008573ffffffffffffffffffffffffffffffffffffffff1673ffffffffffffffffffffffffffffffffffffffff16815260200190815260200160002082815481106138ef576138ee6151a7565b5b9060005260206000200160006101000a81548173ffffffffffffffffffffffffffffffffffffffff021916908373ffffffffffffffffffffffffffffffffffffffff1602179055505b600a60008473ffffffffffffffffffffffffffffffffffffffff1673ffffffffffffffffffffffffffffffffffffffff168152602001908152602001600020805480613987576139866155bd565b5b6001900381819060005260206000200160006101000a81549073ffffffffffffffffffffffffffffffffffffffff02191690559055505050565b600080600090505b8351811015613a5c57826040516020016139e39190615572565b60405160208183030381529060405280519060200120848281518110613a0c57613a0b6151a7565b5b6020026020010151604051602001613a249190615572565b6040516020818303038152906040528051906020012003613a49576001915050613a62565b8080613a5490615205565b9150506139c9565b50600090505b92915050565b60405180606001604052806060815260200160608152602001606081525090565b604051806080016040528060008152602001600073ffffffffffffffffffffffffffffffffffffffff16815260200160008152602001606081525090565b5080546000825560030290600052602060002090810190613ae89190613ba8565b50565b604051806080016040528060008152602001600073ffffffffffffffffffffffffffffffffffffffff16815260200160008152602001606081525090565b60405180610140016040528060008152602001600073ffffffffffffffffffffffffffffffffffffffff1681526020016060815260200160001515815260200160008152602001600015158152602001600081526020016000815260200160006002811115613b9b57613b9a613c9b565b5b8152602001606081525090565b5b80821115613c0e57600080820160006101000a81549060ff02191690556000820160016101000a81549073ffffffffffffffffffffffffffffffffffffffff02191690556001820160009055600282016000613c059190613c12565b50600301613ba9565b5090565b508054613c1e90614d22565b6000825580601f10613c305750613c4f565b601f016020900490600052602060002090810190613c4e9190613c52565b5b50565b5b80821115613c6b576000816000905550600101613c53565b5090565b600081519050919050565b600082825260208201905092915050565b6000819050602082019050919050565b7f4e487b7100000000000000000000000000000000000000000000000000000000600052602160045260246000fd5b60048110613cdb57613cda613c9b565b5b50565b6000819050613cec82613cca565b919050565b6000613cfc82613cde565b9050919050565b613d0c81613cf1565b82525050565b600073ffffffffffffffffffffffffffffffffffffffff82169050919050565b6000613d3d82613d12565b9050919050565b613d4d81613d32565b82525050565b6000819050919050565b613d6681613d53565b82525050565b600081519050919050565b600082825260208201905092915050565b60005b83811015613da6578082015181840152602081019050613d8b565b60008484015250505050565b6000601f19601f8301169050919050565b6000613dce82613d6c565b613dd88185613d77565b9350613de8818560208601613d88565b613df181613db2565b840191505092915050565b6000608083016000830151613e146000860182613d03565b506020830151613e276020860182613d44565b506040830151613e3a6040860182613d5d565b5060608301518482036060860152613e528282613dc3565b9150508091505092915050565b6000613e6b8383613dfc565b905092915050565b6000602082019050919050565b6000613e8b82613c6f565b613e958185613c7a565b935083602082028501613ea785613c8b565b8060005b85811015613ee35784840389528151613ec48582613e5f565b9450613ecf83613e73565b925060208a01995050600181019050613eab565b50829750879550505050505092915050565b60006020820190508181036000830152613f0f8184613e80565b905092915050565b6000604051905090565b600080fd5b600080fd5b613f3481613d53565b8114613f3f57600080fd5b50565b600081359050613f5181613f2b565b92915050565b600060208284031215613f6d57613f6c613f21565b5b6000613f7b84828501613f42565b91505092915050565b613f8d81613d53565b82525050565b6000602082019050613fa86000830184613f84565b92915050565b6000613fb982613d12565b9050919050565b613fc981613fae565b82525050565b600082825260208201905092915050565b6000613feb82613d6c565b613ff58185613fcf565b9350614005818560208601613d88565b61400e81613db2565b840191505092915050565b60008115159050919050565b61402e81614019565b82525050565b6003811061404557614044613c9b565b5b50565b600081905061405682614034565b919050565b600061406682614048565b9050919050565b6140768161405b565b82525050565b600061012082019050614092600083018c613f84565b61409f602083018b613fc0565b81810360408301526140b1818a613fe0565b90506140c06060830189614025565b6140cd6080830188613f84565b6140da60a0830187614025565b6140e760c0830186613f84565b6140f460e0830185613f84565b61410261010083018461406d565b9a9950505050505050505050565b600080fd5b600080fd5b7f4e487b7100000000000000000000000000000000000000000000000000000000600052604160045260246000fd5b61415282613db2565b810181811067ffffffffffffffff821117156141715761417061411a565b5b80604052505050565b6000614184613f17565b90506141908282614149565b919050565b600067ffffffffffffffff8211156141b0576141af61411a565b5b6141b982613db2565b9050602081019050919050565b82818337600083830152505050565b60006141e86141e384614195565b61417a565b90508281526020810184848401111561420457614203614115565b5b61420f8482856141c6565b509392505050565b600082601f83011261422c5761422b614110565b5b813561423c8482602086016141d5565b91505092915050565b60006020828403121561425b5761425a613f21565b5b600082013567ffffffffffffffff81111561427957614278613f26565b5b61428584828501614217565b91505092915050565b600081519050919050565b600082825260208201905092915050565b6000819050602082019050919050565b6142c381614019565b82525050565b6142d28161405b565b82525050565b600081519050919050565b600082825260208201905092915050565b6000819050602082019050919050565b60006143108383613dc3565b905092915050565b6000602082019050919050565b6000614330826142d8565b61433a81856142e3565b93508360208202850161434c856142f4565b8060005b8581101561438857848403895281516143698582614304565b945061437483614318565b925060208a01995050600181019050614350565b50829750879550505050505092915050565b6000610140830160008301516143b36000860182613d5d565b5060208301516143c66020860182613d44565b50604083015184820360408601526143de8282613dc3565b91505060608301516143f360608601826142ba565b5060808301516144066080860182613d5d565b5060a083015161441960a08601826142ba565b5060c083015161442c60c0860182613d5d565b5060e083015161443f60e0860182613d5d565b506101008301516144546101008601826142c9565b5061012083015184820361012086015261446e8282614325565b9150508091505092915050565b6000614487838361439a565b905092915050565b6000602082019050919050565b60006144a78261428e565b6144b18185614299565b9350836020820285016144c3856142aa565b8060005b858110156144ff57848403895281516144e0858261447b565b94506144eb8361448f565b925060208a019950506001810190506144c7565b50829750879550505050505092915050565b6000602082019050818103600083015261452b818461449c565b905092915050565b61453c81613d32565b811461454757600080fd5b50565b60008135905061455981614533565b92915050565b60006020828403121561457557614574613f21565b5b60006145838482850161454a565b91505092915050565b600060608201905081810360008301526145a68186613fe0565b905081810360208301526145ba8185613fe0565b905081810360408301526145ce8184613fe0565b9050949350505050565b600080604083850312156145ef576145ee613f21565b5b60006145fd8582860161454a565b925050602061460e85828601613f42565b9150509250929050565b61462181613cf1565b82525050565b61463081613d32565b82525050565b600060808201905061464b6000830187614618565b6146586020830186614627565b6146656040830185613f84565b81810360608301526146778184613fe0565b905095945050505050565b6000606083016000830151848203600086015261469f8282613dc3565b915050602083015184820360208601526146b98282613dc3565b915050604083015184820360408601526146d38282613dc3565b9150508091505092915050565b600060208201905081810360008301526146fa8184614682565b905092915050565b60008060006060848603121561471b5761471a613f21565b5b600084013567ffffffffffffffff81111561473957614738613f26565b5b61474586828701614217565b935050602084013567ffffffffffffffff81111561476657614765613f26565b5b61477286828701614217565b925050604084013567ffffffffffffffff81111561479357614792613f26565b5b61479f86828701614217565b9150509250925092565b600080604083850312156147c0576147bf613f21565b5b60006147ce8582860161454a565b92505060206147df8582860161454a565b9150509250929050565b60006020820190506147fe6000830184614025565b92915050565b6000806040838503121561481b5761481a613f21565b5b600061482985828601613f42565b925050602083013567ffffffffffffffff81111561484a57614849613f26565b5b61485685828601614217565b9150509250929050565b600081519050919050565b600082825260208201905092915050565b6000819050602082019050919050565b61489581613fae565b82525050565b60006080830160008301516148b36000860182613d5d565b5060208301516148c6602086018261488c565b5060408301516148d96040860182613d5d565b50606083015184820360608601526148f18282613dc3565b9150508091505092915050565b600061490a838361489b565b905092915050565b6000602082019050919050565b600061492a82614860565b614934818561486b565b9350836020820285016149468561487c565b8060005b85811015614982578484038952815161496385826148fe565b945061496e83614912565b925060208a0199505060018101905061494a565b50829750879550505050505092915050565b600060208201905081810360008301526149ae818461491f565b905092915050565b6149bf81614019565b81146149ca57600080fd5b50565b6000813590506149dc816149b6565b92915050565b6000806000606084860312156149fb576149fa613f21565b5b600084013567ffffffffffffffff811115614a1957614a18613f26565b5b614a2586828701614217565b9350506020614a36868287016149cd565b9250506040614a4786828701613f42565b9150509250925092565b6000608082019050614a666000830187613f84565b614a736020830186613fc0565b614a806040830185613f84565b8181036060830152614a928184613fe0565b905095945050505050565b6000602082019050614ab26000830184614627565b92915050565b600081519050919050565b600082825260208201905092915050565b6000819050602082019050919050565b6000608083016000830151614afc6000860182613d5d565b506020830151614b0f6020860182613d44565b506040830151614b226040860182613d5d565b5060608301518482036060860152614b3a8282613dc3565b9150508091505092915050565b6000614b538383614ae4565b905092915050565b6000602082019050919050565b6000614b7382614ab8565b614b7d8185614ac3565b935083602082028501614b8f85614ad4565b8060005b85811015614bcb5784840389528151614bac8582614b47565b9450614bb783614b5b565b925060208a01995050600181019050614b93565b50829750879550505050505092915050565b60006020820190508181036000830152614bf78184614b68565b905092915050565b60008060408385031215614c1657614c15613f21565b5b6000614c2485828601613f42565b9250506020614c3585828601613f42565b9150509250929050565b6000608082019050614c546000830187613f84565b614c616020830186614627565b614c6e6040830185613f84565b8181036060830152614c808184613fe0565b905095945050505050565b600060c082019050614ca06000830189613f84565b614cad6020830188614627565b8181036040830152614cbf8187613fe0565b9050614cce6060830186614025565b614cdb6080830185613f84565b614ce860a0830184614025565b979650505050505050565b7f4e487b7100000000000000000000000000000000000000000000000000000000600052602260045260246000fd5b60006002820490506001821680614d3a57607f821691505b602082108103614d4d57614d4c614cf3565b5b50919050565b7f596f7520617265206e6f7420746865206f776e6572206f662074686520706f7360008201527f7400000000000000000000000000000000000000000000000000000000000000602082015250565b6000614daf602183613fcf565b9150614dba82614d53565b604082019050919050565b60006020820190508181036000830152614dde81614da2565b9050919050565b7f596f752063616e6e6f7420626c6f636b20796f757273656c6600000000000000600082015250565b6000614e1b601983613fcf565b9150614e2682614de5565b602082019050919050565b60006020820190508181036000830152614e4a81614e0e565b9050919050565b60008190508160005260206000209050919050565b60006020601f8301049050919050565b600082821b905092915050565b600060088302614eb37fffffffffffffffffffffffffffffffffffffffffffffffffffffffffffffffff82614e76565b614ebd8683614e76565b95508019841693508086168417925050509392505050565b6000819050919050565b6000614efa614ef5614ef084613d53565b614ed5565b613d53565b9050919050565b6000819050919050565b614f1483614edf565b614f28614f2082614f01565b848454614e83565b825550505050565b600090565b614f3d614f30565b614f48818484614f0b565b505050565b5b81811015614f6c57614f61600082614f35565b600181019050614f4e565b5050565b601f821115614fb157614f8281614e51565b614f8b84614e66565b81016020851015614f9a578190505b614fae614fa685614e66565b830182614f4d565b50505b505050565b600082821c905092915050565b6000614fd460001984600802614fb6565b1980831691505092915050565b6000614fed8383614fc3565b9150826002028217905092915050565b61500682613d6c565b67ffffffffffffffff81111561501f5761501e61411a565b5b6150298254614d22565b615034828285614f70565b600060209050601f8311600181146150675760008415615055578287015190505b61505f8582614fe1565b8655506150c7565b601f19841661507586614e51565b60005b8281101561509d57848901518255600182019150602085019450602081019050615078565b868310156150ba57848901516150b6601f891682614fc3565b8355505b6001600288020188555050505b505050505050565b7f506f73742069732064656c657465640000000000000000000000000000000000600082015250565b6000615105600f83613fcf565b9150615110826150cf565b602082019050919050565b60006020820190508181036000830152615134816150f8565b9050919050565b7f506f7374206973206e6f74207061696400000000000000000000000000000000600082015250565b6000615171601083613fcf565b915061517c8261513b565b602082019050919050565b600060208201905081810360008301526151a081615164565b9050919050565b7f4e487b7100000000000000000000000000000000000000000000000000000000600052603260045260246000fd5b7f4e487b7100000000000000000000000000000000000000000000000000000000600052601160045260246000fd5b600061521082613d53565b91507fffffffffffffffffffffffffffffffffffffffffffffffffffffffffffffffff8203615242576152416151d6565b5b600182019050919050565b7f596f752063616e6e6f7420666f6c6c6f7720796f757273656c66000000000000600082015250565b6000615283601a83613fcf565b915061528e8261524d565b602082019050919050565b600060208201905081810360008301526152b281615276565b9050919050565b7f596f752061726520616c726561647920666f6c6c6f77696e672074686973207560008201527f7365720000000000000000000000000000000000000000000000000000000000602082015250565b6000615315602383613fcf565b9150615320826152b9565b604082019050919050565b6000602082019050818103600083015261534481615308565b9050919050565b7f706f73742069732064656c657465640000000000000000000000000000000000600082015250565b6000615381600f83613fcf565b915061538c8261534b565b602082019050919050565b600060208201905081810360008301526153b081615374565b9050919050565b7f496e76616c69642074697020616d6f756e740000000000000000000000000000600082015250565b60006153ed601283613fcf565b91506153f8826153b7565b602082019050919050565b6000602082019050818103600083015261541c816153e0565b9050919050565b7f596f752063616e6e6f742074697020796f7572206f776e20706f737400000000600082015250565b6000615459601c83613fcf565b915061546482615423565b602082019050919050565b600060208201905081810360008301526154888161544c565b9050919050565b7f596f7520617265206e6f7420666f6c6c6f77696e672074686973207573657200600082015250565b60006154c5601f83613fcf565b91506154d08261548f565b602082019050919050565b600060208201905081810360008301526154f4816154b8565b9050919050565b600081905092915050565b50565b60006155166000836154fb565b915061552182615506565b600082019050919050565b600061553782615509565b9150819050919050565b600061554c82613d6c565b61555681856154fb565b9350615566818560208601613d88565b80840191505092915050565b600061557e8284615541565b915081905092915050565b600061559482613d53565b915061559f83613d53565b92508282039050818111156155b7576155b66151d6565b5b92915050565b7f4e487b7100000000000000000000000000000000000000000000000000000000600052603160045260246000fdfea26469706673582212202f87640f0f89e7aa0e9578e27de20abfc1cb7ca0f9aa1be03150b145f542b6e464736f6c63430008130033",
  "linkReferences": {},
  "deployedLinkReferences": {}
}