{
  "_format": "hh-sol-artifact-1",
  "contractName": "CommentManagement",
  "sourceName": "contracts/CommentManagement.sol",
  "abi": [
    {
      "inputs": [
        {
          "internalType": "uint256",
          "name": "_postId",
          "type": "uint256"
        },
        {
          "internalType": "string",
          "name": "_commentText",
          "type": "string"
        }
      ],
      "name": "addComment",
      "outputs": [],
      "stateMutability": "nonpayable",
      "type": "function"
    },
    {
      "inputs": [],
      "name": "commentCounter",
      "outputs": [
        {
          "internalType": "uint256",
          "name": "_value",
          "type": "uint256"
        }
      ],
      "stateMutability": "view",
      "type": "function"
    },
    {
      "inputs": [
        {
          "internalType": "uint256",
          "name": "",
          "type": "uint256"
        }
      ],
      "name": "comments",
      "outputs": [
        {
          "internalType": "uint256",
          "name": "id",
          "type": "uint256"
        },
        {
          "internalType": "address payable",
          "name": "commenter",
          "type": "address"
        },
        {
          "internalType": "uint256",
          "name": "postId",
          "type": "uint256"
        },
        {
          "internalType": "string",
          "name": "commentText",
          "type": "string"
        }
      ],
      "stateMutability": "view",
      "type": "function"
    },
    {
      "inputs": [],
      "name": "postCounter",
      "outputs": [
        {
          "internalType": "uint256",
          "name": "_value",
          "type": "uint256"
        }
      ],
      "stateMutability": "view",
      "type": "function"
    },
    {
      "inputs": [
        {
          "internalType": "uint256",
          "name": "",
          "type": "uint256"
        },
        {
          "internalType": "uint256",
          "name": "",
          "type": "uint256"
        }
      ],
      "name": "postToComments",
      "outputs": [
        {
          "internalType": "uint256",
          "name": "id",
          "type": "uint256"
        },
        {
          "internalType": "address payable",
          "name": "commenter",
          "type": "address"
        },
        {
          "internalType": "uint256",
          "name": "postId",
          "type": "uint256"
        },
        {
          "internalType": "string",
          "name": "commentText",
          "type": "string"
        }
      ],
      "stateMutability": "view",
      "type": "function"
    },
    {
      "inputs": [
        {
          "internalType": "uint256",
          "name": "",
          "type": "uint256"
        }
      ],
      "name": "posts",
      "outputs": [
        {
          "internalType": "uint256",
          "name": "id",
          "type": "uint256"
        },
        {
          "internalType": "address payable",
          "name": "username",
          "type": "address"
        },
        {
          "internalType": "string",
          "name": "postText",
          "type": "string"
        },
        {
          "internalType": "bool",
          "name": "isPaid",
          "type": "bool"
        },
        {
          "internalType": "uint256",
          "name": "viewPrice",
          "type": "uint256"
        },
        {
          "internalType": "bool",
          "name": "isDeleted",
          "type": "bool"
        },
        {
          "internalType": "uint256",
          "name": "likes",
          "type": "uint256"
        },
        {
          "internalType": "uint256",
          "name": "dislikes",
          "type": "uint256"
        },
        {
          "internalType": "enum DataTypes.Visibility",
          "name": "visibility",
          "type": "uint8"
        }
      ],
      "stateMutability": "view",
      "type": "function"
    },
    {
      "inputs": [],
      "name": "reportCounter",
      "outputs": [
        {
          "internalType": "uint256",
          "name": "_value",
          "type": "uint256"
        }
      ],
      "stateMutability": "view",
      "type": "function"
    },
    {
      "inputs": [
        {
          "internalType": "uint256",
          "name": "_postId",
          "type": "uint256"
        }
      ],
      "name": "viewComments",
      "outputs": [
        {
          "components": [
            {
              "internalType": "uint256",
              "name": "id",
              "type": "uint256"
            },
            {
              "internalType": "address payable",
              "name": "commenter",
              "type": "address"
            },
            {
              "internalType": "uint256",
              "name": "postId",
              "type": "uint256"
            },
            {
              "internalType": "string",
              "name": "commentText",
              "type": "string"
            }
          ],
          "internalType": "struct DataTypes.Comment[]",
          "name": "",
          "type": "tuple[]"
        }
      ],
      "stateMutability": "view",
      "type": "function"
    }
  ],
  "bytecode": "0x608060405234801561001057600080fd5b506112a9806100206000396000f3fe608060405234801561001057600080fd5b50600436106100885760003560e01c8063aa7e56831161005b578063aa7e568314610146578063b608c6e814610162578063b8c0a1ef14610195578063b9bc38f2146101b357610088565b806309b3d75e1461008d5780630b1e7f83146100ab578063845e238f146100e35780638ebb4c1514610113575b600080fd5b6100956101d1565b6040516100a291906108de565b60405180910390f35b6100c560048036038101906100c09190610939565b6101dd565b6040516100da99989796959493929190610ac9565b60405180910390f35b6100fd60048036038101906100f89190610939565b6102fa565b60405161010a9190610cea565b60405180910390f35b61012d60048036038101906101289190610939565b610468565b60405161013d9493929190610d0c565b60405180910390f35b610160600480360381019061015b9190610e8d565b610540565b005b61017c60048036038101906101779190610ee9565b610756565b60405161018c9493929190610d0c565b60405180910390f35b61019d61084b565b6040516101aa91906108de565b60405180910390f35b6101bb610857565b6040516101c891906108de565b60405180910390f35b60018060000154905081565b60006020528060005260406000206000915090508060000154908060010160009054906101000a900473ffffffffffffffffffffffffffffffffffffffff169080600201805461022c90610f58565b80601f016020809104026020016040519081016040528092919081815260200182805461025890610f58565b80156102a55780601f1061027a576101008083540402835291602001916102a5565b820191906000526020600020905b81548152906001019060200180831161028857829003601f168201915b5050505050908060030160009054906101000a900460ff16908060040154908060050160009054906101000a900460ff169080600601549080600701549080600a0160009054906101000a900460ff16905089565b606060056000838152602001908152602001600020805480602002602001604051908101604052809291908181526020016000905b8282101561045d5783829060005260206000209060040201604051806080016040529081600082015481526020016001820160009054906101000a900473ffffffffffffffffffffffffffffffffffffffff1673ffffffffffffffffffffffffffffffffffffffff1673ffffffffffffffffffffffffffffffffffffffff168152602001600282015481526020016003820180546103cc90610f58565b80601f01602080910402602001604051908101604052809291908181526020018280546103f890610f58565b80156104455780601f1061041a57610100808354040283529160200191610445565b820191906000526020600020905b81548152906001019060200180831161042857829003601f168201915b5050505050815250508152602001906001019061032f565b505050509050919050565b60046020528060005260406000206000915090508060000154908060010160009054906101000a900473ffffffffffffffffffffffffffffffffffffffff16908060020154908060030180546104bd90610f58565b80601f01602080910402602001604051908101604052809291908181526020018280546104e990610f58565b80156105365780601f1061050b57610100808354040283529160200191610536565b820191906000526020600020905b81548152906001019060200180831161051957829003601f168201915b5050505050905084565b60008083815260200190815260200160002060050160009054906101000a900460ff16156105a3576040517f08c379a000000000000000000000000000000000000000000000000000000000815260040161059a90610fd5565b60405180910390fd5b6105ad6002610863565b60006105b96002610879565b90506105c3610887565b8181600001818152505033816020019073ffffffffffffffffffffffffffffffffffffffff16908173ffffffffffffffffffffffffffffffffffffffff16815250508381604001818152505082816060018190525080600460008481526020019081526020016000206000820151816000015560208201518160010160006101000a81548173ffffffffffffffffffffffffffffffffffffffff021916908373ffffffffffffffffffffffffffffffffffffffff16021790555060408201518160020155606082015181600301908161069c91906111a1565b50905050600560008581526020019081526020016000208190806001815401808255809150506001900390600052602060002090600402016000909190919091506000820151816000015560208201518160010160006101000a81548173ffffffffffffffffffffffffffffffffffffffff021916908373ffffffffffffffffffffffffffffffffffffffff16021790555060408201518160020155606082015181600301908161074d91906111a1565b50505050505050565b6005602052816000526040600020818154811061077257600080fd5b9060005260206000209060040201600091509150508060000154908060010160009054906101000a900473ffffffffffffffffffffffffffffffffffffffff16908060020154908060030180546107c890610f58565b80601f01602080910402602001604051908101604052809291908181526020018280546107f490610f58565b80156108415780601f1061081657610100808354040283529160200191610841565b820191906000526020600020905b81548152906001019060200180831161082457829003601f168201915b5050505050905084565b60028060000154905081565b60038060000154905081565b6001816000016000828254019250508190555050565b600081600001549050919050565b604051806080016040528060008152602001600073ffffffffffffffffffffffffffffffffffffffff16815260200160008152602001606081525090565b6000819050919050565b6108d8816108c5565b82525050565b60006020820190506108f360008301846108cf565b92915050565b6000604051905090565b600080fd5b600080fd5b610916816108c5565b811461092157600080fd5b50565b6000813590506109338161090d565b92915050565b60006020828403121561094f5761094e610903565b5b600061095d84828501610924565b91505092915050565b600073ffffffffffffffffffffffffffffffffffffffff82169050919050565b600061099182610966565b9050919050565b6109a181610986565b82525050565b600081519050919050565b600082825260208201905092915050565b60005b838110156109e15780820151818401526020810190506109c6565b60008484015250505050565b6000601f19601f8301169050919050565b6000610a09826109a7565b610a1381856109b2565b9350610a238185602086016109c3565b610a2c816109ed565b840191505092915050565b60008115159050919050565b610a4c81610a37565b82525050565b7f4e487b7100000000000000000000000000000000000000000000000000000000600052602160045260246000fd5b60038110610a9257610a91610a52565b5b50565b6000819050610aa382610a81565b919050565b6000610ab382610a95565b9050919050565b610ac381610aa8565b82525050565b600061012082019050610adf600083018c6108cf565b610aec602083018b610998565b8181036040830152610afe818a6109fe565b9050610b0d6060830189610a43565b610b1a60808301886108cf565b610b2760a0830187610a43565b610b3460c08301866108cf565b610b4160e08301856108cf565b610b4f610100830184610aba565b9a9950505050505050505050565b600081519050919050565b600082825260208201905092915050565b6000819050602082019050919050565b610b92816108c5565b82525050565b610ba181610986565b82525050565b600082825260208201905092915050565b6000610bc3826109a7565b610bcd8185610ba7565b9350610bdd8185602086016109c3565b610be6816109ed565b840191505092915050565b6000608083016000830151610c096000860182610b89565b506020830151610c1c6020860182610b98565b506040830151610c2f6040860182610b89565b5060608301518482036060860152610c478282610bb8565b9150508091505092915050565b6000610c608383610bf1565b905092915050565b6000602082019050919050565b6000610c8082610b5d565b610c8a8185610b68565b935083602082028501610c9c85610b79565b8060005b85811015610cd85784840389528151610cb98582610c54565b9450610cc483610c68565b925060208a01995050600181019050610ca0565b50829750879550505050505092915050565b60006020820190508181036000830152610d048184610c75565b905092915050565b6000608082019050610d2160008301876108cf565b610d2e6020830186610998565b610d3b60408301856108cf565b8181036060830152610d4d81846109fe565b905095945050505050565b600080fd5b600080fd5b7f4e487b7100000000000000000000000000000000000000000000000000000000600052604160045260246000fd5b610d9a826109ed565b810181811067ffffffffffffffff82111715610db957610db8610d62565b5b80604052505050565b6000610dcc6108f9565b9050610dd88282610d91565b919050565b600067ffffffffffffffff821115610df857610df7610d62565b5b610e01826109ed565b9050602081019050919050565b82818337600083830152505050565b6000610e30610e2b84610ddd565b610dc2565b905082815260208101848484011115610e4c57610e4b610d5d565b5b610e57848285610e0e565b509392505050565b600082601f830112610e7457610e73610d58565b5b8135610e84848260208601610e1d565b91505092915050565b60008060408385031215610ea457610ea3610903565b5b6000610eb285828601610924565b925050602083013567ffffffffffffffff811115610ed357610ed2610908565b5b610edf85828601610e5f565b9150509250929050565b60008060408385031215610f0057610eff610903565b5b6000610f0e85828601610924565b9250506020610f1f85828601610924565b9150509250929050565b7f4e487b7100000000000000000000000000000000000000000000000000000000600052602260045260246000fd5b60006002820490506001821680610f7057607f821691505b602082108103610f8357610f82610f29565b5b50919050565b7f506f73742069732064656c657465640000000000000000000000000000000000600082015250565b6000610fbf600f836109b2565b9150610fca82610f89565b602082019050919050565b60006020820190508181036000830152610fee81610fb2565b9050919050565b60008190508160005260206000209050919050565b60006020601f8301049050919050565b600082821b905092915050565b6000600883026110577fffffffffffffffffffffffffffffffffffffffffffffffffffffffffffffffff8261101a565b611061868361101a565b95508019841693508086168417925050509392505050565b6000819050919050565b600061109e611099611094846108c5565b611079565b6108c5565b9050919050565b6000819050919050565b6110b883611083565b6110cc6110c4826110a5565b848454611027565b825550505050565b600090565b6110e16110d4565b6110ec8184846110af565b505050565b5b81811015611110576111056000826110d9565b6001810190506110f2565b5050565b601f8211156111555761112681610ff5565b61112f8461100a565b8101602085101561113e578190505b61115261114a8561100a565b8301826110f1565b50505b505050565b600082821c905092915050565b60006111786000198460080261115a565b1980831691505092915050565b60006111918383611167565b9150826002028217905092915050565b6111aa826109a7565b67ffffffffffffffff8111156111c3576111c2610d62565b5b6111cd8254610f58565b6111d8828285611114565b600060209050601f83116001811461120b57600084156111f9578287015190505b6112038582611185565b86555061126b565b601f19841661121986610ff5565b60005b828110156112415784890151825560018201915060208501945060208101905061121c565b8683101561125e578489015161125a601f891682611167565b8355505b6001600288020188555050505b50505050505056fea2646970667358221220ec53ca1c1c1932a4d74c221f474b43cacefd4039d32668ff8dc851ab2b17a5ac64736f6c63430008130033",
  "linkReferences": {},
  "deployedLinkReferences": {}
}