{
  "_format": "hh-sol-artifact-1",
  "contractName": "ProfileManagement",
  "sourceName": "contracts/ProfileManagement.sol",
  "abi": [
    {
      "inputs": [
        {
          "internalType": "string",
          "name": "_name",
          "type": "string"
        },
        {
          "internalType": "string",
          "name": "_bio",
          "type": "string"
        },
        {
          "internalType": "string",
          "name": "_imageLink",
          "type": "string"
        }
      ],
      "name": "setProfile",
      "outputs": [],
      "stateMutability": "nonpayable",
      "type": "function"
    },
    {
      "inputs": [
        {
          "internalType": "address",
          "name": "",
          "type": "address"
        }
      ],
      "name": "userProfiles",
      "outputs": [
        {
          "internalType": "string",
          "name": "name",
          "type": "string"
        },
        {
          "internalType": "string",
          "name": "bio",
          "type": "string"
        },
        {
          "internalType": "string",
          "name": "profileImageLink",
          "type": "string"
        }
      ],
      "stateMutability": "view",
      "type": "function"
    },
    {
      "inputs": [
        {
          "internalType": "address",
          "name": "_user",
          "type": "address"
        }
      ],
      "name": "viewProfile",
      "outputs": [
        {
          "components": [
            {
              "internalType": "string",
              "name": "name",
              "type": "string"
            },
            {
              "internalType": "string",
              "name": "bio",
              "type": "string"
            },
            {
              "internalType": "string",
              "name": "profileImageLink",
              "type": "string"
            }
          ],
          "internalType": "struct DataTypes.Profile",
          "name": "",
          "type": "tuple"
        }
      ],
      "stateMutability": "view",
      "type": "function"
    }
  ],
  "bytecode": "0x608060405234801561001057600080fd5b50610ca1806100206000396000f3fe608060405234801561001057600080fd5b50600436106100415760003560e01c8063332d56d71461004657806346e081411461007857806352640314146100a8575b600080fd5b610060600480360381019061005b91906105d4565b6100c4565b60405161006f93929190610691565b60405180910390f35b610092600480360381019061008d91906105d4565b610286565b60405161009f9190610785565b60405180910390f35b6100c260048036038101906100bd91906108dc565b610494565b005b60006020528060005260406000206000915090508060000180546100e7906109b2565b80601f0160208091040260200160405190810160405280929190818152602001828054610113906109b2565b80156101605780601f1061013557610100808354040283529160200191610160565b820191906000526020600020905b81548152906001019060200180831161014357829003601f168201915b505050505090806001018054610175906109b2565b80601f01602080910402602001604051908101604052809291908181526020018280546101a1906109b2565b80156101ee5780601f106101c3576101008083540402835291602001916101ee565b820191906000526020600020905b8154815290600101906020018083116101d157829003601f168201915b505050505090806002018054610203906109b2565b80601f016020809104026020016040519081016040528092919081815260200182805461022f906109b2565b801561027c5780601f106102515761010080835404028352916020019161027c565b820191906000526020600020905b81548152906001019060200180831161025f57829003601f168201915b5050505050905083565b61028e610541565b6000808373ffffffffffffffffffffffffffffffffffffffff1673ffffffffffffffffffffffffffffffffffffffff1681526020019081526020016000206040518060600160405290816000820180546102e7906109b2565b80601f0160208091040260200160405190810160405280929190818152602001828054610313906109b2565b80156103605780601f1061033557610100808354040283529160200191610360565b820191906000526020600020905b81548152906001019060200180831161034357829003601f168201915b50505050508152602001600182018054610379906109b2565b80601f01602080910402602001604051908101604052809291908181526020018280546103a5906109b2565b80156103f25780601f106103c7576101008083540402835291602001916103f2565b820191906000526020600020905b8154815290600101906020018083116103d557829003601f168201915b5050505050815260200160028201805461040b906109b2565b80601f0160208091040260200160405190810160405280929190818152602001828054610437906109b2565b80156104845780601f1061045957610100808354040283529160200191610484565b820191906000526020600020905b81548152906001019060200180831161046757829003601f168201915b5050505050815250509050919050565b61049c610541565b838160000181905250828160200181905250818160400181905250806000803373ffffffffffffffffffffffffffffffffffffffff1673ffffffffffffffffffffffffffffffffffffffff168152602001908152602001600020600082015181600001908161050b9190610b99565b5060208201518160010190816105219190610b99565b5060408201518160020190816105379190610b99565b5090505050505050565b60405180606001604052806060815260200160608152602001606081525090565b6000604051905090565b600080fd5b600080fd5b600073ffffffffffffffffffffffffffffffffffffffff82169050919050565b60006105a182610576565b9050919050565b6105b181610596565b81146105bc57600080fd5b50565b6000813590506105ce816105a8565b92915050565b6000602082840312156105ea576105e961056c565b5b60006105f8848285016105bf565b91505092915050565b600081519050919050565b600082825260208201905092915050565b60005b8381101561063b578082015181840152602081019050610620565b60008484015250505050565b6000601f19601f8301169050919050565b600061066382610601565b61066d818561060c565b935061067d81856020860161061d565b61068681610647565b840191505092915050565b600060608201905081810360008301526106ab8186610658565b905081810360208301526106bf8185610658565b905081810360408301526106d38184610658565b9050949350505050565b600082825260208201905092915050565b60006106f982610601565b61070381856106dd565b935061071381856020860161061d565b61071c81610647565b840191505092915050565b6000606083016000830151848203600086015261074482826106ee565b9150506020830151848203602086015261075e82826106ee565b9150506040830151848203604086015261077882826106ee565b9150508091505092915050565b6000602082019050818103600083015261079f8184610727565b905092915050565b600080fd5b600080fd5b7f4e487b7100000000000000000000000000000000000000000000000000000000600052604160045260246000fd5b6107e982610647565b810181811067ffffffffffffffff82111715610808576108076107b1565b5b80604052505050565b600061081b610562565b905061082782826107e0565b919050565b600067ffffffffffffffff821115610847576108466107b1565b5b61085082610647565b9050602081019050919050565b82818337600083830152505050565b600061087f61087a8461082c565b610811565b90508281526020810184848401111561089b5761089a6107ac565b5b6108a684828561085d565b509392505050565b600082601f8301126108c3576108c26107a7565b5b81356108d384826020860161086c565b91505092915050565b6000806000606084860312156108f5576108f461056c565b5b600084013567ffffffffffffffff81111561091357610912610571565b5b61091f868287016108ae565b935050602084013567ffffffffffffffff8111156109405761093f610571565b5b61094c868287016108ae565b925050604084013567ffffffffffffffff81111561096d5761096c610571565b5b610979868287016108ae565b9150509250925092565b7f4e487b7100000000000000000000000000000000000000000000000000000000600052602260045260246000fd5b600060028204905060018216806109ca57607f821691505b6020821081036109dd576109dc610983565b5b50919050565b60008190508160005260206000209050919050565b60006020601f8301049050919050565b600082821b905092915050565b600060088302610a457fffffffffffffffffffffffffffffffffffffffffffffffffffffffffffffffff82610a08565b610a4f8683610a08565b95508019841693508086168417925050509392505050565b6000819050919050565b6000819050919050565b6000610a96610a91610a8c84610a67565b610a71565b610a67565b9050919050565b6000819050919050565b610ab083610a7b565b610ac4610abc82610a9d565b848454610a15565b825550505050565b600090565b610ad9610acc565b610ae4818484610aa7565b505050565b5b81811015610b0857610afd600082610ad1565b600181019050610aea565b5050565b601f821115610b4d57610b1e816109e3565b610b27846109f8565b81016020851015610b36578190505b610b4a610b42856109f8565b830182610ae9565b50505b505050565b600082821c905092915050565b6000610b7060001984600802610b52565b1980831691505092915050565b6000610b898383610b5f565b9150826002028217905092915050565b610ba282610601565b67ffffffffffffffff811115610bbb57610bba6107b1565b5b610bc582546109b2565b610bd0828285610b0c565b600060209050601f831160018114610c035760008415610bf1578287015190505b610bfb8582610b7d565b865550610c63565b601f198416610c11866109e3565b60005b82811015610c3957848901518255600182019150602085019450602081019050610c14565b86831015610c565784890151610c52601f891682610b5f565b8355505b6001600288020188555050505b50505050505056fea2646970667358221220ff71db90cf9e2b18ec77d16037b86447a07157fb60897a4dc18414cbcc1a4e5c64736f6c63430008130033",
  "linkReferences": {},
  "deployedLinkReferences": {}
}